{
	"data": {
		"bytecode": {
			"linkReferences": {},
			"object": "608060405234801561001057600080fd5b50615bfb806100206000396000f3fe60806040523480156200001157600080fd5b50600436106200003a5760003560e01c806334f359f9146200003f5780635484d7b7146200007f575b600080fd5b6200005662000050366004620002e6565b62000096565b60405173ffffffffffffffffffffffffffffffffffffffff909116815260200160405180910390f35b6200005662000090366004620003ff565b62000135565b60008085858585604051620000ab90620001c6565b620000ba9493929190620004c3565b604051809103906000f080158015620000d7573d6000803e3d6000fd5b5090508073ffffffffffffffffffffffffffffffffffffffff167f7e1222e979caa9886351e1138b629acafc7e956fc96c665a8d4fe6e43871aea38787604051620001249291906200051a565b60405180910390a295945050505050565b600080858585856040516200014a90620001d4565b6200015994939291906200059f565b604051809103906000f08015801562000176573d6000803e3d6000fd5b5060405173ffffffffffffffffffffffffffffffffffffffff8581168252919250908216907f0c446f8ae4449add08d34b83b3cb07af9739d6af0e2e97158b2af42dc583c8ba9060200162000124565b612eab80620005f783390190565b61272480620034a283390190565b7f4e487b7100000000000000000000000000000000000000000000000000000000600052604160045260246000fd5b604051601f8201601f1916810167ffffffffffffffff811182821017156200023d576200023d620001e2565b604052919050565b600082601f8301126200025757600080fd5b813567ffffffffffffffff811115620002745762000274620001e2565b620002896020601f19601f8401160162000211565b8181528460208386010111156200029f57600080fd5b816020850160208301376000918101602001919091529392505050565b803573ffffffffffffffffffffffffffffffffffffffff81168114620002e157600080fd5b919050565b60008060008060808587031215620002fd57600080fd5b843567ffffffffffffffff808211156200031657600080fd5b620003248883890162000245565b955060208701359150808211156200033b57600080fd5b506200034a8782880162000245565b935050604085013591506200036260608601620002bc565b905092959194509250565b600082601f8301126200037f57600080fd5b8135602067ffffffffffffffff8211156200039e576200039e620001e2565b8160051b620003af82820162000211565b9283528481018201928281019087851115620003ca57600080fd5b83870192505b84831015620003f457620003e483620002bc565b82529183019190830190620003d0565b979650505050505050565b600080600080608085870312156200041657600080fd5b84359350602085013567ffffffffffffffff808211156200043657600080fd5b62000444888389016200036d565b945060408701359150808211156200045b57600080fd5b506200046a878288016200036d565b9250506200036260608601620002bc565b6000815180845260005b81811015620004a35760208185018101518683018201520162000485565b506000602082860101526020601f19601f83011685010191505092915050565b608081526000620004d860808301876200047b565b8281036020840152620004ec81876200047b565b91505083604083015273ffffffffffffffffffffffffffffffffffffffff8316606083015295945050505050565b6040815260006200052f60408301856200047b565b82810360208401526200054381856200047b565b95945050505050565b600081518084526020808501945080840160005b838110156200059457815173ffffffffffffffffffffffffffffffffffffffff168752958201959082019060010162000560565b509495945050505050565b848152608060208201526000620005ba60808301866200054c565b8281036040840152620005ce81866200054c565b91505073ffffffffffffffffffffffffffffffffffffffff831660608301529594505050505056fe6101406040523480156200001257600080fd5b5060405162002eab38038062002eab8339810160408190526200003591620008a7565b6040805180820190915260018152603160f81b60208201528490819081866003620000618382620009ca565b506004620000708282620009ca565b5050825160209384012082519284019290922060e08390526101008190524660a0818152604080517f8b73c3c69bb8fe3d512ecc4cf759cc79239f7b179b0ffacaa9a75d522b39400f818901819052818301979097526060810194909452608080850193909352308483018190528151808603909301835260c09485019091528151919096012090529290925261012052506200010f90503362000149565b6200013481620001226012600a62000ba9565b6200012e908562000bba565b6200019b565b6200013f81620001ab565b5050505062000c00565b600a80546001600160a01b038381166001600160a01b0319831681179093556040519116919082907f8be0079c531659141344cd1fd0a4f28419497f9722a3daafe3b4186f6b6457e090600090a35050565b620001a782826200022e565b5050565b620001b5620002d6565b6001600160a01b038116620002205760405162461bcd60e51b815260206004820152602660248201527f4f776e61626c653a206e6577206f776e657220697320746865207a65726f206160448201526564647265737360d01b60648201526084015b60405180910390fd5b6200022b8162000149565b50565b6200023a828262000334565b6001600160e01b036200024e620004018216565b1115620002b75760405162461bcd60e51b815260206004820152603060248201527f4552433230566f7465733a20746f74616c20737570706c79207269736b73206f60448201526f766572666c6f77696e6720766f74657360801b606482015260840162000217565b620002d0600962000c066200040760201b17836200041e565b50505050565b600a546001600160a01b03163314620003325760405162461bcd60e51b815260206004820181905260248201527f4f776e61626c653a2063616c6c6572206973206e6f7420746865206f776e6572604482015260640162000217565b565b6001600160a01b0382166200038c5760405162461bcd60e51b815260206004820152601f60248201527f45524332303a206d696e7420746f20746865207a65726f206164647265737300604482015260640162000217565b8060026000828254620003a0919062000bd4565b90915550506001600160a01b038216600081815260208181526040808320805486019055518481527fddf252ad1be2c89b69c2b068fc378daa952ba7f163c4a11628f55a4df523b3ef910160405180910390a3620001a7600083836200059a565b60025490565b600062000415828462000bd4565b90505b92915050565b825460009081908181156200047e576200044d876200043f60018562000bea565b600091825260209091200190565b60408051808201909152905463ffffffff8116825264010000000090046001600160e01b0316602082015262000493565b60408051808201909152600080825260208201525b905080602001516001600160e01b03169350620004b184868860201c565b9250600082118015620004ca5750805163ffffffff1643145b156200051657620004db83620005a7565b620004ed886200043f60018662000bea565b80546001600160e01b03929092166401000000000263ffffffff9092169190911790556200058b565b86604051806040016040528062000533436200061660201b60201c565b63ffffffff1681526020016200054986620005a7565b6001600160e01b0390811690915282546001810184556000938452602093849020835194909301519091166401000000000263ffffffff909316929092179101555b5050935093915050565b505050565b620005958383836200067d565b60006001600160e01b03821115620006125760405162461bcd60e51b815260206004820152602760248201527f53616665436173743a2076616c756520646f65736e27742066697420696e20326044820152663234206269747360c81b606482015260840162000217565b5090565b600063ffffffff821115620006125760405162461bcd60e51b815260206004820152602660248201527f53616665436173743a2076616c756520646f65736e27742066697420696e203360448201526532206269747360d01b606482015260840162000217565b6001600160a01b038381166000908152600760205260408082205485841683529120546200059592918216911683818314801590620006bc5750600081115b1562000595576001600160a01b0383161562000749576001600160a01b038316600090815260086020908152604082208291620007069190620007d4901b62000c1217856200041e565b91509150846001600160a01b031660008051602062002e8b83398151915283836040516200073e929190918252602082015260400190565b60405180910390a250505b6001600160a01b0382161562000595576001600160a01b0382166000908152600860209081526040822082916200078d919062000407901b62000c0617856200041e565b91509150836001600160a01b031660008051602062002e8b8339815191528383604051620007c5929190918252602082015260400190565b60405180910390a25050505050565b600062000415828462000bea565b634e487b7160e01b600052604160045260246000fd5b600082601f8301126200080a57600080fd5b81516001600160401b0380821115620008275762000827620007e2565b604051601f8301601f19908116603f01168101908282118183101715620008525762000852620007e2565b816040528381526020925086838588010111156200086f57600080fd5b600091505b8382101562000893578582018301518183018401529082019062000874565b600093810190920192909252949350505050565b60008060008060808587031215620008be57600080fd5b84516001600160401b0380821115620008d657600080fd5b620008e488838901620007f8565b95506020870151915080821115620008fb57600080fd5b506200090a87828801620007f8565b60408701516060880151919550935090506001600160a01b03811681146200093157600080fd5b939692955090935050565b600181811c908216806200095157607f821691505b6020821081036200097257634e487b7160e01b600052602260045260246000fd5b50919050565b601f8211156200059557600081815260208120601f850160051c81016020861015620009a15750805b601f850160051c820191505b81811015620009c257828155600101620009ad565b505050505050565b81516001600160401b03811115620009e657620009e6620007e2565b620009fe81620009f784546200093c565b8462000978565b602080601f83116001811462000a36576000841562000a1d5750858301515b600019600386901b1c1916600185901b178555620009c2565b600085815260208120601f198616915b8281101562000a675788860151825594840194600190910190840162000a46565b508582101562000a865787850151600019600388901b60f8161c191681555b5050505050600190811b01905550565b634e487b7160e01b600052601160045260246000fd5b600181815b8085111562000aed57816000190482111562000ad15762000ad162000a96565b8085161562000adf57918102915b93841c939080029062000ab1565b509250929050565b60008262000b065750600162000418565b8162000b155750600062000418565b816001811462000b2e576002811462000b395762000b59565b600191505062000418565b60ff84111562000b4d5762000b4d62000a96565b50506001821b62000418565b5060208310610133831016604e8410600b841016171562000b7e575081810a62000418565b62000b8a838362000aac565b806000190482111562000ba15762000ba162000a96565b029392505050565b60006200041560ff84168362000af5565b808202811582820484141762000418576200041862000a96565b8082018082111562000418576200041862000a96565b8181038181111562000418576200041862000a96565b60805160a05160c05160e051610100516101205161223b62000c5060003960006110a3015260006110f2015260006110cd01526000611026015260006110500152600061107a015261223b6000f3fe608060405234801561001057600080fd5b50600436106101c45760003560e01c8063715018a6116100f9578063a457c2d711610097578063d505accf11610071578063d505accf146103e2578063dd62ed3e146103f5578063f1127ed81461042e578063f2fde38b1461046b57600080fd5b8063a457c2d7146103a9578063a9059cbb146103bc578063c3cda520146103cf57600080fd5b80638da5cb5b116100d35780638da5cb5b1461036a5780638e539e8c1461037b57806395d89b411461038e5780639ab24eb01461039657600080fd5b8063715018a61461033c57806379cc6790146103445780637ecebe001461035757600080fd5b80633a46b1a811610166578063587cde1e11610140578063587cde1e146102945780635c19a95c146102d85780636fcfff45146102eb57806370a082311461031357600080fd5b80633a46b1a81461025957806340c10f191461026c57806342966c681461028157600080fd5b806323b872dd116101a257806323b872dd1461021c578063313ce5671461022f5780633644e5151461023e578063395093511461024657600080fd5b806306fdde03146101c9578063095ea7b3146101e757806318160ddd1461020a575b600080fd5b6101d161047e565b6040516101de9190611ee7565b60405180910390f35b6101fa6101f5366004611f51565b610510565b60405190151581526020016101de565b6002545b6040519081526020016101de565b6101fa61022a366004611f7b565b61052a565b604051601281526020016101de565b61020e61054e565b6101fa610254366004611f51565b61055d565b61020e610267366004611f51565b61059c565b61027f61027a366004611f51565b61061b565b005b61027f61028f366004611fb7565b610631565b6102c06102a2366004611fd0565b6001600160a01b039081166000908152600760205260409020541690565b6040516001600160a01b0390911681526020016101de565b61027f6102e6366004611fd0565b61063e565b6102fe6102f9366004611fd0565b610648565b60405163ffffffff90911681526020016101de565b61020e610321366004611fd0565b6001600160a01b031660009081526020819052604090205490565b61027f61066a565b61027f610352366004611f51565b61067e565b61020e610365366004611fd0565b610693565b600a546001600160a01b03166102c0565b61020e610389366004611fb7565b6106b1565b6101d161070d565b61020e6103a4366004611fd0565b61071c565b6101fa6103b7366004611f51565b6107a3565b6101fa6103ca366004611f51565b61084d565b61027f6103dd366004611ffc565b61085b565b61027f6103f0366004612054565b610991565b61020e6104033660046120be565b6001600160a01b03918216600090815260016020908152604080832093909416825291909152205490565b61044161043c3660046120f1565b610af5565b60408051825163ffffffff1681526020928301516001600160e01b031692810192909252016101de565b61027f610479366004611fd0565b610b79565b60606003805461048d90612131565b80601f01602080910402602001604051908101604052809291908181526020018280546104b990612131565b80156105065780601f106104db57610100808354040283529160200191610506565b820191906000526020600020905b8154815290600101906020018083116104e957829003601f168201915b5050505050905090565b60003361051e818585610c1e565b60019150505b92915050565b600033610538858285610d76565b610543858585610e26565b506001949350505050565b6000610558611019565b905090565b3360008181526001602090815260408083206001600160a01b038716845290915281205490919061051e908290869061059790879061217b565b610c1e565b60004382106105f25760405162461bcd60e51b815260206004820152601f60248201527f4552433230566f7465733a20626c6f636b206e6f7420796574206d696e65640060448201526064015b60405180910390fd5b6001600160a01b03831660009081526008602052604090206106149083611140565b9392505050565b610623611237565b61062d8282611291565b5050565b61063b338261129b565b50565b61063b33826112a5565b6001600160a01b03811660009081526008602052604081205461052490611336565b610672611237565b61067c60006113b6565b565b610689823383610d76565b61062d828261129b565b6001600160a01b038116600090815260056020526040812054610524565b60004382106107025760405162461bcd60e51b815260206004820152601f60248201527f4552433230566f7465733a20626c6f636b206e6f7420796574206d696e65640060448201526064016105e9565b610524600983611140565b60606004805461048d90612131565b6001600160a01b0381166000908152600860205260408120548015610790576001600160a01b038316600090815260086020526040902061075e60018361218e565b8154811061076e5761076e6121a1565b60009182526020909120015464010000000090046001600160e01b0316610793565b60005b6001600160e01b03169392505050565b3360008181526001602090815260408083206001600160a01b0387168452909152812054909190838110156108405760405162461bcd60e51b815260206004820152602560248201527f45524332303a2064656372656173656420616c6c6f77616e63652062656c6f7760448201527f207a65726f00000000000000000000000000000000000000000000000000000060648201526084016105e9565b6105438286868403610c1e565b60003361051e818585610e26565b834211156108ab5760405162461bcd60e51b815260206004820152601d60248201527f4552433230566f7465733a207369676e6174757265206578706972656400000060448201526064016105e9565b604080517fe48329057bfd03d55e49b547132e39cffd9c1820ad7b9d4c5307691425d15adf60208201526001600160a01b0388169181019190915260608101869052608081018590526000906109259061091d9060a00160405160208183030381529060405280519060200120611420565b858585611489565b9050610930816114b1565b861461097e5760405162461bcd60e51b815260206004820152601960248201527f4552433230566f7465733a20696e76616c6964206e6f6e63650000000000000060448201526064016105e9565b61098881886112a5565b50505050505050565b834211156109e15760405162461bcd60e51b815260206004820152601d60248201527f45524332305065726d69743a206578706972656420646561646c696e6500000060448201526064016105e9565b60007f6e71edae12b1b97f4d1f60370fef10105fa2faae0126114a169c64845d6126c9888888610a108c6114b1565b6040805160208101969096526001600160a01b0394851690860152929091166060840152608083015260a082015260c0810186905260e0016040516020818303038152906040528051906020012090506000610a6b82611420565b90506000610a7b82878787611489565b9050896001600160a01b0316816001600160a01b031614610ade5760405162461bcd60e51b815260206004820152601e60248201527f45524332305065726d69743a20696e76616c6964207369676e6174757265000060448201526064016105e9565b610ae98a8a8a610c1e565b50505050505050505050565b60408051808201909152600080825260208201526001600160a01b0383166000908152600860205260409020805463ffffffff8416908110610b3957610b396121a1565b60009182526020918290206040805180820190915291015463ffffffff8116825264010000000090046001600160e01b0316918101919091529392505050565b610b81611237565b6001600160a01b038116610bfd5760405162461bcd60e51b815260206004820152602660248201527f4f776e61626c653a206e6577206f776e657220697320746865207a65726f206160448201527f646472657373000000000000000000000000000000000000000000000000000060648201526084016105e9565b61063b816113b6565b6000610614828461217b565b6000610614828461218e565b6001600160a01b038316610c995760405162461bcd60e51b8152602060048201526024808201527f45524332303a20617070726f76652066726f6d20746865207a65726f2061646460448201527f726573730000000000000000000000000000000000000000000000000000000060648201526084016105e9565b6001600160a01b038216610d155760405162461bcd60e51b815260206004820152602260248201527f45524332303a20617070726f766520746f20746865207a65726f20616464726560448201527f737300000000000000000000000000000000000000000000000000000000000060648201526084016105e9565b6001600160a01b0383811660008181526001602090815260408083209487168084529482529182902085905590518481527f8c5be1e5ebec7d5bd14f71427d1e84f3dd0314c0f7b2291e5b200ac8c7c3b925910160405180910390a3505050565b6001600160a01b038381166000908152600160209081526040808320938616835292905220547fffffffffffffffffffffffffffffffffffffffffffffffffffffffffffffffff8114610e205781811015610e135760405162461bcd60e51b815260206004820152601d60248201527f45524332303a20696e73756666696369656e7420616c6c6f77616e636500000060448201526064016105e9565b610e208484848403610c1e565b50505050565b6001600160a01b038316610ea25760405162461bcd60e51b815260206004820152602560248201527f45524332303a207472616e736665722066726f6d20746865207a65726f20616460448201527f647265737300000000000000000000000000000000000000000000000000000060648201526084016105e9565b6001600160a01b038216610f1e5760405162461bcd60e51b815260206004820152602360248201527f45524332303a207472616e7366657220746f20746865207a65726f206164647260448201527f657373000000000000000000000000000000000000000000000000000000000060648201526084016105e9565b6001600160a01b03831660009081526020819052604090205481811015610fad5760405162461bcd60e51b815260206004820152602660248201527f45524332303a207472616e7366657220616d6f756e742065786365656473206260448201527f616c616e6365000000000000000000000000000000000000000000000000000060648201526084016105e9565b6001600160a01b03848116600081815260208181526040808320878703905593871680835291849020805487019055925185815290927fddf252ad1be2c89b69c2b068fc378daa952ba7f163c4a11628f55a4df523b3ef910160405180910390a3610e208484846114de565b6000306001600160a01b037f00000000000000000000000000000000000000000000000000000000000000001614801561107257507f000000000000000000000000000000000000000000000000000000000000000046145b1561109c57507f000000000000000000000000000000000000000000000000000000000000000090565b50604080517f00000000000000000000000000000000000000000000000000000000000000006020808301919091527f0000000000000000000000000000000000000000000000000000000000000000828401527f000000000000000000000000000000000000000000000000000000000000000060608301524660808301523060a0808401919091528351808403909101815260c0909201909252805191012090565b81546000908181600581111561119a57600061115b846114e9565b611165908561218e565b600088815260209020909150869082015463ffffffff16111561118a57809150611198565b61119581600161217b565b92505b505b808210156111e75760006111ae83836115d1565b600088815260209020909150869082015463ffffffff1611156111d3578091506111e1565b6111de81600161217b565b92505b5061119a565b80156112215761120a866111fc60018461218e565b600091825260209091200190565b5464010000000090046001600160e01b0316611224565b60005b6001600160e01b03169695505050505050565b600a546001600160a01b0316331461067c5760405162461bcd60e51b815260206004820181905260248201527f4f776e61626c653a2063616c6c6572206973206e6f7420746865206f776e657260448201526064016105e9565b61062d82826115ec565b61062d8282611683565b6001600160a01b038281166000818152600760208181526040808420805485845282862054949093528787167fffffffffffffffffffffffff00000000000000000000000000000000000000008416811790915590519190951694919391928592917f3134e8a2e6d97e929a7e54011ea5485d7d196dd5f0ba4d4ef95803e8e3fc257f9190a4610e2082848361169b565b600063ffffffff8211156113b25760405162461bcd60e51b815260206004820152602660248201527f53616665436173743a2076616c756520646f65736e27742066697420696e203360448201527f322062697473000000000000000000000000000000000000000000000000000060648201526084016105e9565b5090565b600a80546001600160a01b038381167fffffffffffffffffffffffff0000000000000000000000000000000000000000831681179093556040519116919082907f8be0079c531659141344cd1fd0a4f28419497f9722a3daafe3b4186f6b6457e090600090a35050565b600061052461142d611019565b836040517f19010000000000000000000000000000000000000000000000000000000000006020820152602281018390526042810182905260009060620160405160208183030381529060405280519060200120905092915050565b600080600061149a878787876117d8565b915091506114a78161189c565b5095945050505050565b6001600160a01b03811660009081526005602052604090208054600181018255905b50919050565b505050565b6114d9838383611a01565b6000816000036114fb57506000919050565b6000600161150884611a33565b901c6001901b90506001818481611521576115216121b7565b048201901c90506001818481611539576115396121b7565b048201901c90506001818481611551576115516121b7565b048201901c90506001818481611569576115696121b7565b048201901c90506001818481611581576115816121b7565b048201901c90506001818481611599576115996121b7565b048201901c905060018184816115b1576115b16121b7565b048201901c9050610614818285816115cb576115cb6121b7565b04611ac7565b60006115e060028484186121cd565b6106149084841661217b565b6115f68282611add565b6002546001600160e01b0310156116755760405162461bcd60e51b815260206004820152603060248201527f4552433230566f7465733a20746f74616c20737570706c79207269736b73206f60448201527f766572666c6f77696e6720766f7465730000000000000000000000000000000060648201526084016105e9565b610e206009610c0683611ba4565b61168d8282611cf8565b610e206009610c1283611ba4565b816001600160a01b0316836001600160a01b0316141580156116bd5750600081115b156114d9576001600160a01b0383161561174b576001600160a01b038316600090815260086020526040812081906116f890610c1285611ba4565b91509150846001600160a01b03167fdec2bacdd2f05b59de34da9b523dff8be42e5e38e818c82fdb0bae774387a7248383604051611740929190918252602082015260400190565b60405180910390a250505b6001600160a01b038216156114d9576001600160a01b0382166000908152600860205260408120819061178190610c0685611ba4565b91509150836001600160a01b03167fdec2bacdd2f05b59de34da9b523dff8be42e5e38e818c82fdb0bae774387a72483836040516117c9929190918252602082015260400190565b60405180910390a25050505050565b6000807f7fffffffffffffffffffffffffffffff5d576e7357a4501ddfe92f46681b20a083111561180f5750600090506003611893565b6040805160008082526020820180845289905260ff881692820192909252606081018690526080810185905260019060a0016020604051602081039080840390855afa158015611863573d6000803e3d6000fd5b5050604051601f1901519150506001600160a01b03811661188c57600060019250925050611893565b9150600090505b94509492505050565b60008160048111156118b0576118b06121ef565b036118b85750565b60018160048111156118cc576118cc6121ef565b036119195760405162461bcd60e51b815260206004820152601860248201527f45434453413a20696e76616c6964207369676e6174757265000000000000000060448201526064016105e9565b600281600481111561192d5761192d6121ef565b0361197a5760405162461bcd60e51b815260206004820152601f60248201527f45434453413a20696e76616c6964207369676e6174757265206c656e6774680060448201526064016105e9565b600381600481111561198e5761198e6121ef565b0361063b5760405162461bcd60e51b815260206004820152602260248201527f45434453413a20696e76616c6964207369676e6174757265202773272076616c60448201527f756500000000000000000000000000000000000000000000000000000000000060648201526084016105e9565b6001600160a01b038381166000908152600760205260408082205485841683529120546114d99291821691168361169b565b600080608083901c15611a4857608092831c92015b604083901c15611a5a57604092831c92015b602083901c15611a6c57602092831c92015b601083901c15611a7e57601092831c92015b600883901c15611a9057600892831c92015b600483901c15611aa257600492831c92015b600283901c15611ab457600292831c92015b600183901c156105245760010192915050565b6000818310611ad65781610614565b5090919050565b6001600160a01b038216611b335760405162461bcd60e51b815260206004820152601f60248201527f45524332303a206d696e7420746f20746865207a65726f20616464726573730060448201526064016105e9565b8060026000828254611b45919061217b565b90915550506001600160a01b038216600081815260208181526040808320805486019055518481527fddf252ad1be2c89b69c2b068fc378daa952ba7f163c4a11628f55a4df523b3ef910160405180910390a361062d600083836114de565b82546000908190818115611bf157611bc1876111fc60018561218e565b60408051808201909152905463ffffffff8116825264010000000090046001600160e01b03166020820152611c06565b60408051808201909152600080825260208201525b905080602001516001600160e01b03169350611c2684868863ffffffff16565b9250600082118015611c3e5750805163ffffffff1643145b15611c8357611c4c83611e68565b611c5b886111fc60018661218e565b80546001600160e01b03929092166401000000000263ffffffff909216919091179055611cee565b866040518060400160405280611c9843611336565b63ffffffff168152602001611cac86611e68565b6001600160e01b0390811690915282546001810184556000938452602093849020835194909301519091166401000000000263ffffffff909316929092179101555b5050935093915050565b6001600160a01b038216611d745760405162461bcd60e51b815260206004820152602160248201527f45524332303a206275726e2066726f6d20746865207a65726f2061646472657360448201527f730000000000000000000000000000000000000000000000000000000000000060648201526084016105e9565b6001600160a01b03821660009081526020819052604090205481811015611e035760405162461bcd60e51b815260206004820152602260248201527f45524332303a206275726e20616d6f756e7420657863656564732062616c616e60448201527f636500000000000000000000000000000000000000000000000000000000000060648201526084016105e9565b6001600160a01b0383166000818152602081815260408083208686039055600280548790039055518581529192917fddf252ad1be2c89b69c2b068fc378daa952ba7f163c4a11628f55a4df523b3ef910160405180910390a36114d9836000846114de565b60006001600160e01b038211156113b25760405162461bcd60e51b815260206004820152602760248201527f53616665436173743a2076616c756520646f65736e27742066697420696e203260448201527f323420626974730000000000000000000000000000000000000000000000000060648201526084016105e9565b600060208083528351808285015260005b81811015611f1457858101830151858201604001528201611ef8565b506000604082860101526040601f19601f8301168501019250505092915050565b80356001600160a01b0381168114611f4c57600080fd5b919050565b60008060408385031215611f6457600080fd5b611f6d83611f35565b946020939093013593505050565b600080600060608486031215611f9057600080fd5b611f9984611f35565b9250611fa760208501611f35565b9150604084013590509250925092565b600060208284031215611fc957600080fd5b5035919050565b600060208284031215611fe257600080fd5b61061482611f35565b803560ff81168114611f4c57600080fd5b60008060008060008060c0878903121561201557600080fd5b61201e87611f35565b9550602087013594506040870135935061203a60608801611feb565b92506080870135915060a087013590509295509295509295565b600080600080600080600060e0888a03121561206f57600080fd5b61207888611f35565b965061208660208901611f35565b955060408801359450606088013593506120a260808901611feb565b925060a0880135915060c0880135905092959891949750929550565b600080604083850312156120d157600080fd5b6120da83611f35565b91506120e860208401611f35565b90509250929050565b6000806040838503121561210457600080fd5b61210d83611f35565b9150602083013563ffffffff8116811461212657600080fd5b809150509250929050565b600181811c9082168061214557607f821691505b6020821081036114d357634e487b7160e01b600052602260045260246000fd5b634e487b7160e01b600052601160045260246000fd5b8082018082111561052457610524612165565b8181038181111561052457610524612165565b634e487b7160e01b600052603260045260246000fd5b634e487b7160e01b600052601260045260246000fd5b6000826121ea57634e487b7160e01b600052601260045260246000fd5b500490565b634e487b7160e01b600052602160045260246000fdfea264697066735822122048dcf9eb8dce20dee1afad2005e90c3e9d0bca43497f0257ed4ba1727ecc359a64736f6c63430008130033dec2bacdd2f05b59de34da9b523dff8be42e5e38e818c82fdb0bae774387a72460806040523480156200001157600080fd5b506040516200272438038062002724833981016040819052620000349162000408565b6200004f600080516020620026a4833981519152806200022d565b62000079600080516020620026c4833981519152600080516020620026a48339815191526200022d565b620000a3600080516020620026e4833981519152600080516020620026a48339815191526200022d565b620000cd60008051602062002704833981519152600080516020620026a48339815191526200022d565b620000e8600080516020620026a48339815191523062000278565b6001600160a01b03811615620001135762000113600080516020620026a48339815191528262000278565b60005b835181101562000199576200015d600080516020620026c48339815191528583815181106200014957620001496200048f565b60200260200101516200027860201b60201c565b62000186600080516020620027048339815191528583815181106200014957620001496200048f565b6200019181620004a5565b905062000116565b5060005b8251811015620001e357620001d0600080516020620026e48339815191528483815181106200014957620001496200048f565b620001db81620004a5565b90506200019d565b5060028490556040805160008152602081018690527f11c24f4ead16507c69ac467fbd5e4eed5fb5c699626d2cc6d66421df253886d5910160405180910390a150505050620004cd565b600082815260208190526040808220600101805490849055905190918391839186917fbd79b86ffe0ab8e8776151514217cd7cacd52c909f66475c3af44e129f0b00ff9190a4505050565b62000284828262000288565b5050565b6000828152602081815260408083206001600160a01b038516845290915290205460ff1662000284576000828152602081815260408083206001600160a01b03851684529091529020805460ff19166001179055620002e43390565b6001600160a01b0316816001600160a01b0316837f2f8788117e7eff1d82e926ec794901d17c78024a50270940304540a733656f0d60405160405180910390a45050565b634e487b7160e01b600052604160045260246000fd5b80516001600160a01b03811681146200035657600080fd5b919050565b600082601f8301126200036d57600080fd5b815160206001600160401b03808311156200038c576200038c62000328565b8260051b604051601f19603f83011681018181108482111715620003b457620003b462000328565b604052938452858101830193838101925087851115620003d357600080fd5b83870191505b84821015620003fd57620003ed826200033e565b83529183019190830190620003d9565b979650505050505050565b600080600080608085870312156200041f57600080fd5b845160208601519094506001600160401b03808211156200043f57600080fd5b6200044d888389016200035b565b945060408701519150808211156200046457600080fd5b5062000473878288016200035b565b92505062000484606086016200033e565b905092959194509250565b634e487b7160e01b600052603260045260246000fd5b600060018201620004c657634e487b7160e01b600052601160045260246000fd5b5060010190565b6121c780620004dd6000396000f3fe6080604052600436106101bb5760003560e01c80638065657f116100ec578063bc197c811161008a578063d547741f11610064578063d547741f146105f0578063e38335e514610610578063f23a6e6114610623578063f27a0c921461066857600080fd5b8063bc197c811461055e578063c4d252f5146105a3578063d45c4435146105c357600080fd5b806391d14854116100c657806391d14854146104b1578063a217fddf146104f5578063b08e51c01461050a578063b1c5f4271461053e57600080fd5b80638065657f1461043d5780638f2a0bb01461045d5780638f61f4f51461047d57600080fd5b8063248a9ca31161015957806331d507501161013357806331d50750146103bd57806336568abe146103dd578063584b153e146103fd57806364d623531461041d57600080fd5b8063248a9ca31461033c5780632ab0f5291461036c5780632f2ff15d1461039d57600080fd5b80630d3cf6fc116101955780630d3cf6fc14610260578063134008d31461029457806313bc9f20146102a7578063150b7a02146102c757600080fd5b806301d5062a146101c757806301ffc9a7146101e957806307bd02651461021e57600080fd5b366101c257005b600080fd5b3480156101d357600080fd5b506101e76101e2366004611822565b61067d565b005b3480156101f557600080fd5b50610209610204366004611897565b610712565b60405190151581526020015b60405180910390f35b34801561022a57600080fd5b506102527fd8aa0f3194971a2a116679f7c2090f6939c8d4e01a2a8d7e41d55e5351469e6381565b604051908152602001610215565b34801561026c57600080fd5b506102527f5f58e3a2316349923ce3780f8d587db2d72378aed66a8261c916544fa6846ca581565b6101e76102a23660046118d9565b61076e565b3480156102b357600080fd5b506102096102c2366004611945565b610866565b3480156102d357600080fd5b5061030b6102e2366004611a15565b7f150b7a0200000000000000000000000000000000000000000000000000000000949350505050565b6040517fffffffff000000000000000000000000000000000000000000000000000000009091168152602001610215565b34801561034857600080fd5b50610252610357366004611945565b60009081526020819052604090206001015490565b34801561037857600080fd5b50610209610387366004611945565b6000908152600160208190526040909120541490565b3480156103a957600080fd5b506101e76103b8366004611a7d565b61088c565b3480156103c957600080fd5b506102096103d8366004611945565b6108b6565b3480156103e957600080fd5b506101e76103f8366004611a7d565b6108cf565b34801561040957600080fd5b50610209610418366004611945565b610960565b34801561042957600080fd5b506101e7610438366004611945565b610976565b34801561044957600080fd5b506102526104583660046118d9565b610a2c565b34801561046957600080fd5b506101e7610478366004611aee565b610a6b565b34801561048957600080fd5b506102527fb09aa5aeb3702cfd50b6b62bc4532604938f21248a27a1d5ca736082b6819cc181565b3480156104bd57600080fd5b506102096104cc366004611a7d565b6000918252602082815260408084206001600160a01b0393909316845291905290205460ff1690565b34801561050157600080fd5b50610252600081565b34801561051657600080fd5b506102527ffd643c72710c63c0180259aba6b2d05451e3591a24e58b62239378085726f78381565b34801561054a57600080fd5b50610252610559366004611ba0565b610c35565b34801561056a57600080fd5b5061030b610579366004611cc9565b7fbc197c810000000000000000000000000000000000000000000000000000000095945050505050565b3480156105af57600080fd5b506101e76105be366004611945565b610c7a565b3480156105cf57600080fd5b506102526105de366004611945565b60009081526001602052604090205490565b3480156105fc57600080fd5b506101e761060b366004611a7d565b610d5b565b6101e761061e366004611ba0565b610d80565b34801561062f57600080fd5b5061030b61063e366004611d73565b7ff23a6e610000000000000000000000000000000000000000000000000000000095945050505050565b34801561067457600080fd5b50600254610252565b7fb09aa5aeb3702cfd50b6b62bc4532604938f21248a27a1d5ca736082b6819cc16106a781610fc5565b60006106b7898989898989610a2c565b90506106c38184610fd2565b6000817f4cf4410cc57040e44862ef0f45f3dd5a5e02db8eb8add648d4b0e236f1d07dca8b8b8b8b8b8a6040516106ff96959493929190611e03565b60405180910390a3505050505050505050565b60007fffffffff0000000000000000000000000000000000000000000000000000000082167f4e2312e00000000000000000000000000000000000000000000000000000000014806107685750610768826110e6565b92915050565b600080527fdae2aa361dfd1ca020a396615627d436107c35eff9fe7738a3512819782d70696020527f5ba6852781629bcdcd4bdaa6de76d786f1c64b16acdac474e55bebc0ea157951547fd8aa0f3194971a2a116679f7c2090f6939c8d4e01a2a8d7e41d55e5351469e639060ff166107eb576107eb813361117d565b60006107fb888888888888610a2c565b905061080781856111f0565b610813888888886112f9565b6000817fc2617efa69bab66782fa219543714338489c4e9e178271560a91b82c3f612b588a8a8a8a60405161084b9493929190611e41565b60405180910390a361085c816113d6565b5050505050505050565b6000818152600160205260408120546001811180156108855750428111155b9392505050565b6000828152602081905260409020600101546108a781610fc5565b6108b18383611465565b505050565b60008181526001602052604081205481905b1192915050565b6001600160a01b03811633146109525760405162461bcd60e51b815260206004820152602f60248201527f416363657373436f6e74726f6c3a2063616e206f6e6c792072656e6f756e636560448201527f20726f6c657320666f722073656c66000000000000000000000000000000000060648201526084015b60405180910390fd5b61095c8282611503565b5050565b60008181526001602081905260408220546108c8565b3330146109eb5760405162461bcd60e51b815260206004820152602b60248201527f54696d656c6f636b436f6e74726f6c6c65723a2063616c6c6572206d7573742060448201527f62652074696d656c6f636b0000000000000000000000000000000000000000006064820152608401610949565b60025460408051918252602082018390527f11c24f4ead16507c69ac467fbd5e4eed5fb5c699626d2cc6d66421df253886d5910160405180910390a1600255565b6000868686868686604051602001610a4996959493929190611e03565b6040516020818303038152906040528051906020012090509695505050505050565b7fb09aa5aeb3702cfd50b6b62bc4532604938f21248a27a1d5ca736082b6819cc1610a9581610fc5565b888714610af05760405162461bcd60e51b815260206004820152602360248201527f54696d656c6f636b436f6e74726f6c6c65723a206c656e677468206d69736d616044820152620e8c6d60eb1b6064820152608401610949565b888514610b4b5760405162461bcd60e51b815260206004820152602360248201527f54696d656c6f636b436f6e74726f6c6c65723a206c656e677468206d69736d616044820152620e8c6d60eb1b6064820152608401610949565b6000610b5d8b8b8b8b8b8b8b8b610c35565b9050610b698184610fd2565b60005b8a811015610c275780827f4cf4410cc57040e44862ef0f45f3dd5a5e02db8eb8add648d4b0e236f1d07dca8e8e85818110610ba957610ba9611e74565b9050602002016020810190610bbe9190611e8a565b8d8d86818110610bd057610bd0611e74565b905060200201358c8c87818110610be957610be9611e74565b9050602002810190610bfb9190611ea5565b8c8b604051610c0f96959493929190611e03565b60405180910390a3610c2081611f02565b9050610b6c565b505050505050505050505050565b60008888888888888888604051602001610c56989796959493929190611fae565b60405160208183030381529060405280519060200120905098975050505050505050565b7ffd643c72710c63c0180259aba6b2d05451e3591a24e58b62239378085726f783610ca481610fc5565b610cad82610960565b610d1f5760405162461bcd60e51b815260206004820152603160248201527f54696d656c6f636b436f6e74726f6c6c65723a206f7065726174696f6e20636160448201527f6e6e6f742062652063616e63656c6c65640000000000000000000000000000006064820152608401610949565b6000828152600160205260408082208290555183917fbaa1eb22f2a492ba1a5fea61b8df4d27c6c8b5f3971e63bb58fa14ff72eedb7091a25050565b600082815260208190526040902060010154610d7681610fc5565b6108b18383611503565b600080527fdae2aa361dfd1ca020a396615627d436107c35eff9fe7738a3512819782d70696020527f5ba6852781629bcdcd4bdaa6de76d786f1c64b16acdac474e55bebc0ea157951547fd8aa0f3194971a2a116679f7c2090f6939c8d4e01a2a8d7e41d55e5351469e639060ff16610dfd57610dfd813361117d565b878614610e585760405162461bcd60e51b815260206004820152602360248201527f54696d656c6f636b436f6e74726f6c6c65723a206c656e677468206d69736d616044820152620e8c6d60eb1b6064820152608401610949565b878414610eb35760405162461bcd60e51b815260206004820152602360248201527f54696d656c6f636b436f6e74726f6c6c65723a206c656e677468206d69736d616044820152620e8c6d60eb1b6064820152608401610949565b6000610ec58a8a8a8a8a8a8a8a610c35565b9050610ed181856111f0565b60005b89811015610faf5760008b8b83818110610ef057610ef0611e74565b9050602002016020810190610f059190611e8a565b905060008a8a84818110610f1b57610f1b611e74565b9050602002013590503660008a8a86818110610f3957610f39611e74565b9050602002810190610f4b9190611ea5565b91509150610f5b848484846112f9565b84867fc2617efa69bab66782fa219543714338489c4e9e178271560a91b82c3f612b5886868686604051610f929493929190611e41565b60405180910390a35050505080610fa890611f02565b9050610ed4565b50610fb9816113d6565b50505050505050505050565b610fcf813361117d565b50565b610fdb826108b6565b1561104e5760405162461bcd60e51b815260206004820152602f60248201527f54696d656c6f636b436f6e74726f6c6c65723a206f7065726174696f6e20616c60448201527f7265616479207363686564756c656400000000000000000000000000000000006064820152608401610949565b6002548110156110c65760405162461bcd60e51b815260206004820152602660248201527f54696d656c6f636b436f6e74726f6c6c65723a20696e73756666696369656e7460448201527f2064656c617900000000000000000000000000000000000000000000000000006064820152608401610949565b6110d08142612068565b6000928352600160205260409092209190915550565b60007fffffffff0000000000000000000000000000000000000000000000000000000082167f7965db0b00000000000000000000000000000000000000000000000000000000148061076857507f01ffc9a7000000000000000000000000000000000000000000000000000000007fffffffff00000000000000000000000000000000000000000000000000000000831614610768565b6000828152602081815260408083206001600160a01b038516845290915290205460ff1661095c576111ae81611582565b6111b9836020611594565b6040516020016111ca92919061209f565b60408051601f198184030181529082905262461bcd60e51b825261094991600401612120565b6111f982610866565b61126b5760405162461bcd60e51b815260206004820152602a60248201527f54696d656c6f636b436f6e74726f6c6c65723a206f7065726174696f6e20697360448201527f206e6f74207265616479000000000000000000000000000000000000000000006064820152608401610949565b8015806112875750600081815260016020819052604090912054145b61095c5760405162461bcd60e51b815260206004820152602660248201527f54696d656c6f636b436f6e74726f6c6c65723a206d697373696e67206465706560448201527f6e64656e637900000000000000000000000000000000000000000000000000006064820152608401610949565b6000846001600160a01b0316848484604051611316929190612153565b60006040518083038185875af1925050503d8060008114611353576040519150601f19603f3d011682016040523d82523d6000602084013e611358565b606091505b50509050806113cf5760405162461bcd60e51b815260206004820152603360248201527f54696d656c6f636b436f6e74726f6c6c65723a20756e6465726c79696e67207460448201527f72616e73616374696f6e207265766572746564000000000000000000000000006064820152608401610949565b5050505050565b6113df81610866565b6114515760405162461bcd60e51b815260206004820152602a60248201527f54696d656c6f636b436f6e74726f6c6c65723a206f7065726174696f6e20697360448201527f206e6f74207265616479000000000000000000000000000000000000000000006064820152608401610949565b600090815260016020819052604090912055565b6000828152602081815260408083206001600160a01b038516845290915290205460ff1661095c576000828152602081815260408083206001600160a01b03851684529091529020805460ff191660011790556114bf3390565b6001600160a01b0316816001600160a01b0316837f2f8788117e7eff1d82e926ec794901d17c78024a50270940304540a733656f0d60405160405180910390a45050565b6000828152602081815260408083206001600160a01b038516845290915290205460ff161561095c576000828152602081815260408083206001600160a01b0385168085529252808320805460ff1916905551339285917ff6391f5c32d9c69d2a47ea670b442974b53935d1edc7fd64eb21e047a839171b9190a45050565b60606107686001600160a01b03831660145b606060006115a3836002612163565b6115ae906002612068565b67ffffffffffffffff8111156115c6576115c661195e565b6040519080825280601f01601f1916602001820160405280156115f0576020820181803683370190505b5090507f30000000000000000000000000000000000000000000000000000000000000008160008151811061162757611627611e74565b60200101907effffffffffffffffffffffffffffffffffffffffffffffffffffffffffffff1916908160001a9053507f78000000000000000000000000000000000000000000000000000000000000008160018151811061168a5761168a611e74565b60200101907effffffffffffffffffffffffffffffffffffffffffffffffffffffffffffff1916908160001a90535060006116c6846002612163565b6116d1906001612068565b90505b600181111561176e577f303132333435363738396162636465660000000000000000000000000000000085600f166010811061171257611712611e74565b1a60f81b82828151811061172857611728611e74565b60200101907effffffffffffffffffffffffffffffffffffffffffffffffffffffffffffff1916908160001a90535060049490941c936117678161217a565b90506116d4565b5083156108855760405162461bcd60e51b815260206004820181905260248201527f537472696e67733a20686578206c656e67746820696e73756666696369656e746044820152606401610949565b80356001600160a01b03811681146117d457600080fd5b919050565b60008083601f8401126117eb57600080fd5b50813567ffffffffffffffff81111561180357600080fd5b60208301915083602082850101111561181b57600080fd5b9250929050565b600080600080600080600060c0888a03121561183d57600080fd5b611846886117bd565b965060208801359550604088013567ffffffffffffffff81111561186957600080fd5b6118758a828b016117d9565b989b979a50986060810135976080820135975060a09091013595509350505050565b6000602082840312156118a957600080fd5b81357fffffffff000000000000000000000000000000000000000000000000000000008116811461088557600080fd5b60008060008060008060a087890312156118f257600080fd5b6118fb876117bd565b955060208701359450604087013567ffffffffffffffff81111561191e57600080fd5b61192a89828a016117d9565b979a9699509760608101359660809091013595509350505050565b60006020828403121561195757600080fd5b5035919050565b634e487b7160e01b600052604160045260246000fd5b604051601f8201601f1916810167ffffffffffffffff8111828210171561199d5761199d61195e565b604052919050565b600082601f8301126119b657600080fd5b813567ffffffffffffffff8111156119d0576119d061195e565b6119e36020601f19601f84011601611974565b8181528460208386010111156119f857600080fd5b816020850160208301376000918101602001919091529392505050565b60008060008060808587031215611a2b57600080fd5b611a34856117bd565b9350611a42602086016117bd565b925060408501359150606085013567ffffffffffffffff811115611a6557600080fd5b611a71878288016119a5565b91505092959194509250565b60008060408385031215611a9057600080fd5b82359150611aa0602084016117bd565b90509250929050565b60008083601f840112611abb57600080fd5b50813567ffffffffffffffff811115611ad357600080fd5b6020830191508360208260051b850101111561181b57600080fd5b600080600080600080600080600060c08a8c031215611b0c57600080fd5b893567ffffffffffffffff80821115611b2457600080fd5b611b308d838e01611aa9565b909b50995060208c0135915080821115611b4957600080fd5b611b558d838e01611aa9565b909950975060408c0135915080821115611b6e57600080fd5b50611b7b8c828d01611aa9565b9a9d999c50979a969997986060880135976080810135975060a0013595509350505050565b60008060008060008060008060a0898b031215611bbc57600080fd5b883567ffffffffffffffff80821115611bd457600080fd5b611be08c838d01611aa9565b909a50985060208b0135915080821115611bf957600080fd5b611c058c838d01611aa9565b909850965060408b0135915080821115611c1e57600080fd5b50611c2b8b828c01611aa9565b999c989b509699959896976060870135966080013595509350505050565b600082601f830112611c5a57600080fd5b8135602067ffffffffffffffff821115611c7657611c7661195e565b8160051b611c85828201611974565b9283528481018201928281019087851115611c9f57600080fd5b83870192505b84831015611cbe57823582529183019190830190611ca5565b979650505050505050565b600080600080600060a08688031215611ce157600080fd5b611cea866117bd565b9450611cf8602087016117bd565b9350604086013567ffffffffffffffff80821115611d1557600080fd5b611d2189838a01611c49565b94506060880135915080821115611d3757600080fd5b611d4389838a01611c49565b93506080880135915080821115611d5957600080fd5b50611d66888289016119a5565b9150509295509295909350565b600080600080600060a08688031215611d8b57600080fd5b611d94866117bd565b9450611da2602087016117bd565b93506040860135925060608601359150608086013567ffffffffffffffff811115611dcc57600080fd5b611d66888289016119a5565b818352818160208501375060006020828401015260006020601f19601f840116840101905092915050565b6001600160a01b038716815285602082015260a060408201526000611e2c60a083018688611dd8565b60608301949094525060800152949350505050565b6001600160a01b0385168152836020820152606060408201526000611e6a606083018486611dd8565b9695505050505050565b634e487b7160e01b600052603260045260246000fd5b600060208284031215611e9c57600080fd5b610885826117bd565b6000808335601e19843603018112611ebc57600080fd5b83018035915067ffffffffffffffff821115611ed757600080fd5b60200191503681900382131561181b57600080fd5b634e487b7160e01b600052601160045260246000fd5b60006000198203611f1557611f15611eec565b5060010190565b81835260006020808501808196508560051b810191508460005b87811015611fa15782840389528135601e19883603018112611f5757600080fd5b8701858101903567ffffffffffffffff811115611f7357600080fd5b803603821315611f8257600080fd5b611f8d868284611dd8565b9a87019a9550505090840190600101611f36565b5091979650505050505050565b60a0808252810188905260008960c08301825b8b811015611fef576001600160a01b03611fda846117bd565b16825260209283019290910190600101611fc1565b5083810360208501528881527f07ffffffffffffffffffffffffffffffffffffffffffffffffffffffffffffff89111561202857600080fd5b8860051b9150818a602083013701828103602090810160408501526120509082018789611f1c565b60608401959095525050608001529695505050505050565b8082018082111561076857610768611eec565b60005b8381101561209657818101518382015260200161207e565b50506000910152565b7f416363657373436f6e74726f6c3a206163636f756e74200000000000000000008152600083516120d781601785016020880161207b565b7f206973206d697373696e6720726f6c6520000000000000000000000000000000601791840191820152835161211481602884016020880161207b565b01602801949350505050565b602081526000825180602084015261213f81604085016020870161207b565b601f01601f19169190910160400192915050565b8183823760009101908152919050565b808202811582820484141761076857610768611eec565b60008161218957612189611eec565b50600019019056fea2646970667358221220f25aec7b9fb847c851d584519024aaf037f476da1a068319d1219c78dd4961ee64736f6c634300081300335f58e3a2316349923ce3780f8d587db2d72378aed66a8261c916544fa6846ca5b09aa5aeb3702cfd50b6b62bc4532604938f21248a27a1d5ca736082b6819cc1d8aa0f3194971a2a116679f7c2090f6939c8d4e01a2a8d7e41d55e5351469e63fd643c72710c63c0180259aba6b2d05451e3591a24e58b62239378085726f783a2646970667358221220f1c0b83df5550b5debb6793c72d9f393c3a577f2f5ca779807aa2d59d75fa7f564736f6c63430008130033",
			"opcodes": "PUSH1 0x80 PUSH1 0x40 MSTORE CALLVALUE DUP1 ISZERO PUSH2 0x10 JUMPI PUSH1 0x0 DUP1 REVERT JUMPDEST POP PUSH2 0x5BFB DUP1 PUSH2 0x20 PUSH1 0x0 CODECOPY PUSH1 0x0 RETURN INVALID PUSH1 0x80 PUSH1 0x40 MSTORE CALLVALUE DUP1 ISZERO PUSH3 0x11 JUMPI PUSH1 0x0 DUP1 REVERT JUMPDEST POP PUSH1 0x4 CALLDATASIZE LT PUSH3 0x3A JUMPI PUSH1 0x0 CALLDATALOAD PUSH1 0xE0 SHR DUP1 PUSH4 0x34F359F9 EQ PUSH3 0x3F JUMPI DUP1 PUSH4 0x5484D7B7 EQ PUSH3 0x7F JUMPI JUMPDEST PUSH1 0x0 DUP1 REVERT JUMPDEST PUSH3 0x56 PUSH3 0x50 CALLDATASIZE PUSH1 0x4 PUSH3 0x2E6 JUMP JUMPDEST PUSH3 0x96 JUMP JUMPDEST PUSH1 0x40 MLOAD PUSH20 0xFFFFFFFFFFFFFFFFFFFFFFFFFFFFFFFFFFFFFFFF SWAP1 SWAP2 AND DUP2 MSTORE PUSH1 0x20 ADD PUSH1 0x40 MLOAD DUP1 SWAP2 SUB SWAP1 RETURN JUMPDEST PUSH3 0x56 PUSH3 0x90 CALLDATASIZE PUSH1 0x4 PUSH3 0x3FF JUMP JUMPDEST PUSH3 0x135 JUMP JUMPDEST PUSH1 0x0 DUP1 DUP6 DUP6 DUP6 DUP6 PUSH1 0x40 MLOAD PUSH3 0xAB SWAP1 PUSH3 0x1C6 JUMP JUMPDEST PUSH3 0xBA SWAP5 SWAP4 SWAP3 SWAP2 SWAP1 PUSH3 0x4C3 JUMP JUMPDEST PUSH1 0x40 MLOAD DUP1 SWAP2 SUB SWAP1 PUSH1 0x0 CREATE DUP1 ISZERO DUP1 ISZERO PUSH3 0xD7 JUMPI RETURNDATASIZE PUSH1 0x0 DUP1 RETURNDATACOPY RETURNDATASIZE PUSH1 0x0 REVERT JUMPDEST POP SWAP1 POP DUP1 PUSH20 0xFFFFFFFFFFFFFFFFFFFFFFFFFFFFFFFFFFFFFFFF AND PUSH32 0x7E1222E979CAA9886351E1138B629ACAFC7E956FC96C665A8D4FE6E43871AEA3 DUP8 DUP8 PUSH1 0x40 MLOAD PUSH3 0x124 SWAP3 SWAP2 SWAP1 PUSH3 0x51A JUMP JUMPDEST PUSH1 0x40 MLOAD DUP1 SWAP2 SUB SWAP1 LOG2 SWAP6 SWAP5 POP POP POP POP POP JUMP JUMPDEST PUSH1 0x0 DUP1 DUP6 DUP6 DUP6 DUP6 PUSH1 0x40 MLOAD PUSH3 0x14A SWAP1 PUSH3 0x1D4 JUMP JUMPDEST PUSH3 0x159 SWAP5 SWAP4 SWAP3 SWAP2 SWAP1 PUSH3 0x59F JUMP JUMPDEST PUSH1 0x40 MLOAD DUP1 SWAP2 SUB SWAP1 PUSH1 0x0 CREATE DUP1 ISZERO DUP1 ISZERO PUSH3 0x176 JUMPI RETURNDATASIZE PUSH1 0x0 DUP1 RETURNDATACOPY RETURNDATASIZE PUSH1 0x0 REVERT JUMPDEST POP PUSH1 0x40 MLOAD PUSH20 0xFFFFFFFFFFFFFFFFFFFFFFFFFFFFFFFFFFFFFFFF DUP6 DUP2 AND DUP3 MSTORE SWAP2 SWAP3 POP SWAP1 DUP3 AND SWAP1 PUSH32 0xC446F8AE4449ADD08D34B83B3CB07AF9739D6AF0E2E97158B2AF42DC583C8BA SWAP1 PUSH1 0x20 ADD PUSH3 0x124 JUMP JUMPDEST PUSH2 0x2EAB DUP1 PUSH3 0x5F7 DUP4 CODECOPY ADD SWAP1 JUMP JUMPDEST PUSH2 0x2724 DUP1 PUSH3 0x34A2 DUP4 CODECOPY ADD SWAP1 JUMP JUMPDEST PUSH32 0x4E487B7100000000000000000000000000000000000000000000000000000000 PUSH1 0x0 MSTORE PUSH1 0x41 PUSH1 0x4 MSTORE PUSH1 0x24 PUSH1 0x0 REVERT JUMPDEST PUSH1 0x40 MLOAD PUSH1 0x1F DUP3 ADD PUSH1 0x1F NOT AND DUP2 ADD PUSH8 0xFFFFFFFFFFFFFFFF DUP2 GT DUP3 DUP3 LT OR ISZERO PUSH3 0x23D JUMPI PUSH3 0x23D PUSH3 0x1E2 JUMP JUMPDEST PUSH1 0x40 MSTORE SWAP2 SWAP1 POP JUMP JUMPDEST PUSH1 0x0 DUP3 PUSH1 0x1F DUP4 ADD SLT PUSH3 0x257 JUMPI PUSH1 0x0 DUP1 REVERT JUMPDEST DUP2 CALLDATALOAD PUSH8 0xFFFFFFFFFFFFFFFF DUP2 GT ISZERO PUSH3 0x274 JUMPI PUSH3 0x274 PUSH3 0x1E2 JUMP JUMPDEST PUSH3 0x289 PUSH1 0x20 PUSH1 0x1F NOT PUSH1 0x1F DUP5 ADD AND ADD PUSH3 0x211 JUMP JUMPDEST DUP2 DUP2 MSTORE DUP5 PUSH1 0x20 DUP4 DUP7 ADD ADD GT ISZERO PUSH3 0x29F JUMPI PUSH1 0x0 DUP1 REVERT JUMPDEST DUP2 PUSH1 0x20 DUP6 ADD PUSH1 0x20 DUP4 ADD CALLDATACOPY PUSH1 0x0 SWAP2 DUP2 ADD PUSH1 0x20 ADD SWAP2 SWAP1 SWAP2 MSTORE SWAP4 SWAP3 POP POP POP JUMP JUMPDEST DUP1 CALLDATALOAD PUSH20 0xFFFFFFFFFFFFFFFFFFFFFFFFFFFFFFFFFFFFFFFF DUP2 AND DUP2 EQ PUSH3 0x2E1 JUMPI PUSH1 0x0 DUP1 REVERT JUMPDEST SWAP2 SWAP1 POP JUMP JUMPDEST PUSH1 0x0 DUP1 PUSH1 0x0 DUP1 PUSH1 0x80 DUP6 DUP8 SUB SLT ISZERO PUSH3 0x2FD JUMPI PUSH1 0x0 DUP1 REVERT JUMPDEST DUP5 CALLDATALOAD PUSH8 0xFFFFFFFFFFFFFFFF DUP1 DUP3 GT ISZERO PUSH3 0x316 JUMPI PUSH1 0x0 DUP1 REVERT JUMPDEST PUSH3 0x324 DUP9 DUP4 DUP10 ADD PUSH3 0x245 JUMP JUMPDEST SWAP6 POP PUSH1 0x20 DUP8 ADD CALLDATALOAD SWAP2 POP DUP1 DUP3 GT ISZERO PUSH3 0x33B JUMPI PUSH1 0x0 DUP1 REVERT JUMPDEST POP PUSH3 0x34A DUP8 DUP3 DUP9 ADD PUSH3 0x245 JUMP JUMPDEST SWAP4 POP POP PUSH1 0x40 DUP6 ADD CALLDATALOAD SWAP2 POP PUSH3 0x362 PUSH1 0x60 DUP7 ADD PUSH3 0x2BC JUMP JUMPDEST SWAP1 POP SWAP3 SWAP6 SWAP2 SWAP5 POP SWAP3 POP JUMP JUMPDEST PUSH1 0x0 DUP3 PUSH1 0x1F DUP4 ADD SLT PUSH3 0x37F JUMPI PUSH1 0x0 DUP1 REVERT JUMPDEST DUP2 CALLDATALOAD PUSH1 0x20 PUSH8 0xFFFFFFFFFFFFFFFF DUP3 GT ISZERO PUSH3 0x39E JUMPI PUSH3 0x39E PUSH3 0x1E2 JUMP JUMPDEST DUP2 PUSH1 0x5 SHL PUSH3 0x3AF DUP3 DUP3 ADD PUSH3 0x211 JUMP JUMPDEST SWAP3 DUP4 MSTORE DUP5 DUP2 ADD DUP3 ADD SWAP3 DUP3 DUP2 ADD SWAP1 DUP8 DUP6 GT ISZERO PUSH3 0x3CA JUMPI PUSH1 0x0 DUP1 REVERT JUMPDEST DUP4 DUP8 ADD SWAP3 POP JUMPDEST DUP5 DUP4 LT ISZERO PUSH3 0x3F4 JUMPI PUSH3 0x3E4 DUP4 PUSH3 0x2BC JUMP JUMPDEST DUP3 MSTORE SWAP2 DUP4 ADD SWAP2 SWAP1 DUP4 ADD SWAP1 PUSH3 0x3D0 JUMP JUMPDEST SWAP8 SWAP7 POP POP POP POP POP POP POP JUMP JUMPDEST PUSH1 0x0 DUP1 PUSH1 0x0 DUP1 PUSH1 0x80 DUP6 DUP8 SUB SLT ISZERO PUSH3 0x416 JUMPI PUSH1 0x0 DUP1 REVERT JUMPDEST DUP5 CALLDATALOAD SWAP4 POP PUSH1 0x20 DUP6 ADD CALLDATALOAD PUSH8 0xFFFFFFFFFFFFFFFF DUP1 DUP3 GT ISZERO PUSH3 0x436 JUMPI PUSH1 0x0 DUP1 REVERT JUMPDEST PUSH3 0x444 DUP9 DUP4 DUP10 ADD PUSH3 0x36D JUMP JUMPDEST SWAP5 POP PUSH1 0x40 DUP8 ADD CALLDATALOAD SWAP2 POP DUP1 DUP3 GT ISZERO PUSH3 0x45B JUMPI PUSH1 0x0 DUP1 REVERT JUMPDEST POP PUSH3 0x46A DUP8 DUP3 DUP9 ADD PUSH3 0x36D JUMP JUMPDEST SWAP3 POP POP PUSH3 0x362 PUSH1 0x60 DUP7 ADD PUSH3 0x2BC JUMP JUMPDEST PUSH1 0x0 DUP2 MLOAD DUP1 DUP5 MSTORE PUSH1 0x0 JUMPDEST DUP2 DUP2 LT ISZERO PUSH3 0x4A3 JUMPI PUSH1 0x20 DUP2 DUP6 ADD DUP2 ADD MLOAD DUP7 DUP4 ADD DUP3 ADD MSTORE ADD PUSH3 0x485 JUMP JUMPDEST POP PUSH1 0x0 PUSH1 0x20 DUP3 DUP7 ADD ADD MSTORE PUSH1 0x20 PUSH1 0x1F NOT PUSH1 0x1F DUP4 ADD AND DUP6 ADD ADD SWAP2 POP POP SWAP3 SWAP2 POP POP JUMP JUMPDEST PUSH1 0x80 DUP2 MSTORE PUSH1 0x0 PUSH3 0x4D8 PUSH1 0x80 DUP4 ADD DUP8 PUSH3 0x47B JUMP JUMPDEST DUP3 DUP2 SUB PUSH1 0x20 DUP5 ADD MSTORE PUSH3 0x4EC DUP2 DUP8 PUSH3 0x47B JUMP JUMPDEST SWAP2 POP POP DUP4 PUSH1 0x40 DUP4 ADD MSTORE PUSH20 0xFFFFFFFFFFFFFFFFFFFFFFFFFFFFFFFFFFFFFFFF DUP4 AND PUSH1 0x60 DUP4 ADD MSTORE SWAP6 SWAP5 POP POP POP POP POP JUMP JUMPDEST PUSH1 0x40 DUP2 MSTORE PUSH1 0x0 PUSH3 0x52F PUSH1 0x40 DUP4 ADD DUP6 PUSH3 0x47B JUMP JUMPDEST DUP3 DUP2 SUB PUSH1 0x20 DUP5 ADD MSTORE PUSH3 0x543 DUP2 DUP6 PUSH3 0x47B JUMP JUMPDEST SWAP6 SWAP5 POP POP POP POP POP JUMP JUMPDEST PUSH1 0x0 DUP2 MLOAD DUP1 DUP5 MSTORE PUSH1 0x20 DUP1 DUP6 ADD SWAP5 POP DUP1 DUP5 ADD PUSH1 0x0 JUMPDEST DUP4 DUP2 LT ISZERO PUSH3 0x594 JUMPI DUP2 MLOAD PUSH20 0xFFFFFFFFFFFFFFFFFFFFFFFFFFFFFFFFFFFFFFFF AND DUP8 MSTORE SWAP6 DUP3 ADD SWAP6 SWAP1 DUP3 ADD SWAP1 PUSH1 0x1 ADD PUSH3 0x560 JUMP JUMPDEST POP SWAP5 SWAP6 SWAP5 POP POP POP POP POP JUMP JUMPDEST DUP5 DUP2 MSTORE PUSH1 0x80 PUSH1 0x20 DUP3 ADD MSTORE PUSH1 0x0 PUSH3 0x5BA PUSH1 0x80 DUP4 ADD DUP7 PUSH3 0x54C JUMP JUMPDEST DUP3 DUP2 SUB PUSH1 0x40 DUP5 ADD MSTORE PUSH3 0x5CE DUP2 DUP7 PUSH3 0x54C JUMP JUMPDEST SWAP2 POP POP PUSH20 0xFFFFFFFFFFFFFFFFFFFFFFFFFFFFFFFFFFFFFFFF DUP4 AND PUSH1 0x60 DUP4 ADD MSTORE SWAP6 SWAP5 POP POP POP POP POP JUMP INVALID PUSH2 0x140 PUSH1 0x40 MSTORE CALLVALUE DUP1 ISZERO PUSH3 0x12 JUMPI PUSH1 0x0 DUP1 REVERT JUMPDEST POP PUSH1 0x40 MLOAD PUSH3 0x2EAB CODESIZE SUB DUP1 PUSH3 0x2EAB DUP4 CODECOPY DUP2 ADD PUSH1 0x40 DUP2 SWAP1 MSTORE PUSH3 0x35 SWAP2 PUSH3 0x8A7 JUMP JUMPDEST PUSH1 0x40 DUP1 MLOAD DUP1 DUP3 ADD SWAP1 SWAP2 MSTORE PUSH1 0x1 DUP2 MSTORE PUSH1 0x31 PUSH1 0xF8 SHL PUSH1 0x20 DUP3 ADD MSTORE DUP5 SWAP1 DUP2 SWAP1 DUP2 DUP7 PUSH1 0x3 PUSH3 0x61 DUP4 DUP3 PUSH3 0x9CA JUMP JUMPDEST POP PUSH1 0x4 PUSH3 0x70 DUP3 DUP3 PUSH3 0x9CA JUMP JUMPDEST POP POP DUP3 MLOAD PUSH1 0x20 SWAP4 DUP5 ADD KECCAK256 DUP3 MLOAD SWAP3 DUP5 ADD SWAP3 SWAP1 SWAP3 KECCAK256 PUSH1 0xE0 DUP4 SWAP1 MSTORE PUSH2 0x100 DUP2 SWAP1 MSTORE CHAINID PUSH1 0xA0 DUP2 DUP2 MSTORE PUSH1 0x40 DUP1 MLOAD PUSH32 0x8B73C3C69BB8FE3D512ECC4CF759CC79239F7B179B0FFACAA9A75D522B39400F DUP2 DUP10 ADD DUP2 SWAP1 MSTORE DUP2 DUP4 ADD SWAP8 SWAP1 SWAP8 MSTORE PUSH1 0x60 DUP2 ADD SWAP5 SWAP1 SWAP5 MSTORE PUSH1 0x80 DUP1 DUP6 ADD SWAP4 SWAP1 SWAP4 MSTORE ADDRESS DUP5 DUP4 ADD DUP2 SWAP1 MSTORE DUP2 MLOAD DUP1 DUP7 SUB SWAP1 SWAP4 ADD DUP4 MSTORE PUSH1 0xC0 SWAP5 DUP6 ADD SWAP1 SWAP2 MSTORE DUP2 MLOAD SWAP2 SWAP1 SWAP7 ADD KECCAK256 SWAP1 MSTORE SWAP3 SWAP1 SWAP3 MSTORE PUSH2 0x120 MSTORE POP PUSH3 0x10F SWAP1 POP CALLER PUSH3 0x149 JUMP JUMPDEST PUSH3 0x134 DUP2 PUSH3 0x122 PUSH1 0x12 PUSH1 0xA PUSH3 0xBA9 JUMP JUMPDEST PUSH3 0x12E SWAP1 DUP6 PUSH3 0xBBA JUMP JUMPDEST PUSH3 0x19B JUMP JUMPDEST PUSH3 0x13F DUP2 PUSH3 0x1AB JUMP JUMPDEST POP POP POP POP PUSH3 0xC00 JUMP JUMPDEST PUSH1 0xA DUP1 SLOAD PUSH1 0x1 PUSH1 0x1 PUSH1 0xA0 SHL SUB DUP4 DUP2 AND PUSH1 0x1 PUSH1 0x1 PUSH1 0xA0 SHL SUB NOT DUP4 AND DUP2 OR SWAP1 SWAP4 SSTORE PUSH1 0x40 MLOAD SWAP2 AND SWAP2 SWAP1 DUP3 SWAP1 PUSH32 0x8BE0079C531659141344CD1FD0A4F28419497F9722A3DAAFE3B4186F6B6457E0 SWAP1 PUSH1 0x0 SWAP1 LOG3 POP POP JUMP JUMPDEST PUSH3 0x1A7 DUP3 DUP3 PUSH3 0x22E JUMP JUMPDEST POP POP JUMP JUMPDEST PUSH3 0x1B5 PUSH3 0x2D6 JUMP JUMPDEST PUSH1 0x1 PUSH1 0x1 PUSH1 0xA0 SHL SUB DUP2 AND PUSH3 0x220 JUMPI PUSH1 0x40 MLOAD PUSH3 0x461BCD PUSH1 0xE5 SHL DUP2 MSTORE PUSH1 0x20 PUSH1 0x4 DUP3 ADD MSTORE PUSH1 0x26 PUSH1 0x24 DUP3 ADD MSTORE PUSH32 0x4F776E61626C653A206E6577206F776E657220697320746865207A65726F2061 PUSH1 0x44 DUP3 ADD MSTORE PUSH6 0x646472657373 PUSH1 0xD0 SHL PUSH1 0x64 DUP3 ADD MSTORE PUSH1 0x84 ADD JUMPDEST PUSH1 0x40 MLOAD DUP1 SWAP2 SUB SWAP1 REVERT JUMPDEST PUSH3 0x22B DUP2 PUSH3 0x149 JUMP JUMPDEST POP JUMP JUMPDEST PUSH3 0x23A DUP3 DUP3 PUSH3 0x334 JUMP JUMPDEST PUSH1 0x1 PUSH1 0x1 PUSH1 0xE0 SHL SUB PUSH3 0x24E PUSH3 0x401 DUP3 AND JUMP JUMPDEST GT ISZERO PUSH3 0x2B7 JUMPI PUSH1 0x40 MLOAD PUSH3 0x461BCD PUSH1 0xE5 SHL DUP2 MSTORE PUSH1 0x20 PUSH1 0x4 DUP3 ADD MSTORE PUSH1 0x30 PUSH1 0x24 DUP3 ADD MSTORE PUSH32 0x4552433230566F7465733A20746F74616C20737570706C79207269736B73206F PUSH1 0x44 DUP3 ADD MSTORE PUSH16 0x766572666C6F77696E6720766F746573 PUSH1 0x80 SHL PUSH1 0x64 DUP3 ADD MSTORE PUSH1 0x84 ADD PUSH3 0x217 JUMP JUMPDEST PUSH3 0x2D0 PUSH1 0x9 PUSH3 0xC06 PUSH3 0x407 PUSH1 0x20 SHL OR DUP4 PUSH3 0x41E JUMP JUMPDEST POP POP POP POP JUMP JUMPDEST PUSH1 0xA SLOAD PUSH1 0x1 PUSH1 0x1 PUSH1 0xA0 SHL SUB AND CALLER EQ PUSH3 0x332 JUMPI PUSH1 0x40 MLOAD PUSH3 0x461BCD PUSH1 0xE5 SHL DUP2 MSTORE PUSH1 0x20 PUSH1 0x4 DUP3 ADD DUP2 SWAP1 MSTORE PUSH1 0x24 DUP3 ADD MSTORE PUSH32 0x4F776E61626C653A2063616C6C6572206973206E6F7420746865206F776E6572 PUSH1 0x44 DUP3 ADD MSTORE PUSH1 0x64 ADD PUSH3 0x217 JUMP JUMPDEST JUMP JUMPDEST PUSH1 0x1 PUSH1 0x1 PUSH1 0xA0 SHL SUB DUP3 AND PUSH3 0x38C JUMPI PUSH1 0x40 MLOAD PUSH3 0x461BCD PUSH1 0xE5 SHL DUP2 MSTORE PUSH1 0x20 PUSH1 0x4 DUP3 ADD MSTORE PUSH1 0x1F PUSH1 0x24 DUP3 ADD MSTORE PUSH32 0x45524332303A206D696E7420746F20746865207A65726F206164647265737300 PUSH1 0x44 DUP3 ADD MSTORE PUSH1 0x64 ADD PUSH3 0x217 JUMP JUMPDEST DUP1 PUSH1 0x2 PUSH1 0x0 DUP3 DUP3 SLOAD PUSH3 0x3A0 SWAP2 SWAP1 PUSH3 0xBD4 JUMP JUMPDEST SWAP1 SWAP2 SSTORE POP POP PUSH1 0x1 PUSH1 0x1 PUSH1 0xA0 SHL SUB DUP3 AND PUSH1 0x0 DUP2 DUP2 MSTORE PUSH1 0x20 DUP2 DUP2 MSTORE PUSH1 0x40 DUP1 DUP4 KECCAK256 DUP1 SLOAD DUP7 ADD SWAP1 SSTORE MLOAD DUP5 DUP2 MSTORE PUSH32 0xDDF252AD1BE2C89B69C2B068FC378DAA952BA7F163C4A11628F55A4DF523B3EF SWAP2 ADD PUSH1 0x40 MLOAD DUP1 SWAP2 SUB SWAP1 LOG3 PUSH3 0x1A7 PUSH1 0x0 DUP4 DUP4 PUSH3 0x59A JUMP JUMPDEST PUSH1 0x2 SLOAD SWAP1 JUMP JUMPDEST PUSH1 0x0 PUSH3 0x415 DUP3 DUP5 PUSH3 0xBD4 JUMP JUMPDEST SWAP1 POP JUMPDEST SWAP3 SWAP2 POP POP JUMP JUMPDEST DUP3 SLOAD PUSH1 0x0 SWAP1 DUP2 SWAP1 DUP2 DUP2 ISZERO PUSH3 0x47E JUMPI PUSH3 0x44D DUP8 PUSH3 0x43F PUSH1 0x1 DUP6 PUSH3 0xBEA JUMP JUMPDEST PUSH1 0x0 SWAP2 DUP3 MSTORE PUSH1 0x20 SWAP1 SWAP2 KECCAK256 ADD SWAP1 JUMP JUMPDEST PUSH1 0x40 DUP1 MLOAD DUP1 DUP3 ADD SWAP1 SWAP2 MSTORE SWAP1 SLOAD PUSH4 0xFFFFFFFF DUP2 AND DUP3 MSTORE PUSH5 0x100000000 SWAP1 DIV PUSH1 0x1 PUSH1 0x1 PUSH1 0xE0 SHL SUB AND PUSH1 0x20 DUP3 ADD MSTORE PUSH3 0x493 JUMP JUMPDEST PUSH1 0x40 DUP1 MLOAD DUP1 DUP3 ADD SWAP1 SWAP2 MSTORE PUSH1 0x0 DUP1 DUP3 MSTORE PUSH1 0x20 DUP3 ADD MSTORE JUMPDEST SWAP1 POP DUP1 PUSH1 0x20 ADD MLOAD PUSH1 0x1 PUSH1 0x1 PUSH1 0xE0 SHL SUB AND SWAP4 POP PUSH3 0x4B1 DUP5 DUP7 DUP9 PUSH1 0x20 SHR JUMP JUMPDEST SWAP3 POP PUSH1 0x0 DUP3 GT DUP1 ISZERO PUSH3 0x4CA JUMPI POP DUP1 MLOAD PUSH4 0xFFFFFFFF AND NUMBER EQ JUMPDEST ISZERO PUSH3 0x516 JUMPI PUSH3 0x4DB DUP4 PUSH3 0x5A7 JUMP JUMPDEST PUSH3 0x4ED DUP9 PUSH3 0x43F PUSH1 0x1 DUP7 PUSH3 0xBEA JUMP JUMPDEST DUP1 SLOAD PUSH1 0x1 PUSH1 0x1 PUSH1 0xE0 SHL SUB SWAP3 SWAP1 SWAP3 AND PUSH5 0x100000000 MUL PUSH4 0xFFFFFFFF SWAP1 SWAP3 AND SWAP2 SWAP1 SWAP2 OR SWAP1 SSTORE PUSH3 0x58B JUMP JUMPDEST DUP7 PUSH1 0x40 MLOAD DUP1 PUSH1 0x40 ADD PUSH1 0x40 MSTORE DUP1 PUSH3 0x533 NUMBER PUSH3 0x616 PUSH1 0x20 SHL PUSH1 0x20 SHR JUMP JUMPDEST PUSH4 0xFFFFFFFF AND DUP2 MSTORE PUSH1 0x20 ADD PUSH3 0x549 DUP7 PUSH3 0x5A7 JUMP JUMPDEST PUSH1 0x1 PUSH1 0x1 PUSH1 0xE0 SHL SUB SWAP1 DUP2 AND SWAP1 SWAP2 MSTORE DUP3 SLOAD PUSH1 0x1 DUP2 ADD DUP5 SSTORE PUSH1 0x0 SWAP4 DUP5 MSTORE PUSH1 0x20 SWAP4 DUP5 SWAP1 KECCAK256 DUP4 MLOAD SWAP5 SWAP1 SWAP4 ADD MLOAD SWAP1 SWAP2 AND PUSH5 0x100000000 MUL PUSH4 0xFFFFFFFF SWAP1 SWAP4 AND SWAP3 SWAP1 SWAP3 OR SWAP2 ADD SSTORE JUMPDEST POP POP SWAP4 POP SWAP4 SWAP2 POP POP JUMP JUMPDEST POP POP POP JUMP JUMPDEST PUSH3 0x595 DUP4 DUP4 DUP4 PUSH3 0x67D JUMP JUMPDEST PUSH1 0x0 PUSH1 0x1 PUSH1 0x1 PUSH1 0xE0 SHL SUB DUP3 GT ISZERO PUSH3 0x612 JUMPI PUSH1 0x40 MLOAD PUSH3 0x461BCD PUSH1 0xE5 SHL DUP2 MSTORE PUSH1 0x20 PUSH1 0x4 DUP3 ADD MSTORE PUSH1 0x27 PUSH1 0x24 DUP3 ADD MSTORE PUSH32 0x53616665436173743A2076616C756520646F65736E27742066697420696E2032 PUSH1 0x44 DUP3 ADD MSTORE PUSH7 0x32342062697473 PUSH1 0xC8 SHL PUSH1 0x64 DUP3 ADD MSTORE PUSH1 0x84 ADD PUSH3 0x217 JUMP JUMPDEST POP SWAP1 JUMP JUMPDEST PUSH1 0x0 PUSH4 0xFFFFFFFF DUP3 GT ISZERO PUSH3 0x612 JUMPI PUSH1 0x40 MLOAD PUSH3 0x461BCD PUSH1 0xE5 SHL DUP2 MSTORE PUSH1 0x20 PUSH1 0x4 DUP3 ADD MSTORE PUSH1 0x26 PUSH1 0x24 DUP3 ADD MSTORE PUSH32 0x53616665436173743A2076616C756520646F65736E27742066697420696E2033 PUSH1 0x44 DUP3 ADD MSTORE PUSH6 0x322062697473 PUSH1 0xD0 SHL PUSH1 0x64 DUP3 ADD MSTORE PUSH1 0x84 ADD PUSH3 0x217 JUMP JUMPDEST PUSH1 0x1 PUSH1 0x1 PUSH1 0xA0 SHL SUB DUP4 DUP2 AND PUSH1 0x0 SWAP1 DUP2 MSTORE PUSH1 0x7 PUSH1 0x20 MSTORE PUSH1 0x40 DUP1 DUP3 KECCAK256 SLOAD DUP6 DUP5 AND DUP4 MSTORE SWAP2 KECCAK256 SLOAD PUSH3 0x595 SWAP3 SWAP2 DUP3 AND SWAP2 AND DUP4 DUP2 DUP4 EQ DUP1 ISZERO SWAP1 PUSH3 0x6BC JUMPI POP PUSH1 0x0 DUP2 GT JUMPDEST ISZERO PUSH3 0x595 JUMPI PUSH1 0x1 PUSH1 0x1 PUSH1 0xA0 SHL SUB DUP4 AND ISZERO PUSH3 0x749 JUMPI PUSH1 0x1 PUSH1 0x1 PUSH1 0xA0 SHL SUB DUP4 AND PUSH1 0x0 SWAP1 DUP2 MSTORE PUSH1 0x8 PUSH1 0x20 SWAP1 DUP2 MSTORE PUSH1 0x40 DUP3 KECCAK256 DUP3 SWAP2 PUSH3 0x706 SWAP2 SWAP1 PUSH3 0x7D4 SWAP1 SHL PUSH3 0xC12 OR DUP6 PUSH3 0x41E JUMP JUMPDEST SWAP2 POP SWAP2 POP DUP5 PUSH1 0x1 PUSH1 0x1 PUSH1 0xA0 SHL SUB AND PUSH1 0x0 DUP1 MLOAD PUSH1 0x20 PUSH3 0x2E8B DUP4 CODECOPY DUP2 MLOAD SWAP2 MSTORE DUP4 DUP4 PUSH1 0x40 MLOAD PUSH3 0x73E SWAP3 SWAP2 SWAP1 SWAP2 DUP3 MSTORE PUSH1 0x20 DUP3 ADD MSTORE PUSH1 0x40 ADD SWAP1 JUMP JUMPDEST PUSH1 0x40 MLOAD DUP1 SWAP2 SUB SWAP1 LOG2 POP POP JUMPDEST PUSH1 0x1 PUSH1 0x1 PUSH1 0xA0 SHL SUB DUP3 AND ISZERO PUSH3 0x595 JUMPI PUSH1 0x1 PUSH1 0x1 PUSH1 0xA0 SHL SUB DUP3 AND PUSH1 0x0 SWAP1 DUP2 MSTORE PUSH1 0x8 PUSH1 0x20 SWAP1 DUP2 MSTORE PUSH1 0x40 DUP3 KECCAK256 DUP3 SWAP2 PUSH3 0x78D SWAP2 SWAP1 PUSH3 0x407 SWAP1 SHL PUSH3 0xC06 OR DUP6 PUSH3 0x41E JUMP JUMPDEST SWAP2 POP SWAP2 POP DUP4 PUSH1 0x1 PUSH1 0x1 PUSH1 0xA0 SHL SUB AND PUSH1 0x0 DUP1 MLOAD PUSH1 0x20 PUSH3 0x2E8B DUP4 CODECOPY DUP2 MLOAD SWAP2 MSTORE DUP4 DUP4 PUSH1 0x40 MLOAD PUSH3 0x7C5 SWAP3 SWAP2 SWAP1 SWAP2 DUP3 MSTORE PUSH1 0x20 DUP3 ADD MSTORE PUSH1 0x40 ADD SWAP1 JUMP JUMPDEST PUSH1 0x40 MLOAD DUP1 SWAP2 SUB SWAP1 LOG2 POP POP POP POP POP JUMP JUMPDEST PUSH1 0x0 PUSH3 0x415 DUP3 DUP5 PUSH3 0xBEA JUMP JUMPDEST PUSH4 0x4E487B71 PUSH1 0xE0 SHL PUSH1 0x0 MSTORE PUSH1 0x41 PUSH1 0x4 MSTORE PUSH1 0x24 PUSH1 0x0 REVERT JUMPDEST PUSH1 0x0 DUP3 PUSH1 0x1F DUP4 ADD SLT PUSH3 0x80A JUMPI PUSH1 0x0 DUP1 REVERT JUMPDEST DUP2 MLOAD PUSH1 0x1 PUSH1 0x1 PUSH1 0x40 SHL SUB DUP1 DUP3 GT ISZERO PUSH3 0x827 JUMPI PUSH3 0x827 PUSH3 0x7E2 JUMP JUMPDEST PUSH1 0x40 MLOAD PUSH1 0x1F DUP4 ADD PUSH1 0x1F NOT SWAP1 DUP2 AND PUSH1 0x3F ADD AND DUP2 ADD SWAP1 DUP3 DUP3 GT DUP2 DUP4 LT OR ISZERO PUSH3 0x852 JUMPI PUSH3 0x852 PUSH3 0x7E2 JUMP JUMPDEST DUP2 PUSH1 0x40 MSTORE DUP4 DUP2 MSTORE PUSH1 0x20 SWAP3 POP DUP7 DUP4 DUP6 DUP9 ADD ADD GT ISZERO PUSH3 0x86F JUMPI PUSH1 0x0 DUP1 REVERT JUMPDEST PUSH1 0x0 SWAP2 POP JUMPDEST DUP4 DUP3 LT ISZERO PUSH3 0x893 JUMPI DUP6 DUP3 ADD DUP4 ADD MLOAD DUP2 DUP4 ADD DUP5 ADD MSTORE SWAP1 DUP3 ADD SWAP1 PUSH3 0x874 JUMP JUMPDEST PUSH1 0x0 SWAP4 DUP2 ADD SWAP1 SWAP3 ADD SWAP3 SWAP1 SWAP3 MSTORE SWAP5 SWAP4 POP POP POP POP JUMP JUMPDEST PUSH1 0x0 DUP1 PUSH1 0x0 DUP1 PUSH1 0x80 DUP6 DUP8 SUB SLT ISZERO PUSH3 0x8BE JUMPI PUSH1 0x0 DUP1 REVERT JUMPDEST DUP5 MLOAD PUSH1 0x1 PUSH1 0x1 PUSH1 0x40 SHL SUB DUP1 DUP3 GT ISZERO PUSH3 0x8D6 JUMPI PUSH1 0x0 DUP1 REVERT JUMPDEST PUSH3 0x8E4 DUP9 DUP4 DUP10 ADD PUSH3 0x7F8 JUMP JUMPDEST SWAP6 POP PUSH1 0x20 DUP8 ADD MLOAD SWAP2 POP DUP1 DUP3 GT ISZERO PUSH3 0x8FB JUMPI PUSH1 0x0 DUP1 REVERT JUMPDEST POP PUSH3 0x90A DUP8 DUP3 DUP9 ADD PUSH3 0x7F8 JUMP JUMPDEST PUSH1 0x40 DUP8 ADD MLOAD PUSH1 0x60 DUP9 ADD MLOAD SWAP2 SWAP6 POP SWAP4 POP SWAP1 POP PUSH1 0x1 PUSH1 0x1 PUSH1 0xA0 SHL SUB DUP2 AND DUP2 EQ PUSH3 0x931 JUMPI PUSH1 0x0 DUP1 REVERT JUMPDEST SWAP4 SWAP7 SWAP3 SWAP6 POP SWAP1 SWAP4 POP POP JUMP JUMPDEST PUSH1 0x1 DUP2 DUP2 SHR SWAP1 DUP3 AND DUP1 PUSH3 0x951 JUMPI PUSH1 0x7F DUP3 AND SWAP2 POP JUMPDEST PUSH1 0x20 DUP3 LT DUP2 SUB PUSH3 0x972 JUMPI PUSH4 0x4E487B71 PUSH1 0xE0 SHL PUSH1 0x0 MSTORE PUSH1 0x22 PUSH1 0x4 MSTORE PUSH1 0x24 PUSH1 0x0 REVERT JUMPDEST POP SWAP2 SWAP1 POP JUMP JUMPDEST PUSH1 0x1F DUP3 GT ISZERO PUSH3 0x595 JUMPI PUSH1 0x0 DUP2 DUP2 MSTORE PUSH1 0x20 DUP2 KECCAK256 PUSH1 0x1F DUP6 ADD PUSH1 0x5 SHR DUP2 ADD PUSH1 0x20 DUP7 LT ISZERO PUSH3 0x9A1 JUMPI POP DUP1 JUMPDEST PUSH1 0x1F DUP6 ADD PUSH1 0x5 SHR DUP3 ADD SWAP2 POP JUMPDEST DUP2 DUP2 LT ISZERO PUSH3 0x9C2 JUMPI DUP3 DUP2 SSTORE PUSH1 0x1 ADD PUSH3 0x9AD JUMP JUMPDEST POP POP POP POP POP POP JUMP JUMPDEST DUP2 MLOAD PUSH1 0x1 PUSH1 0x1 PUSH1 0x40 SHL SUB DUP2 GT ISZERO PUSH3 0x9E6 JUMPI PUSH3 0x9E6 PUSH3 0x7E2 JUMP JUMPDEST PUSH3 0x9FE DUP2 PUSH3 0x9F7 DUP5 SLOAD PUSH3 0x93C JUMP JUMPDEST DUP5 PUSH3 0x978 JUMP JUMPDEST PUSH1 0x20 DUP1 PUSH1 0x1F DUP4 GT PUSH1 0x1 DUP2 EQ PUSH3 0xA36 JUMPI PUSH1 0x0 DUP5 ISZERO PUSH3 0xA1D JUMPI POP DUP6 DUP4 ADD MLOAD JUMPDEST PUSH1 0x0 NOT PUSH1 0x3 DUP7 SWAP1 SHL SHR NOT AND PUSH1 0x1 DUP6 SWAP1 SHL OR DUP6 SSTORE PUSH3 0x9C2 JUMP JUMPDEST PUSH1 0x0 DUP6 DUP2 MSTORE PUSH1 0x20 DUP2 KECCAK256 PUSH1 0x1F NOT DUP7 AND SWAP2 JUMPDEST DUP3 DUP2 LT ISZERO PUSH3 0xA67 JUMPI DUP9 DUP7 ADD MLOAD DUP3 SSTORE SWAP5 DUP5 ADD SWAP5 PUSH1 0x1 SWAP1 SWAP2 ADD SWAP1 DUP5 ADD PUSH3 0xA46 JUMP JUMPDEST POP DUP6 DUP3 LT ISZERO PUSH3 0xA86 JUMPI DUP8 DUP6 ADD MLOAD PUSH1 0x0 NOT PUSH1 0x3 DUP9 SWAP1 SHL PUSH1 0xF8 AND SHR NOT AND DUP2 SSTORE JUMPDEST POP POP POP POP POP PUSH1 0x1 SWAP1 DUP2 SHL ADD SWAP1 SSTORE POP JUMP JUMPDEST PUSH4 0x4E487B71 PUSH1 0xE0 SHL PUSH1 0x0 MSTORE PUSH1 0x11 PUSH1 0x4 MSTORE PUSH1 0x24 PUSH1 0x0 REVERT JUMPDEST PUSH1 0x1 DUP2 DUP2 JUMPDEST DUP1 DUP6 GT ISZERO PUSH3 0xAED JUMPI DUP2 PUSH1 0x0 NOT DIV DUP3 GT ISZERO PUSH3 0xAD1 JUMPI PUSH3 0xAD1 PUSH3 0xA96 JUMP JUMPDEST DUP1 DUP6 AND ISZERO PUSH3 0xADF JUMPI SWAP2 DUP2 MUL SWAP2 JUMPDEST SWAP4 DUP5 SHR SWAP4 SWAP1 DUP1 MUL SWAP1 PUSH3 0xAB1 JUMP JUMPDEST POP SWAP3 POP SWAP3 SWAP1 POP JUMP JUMPDEST PUSH1 0x0 DUP3 PUSH3 0xB06 JUMPI POP PUSH1 0x1 PUSH3 0x418 JUMP JUMPDEST DUP2 PUSH3 0xB15 JUMPI POP PUSH1 0x0 PUSH3 0x418 JUMP JUMPDEST DUP2 PUSH1 0x1 DUP2 EQ PUSH3 0xB2E JUMPI PUSH1 0x2 DUP2 EQ PUSH3 0xB39 JUMPI PUSH3 0xB59 JUMP JUMPDEST PUSH1 0x1 SWAP2 POP POP PUSH3 0x418 JUMP JUMPDEST PUSH1 0xFF DUP5 GT ISZERO PUSH3 0xB4D JUMPI PUSH3 0xB4D PUSH3 0xA96 JUMP JUMPDEST POP POP PUSH1 0x1 DUP3 SHL PUSH3 0x418 JUMP JUMPDEST POP PUSH1 0x20 DUP4 LT PUSH2 0x133 DUP4 LT AND PUSH1 0x4E DUP5 LT PUSH1 0xB DUP5 LT AND OR ISZERO PUSH3 0xB7E JUMPI POP DUP2 DUP2 EXP PUSH3 0x418 JUMP JUMPDEST PUSH3 0xB8A DUP4 DUP4 PUSH3 0xAAC JUMP JUMPDEST DUP1 PUSH1 0x0 NOT DIV DUP3 GT ISZERO PUSH3 0xBA1 JUMPI PUSH3 0xBA1 PUSH3 0xA96 JUMP JUMPDEST MUL SWAP4 SWAP3 POP POP POP JUMP JUMPDEST PUSH1 0x0 PUSH3 0x415 PUSH1 0xFF DUP5 AND DUP4 PUSH3 0xAF5 JUMP JUMPDEST DUP1 DUP3 MUL DUP2 ISZERO DUP3 DUP3 DIV DUP5 EQ OR PUSH3 0x418 JUMPI PUSH3 0x418 PUSH3 0xA96 JUMP JUMPDEST DUP1 DUP3 ADD DUP1 DUP3 GT ISZERO PUSH3 0x418 JUMPI PUSH3 0x418 PUSH3 0xA96 JUMP JUMPDEST DUP2 DUP2 SUB DUP2 DUP2 GT ISZERO PUSH3 0x418 JUMPI PUSH3 0x418 PUSH3 0xA96 JUMP JUMPDEST PUSH1 0x80 MLOAD PUSH1 0xA0 MLOAD PUSH1 0xC0 MLOAD PUSH1 0xE0 MLOAD PUSH2 0x100 MLOAD PUSH2 0x120 MLOAD PUSH2 0x223B PUSH3 0xC50 PUSH1 0x0 CODECOPY PUSH1 0x0 PUSH2 0x10A3 ADD MSTORE PUSH1 0x0 PUSH2 0x10F2 ADD MSTORE PUSH1 0x0 PUSH2 0x10CD ADD MSTORE PUSH1 0x0 PUSH2 0x1026 ADD MSTORE PUSH1 0x0 PUSH2 0x1050 ADD MSTORE PUSH1 0x0 PUSH2 0x107A ADD MSTORE PUSH2 0x223B PUSH1 0x0 RETURN INVALID PUSH1 0x80 PUSH1 0x40 MSTORE CALLVALUE DUP1 ISZERO PUSH2 0x10 JUMPI PUSH1 0x0 DUP1 REVERT JUMPDEST POP PUSH1 0x4 CALLDATASIZE LT PUSH2 0x1C4 JUMPI PUSH1 0x0 CALLDATALOAD PUSH1 0xE0 SHR DUP1 PUSH4 0x715018A6 GT PUSH2 0xF9 JUMPI DUP1 PUSH4 0xA457C2D7 GT PUSH2 0x97 JUMPI DUP1 PUSH4 0xD505ACCF GT PUSH2 0x71 JUMPI DUP1 PUSH4 0xD505ACCF EQ PUSH2 0x3E2 JUMPI DUP1 PUSH4 0xDD62ED3E EQ PUSH2 0x3F5 JUMPI DUP1 PUSH4 0xF1127ED8 EQ PUSH2 0x42E JUMPI DUP1 PUSH4 0xF2FDE38B EQ PUSH2 0x46B JUMPI PUSH1 0x0 DUP1 REVERT JUMPDEST DUP1 PUSH4 0xA457C2D7 EQ PUSH2 0x3A9 JUMPI DUP1 PUSH4 0xA9059CBB EQ PUSH2 0x3BC JUMPI DUP1 PUSH4 0xC3CDA520 EQ PUSH2 0x3CF JUMPI PUSH1 0x0 DUP1 REVERT JUMPDEST DUP1 PUSH4 0x8DA5CB5B GT PUSH2 0xD3 JUMPI DUP1 PUSH4 0x8DA5CB5B EQ PUSH2 0x36A JUMPI DUP1 PUSH4 0x8E539E8C EQ PUSH2 0x37B JUMPI DUP1 PUSH4 0x95D89B41 EQ PUSH2 0x38E JUMPI DUP1 PUSH4 0x9AB24EB0 EQ PUSH2 0x396 JUMPI PUSH1 0x0 DUP1 REVERT JUMPDEST DUP1 PUSH4 0x715018A6 EQ PUSH2 0x33C JUMPI DUP1 PUSH4 0x79CC6790 EQ PUSH2 0x344 JUMPI DUP1 PUSH4 0x7ECEBE00 EQ PUSH2 0x357 JUMPI PUSH1 0x0 DUP1 REVERT JUMPDEST DUP1 PUSH4 0x3A46B1A8 GT PUSH2 0x166 JUMPI DUP1 PUSH4 0x587CDE1E GT PUSH2 0x140 JUMPI DUP1 PUSH4 0x587CDE1E EQ PUSH2 0x294 JUMPI DUP1 PUSH4 0x5C19A95C EQ PUSH2 0x2D8 JUMPI DUP1 PUSH4 0x6FCFFF45 EQ PUSH2 0x2EB JUMPI DUP1 PUSH4 0x70A08231 EQ PUSH2 0x313 JUMPI PUSH1 0x0 DUP1 REVERT JUMPDEST DUP1 PUSH4 0x3A46B1A8 EQ PUSH2 0x259 JUMPI DUP1 PUSH4 0x40C10F19 EQ PUSH2 0x26C JUMPI DUP1 PUSH4 0x42966C68 EQ PUSH2 0x281 JUMPI PUSH1 0x0 DUP1 REVERT JUMPDEST DUP1 PUSH4 0x23B872DD GT PUSH2 0x1A2 JUMPI DUP1 PUSH4 0x23B872DD EQ PUSH2 0x21C JUMPI DUP1 PUSH4 0x313CE567 EQ PUSH2 0x22F JUMPI DUP1 PUSH4 0x3644E515 EQ PUSH2 0x23E JUMPI DUP1 PUSH4 0x39509351 EQ PUSH2 0x246 JUMPI PUSH1 0x0 DUP1 REVERT JUMPDEST DUP1 PUSH4 0x6FDDE03 EQ PUSH2 0x1C9 JUMPI DUP1 PUSH4 0x95EA7B3 EQ PUSH2 0x1E7 JUMPI DUP1 PUSH4 0x18160DDD EQ PUSH2 0x20A JUMPI JUMPDEST PUSH1 0x0 DUP1 REVERT JUMPDEST PUSH2 0x1D1 PUSH2 0x47E JUMP JUMPDEST PUSH1 0x40 MLOAD PUSH2 0x1DE SWAP2 SWAP1 PUSH2 0x1EE7 JUMP JUMPDEST PUSH1 0x40 MLOAD DUP1 SWAP2 SUB SWAP1 RETURN JUMPDEST PUSH2 0x1FA PUSH2 0x1F5 CALLDATASIZE PUSH1 0x4 PUSH2 0x1F51 JUMP JUMPDEST PUSH2 0x510 JUMP JUMPDEST PUSH1 0x40 MLOAD SWAP1 ISZERO ISZERO DUP2 MSTORE PUSH1 0x20 ADD PUSH2 0x1DE JUMP JUMPDEST PUSH1 0x2 SLOAD JUMPDEST PUSH1 0x40 MLOAD SWAP1 DUP2 MSTORE PUSH1 0x20 ADD PUSH2 0x1DE JUMP JUMPDEST PUSH2 0x1FA PUSH2 0x22A CALLDATASIZE PUSH1 0x4 PUSH2 0x1F7B JUMP JUMPDEST PUSH2 0x52A JUMP JUMPDEST PUSH1 0x40 MLOAD PUSH1 0x12 DUP2 MSTORE PUSH1 0x20 ADD PUSH2 0x1DE JUMP JUMPDEST PUSH2 0x20E PUSH2 0x54E JUMP JUMPDEST PUSH2 0x1FA PUSH2 0x254 CALLDATASIZE PUSH1 0x4 PUSH2 0x1F51 JUMP JUMPDEST PUSH2 0x55D JUMP JUMPDEST PUSH2 0x20E PUSH2 0x267 CALLDATASIZE PUSH1 0x4 PUSH2 0x1F51 JUMP JUMPDEST PUSH2 0x59C JUMP JUMPDEST PUSH2 0x27F PUSH2 0x27A CALLDATASIZE PUSH1 0x4 PUSH2 0x1F51 JUMP JUMPDEST PUSH2 0x61B JUMP JUMPDEST STOP JUMPDEST PUSH2 0x27F PUSH2 0x28F CALLDATASIZE PUSH1 0x4 PUSH2 0x1FB7 JUMP JUMPDEST PUSH2 0x631 JUMP JUMPDEST PUSH2 0x2C0 PUSH2 0x2A2 CALLDATASIZE PUSH1 0x4 PUSH2 0x1FD0 JUMP JUMPDEST PUSH1 0x1 PUSH1 0x1 PUSH1 0xA0 SHL SUB SWAP1 DUP2 AND PUSH1 0x0 SWAP1 DUP2 MSTORE PUSH1 0x7 PUSH1 0x20 MSTORE PUSH1 0x40 SWAP1 KECCAK256 SLOAD AND SWAP1 JUMP JUMPDEST PUSH1 0x40 MLOAD PUSH1 0x1 PUSH1 0x1 PUSH1 0xA0 SHL SUB SWAP1 SWAP2 AND DUP2 MSTORE PUSH1 0x20 ADD PUSH2 0x1DE JUMP JUMPDEST PUSH2 0x27F PUSH2 0x2E6 CALLDATASIZE PUSH1 0x4 PUSH2 0x1FD0 JUMP JUMPDEST PUSH2 0x63E JUMP JUMPDEST PUSH2 0x2FE PUSH2 0x2F9 CALLDATASIZE PUSH1 0x4 PUSH2 0x1FD0 JUMP JUMPDEST PUSH2 0x648 JUMP JUMPDEST PUSH1 0x40 MLOAD PUSH4 0xFFFFFFFF SWAP1 SWAP2 AND DUP2 MSTORE PUSH1 0x20 ADD PUSH2 0x1DE JUMP JUMPDEST PUSH2 0x20E PUSH2 0x321 CALLDATASIZE PUSH1 0x4 PUSH2 0x1FD0 JUMP JUMPDEST PUSH1 0x1 PUSH1 0x1 PUSH1 0xA0 SHL SUB AND PUSH1 0x0 SWAP1 DUP2 MSTORE PUSH1 0x20 DUP2 SWAP1 MSTORE PUSH1 0x40 SWAP1 KECCAK256 SLOAD SWAP1 JUMP JUMPDEST PUSH2 0x27F PUSH2 0x66A JUMP JUMPDEST PUSH2 0x27F PUSH2 0x352 CALLDATASIZE PUSH1 0x4 PUSH2 0x1F51 JUMP JUMPDEST PUSH2 0x67E JUMP JUMPDEST PUSH2 0x20E PUSH2 0x365 CALLDATASIZE PUSH1 0x4 PUSH2 0x1FD0 JUMP JUMPDEST PUSH2 0x693 JUMP JUMPDEST PUSH1 0xA SLOAD PUSH1 0x1 PUSH1 0x1 PUSH1 0xA0 SHL SUB AND PUSH2 0x2C0 JUMP JUMPDEST PUSH2 0x20E PUSH2 0x389 CALLDATASIZE PUSH1 0x4 PUSH2 0x1FB7 JUMP JUMPDEST PUSH2 0x6B1 JUMP JUMPDEST PUSH2 0x1D1 PUSH2 0x70D JUMP JUMPDEST PUSH2 0x20E PUSH2 0x3A4 CALLDATASIZE PUSH1 0x4 PUSH2 0x1FD0 JUMP JUMPDEST PUSH2 0x71C JUMP JUMPDEST PUSH2 0x1FA PUSH2 0x3B7 CALLDATASIZE PUSH1 0x4 PUSH2 0x1F51 JUMP JUMPDEST PUSH2 0x7A3 JUMP JUMPDEST PUSH2 0x1FA PUSH2 0x3CA CALLDATASIZE PUSH1 0x4 PUSH2 0x1F51 JUMP JUMPDEST PUSH2 0x84D JUMP JUMPDEST PUSH2 0x27F PUSH2 0x3DD CALLDATASIZE PUSH1 0x4 PUSH2 0x1FFC JUMP JUMPDEST PUSH2 0x85B JUMP JUMPDEST PUSH2 0x27F PUSH2 0x3F0 CALLDATASIZE PUSH1 0x4 PUSH2 0x2054 JUMP JUMPDEST PUSH2 0x991 JUMP JUMPDEST PUSH2 0x20E PUSH2 0x403 CALLDATASIZE PUSH1 0x4 PUSH2 0x20BE JUMP JUMPDEST PUSH1 0x1 PUSH1 0x1 PUSH1 0xA0 SHL SUB SWAP2 DUP3 AND PUSH1 0x0 SWAP1 DUP2 MSTORE PUSH1 0x1 PUSH1 0x20 SWAP1 DUP2 MSTORE PUSH1 0x40 DUP1 DUP4 KECCAK256 SWAP4 SWAP1 SWAP5 AND DUP3 MSTORE SWAP2 SWAP1 SWAP2 MSTORE KECCAK256 SLOAD SWAP1 JUMP JUMPDEST PUSH2 0x441 PUSH2 0x43C CALLDATASIZE PUSH1 0x4 PUSH2 0x20F1 JUMP JUMPDEST PUSH2 0xAF5 JUMP JUMPDEST PUSH1 0x40 DUP1 MLOAD DUP3 MLOAD PUSH4 0xFFFFFFFF AND DUP2 MSTORE PUSH1 0x20 SWAP3 DUP4 ADD MLOAD PUSH1 0x1 PUSH1 0x1 PUSH1 0xE0 SHL SUB AND SWAP3 DUP2 ADD SWAP3 SWAP1 SWAP3 MSTORE ADD PUSH2 0x1DE JUMP JUMPDEST PUSH2 0x27F PUSH2 0x479 CALLDATASIZE PUSH1 0x4 PUSH2 0x1FD0 JUMP JUMPDEST PUSH2 0xB79 JUMP JUMPDEST PUSH1 0x60 PUSH1 0x3 DUP1 SLOAD PUSH2 0x48D SWAP1 PUSH2 0x2131 JUMP JUMPDEST DUP1 PUSH1 0x1F ADD PUSH1 0x20 DUP1 SWAP2 DIV MUL PUSH1 0x20 ADD PUSH1 0x40 MLOAD SWAP1 DUP2 ADD PUSH1 0x40 MSTORE DUP1 SWAP3 SWAP2 SWAP1 DUP2 DUP2 MSTORE PUSH1 0x20 ADD DUP3 DUP1 SLOAD PUSH2 0x4B9 SWAP1 PUSH2 0x2131 JUMP JUMPDEST DUP1 ISZERO PUSH2 0x506 JUMPI DUP1 PUSH1 0x1F LT PUSH2 0x4DB JUMPI PUSH2 0x100 DUP1 DUP4 SLOAD DIV MUL DUP4 MSTORE SWAP2 PUSH1 0x20 ADD SWAP2 PUSH2 0x506 JUMP JUMPDEST DUP3 ADD SWAP2 SWAP1 PUSH1 0x0 MSTORE PUSH1 0x20 PUSH1 0x0 KECCAK256 SWAP1 JUMPDEST DUP2 SLOAD DUP2 MSTORE SWAP1 PUSH1 0x1 ADD SWAP1 PUSH1 0x20 ADD DUP1 DUP4 GT PUSH2 0x4E9 JUMPI DUP3 SWAP1 SUB PUSH1 0x1F AND DUP3 ADD SWAP2 JUMPDEST POP POP POP POP POP SWAP1 POP SWAP1 JUMP JUMPDEST PUSH1 0x0 CALLER PUSH2 0x51E DUP2 DUP6 DUP6 PUSH2 0xC1E JUMP JUMPDEST PUSH1 0x1 SWAP2 POP POP JUMPDEST SWAP3 SWAP2 POP POP JUMP JUMPDEST PUSH1 0x0 CALLER PUSH2 0x538 DUP6 DUP3 DUP6 PUSH2 0xD76 JUMP JUMPDEST PUSH2 0x543 DUP6 DUP6 DUP6 PUSH2 0xE26 JUMP JUMPDEST POP PUSH1 0x1 SWAP5 SWAP4 POP POP POP POP JUMP JUMPDEST PUSH1 0x0 PUSH2 0x558 PUSH2 0x1019 JUMP JUMPDEST SWAP1 POP SWAP1 JUMP JUMPDEST CALLER PUSH1 0x0 DUP2 DUP2 MSTORE PUSH1 0x1 PUSH1 0x20 SWAP1 DUP2 MSTORE PUSH1 0x40 DUP1 DUP4 KECCAK256 PUSH1 0x1 PUSH1 0x1 PUSH1 0xA0 SHL SUB DUP8 AND DUP5 MSTORE SWAP1 SWAP2 MSTORE DUP2 KECCAK256 SLOAD SWAP1 SWAP2 SWAP1 PUSH2 0x51E SWAP1 DUP3 SWAP1 DUP7 SWAP1 PUSH2 0x597 SWAP1 DUP8 SWAP1 PUSH2 0x217B JUMP JUMPDEST PUSH2 0xC1E JUMP JUMPDEST PUSH1 0x0 NUMBER DUP3 LT PUSH2 0x5F2 JUMPI PUSH1 0x40 MLOAD PUSH3 0x461BCD PUSH1 0xE5 SHL DUP2 MSTORE PUSH1 0x20 PUSH1 0x4 DUP3 ADD MSTORE PUSH1 0x1F PUSH1 0x24 DUP3 ADD MSTORE PUSH32 0x4552433230566F7465733A20626C6F636B206E6F7420796574206D696E656400 PUSH1 0x44 DUP3 ADD MSTORE PUSH1 0x64 ADD JUMPDEST PUSH1 0x40 MLOAD DUP1 SWAP2 SUB SWAP1 REVERT JUMPDEST PUSH1 0x1 PUSH1 0x1 PUSH1 0xA0 SHL SUB DUP4 AND PUSH1 0x0 SWAP1 DUP2 MSTORE PUSH1 0x8 PUSH1 0x20 MSTORE PUSH1 0x40 SWAP1 KECCAK256 PUSH2 0x614 SWAP1 DUP4 PUSH2 0x1140 JUMP JUMPDEST SWAP4 SWAP3 POP POP POP JUMP JUMPDEST PUSH2 0x623 PUSH2 0x1237 JUMP JUMPDEST PUSH2 0x62D DUP3 DUP3 PUSH2 0x1291 JUMP JUMPDEST POP POP JUMP JUMPDEST PUSH2 0x63B CALLER DUP3 PUSH2 0x129B JUMP JUMPDEST POP JUMP JUMPDEST PUSH2 0x63B CALLER DUP3 PUSH2 0x12A5 JUMP JUMPDEST PUSH1 0x1 PUSH1 0x1 PUSH1 0xA0 SHL SUB DUP2 AND PUSH1 0x0 SWAP1 DUP2 MSTORE PUSH1 0x8 PUSH1 0x20 MSTORE PUSH1 0x40 DUP2 KECCAK256 SLOAD PUSH2 0x524 SWAP1 PUSH2 0x1336 JUMP JUMPDEST PUSH2 0x672 PUSH2 0x1237 JUMP JUMPDEST PUSH2 0x67C PUSH1 0x0 PUSH2 0x13B6 JUMP JUMPDEST JUMP JUMPDEST PUSH2 0x689 DUP3 CALLER DUP4 PUSH2 0xD76 JUMP JUMPDEST PUSH2 0x62D DUP3 DUP3 PUSH2 0x129B JUMP JUMPDEST PUSH1 0x1 PUSH1 0x1 PUSH1 0xA0 SHL SUB DUP2 AND PUSH1 0x0 SWAP1 DUP2 MSTORE PUSH1 0x5 PUSH1 0x20 MSTORE PUSH1 0x40 DUP2 KECCAK256 SLOAD PUSH2 0x524 JUMP JUMPDEST PUSH1 0x0 NUMBER DUP3 LT PUSH2 0x702 JUMPI PUSH1 0x40 MLOAD PUSH3 0x461BCD PUSH1 0xE5 SHL DUP2 MSTORE PUSH1 0x20 PUSH1 0x4 DUP3 ADD MSTORE PUSH1 0x1F PUSH1 0x24 DUP3 ADD MSTORE PUSH32 0x4552433230566F7465733A20626C6F636B206E6F7420796574206D696E656400 PUSH1 0x44 DUP3 ADD MSTORE PUSH1 0x64 ADD PUSH2 0x5E9 JUMP JUMPDEST PUSH2 0x524 PUSH1 0x9 DUP4 PUSH2 0x1140 JUMP JUMPDEST PUSH1 0x60 PUSH1 0x4 DUP1 SLOAD PUSH2 0x48D SWAP1 PUSH2 0x2131 JUMP JUMPDEST PUSH1 0x1 PUSH1 0x1 PUSH1 0xA0 SHL SUB DUP2 AND PUSH1 0x0 SWAP1 DUP2 MSTORE PUSH1 0x8 PUSH1 0x20 MSTORE PUSH1 0x40 DUP2 KECCAK256 SLOAD DUP1 ISZERO PUSH2 0x790 JUMPI PUSH1 0x1 PUSH1 0x1 PUSH1 0xA0 SHL SUB DUP4 AND PUSH1 0x0 SWAP1 DUP2 MSTORE PUSH1 0x8 PUSH1 0x20 MSTORE PUSH1 0x40 SWAP1 KECCAK256 PUSH2 0x75E PUSH1 0x1 DUP4 PUSH2 0x218E JUMP JUMPDEST DUP2 SLOAD DUP2 LT PUSH2 0x76E JUMPI PUSH2 0x76E PUSH2 0x21A1 JUMP JUMPDEST PUSH1 0x0 SWAP2 DUP3 MSTORE PUSH1 0x20 SWAP1 SWAP2 KECCAK256 ADD SLOAD PUSH5 0x100000000 SWAP1 DIV PUSH1 0x1 PUSH1 0x1 PUSH1 0xE0 SHL SUB AND PUSH2 0x793 JUMP JUMPDEST PUSH1 0x0 JUMPDEST PUSH1 0x1 PUSH1 0x1 PUSH1 0xE0 SHL SUB AND SWAP4 SWAP3 POP POP POP JUMP JUMPDEST CALLER PUSH1 0x0 DUP2 DUP2 MSTORE PUSH1 0x1 PUSH1 0x20 SWAP1 DUP2 MSTORE PUSH1 0x40 DUP1 DUP4 KECCAK256 PUSH1 0x1 PUSH1 0x1 PUSH1 0xA0 SHL SUB DUP8 AND DUP5 MSTORE SWAP1 SWAP2 MSTORE DUP2 KECCAK256 SLOAD SWAP1 SWAP2 SWAP1 DUP4 DUP2 LT ISZERO PUSH2 0x840 JUMPI PUSH1 0x40 MLOAD PUSH3 0x461BCD PUSH1 0xE5 SHL DUP2 MSTORE PUSH1 0x20 PUSH1 0x4 DUP3 ADD MSTORE PUSH1 0x25 PUSH1 0x24 DUP3 ADD MSTORE PUSH32 0x45524332303A2064656372656173656420616C6C6F77616E63652062656C6F77 PUSH1 0x44 DUP3 ADD MSTORE PUSH32 0x207A65726F000000000000000000000000000000000000000000000000000000 PUSH1 0x64 DUP3 ADD MSTORE PUSH1 0x84 ADD PUSH2 0x5E9 JUMP JUMPDEST PUSH2 0x543 DUP3 DUP7 DUP7 DUP5 SUB PUSH2 0xC1E JUMP JUMPDEST PUSH1 0x0 CALLER PUSH2 0x51E DUP2 DUP6 DUP6 PUSH2 0xE26 JUMP JUMPDEST DUP4 TIMESTAMP GT ISZERO PUSH2 0x8AB JUMPI PUSH1 0x40 MLOAD PUSH3 0x461BCD PUSH1 0xE5 SHL DUP2 MSTORE PUSH1 0x20 PUSH1 0x4 DUP3 ADD MSTORE PUSH1 0x1D PUSH1 0x24 DUP3 ADD MSTORE PUSH32 0x4552433230566F7465733A207369676E61747572652065787069726564000000 PUSH1 0x44 DUP3 ADD MSTORE PUSH1 0x64 ADD PUSH2 0x5E9 JUMP JUMPDEST PUSH1 0x40 DUP1 MLOAD PUSH32 0xE48329057BFD03D55E49B547132E39CFFD9C1820AD7B9D4C5307691425D15ADF PUSH1 0x20 DUP3 ADD MSTORE PUSH1 0x1 PUSH1 0x1 PUSH1 0xA0 SHL SUB DUP9 AND SWAP2 DUP2 ADD SWAP2 SWAP1 SWAP2 MSTORE PUSH1 0x60 DUP2 ADD DUP7 SWAP1 MSTORE PUSH1 0x80 DUP2 ADD DUP6 SWAP1 MSTORE PUSH1 0x0 SWAP1 PUSH2 0x925 SWAP1 PUSH2 0x91D SWAP1 PUSH1 0xA0 ADD PUSH1 0x40 MLOAD PUSH1 0x20 DUP2 DUP4 SUB SUB DUP2 MSTORE SWAP1 PUSH1 0x40 MSTORE DUP1 MLOAD SWAP1 PUSH1 0x20 ADD KECCAK256 PUSH2 0x1420 JUMP JUMPDEST DUP6 DUP6 DUP6 PUSH2 0x1489 JUMP JUMPDEST SWAP1 POP PUSH2 0x930 DUP2 PUSH2 0x14B1 JUMP JUMPDEST DUP7 EQ PUSH2 0x97E JUMPI PUSH1 0x40 MLOAD PUSH3 0x461BCD PUSH1 0xE5 SHL DUP2 MSTORE PUSH1 0x20 PUSH1 0x4 DUP3 ADD MSTORE PUSH1 0x19 PUSH1 0x24 DUP3 ADD MSTORE PUSH32 0x4552433230566F7465733A20696E76616C6964206E6F6E636500000000000000 PUSH1 0x44 DUP3 ADD MSTORE PUSH1 0x64 ADD PUSH2 0x5E9 JUMP JUMPDEST PUSH2 0x988 DUP2 DUP9 PUSH2 0x12A5 JUMP JUMPDEST POP POP POP POP POP POP POP JUMP JUMPDEST DUP4 TIMESTAMP GT ISZERO PUSH2 0x9E1 JUMPI PUSH1 0x40 MLOAD PUSH3 0x461BCD PUSH1 0xE5 SHL DUP2 MSTORE PUSH1 0x20 PUSH1 0x4 DUP3 ADD MSTORE PUSH1 0x1D PUSH1 0x24 DUP3 ADD MSTORE PUSH32 0x45524332305065726D69743A206578706972656420646561646C696E65000000 PUSH1 0x44 DUP3 ADD MSTORE PUSH1 0x64 ADD PUSH2 0x5E9 JUMP JUMPDEST PUSH1 0x0 PUSH32 0x6E71EDAE12B1B97F4D1F60370FEF10105FA2FAAE0126114A169C64845D6126C9 DUP9 DUP9 DUP9 PUSH2 0xA10 DUP13 PUSH2 0x14B1 JUMP JUMPDEST PUSH1 0x40 DUP1 MLOAD PUSH1 0x20 DUP2 ADD SWAP7 SWAP1 SWAP7 MSTORE PUSH1 0x1 PUSH1 0x1 PUSH1 0xA0 SHL SUB SWAP5 DUP6 AND SWAP1 DUP7 ADD MSTORE SWAP3 SWAP1 SWAP2 AND PUSH1 0x60 DUP5 ADD MSTORE PUSH1 0x80 DUP4 ADD MSTORE PUSH1 0xA0 DUP3 ADD MSTORE PUSH1 0xC0 DUP2 ADD DUP7 SWAP1 MSTORE PUSH1 0xE0 ADD PUSH1 0x40 MLOAD PUSH1 0x20 DUP2 DUP4 SUB SUB DUP2 MSTORE SWAP1 PUSH1 0x40 MSTORE DUP1 MLOAD SWAP1 PUSH1 0x20 ADD KECCAK256 SWAP1 POP PUSH1 0x0 PUSH2 0xA6B DUP3 PUSH2 0x1420 JUMP JUMPDEST SWAP1 POP PUSH1 0x0 PUSH2 0xA7B DUP3 DUP8 DUP8 DUP8 PUSH2 0x1489 JUMP JUMPDEST SWAP1 POP DUP10 PUSH1 0x1 PUSH1 0x1 PUSH1 0xA0 SHL SUB AND DUP2 PUSH1 0x1 PUSH1 0x1 PUSH1 0xA0 SHL SUB AND EQ PUSH2 0xADE JUMPI PUSH1 0x40 MLOAD PUSH3 0x461BCD PUSH1 0xE5 SHL DUP2 MSTORE PUSH1 0x20 PUSH1 0x4 DUP3 ADD MSTORE PUSH1 0x1E PUSH1 0x24 DUP3 ADD MSTORE PUSH32 0x45524332305065726D69743A20696E76616C6964207369676E61747572650000 PUSH1 0x44 DUP3 ADD MSTORE PUSH1 0x64 ADD PUSH2 0x5E9 JUMP JUMPDEST PUSH2 0xAE9 DUP11 DUP11 DUP11 PUSH2 0xC1E JUMP JUMPDEST POP POP POP POP POP POP POP POP POP POP JUMP JUMPDEST PUSH1 0x40 DUP1 MLOAD DUP1 DUP3 ADD SWAP1 SWAP2 MSTORE PUSH1 0x0 DUP1 DUP3 MSTORE PUSH1 0x20 DUP3 ADD MSTORE PUSH1 0x1 PUSH1 0x1 PUSH1 0xA0 SHL SUB DUP4 AND PUSH1 0x0 SWAP1 DUP2 MSTORE PUSH1 0x8 PUSH1 0x20 MSTORE PUSH1 0x40 SWAP1 KECCAK256 DUP1 SLOAD PUSH4 0xFFFFFFFF DUP5 AND SWAP1 DUP2 LT PUSH2 0xB39 JUMPI PUSH2 0xB39 PUSH2 0x21A1 JUMP JUMPDEST PUSH1 0x0 SWAP2 DUP3 MSTORE PUSH1 0x20 SWAP2 DUP3 SWAP1 KECCAK256 PUSH1 0x40 DUP1 MLOAD DUP1 DUP3 ADD SWAP1 SWAP2 MSTORE SWAP2 ADD SLOAD PUSH4 0xFFFFFFFF DUP2 AND DUP3 MSTORE PUSH5 0x100000000 SWAP1 DIV PUSH1 0x1 PUSH1 0x1 PUSH1 0xE0 SHL SUB AND SWAP2 DUP2 ADD SWAP2 SWAP1 SWAP2 MSTORE SWAP4 SWAP3 POP POP POP JUMP JUMPDEST PUSH2 0xB81 PUSH2 0x1237 JUMP JUMPDEST PUSH1 0x1 PUSH1 0x1 PUSH1 0xA0 SHL SUB DUP2 AND PUSH2 0xBFD JUMPI PUSH1 0x40 MLOAD PUSH3 0x461BCD PUSH1 0xE5 SHL DUP2 MSTORE PUSH1 0x20 PUSH1 0x4 DUP3 ADD MSTORE PUSH1 0x26 PUSH1 0x24 DUP3 ADD MSTORE PUSH32 0x4F776E61626C653A206E6577206F776E657220697320746865207A65726F2061 PUSH1 0x44 DUP3 ADD MSTORE PUSH32 0x6464726573730000000000000000000000000000000000000000000000000000 PUSH1 0x64 DUP3 ADD MSTORE PUSH1 0x84 ADD PUSH2 0x5E9 JUMP JUMPDEST PUSH2 0x63B DUP2 PUSH2 0x13B6 JUMP JUMPDEST PUSH1 0x0 PUSH2 0x614 DUP3 DUP5 PUSH2 0x217B JUMP JUMPDEST PUSH1 0x0 PUSH2 0x614 DUP3 DUP5 PUSH2 0x218E JUMP JUMPDEST PUSH1 0x1 PUSH1 0x1 PUSH1 0xA0 SHL SUB DUP4 AND PUSH2 0xC99 JUMPI PUSH1 0x40 MLOAD PUSH3 0x461BCD PUSH1 0xE5 SHL DUP2 MSTORE PUSH1 0x20 PUSH1 0x4 DUP3 ADD MSTORE PUSH1 0x24 DUP1 DUP3 ADD MSTORE PUSH32 0x45524332303A20617070726F76652066726F6D20746865207A65726F20616464 PUSH1 0x44 DUP3 ADD MSTORE PUSH32 0x7265737300000000000000000000000000000000000000000000000000000000 PUSH1 0x64 DUP3 ADD MSTORE PUSH1 0x84 ADD PUSH2 0x5E9 JUMP JUMPDEST PUSH1 0x1 PUSH1 0x1 PUSH1 0xA0 SHL SUB DUP3 AND PUSH2 0xD15 JUMPI PUSH1 0x40 MLOAD PUSH3 0x461BCD PUSH1 0xE5 SHL DUP2 MSTORE PUSH1 0x20 PUSH1 0x4 DUP3 ADD MSTORE PUSH1 0x22 PUSH1 0x24 DUP3 ADD MSTORE PUSH32 0x45524332303A20617070726F766520746F20746865207A65726F206164647265 PUSH1 0x44 DUP3 ADD MSTORE PUSH32 0x7373000000000000000000000000000000000000000000000000000000000000 PUSH1 0x64 DUP3 ADD MSTORE PUSH1 0x84 ADD PUSH2 0x5E9 JUMP JUMPDEST PUSH1 0x1 PUSH1 0x1 PUSH1 0xA0 SHL SUB DUP4 DUP2 AND PUSH1 0x0 DUP2 DUP2 MSTORE PUSH1 0x1 PUSH1 0x20 SWAP1 DUP2 MSTORE PUSH1 0x40 DUP1 DUP4 KECCAK256 SWAP5 DUP8 AND DUP1 DUP5 MSTORE SWAP5 DUP3 MSTORE SWAP2 DUP3 SWAP1 KECCAK256 DUP6 SWAP1 SSTORE SWAP1 MLOAD DUP5 DUP2 MSTORE PUSH32 0x8C5BE1E5EBEC7D5BD14F71427D1E84F3DD0314C0F7B2291E5B200AC8C7C3B925 SWAP2 ADD PUSH1 0x40 MLOAD DUP1 SWAP2 SUB SWAP1 LOG3 POP POP POP JUMP JUMPDEST PUSH1 0x1 PUSH1 0x1 PUSH1 0xA0 SHL SUB DUP4 DUP2 AND PUSH1 0x0 SWAP1 DUP2 MSTORE PUSH1 0x1 PUSH1 0x20 SWAP1 DUP2 MSTORE PUSH1 0x40 DUP1 DUP4 KECCAK256 SWAP4 DUP7 AND DUP4 MSTORE SWAP3 SWAP1 MSTORE KECCAK256 SLOAD PUSH32 0xFFFFFFFFFFFFFFFFFFFFFFFFFFFFFFFFFFFFFFFFFFFFFFFFFFFFFFFFFFFFFFFF DUP2 EQ PUSH2 0xE20 JUMPI DUP2 DUP2 LT ISZERO PUSH2 0xE13 JUMPI PUSH1 0x40 MLOAD PUSH3 0x461BCD PUSH1 0xE5 SHL DUP2 MSTORE PUSH1 0x20 PUSH1 0x4 DUP3 ADD MSTORE PUSH1 0x1D PUSH1 0x24 DUP3 ADD MSTORE PUSH32 0x45524332303A20696E73756666696369656E7420616C6C6F77616E6365000000 PUSH1 0x44 DUP3 ADD MSTORE PUSH1 0x64 ADD PUSH2 0x5E9 JUMP JUMPDEST PUSH2 0xE20 DUP5 DUP5 DUP5 DUP5 SUB PUSH2 0xC1E JUMP JUMPDEST POP POP POP POP JUMP JUMPDEST PUSH1 0x1 PUSH1 0x1 PUSH1 0xA0 SHL SUB DUP4 AND PUSH2 0xEA2 JUMPI PUSH1 0x40 MLOAD PUSH3 0x461BCD PUSH1 0xE5 SHL DUP2 MSTORE PUSH1 0x20 PUSH1 0x4 DUP3 ADD MSTORE PUSH1 0x25 PUSH1 0x24 DUP3 ADD MSTORE PUSH32 0x45524332303A207472616E736665722066726F6D20746865207A65726F206164 PUSH1 0x44 DUP3 ADD MSTORE PUSH32 0x6472657373000000000000000000000000000000000000000000000000000000 PUSH1 0x64 DUP3 ADD MSTORE PUSH1 0x84 ADD PUSH2 0x5E9 JUMP JUMPDEST PUSH1 0x1 PUSH1 0x1 PUSH1 0xA0 SHL SUB DUP3 AND PUSH2 0xF1E JUMPI PUSH1 0x40 MLOAD PUSH3 0x461BCD PUSH1 0xE5 SHL DUP2 MSTORE PUSH1 0x20 PUSH1 0x4 DUP3 ADD MSTORE PUSH1 0x23 PUSH1 0x24 DUP3 ADD MSTORE PUSH32 0x45524332303A207472616E7366657220746F20746865207A65726F2061646472 PUSH1 0x44 DUP3 ADD MSTORE PUSH32 0x6573730000000000000000000000000000000000000000000000000000000000 PUSH1 0x64 DUP3 ADD MSTORE PUSH1 0x84 ADD PUSH2 0x5E9 JUMP JUMPDEST PUSH1 0x1 PUSH1 0x1 PUSH1 0xA0 SHL SUB DUP4 AND PUSH1 0x0 SWAP1 DUP2 MSTORE PUSH1 0x20 DUP2 SWAP1 MSTORE PUSH1 0x40 SWAP1 KECCAK256 SLOAD DUP2 DUP2 LT ISZERO PUSH2 0xFAD JUMPI PUSH1 0x40 MLOAD PUSH3 0x461BCD PUSH1 0xE5 SHL DUP2 MSTORE PUSH1 0x20 PUSH1 0x4 DUP3 ADD MSTORE PUSH1 0x26 PUSH1 0x24 DUP3 ADD MSTORE PUSH32 0x45524332303A207472616E7366657220616D6F756E7420657863656564732062 PUSH1 0x44 DUP3 ADD MSTORE PUSH32 0x616C616E63650000000000000000000000000000000000000000000000000000 PUSH1 0x64 DUP3 ADD MSTORE PUSH1 0x84 ADD PUSH2 0x5E9 JUMP JUMPDEST PUSH1 0x1 PUSH1 0x1 PUSH1 0xA0 SHL SUB DUP5 DUP2 AND PUSH1 0x0 DUP2 DUP2 MSTORE PUSH1 0x20 DUP2 DUP2 MSTORE PUSH1 0x40 DUP1 DUP4 KECCAK256 DUP8 DUP8 SUB SWAP1 SSTORE SWAP4 DUP8 AND DUP1 DUP4 MSTORE SWAP2 DUP5 SWAP1 KECCAK256 DUP1 SLOAD DUP8 ADD SWAP1 SSTORE SWAP3 MLOAD DUP6 DUP2 MSTORE SWAP1 SWAP3 PUSH32 0xDDF252AD1BE2C89B69C2B068FC378DAA952BA7F163C4A11628F55A4DF523B3EF SWAP2 ADD PUSH1 0x40 MLOAD DUP1 SWAP2 SUB SWAP1 LOG3 PUSH2 0xE20 DUP5 DUP5 DUP5 PUSH2 0x14DE JUMP JUMPDEST PUSH1 0x0 ADDRESS PUSH1 0x1 PUSH1 0x1 PUSH1 0xA0 SHL SUB PUSH32 0x0 AND EQ DUP1 ISZERO PUSH2 0x1072 JUMPI POP PUSH32 0x0 CHAINID EQ JUMPDEST ISZERO PUSH2 0x109C JUMPI POP PUSH32 0x0 SWAP1 JUMP JUMPDEST POP PUSH1 0x40 DUP1 MLOAD PUSH32 0x0 PUSH1 0x20 DUP1 DUP4 ADD SWAP2 SWAP1 SWAP2 MSTORE PUSH32 0x0 DUP3 DUP5 ADD MSTORE PUSH32 0x0 PUSH1 0x60 DUP4 ADD MSTORE CHAINID PUSH1 0x80 DUP4 ADD MSTORE ADDRESS PUSH1 0xA0 DUP1 DUP5 ADD SWAP2 SWAP1 SWAP2 MSTORE DUP4 MLOAD DUP1 DUP5 SUB SWAP1 SWAP2 ADD DUP2 MSTORE PUSH1 0xC0 SWAP1 SWAP3 ADD SWAP1 SWAP3 MSTORE DUP1 MLOAD SWAP2 ADD KECCAK256 SWAP1 JUMP JUMPDEST DUP2 SLOAD PUSH1 0x0 SWAP1 DUP2 DUP2 PUSH1 0x5 DUP2 GT ISZERO PUSH2 0x119A JUMPI PUSH1 0x0 PUSH2 0x115B DUP5 PUSH2 0x14E9 JUMP JUMPDEST PUSH2 0x1165 SWAP1 DUP6 PUSH2 0x218E JUMP JUMPDEST PUSH1 0x0 DUP9 DUP2 MSTORE PUSH1 0x20 SWAP1 KECCAK256 SWAP1 SWAP2 POP DUP7 SWAP1 DUP3 ADD SLOAD PUSH4 0xFFFFFFFF AND GT ISZERO PUSH2 0x118A JUMPI DUP1 SWAP2 POP PUSH2 0x1198 JUMP JUMPDEST PUSH2 0x1195 DUP2 PUSH1 0x1 PUSH2 0x217B JUMP JUMPDEST SWAP3 POP JUMPDEST POP JUMPDEST DUP1 DUP3 LT ISZERO PUSH2 0x11E7 JUMPI PUSH1 0x0 PUSH2 0x11AE DUP4 DUP4 PUSH2 0x15D1 JUMP JUMPDEST PUSH1 0x0 DUP9 DUP2 MSTORE PUSH1 0x20 SWAP1 KECCAK256 SWAP1 SWAP2 POP DUP7 SWAP1 DUP3 ADD SLOAD PUSH4 0xFFFFFFFF AND GT ISZERO PUSH2 0x11D3 JUMPI DUP1 SWAP2 POP PUSH2 0x11E1 JUMP JUMPDEST PUSH2 0x11DE DUP2 PUSH1 0x1 PUSH2 0x217B JUMP JUMPDEST SWAP3 POP JUMPDEST POP PUSH2 0x119A JUMP JUMPDEST DUP1 ISZERO PUSH2 0x1221 JUMPI PUSH2 0x120A DUP7 PUSH2 0x11FC PUSH1 0x1 DUP5 PUSH2 0x218E JUMP JUMPDEST PUSH1 0x0 SWAP2 DUP3 MSTORE PUSH1 0x20 SWAP1 SWAP2 KECCAK256 ADD SWAP1 JUMP JUMPDEST SLOAD PUSH5 0x100000000 SWAP1 DIV PUSH1 0x1 PUSH1 0x1 PUSH1 0xE0 SHL SUB AND PUSH2 0x1224 JUMP JUMPDEST PUSH1 0x0 JUMPDEST PUSH1 0x1 PUSH1 0x1 PUSH1 0xE0 SHL SUB AND SWAP7 SWAP6 POP POP POP POP POP POP JUMP JUMPDEST PUSH1 0xA SLOAD PUSH1 0x1 PUSH1 0x1 PUSH1 0xA0 SHL SUB AND CALLER EQ PUSH2 0x67C JUMPI PUSH1 0x40 MLOAD PUSH3 0x461BCD PUSH1 0xE5 SHL DUP2 MSTORE PUSH1 0x20 PUSH1 0x4 DUP3 ADD DUP2 SWAP1 MSTORE PUSH1 0x24 DUP3 ADD MSTORE PUSH32 0x4F776E61626C653A2063616C6C6572206973206E6F7420746865206F776E6572 PUSH1 0x44 DUP3 ADD MSTORE PUSH1 0x64 ADD PUSH2 0x5E9 JUMP JUMPDEST PUSH2 0x62D DUP3 DUP3 PUSH2 0x15EC JUMP JUMPDEST PUSH2 0x62D DUP3 DUP3 PUSH2 0x1683 JUMP JUMPDEST PUSH1 0x1 PUSH1 0x1 PUSH1 0xA0 SHL SUB DUP3 DUP2 AND PUSH1 0x0 DUP2 DUP2 MSTORE PUSH1 0x7 PUSH1 0x20 DUP2 DUP2 MSTORE PUSH1 0x40 DUP1 DUP5 KECCAK256 DUP1 SLOAD DUP6 DUP5 MSTORE DUP3 DUP7 KECCAK256 SLOAD SWAP5 SWAP1 SWAP4 MSTORE DUP8 DUP8 AND PUSH32 0xFFFFFFFFFFFFFFFFFFFFFFFF0000000000000000000000000000000000000000 DUP5 AND DUP2 OR SWAP1 SWAP2 SSTORE SWAP1 MLOAD SWAP2 SWAP1 SWAP6 AND SWAP5 SWAP2 SWAP4 SWAP2 SWAP3 DUP6 SWAP3 SWAP2 PUSH32 0x3134E8A2E6D97E929A7E54011EA5485D7D196DD5F0BA4D4EF95803E8E3FC257F SWAP2 SWAP1 LOG4 PUSH2 0xE20 DUP3 DUP5 DUP4 PUSH2 0x169B JUMP JUMPDEST PUSH1 0x0 PUSH4 0xFFFFFFFF DUP3 GT ISZERO PUSH2 0x13B2 JUMPI PUSH1 0x40 MLOAD PUSH3 0x461BCD PUSH1 0xE5 SHL DUP2 MSTORE PUSH1 0x20 PUSH1 0x4 DUP3 ADD MSTORE PUSH1 0x26 PUSH1 0x24 DUP3 ADD MSTORE PUSH32 0x53616665436173743A2076616C756520646F65736E27742066697420696E2033 PUSH1 0x44 DUP3 ADD MSTORE PUSH32 0x3220626974730000000000000000000000000000000000000000000000000000 PUSH1 0x64 DUP3 ADD MSTORE PUSH1 0x84 ADD PUSH2 0x5E9 JUMP JUMPDEST POP SWAP1 JUMP JUMPDEST PUSH1 0xA DUP1 SLOAD PUSH1 0x1 PUSH1 0x1 PUSH1 0xA0 SHL SUB DUP4 DUP2 AND PUSH32 0xFFFFFFFFFFFFFFFFFFFFFFFF0000000000000000000000000000000000000000 DUP4 AND DUP2 OR SWAP1 SWAP4 SSTORE PUSH1 0x40 MLOAD SWAP2 AND SWAP2 SWAP1 DUP3 SWAP1 PUSH32 0x8BE0079C531659141344CD1FD0A4F28419497F9722A3DAAFE3B4186F6B6457E0 SWAP1 PUSH1 0x0 SWAP1 LOG3 POP POP JUMP JUMPDEST PUSH1 0x0 PUSH2 0x524 PUSH2 0x142D PUSH2 0x1019 JUMP JUMPDEST DUP4 PUSH1 0x40 MLOAD PUSH32 0x1901000000000000000000000000000000000000000000000000000000000000 PUSH1 0x20 DUP3 ADD MSTORE PUSH1 0x22 DUP2 ADD DUP4 SWAP1 MSTORE PUSH1 0x42 DUP2 ADD DUP3 SWAP1 MSTORE PUSH1 0x0 SWAP1 PUSH1 0x62 ADD PUSH1 0x40 MLOAD PUSH1 0x20 DUP2 DUP4 SUB SUB DUP2 MSTORE SWAP1 PUSH1 0x40 MSTORE DUP1 MLOAD SWAP1 PUSH1 0x20 ADD KECCAK256 SWAP1 POP SWAP3 SWAP2 POP POP JUMP JUMPDEST PUSH1 0x0 DUP1 PUSH1 0x0 PUSH2 0x149A DUP8 DUP8 DUP8 DUP8 PUSH2 0x17D8 JUMP JUMPDEST SWAP2 POP SWAP2 POP PUSH2 0x14A7 DUP2 PUSH2 0x189C JUMP JUMPDEST POP SWAP6 SWAP5 POP POP POP POP POP JUMP JUMPDEST PUSH1 0x1 PUSH1 0x1 PUSH1 0xA0 SHL SUB DUP2 AND PUSH1 0x0 SWAP1 DUP2 MSTORE PUSH1 0x5 PUSH1 0x20 MSTORE PUSH1 0x40 SWAP1 KECCAK256 DUP1 SLOAD PUSH1 0x1 DUP2 ADD DUP3 SSTORE SWAP1 JUMPDEST POP SWAP2 SWAP1 POP JUMP JUMPDEST POP POP POP JUMP JUMPDEST PUSH2 0x14D9 DUP4 DUP4 DUP4 PUSH2 0x1A01 JUMP JUMPDEST PUSH1 0x0 DUP2 PUSH1 0x0 SUB PUSH2 0x14FB JUMPI POP PUSH1 0x0 SWAP2 SWAP1 POP JUMP JUMPDEST PUSH1 0x0 PUSH1 0x1 PUSH2 0x1508 DUP5 PUSH2 0x1A33 JUMP JUMPDEST SWAP1 SHR PUSH1 0x1 SWAP1 SHL SWAP1 POP PUSH1 0x1 DUP2 DUP5 DUP2 PUSH2 0x1521 JUMPI PUSH2 0x1521 PUSH2 0x21B7 JUMP JUMPDEST DIV DUP3 ADD SWAP1 SHR SWAP1 POP PUSH1 0x1 DUP2 DUP5 DUP2 PUSH2 0x1539 JUMPI PUSH2 0x1539 PUSH2 0x21B7 JUMP JUMPDEST DIV DUP3 ADD SWAP1 SHR SWAP1 POP PUSH1 0x1 DUP2 DUP5 DUP2 PUSH2 0x1551 JUMPI PUSH2 0x1551 PUSH2 0x21B7 JUMP JUMPDEST DIV DUP3 ADD SWAP1 SHR SWAP1 POP PUSH1 0x1 DUP2 DUP5 DUP2 PUSH2 0x1569 JUMPI PUSH2 0x1569 PUSH2 0x21B7 JUMP JUMPDEST DIV DUP3 ADD SWAP1 SHR SWAP1 POP PUSH1 0x1 DUP2 DUP5 DUP2 PUSH2 0x1581 JUMPI PUSH2 0x1581 PUSH2 0x21B7 JUMP JUMPDEST DIV DUP3 ADD SWAP1 SHR SWAP1 POP PUSH1 0x1 DUP2 DUP5 DUP2 PUSH2 0x1599 JUMPI PUSH2 0x1599 PUSH2 0x21B7 JUMP JUMPDEST DIV DUP3 ADD SWAP1 SHR SWAP1 POP PUSH1 0x1 DUP2 DUP5 DUP2 PUSH2 0x15B1 JUMPI PUSH2 0x15B1 PUSH2 0x21B7 JUMP JUMPDEST DIV DUP3 ADD SWAP1 SHR SWAP1 POP PUSH2 0x614 DUP2 DUP3 DUP6 DUP2 PUSH2 0x15CB JUMPI PUSH2 0x15CB PUSH2 0x21B7 JUMP JUMPDEST DIV PUSH2 0x1AC7 JUMP JUMPDEST PUSH1 0x0 PUSH2 0x15E0 PUSH1 0x2 DUP5 DUP5 XOR PUSH2 0x21CD JUMP JUMPDEST PUSH2 0x614 SWAP1 DUP5 DUP5 AND PUSH2 0x217B JUMP JUMPDEST PUSH2 0x15F6 DUP3 DUP3 PUSH2 0x1ADD JUMP JUMPDEST PUSH1 0x2 SLOAD PUSH1 0x1 PUSH1 0x1 PUSH1 0xE0 SHL SUB LT ISZERO PUSH2 0x1675 JUMPI PUSH1 0x40 MLOAD PUSH3 0x461BCD PUSH1 0xE5 SHL DUP2 MSTORE PUSH1 0x20 PUSH1 0x4 DUP3 ADD MSTORE PUSH1 0x30 PUSH1 0x24 DUP3 ADD MSTORE PUSH32 0x4552433230566F7465733A20746F74616C20737570706C79207269736B73206F PUSH1 0x44 DUP3 ADD MSTORE PUSH32 0x766572666C6F77696E6720766F74657300000000000000000000000000000000 PUSH1 0x64 DUP3 ADD MSTORE PUSH1 0x84 ADD PUSH2 0x5E9 JUMP JUMPDEST PUSH2 0xE20 PUSH1 0x9 PUSH2 0xC06 DUP4 PUSH2 0x1BA4 JUMP JUMPDEST PUSH2 0x168D DUP3 DUP3 PUSH2 0x1CF8 JUMP JUMPDEST PUSH2 0xE20 PUSH1 0x9 PUSH2 0xC12 DUP4 PUSH2 0x1BA4 JUMP JUMPDEST DUP2 PUSH1 0x1 PUSH1 0x1 PUSH1 0xA0 SHL SUB AND DUP4 PUSH1 0x1 PUSH1 0x1 PUSH1 0xA0 SHL SUB AND EQ ISZERO DUP1 ISZERO PUSH2 0x16BD JUMPI POP PUSH1 0x0 DUP2 GT JUMPDEST ISZERO PUSH2 0x14D9 JUMPI PUSH1 0x1 PUSH1 0x1 PUSH1 0xA0 SHL SUB DUP4 AND ISZERO PUSH2 0x174B JUMPI PUSH1 0x1 PUSH1 0x1 PUSH1 0xA0 SHL SUB DUP4 AND PUSH1 0x0 SWAP1 DUP2 MSTORE PUSH1 0x8 PUSH1 0x20 MSTORE PUSH1 0x40 DUP2 KECCAK256 DUP2 SWAP1 PUSH2 0x16F8 SWAP1 PUSH2 0xC12 DUP6 PUSH2 0x1BA4 JUMP JUMPDEST SWAP2 POP SWAP2 POP DUP5 PUSH1 0x1 PUSH1 0x1 PUSH1 0xA0 SHL SUB AND PUSH32 0xDEC2BACDD2F05B59DE34DA9B523DFF8BE42E5E38E818C82FDB0BAE774387A724 DUP4 DUP4 PUSH1 0x40 MLOAD PUSH2 0x1740 SWAP3 SWAP2 SWAP1 SWAP2 DUP3 MSTORE PUSH1 0x20 DUP3 ADD MSTORE PUSH1 0x40 ADD SWAP1 JUMP JUMPDEST PUSH1 0x40 MLOAD DUP1 SWAP2 SUB SWAP1 LOG2 POP POP JUMPDEST PUSH1 0x1 PUSH1 0x1 PUSH1 0xA0 SHL SUB DUP3 AND ISZERO PUSH2 0x14D9 JUMPI PUSH1 0x1 PUSH1 0x1 PUSH1 0xA0 SHL SUB DUP3 AND PUSH1 0x0 SWAP1 DUP2 MSTORE PUSH1 0x8 PUSH1 0x20 MSTORE PUSH1 0x40 DUP2 KECCAK256 DUP2 SWAP1 PUSH2 0x1781 SWAP1 PUSH2 0xC06 DUP6 PUSH2 0x1BA4 JUMP JUMPDEST SWAP2 POP SWAP2 POP DUP4 PUSH1 0x1 PUSH1 0x1 PUSH1 0xA0 SHL SUB AND PUSH32 0xDEC2BACDD2F05B59DE34DA9B523DFF8BE42E5E38E818C82FDB0BAE774387A724 DUP4 DUP4 PUSH1 0x40 MLOAD PUSH2 0x17C9 SWAP3 SWAP2 SWAP1 SWAP2 DUP3 MSTORE PUSH1 0x20 DUP3 ADD MSTORE PUSH1 0x40 ADD SWAP1 JUMP JUMPDEST PUSH1 0x40 MLOAD DUP1 SWAP2 SUB SWAP1 LOG2 POP POP POP POP POP JUMP JUMPDEST PUSH1 0x0 DUP1 PUSH32 0x7FFFFFFFFFFFFFFFFFFFFFFFFFFFFFFF5D576E7357A4501DDFE92F46681B20A0 DUP4 GT ISZERO PUSH2 0x180F JUMPI POP PUSH1 0x0 SWAP1 POP PUSH1 0x3 PUSH2 0x1893 JUMP JUMPDEST PUSH1 0x40 DUP1 MLOAD PUSH1 0x0 DUP1 DUP3 MSTORE PUSH1 0x20 DUP3 ADD DUP1 DUP5 MSTORE DUP10 SWAP1 MSTORE PUSH1 0xFF DUP9 AND SWAP3 DUP3 ADD SWAP3 SWAP1 SWAP3 MSTORE PUSH1 0x60 DUP2 ADD DUP7 SWAP1 MSTORE PUSH1 0x80 DUP2 ADD DUP6 SWAP1 MSTORE PUSH1 0x1 SWAP1 PUSH1 0xA0 ADD PUSH1 0x20 PUSH1 0x40 MLOAD PUSH1 0x20 DUP2 SUB SWAP1 DUP1 DUP5 SUB SWAP1 DUP6 GAS STATICCALL ISZERO DUP1 ISZERO PUSH2 0x1863 JUMPI RETURNDATASIZE PUSH1 0x0 DUP1 RETURNDATACOPY RETURNDATASIZE PUSH1 0x0 REVERT JUMPDEST POP POP PUSH1 0x40 MLOAD PUSH1 0x1F NOT ADD MLOAD SWAP2 POP POP PUSH1 0x1 PUSH1 0x1 PUSH1 0xA0 SHL SUB DUP2 AND PUSH2 0x188C JUMPI PUSH1 0x0 PUSH1 0x1 SWAP3 POP SWAP3 POP POP PUSH2 0x1893 JUMP JUMPDEST SWAP2 POP PUSH1 0x0 SWAP1 POP JUMPDEST SWAP5 POP SWAP5 SWAP3 POP POP POP JUMP JUMPDEST PUSH1 0x0 DUP2 PUSH1 0x4 DUP2 GT ISZERO PUSH2 0x18B0 JUMPI PUSH2 0x18B0 PUSH2 0x21EF JUMP JUMPDEST SUB PUSH2 0x18B8 JUMPI POP JUMP JUMPDEST PUSH1 0x1 DUP2 PUSH1 0x4 DUP2 GT ISZERO PUSH2 0x18CC JUMPI PUSH2 0x18CC PUSH2 0x21EF JUMP JUMPDEST SUB PUSH2 0x1919 JUMPI PUSH1 0x40 MLOAD PUSH3 0x461BCD PUSH1 0xE5 SHL DUP2 MSTORE PUSH1 0x20 PUSH1 0x4 DUP3 ADD MSTORE PUSH1 0x18 PUSH1 0x24 DUP3 ADD MSTORE PUSH32 0x45434453413A20696E76616C6964207369676E61747572650000000000000000 PUSH1 0x44 DUP3 ADD MSTORE PUSH1 0x64 ADD PUSH2 0x5E9 JUMP JUMPDEST PUSH1 0x2 DUP2 PUSH1 0x4 DUP2 GT ISZERO PUSH2 0x192D JUMPI PUSH2 0x192D PUSH2 0x21EF JUMP JUMPDEST SUB PUSH2 0x197A JUMPI PUSH1 0x40 MLOAD PUSH3 0x461BCD PUSH1 0xE5 SHL DUP2 MSTORE PUSH1 0x20 PUSH1 0x4 DUP3 ADD MSTORE PUSH1 0x1F PUSH1 0x24 DUP3 ADD MSTORE PUSH32 0x45434453413A20696E76616C6964207369676E6174757265206C656E67746800 PUSH1 0x44 DUP3 ADD MSTORE PUSH1 0x64 ADD PUSH2 0x5E9 JUMP JUMPDEST PUSH1 0x3 DUP2 PUSH1 0x4 DUP2 GT ISZERO PUSH2 0x198E JUMPI PUSH2 0x198E PUSH2 0x21EF JUMP JUMPDEST SUB PUSH2 0x63B JUMPI PUSH1 0x40 MLOAD PUSH3 0x461BCD PUSH1 0xE5 SHL DUP2 MSTORE PUSH1 0x20 PUSH1 0x4 DUP3 ADD MSTORE PUSH1 0x22 PUSH1 0x24 DUP3 ADD MSTORE PUSH32 0x45434453413A20696E76616C6964207369676E6174757265202773272076616C PUSH1 0x44 DUP3 ADD MSTORE PUSH32 0x7565000000000000000000000000000000000000000000000000000000000000 PUSH1 0x64 DUP3 ADD MSTORE PUSH1 0x84 ADD PUSH2 0x5E9 JUMP JUMPDEST PUSH1 0x1 PUSH1 0x1 PUSH1 0xA0 SHL SUB DUP4 DUP2 AND PUSH1 0x0 SWAP1 DUP2 MSTORE PUSH1 0x7 PUSH1 0x20 MSTORE PUSH1 0x40 DUP1 DUP3 KECCAK256 SLOAD DUP6 DUP5 AND DUP4 MSTORE SWAP2 KECCAK256 SLOAD PUSH2 0x14D9 SWAP3 SWAP2 DUP3 AND SWAP2 AND DUP4 PUSH2 0x169B JUMP JUMPDEST PUSH1 0x0 DUP1 PUSH1 0x80 DUP4 SWAP1 SHR ISZERO PUSH2 0x1A48 JUMPI PUSH1 0x80 SWAP3 DUP4 SHR SWAP3 ADD JUMPDEST PUSH1 0x40 DUP4 SWAP1 SHR ISZERO PUSH2 0x1A5A JUMPI PUSH1 0x40 SWAP3 DUP4 SHR SWAP3 ADD JUMPDEST PUSH1 0x20 DUP4 SWAP1 SHR ISZERO PUSH2 0x1A6C JUMPI PUSH1 0x20 SWAP3 DUP4 SHR SWAP3 ADD JUMPDEST PUSH1 0x10 DUP4 SWAP1 SHR ISZERO PUSH2 0x1A7E JUMPI PUSH1 0x10 SWAP3 DUP4 SHR SWAP3 ADD JUMPDEST PUSH1 0x8 DUP4 SWAP1 SHR ISZERO PUSH2 0x1A90 JUMPI PUSH1 0x8 SWAP3 DUP4 SHR SWAP3 ADD JUMPDEST PUSH1 0x4 DUP4 SWAP1 SHR ISZERO PUSH2 0x1AA2 JUMPI PUSH1 0x4 SWAP3 DUP4 SHR SWAP3 ADD JUMPDEST PUSH1 0x2 DUP4 SWAP1 SHR ISZERO PUSH2 0x1AB4 JUMPI PUSH1 0x2 SWAP3 DUP4 SHR SWAP3 ADD JUMPDEST PUSH1 0x1 DUP4 SWAP1 SHR ISZERO PUSH2 0x524 JUMPI PUSH1 0x1 ADD SWAP3 SWAP2 POP POP JUMP JUMPDEST PUSH1 0x0 DUP2 DUP4 LT PUSH2 0x1AD6 JUMPI DUP2 PUSH2 0x614 JUMP JUMPDEST POP SWAP1 SWAP2 SWAP1 POP JUMP JUMPDEST PUSH1 0x1 PUSH1 0x1 PUSH1 0xA0 SHL SUB DUP3 AND PUSH2 0x1B33 JUMPI PUSH1 0x40 MLOAD PUSH3 0x461BCD PUSH1 0xE5 SHL DUP2 MSTORE PUSH1 0x20 PUSH1 0x4 DUP3 ADD MSTORE PUSH1 0x1F PUSH1 0x24 DUP3 ADD MSTORE PUSH32 0x45524332303A206D696E7420746F20746865207A65726F206164647265737300 PUSH1 0x44 DUP3 ADD MSTORE PUSH1 0x64 ADD PUSH2 0x5E9 JUMP JUMPDEST DUP1 PUSH1 0x2 PUSH1 0x0 DUP3 DUP3 SLOAD PUSH2 0x1B45 SWAP2 SWAP1 PUSH2 0x217B JUMP JUMPDEST SWAP1 SWAP2 SSTORE POP POP PUSH1 0x1 PUSH1 0x1 PUSH1 0xA0 SHL SUB DUP3 AND PUSH1 0x0 DUP2 DUP2 MSTORE PUSH1 0x20 DUP2 DUP2 MSTORE PUSH1 0x40 DUP1 DUP4 KECCAK256 DUP1 SLOAD DUP7 ADD SWAP1 SSTORE MLOAD DUP5 DUP2 MSTORE PUSH32 0xDDF252AD1BE2C89B69C2B068FC378DAA952BA7F163C4A11628F55A4DF523B3EF SWAP2 ADD PUSH1 0x40 MLOAD DUP1 SWAP2 SUB SWAP1 LOG3 PUSH2 0x62D PUSH1 0x0 DUP4 DUP4 PUSH2 0x14DE JUMP JUMPDEST DUP3 SLOAD PUSH1 0x0 SWAP1 DUP2 SWAP1 DUP2 DUP2 ISZERO PUSH2 0x1BF1 JUMPI PUSH2 0x1BC1 DUP8 PUSH2 0x11FC PUSH1 0x1 DUP6 PUSH2 0x218E JUMP JUMPDEST PUSH1 0x40 DUP1 MLOAD DUP1 DUP3 ADD SWAP1 SWAP2 MSTORE SWAP1 SLOAD PUSH4 0xFFFFFFFF DUP2 AND DUP3 MSTORE PUSH5 0x100000000 SWAP1 DIV PUSH1 0x1 PUSH1 0x1 PUSH1 0xE0 SHL SUB AND PUSH1 0x20 DUP3 ADD MSTORE PUSH2 0x1C06 JUMP JUMPDEST PUSH1 0x40 DUP1 MLOAD DUP1 DUP3 ADD SWAP1 SWAP2 MSTORE PUSH1 0x0 DUP1 DUP3 MSTORE PUSH1 0x20 DUP3 ADD MSTORE JUMPDEST SWAP1 POP DUP1 PUSH1 0x20 ADD MLOAD PUSH1 0x1 PUSH1 0x1 PUSH1 0xE0 SHL SUB AND SWAP4 POP PUSH2 0x1C26 DUP5 DUP7 DUP9 PUSH4 0xFFFFFFFF AND JUMP JUMPDEST SWAP3 POP PUSH1 0x0 DUP3 GT DUP1 ISZERO PUSH2 0x1C3E JUMPI POP DUP1 MLOAD PUSH4 0xFFFFFFFF AND NUMBER EQ JUMPDEST ISZERO PUSH2 0x1C83 JUMPI PUSH2 0x1C4C DUP4 PUSH2 0x1E68 JUMP JUMPDEST PUSH2 0x1C5B DUP9 PUSH2 0x11FC PUSH1 0x1 DUP7 PUSH2 0x218E JUMP JUMPDEST DUP1 SLOAD PUSH1 0x1 PUSH1 0x1 PUSH1 0xE0 SHL SUB SWAP3 SWAP1 SWAP3 AND PUSH5 0x100000000 MUL PUSH4 0xFFFFFFFF SWAP1 SWAP3 AND SWAP2 SWAP1 SWAP2 OR SWAP1 SSTORE PUSH2 0x1CEE JUMP JUMPDEST DUP7 PUSH1 0x40 MLOAD DUP1 PUSH1 0x40 ADD PUSH1 0x40 MSTORE DUP1 PUSH2 0x1C98 NUMBER PUSH2 0x1336 JUMP JUMPDEST PUSH4 0xFFFFFFFF AND DUP2 MSTORE PUSH1 0x20 ADD PUSH2 0x1CAC DUP7 PUSH2 0x1E68 JUMP JUMPDEST PUSH1 0x1 PUSH1 0x1 PUSH1 0xE0 SHL SUB SWAP1 DUP2 AND SWAP1 SWAP2 MSTORE DUP3 SLOAD PUSH1 0x1 DUP2 ADD DUP5 SSTORE PUSH1 0x0 SWAP4 DUP5 MSTORE PUSH1 0x20 SWAP4 DUP5 SWAP1 KECCAK256 DUP4 MLOAD SWAP5 SWAP1 SWAP4 ADD MLOAD SWAP1 SWAP2 AND PUSH5 0x100000000 MUL PUSH4 0xFFFFFFFF SWAP1 SWAP4 AND SWAP3 SWAP1 SWAP3 OR SWAP2 ADD SSTORE JUMPDEST POP POP SWAP4 POP SWAP4 SWAP2 POP POP JUMP JUMPDEST PUSH1 0x1 PUSH1 0x1 PUSH1 0xA0 SHL SUB DUP3 AND PUSH2 0x1D74 JUMPI PUSH1 0x40 MLOAD PUSH3 0x461BCD PUSH1 0xE5 SHL DUP2 MSTORE PUSH1 0x20 PUSH1 0x4 DUP3 ADD MSTORE PUSH1 0x21 PUSH1 0x24 DUP3 ADD MSTORE PUSH32 0x45524332303A206275726E2066726F6D20746865207A65726F20616464726573 PUSH1 0x44 DUP3 ADD MSTORE PUSH32 0x7300000000000000000000000000000000000000000000000000000000000000 PUSH1 0x64 DUP3 ADD MSTORE PUSH1 0x84 ADD PUSH2 0x5E9 JUMP JUMPDEST PUSH1 0x1 PUSH1 0x1 PUSH1 0xA0 SHL SUB DUP3 AND PUSH1 0x0 SWAP1 DUP2 MSTORE PUSH1 0x20 DUP2 SWAP1 MSTORE PUSH1 0x40 SWAP1 KECCAK256 SLOAD DUP2 DUP2 LT ISZERO PUSH2 0x1E03 JUMPI PUSH1 0x40 MLOAD PUSH3 0x461BCD PUSH1 0xE5 SHL DUP2 MSTORE PUSH1 0x20 PUSH1 0x4 DUP3 ADD MSTORE PUSH1 0x22 PUSH1 0x24 DUP3 ADD MSTORE PUSH32 0x45524332303A206275726E20616D6F756E7420657863656564732062616C616E PUSH1 0x44 DUP3 ADD MSTORE PUSH32 0x6365000000000000000000000000000000000000000000000000000000000000 PUSH1 0x64 DUP3 ADD MSTORE PUSH1 0x84 ADD PUSH2 0x5E9 JUMP JUMPDEST PUSH1 0x1 PUSH1 0x1 PUSH1 0xA0 SHL SUB DUP4 AND PUSH1 0x0 DUP2 DUP2 MSTORE PUSH1 0x20 DUP2 DUP2 MSTORE PUSH1 0x40 DUP1 DUP4 KECCAK256 DUP7 DUP7 SUB SWAP1 SSTORE PUSH1 0x2 DUP1 SLOAD DUP8 SWAP1 SUB SWAP1 SSTORE MLOAD DUP6 DUP2 MSTORE SWAP2 SWAP3 SWAP2 PUSH32 0xDDF252AD1BE2C89B69C2B068FC378DAA952BA7F163C4A11628F55A4DF523B3EF SWAP2 ADD PUSH1 0x40 MLOAD DUP1 SWAP2 SUB SWAP1 LOG3 PUSH2 0x14D9 DUP4 PUSH1 0x0 DUP5 PUSH2 0x14DE JUMP JUMPDEST PUSH1 0x0 PUSH1 0x1 PUSH1 0x1 PUSH1 0xE0 SHL SUB DUP3 GT ISZERO PUSH2 0x13B2 JUMPI PUSH1 0x40 MLOAD PUSH3 0x461BCD PUSH1 0xE5 SHL DUP2 MSTORE PUSH1 0x20 PUSH1 0x4 DUP3 ADD MSTORE PUSH1 0x27 PUSH1 0x24 DUP3 ADD MSTORE PUSH32 0x53616665436173743A2076616C756520646F65736E27742066697420696E2032 PUSH1 0x44 DUP3 ADD MSTORE PUSH32 0x3234206269747300000000000000000000000000000000000000000000000000 PUSH1 0x64 DUP3 ADD MSTORE PUSH1 0x84 ADD PUSH2 0x5E9 JUMP JUMPDEST PUSH1 0x0 PUSH1 0x20 DUP1 DUP4 MSTORE DUP4 MLOAD DUP1 DUP3 DUP6 ADD MSTORE PUSH1 0x0 JUMPDEST DUP2 DUP2 LT ISZERO PUSH2 0x1F14 JUMPI DUP6 DUP2 ADD DUP4 ADD MLOAD DUP6 DUP3 ADD PUSH1 0x40 ADD MSTORE DUP3 ADD PUSH2 0x1EF8 JUMP JUMPDEST POP PUSH1 0x0 PUSH1 0x40 DUP3 DUP7 ADD ADD MSTORE PUSH1 0x40 PUSH1 0x1F NOT PUSH1 0x1F DUP4 ADD AND DUP6 ADD ADD SWAP3 POP POP POP SWAP3 SWAP2 POP POP JUMP JUMPDEST DUP1 CALLDATALOAD PUSH1 0x1 PUSH1 0x1 PUSH1 0xA0 SHL SUB DUP2 AND DUP2 EQ PUSH2 0x1F4C JUMPI PUSH1 0x0 DUP1 REVERT JUMPDEST SWAP2 SWAP1 POP JUMP JUMPDEST PUSH1 0x0 DUP1 PUSH1 0x40 DUP4 DUP6 SUB SLT ISZERO PUSH2 0x1F64 JUMPI PUSH1 0x0 DUP1 REVERT JUMPDEST PUSH2 0x1F6D DUP4 PUSH2 0x1F35 JUMP JUMPDEST SWAP5 PUSH1 0x20 SWAP4 SWAP1 SWAP4 ADD CALLDATALOAD SWAP4 POP POP POP JUMP JUMPDEST PUSH1 0x0 DUP1 PUSH1 0x0 PUSH1 0x60 DUP5 DUP7 SUB SLT ISZERO PUSH2 0x1F90 JUMPI PUSH1 0x0 DUP1 REVERT JUMPDEST PUSH2 0x1F99 DUP5 PUSH2 0x1F35 JUMP JUMPDEST SWAP3 POP PUSH2 0x1FA7 PUSH1 0x20 DUP6 ADD PUSH2 0x1F35 JUMP JUMPDEST SWAP2 POP PUSH1 0x40 DUP5 ADD CALLDATALOAD SWAP1 POP SWAP3 POP SWAP3 POP SWAP3 JUMP JUMPDEST PUSH1 0x0 PUSH1 0x20 DUP3 DUP5 SUB SLT ISZERO PUSH2 0x1FC9 JUMPI PUSH1 0x0 DUP1 REVERT JUMPDEST POP CALLDATALOAD SWAP2 SWAP1 POP JUMP JUMPDEST PUSH1 0x0 PUSH1 0x20 DUP3 DUP5 SUB SLT ISZERO PUSH2 0x1FE2 JUMPI PUSH1 0x0 DUP1 REVERT JUMPDEST PUSH2 0x614 DUP3 PUSH2 0x1F35 JUMP JUMPDEST DUP1 CALLDATALOAD PUSH1 0xFF DUP2 AND DUP2 EQ PUSH2 0x1F4C JUMPI PUSH1 0x0 DUP1 REVERT JUMPDEST PUSH1 0x0 DUP1 PUSH1 0x0 DUP1 PUSH1 0x0 DUP1 PUSH1 0xC0 DUP8 DUP10 SUB SLT ISZERO PUSH2 0x2015 JUMPI PUSH1 0x0 DUP1 REVERT JUMPDEST PUSH2 0x201E DUP8 PUSH2 0x1F35 JUMP JUMPDEST SWAP6 POP PUSH1 0x20 DUP8 ADD CALLDATALOAD SWAP5 POP PUSH1 0x40 DUP8 ADD CALLDATALOAD SWAP4 POP PUSH2 0x203A PUSH1 0x60 DUP9 ADD PUSH2 0x1FEB JUMP JUMPDEST SWAP3 POP PUSH1 0x80 DUP8 ADD CALLDATALOAD SWAP2 POP PUSH1 0xA0 DUP8 ADD CALLDATALOAD SWAP1 POP SWAP3 SWAP6 POP SWAP3 SWAP6 POP SWAP3 SWAP6 JUMP JUMPDEST PUSH1 0x0 DUP1 PUSH1 0x0 DUP1 PUSH1 0x0 DUP1 PUSH1 0x0 PUSH1 0xE0 DUP9 DUP11 SUB SLT ISZERO PUSH2 0x206F JUMPI PUSH1 0x0 DUP1 REVERT JUMPDEST PUSH2 0x2078 DUP9 PUSH2 0x1F35 JUMP JUMPDEST SWAP7 POP PUSH2 0x2086 PUSH1 0x20 DUP10 ADD PUSH2 0x1F35 JUMP JUMPDEST SWAP6 POP PUSH1 0x40 DUP9 ADD CALLDATALOAD SWAP5 POP PUSH1 0x60 DUP9 ADD CALLDATALOAD SWAP4 POP PUSH2 0x20A2 PUSH1 0x80 DUP10 ADD PUSH2 0x1FEB JUMP JUMPDEST SWAP3 POP PUSH1 0xA0 DUP9 ADD CALLDATALOAD SWAP2 POP PUSH1 0xC0 DUP9 ADD CALLDATALOAD SWAP1 POP SWAP3 SWAP6 SWAP9 SWAP2 SWAP5 SWAP8 POP SWAP3 SWAP6 POP JUMP JUMPDEST PUSH1 0x0 DUP1 PUSH1 0x40 DUP4 DUP6 SUB SLT ISZERO PUSH2 0x20D1 JUMPI PUSH1 0x0 DUP1 REVERT JUMPDEST PUSH2 0x20DA DUP4 PUSH2 0x1F35 JUMP JUMPDEST SWAP2 POP PUSH2 0x20E8 PUSH1 0x20 DUP5 ADD PUSH2 0x1F35 JUMP JUMPDEST SWAP1 POP SWAP3 POP SWAP3 SWAP1 POP JUMP JUMPDEST PUSH1 0x0 DUP1 PUSH1 0x40 DUP4 DUP6 SUB SLT ISZERO PUSH2 0x2104 JUMPI PUSH1 0x0 DUP1 REVERT JUMPDEST PUSH2 0x210D DUP4 PUSH2 0x1F35 JUMP JUMPDEST SWAP2 POP PUSH1 0x20 DUP4 ADD CALLDATALOAD PUSH4 0xFFFFFFFF DUP2 AND DUP2 EQ PUSH2 0x2126 JUMPI PUSH1 0x0 DUP1 REVERT JUMPDEST DUP1 SWAP2 POP POP SWAP3 POP SWAP3 SWAP1 POP JUMP JUMPDEST PUSH1 0x1 DUP2 DUP2 SHR SWAP1 DUP3 AND DUP1 PUSH2 0x2145 JUMPI PUSH1 0x7F DUP3 AND SWAP2 POP JUMPDEST PUSH1 0x20 DUP3 LT DUP2 SUB PUSH2 0x14D3 JUMPI PUSH4 0x4E487B71 PUSH1 0xE0 SHL PUSH1 0x0 MSTORE PUSH1 0x22 PUSH1 0x4 MSTORE PUSH1 0x24 PUSH1 0x0 REVERT JUMPDEST PUSH4 0x4E487B71 PUSH1 0xE0 SHL PUSH1 0x0 MSTORE PUSH1 0x11 PUSH1 0x4 MSTORE PUSH1 0x24 PUSH1 0x0 REVERT JUMPDEST DUP1 DUP3 ADD DUP1 DUP3 GT ISZERO PUSH2 0x524 JUMPI PUSH2 0x524 PUSH2 0x2165 JUMP JUMPDEST DUP2 DUP2 SUB DUP2 DUP2 GT ISZERO PUSH2 0x524 JUMPI PUSH2 0x524 PUSH2 0x2165 JUMP JUMPDEST PUSH4 0x4E487B71 PUSH1 0xE0 SHL PUSH1 0x0 MSTORE PUSH1 0x32 PUSH1 0x4 MSTORE PUSH1 0x24 PUSH1 0x0 REVERT JUMPDEST PUSH4 0x4E487B71 PUSH1 0xE0 SHL PUSH1 0x0 MSTORE PUSH1 0x12 PUSH1 0x4 MSTORE PUSH1 0x24 PUSH1 0x0 REVERT JUMPDEST PUSH1 0x0 DUP3 PUSH2 0x21EA JUMPI PUSH4 0x4E487B71 PUSH1 0xE0 SHL PUSH1 0x0 MSTORE PUSH1 0x12 PUSH1 0x4 MSTORE PUSH1 0x24 PUSH1 0x0 REVERT JUMPDEST POP DIV SWAP1 JUMP JUMPDEST PUSH4 0x4E487B71 PUSH1 0xE0 SHL PUSH1 0x0 MSTORE PUSH1 0x21 PUSH1 0x4 MSTORE PUSH1 0x24 PUSH1 0x0 REVERT INVALID LOG2 PUSH5 0x6970667358 0x22 SLT KECCAK256 BASEFEE 0xDC 0xF9 0xEB DUP14 0xCE KECCAK256 0xDE 0xE1 0xAF 0xAD KECCAK256 SDIV 0xE9 0xC RETURNDATACOPY SWAP14 SIGNEXTEND 0xCA NUMBER 0x49 PUSH32 0x257ED4BA1727ECC359A64736F6C63430008130033DEC2BACDD2F05B59DE34DA SWAP12 MSTORE RETURNDATASIZE SELFDESTRUCT DUP12 0xE4 0x2E 0x5E CODESIZE 0xE8 XOR 0xC8 0x2F 0xDB SIGNEXTEND 0xAE PUSH24 0x4387A72460806040523480156200001157600080FD5B5060 BLOCKHASH MLOAD PUSH3 0x2724 CODESIZE SUB DUP1 PUSH3 0x2724 DUP4 CODECOPY DUP2 ADD PUSH1 0x40 DUP2 SWAP1 MSTORE PUSH3 0x34 SWAP2 PUSH3 0x408 JUMP JUMPDEST PUSH3 0x4F PUSH1 0x0 DUP1 MLOAD PUSH1 0x20 PUSH3 0x26A4 DUP4 CODECOPY DUP2 MLOAD SWAP2 MSTORE DUP1 PUSH3 0x22D JUMP JUMPDEST PUSH3 0x79 PUSH1 0x0 DUP1 MLOAD PUSH1 0x20 PUSH3 0x26C4 DUP4 CODECOPY DUP2 MLOAD SWAP2 MSTORE PUSH1 0x0 DUP1 MLOAD PUSH1 0x20 PUSH3 0x26A4 DUP4 CODECOPY DUP2 MLOAD SWAP2 MSTORE PUSH3 0x22D JUMP JUMPDEST PUSH3 0xA3 PUSH1 0x0 DUP1 MLOAD PUSH1 0x20 PUSH3 0x26E4 DUP4 CODECOPY DUP2 MLOAD SWAP2 MSTORE PUSH1 0x0 DUP1 MLOAD PUSH1 0x20 PUSH3 0x26A4 DUP4 CODECOPY DUP2 MLOAD SWAP2 MSTORE PUSH3 0x22D JUMP JUMPDEST PUSH3 0xCD PUSH1 0x0 DUP1 MLOAD PUSH1 0x20 PUSH3 0x2704 DUP4 CODECOPY DUP2 MLOAD SWAP2 MSTORE PUSH1 0x0 DUP1 MLOAD PUSH1 0x20 PUSH3 0x26A4 DUP4 CODECOPY DUP2 MLOAD SWAP2 MSTORE PUSH3 0x22D JUMP JUMPDEST PUSH3 0xE8 PUSH1 0x0 DUP1 MLOAD PUSH1 0x20 PUSH3 0x26A4 DUP4 CODECOPY DUP2 MLOAD SWAP2 MSTORE ADDRESS PUSH3 0x278 JUMP JUMPDEST PUSH1 0x1 PUSH1 0x1 PUSH1 0xA0 SHL SUB DUP2 AND ISZERO PUSH3 0x113 JUMPI PUSH3 0x113 PUSH1 0x0 DUP1 MLOAD PUSH1 0x20 PUSH3 0x26A4 DUP4 CODECOPY DUP2 MLOAD SWAP2 MSTORE DUP3 PUSH3 0x278 JUMP JUMPDEST PUSH1 0x0 JUMPDEST DUP4 MLOAD DUP2 LT ISZERO PUSH3 0x199 JUMPI PUSH3 0x15D PUSH1 0x0 DUP1 MLOAD PUSH1 0x20 PUSH3 0x26C4 DUP4 CODECOPY DUP2 MLOAD SWAP2 MSTORE DUP6 DUP4 DUP2 MLOAD DUP2 LT PUSH3 0x149 JUMPI PUSH3 0x149 PUSH3 0x48F JUMP JUMPDEST PUSH1 0x20 MUL PUSH1 0x20 ADD ADD MLOAD PUSH3 0x278 PUSH1 0x20 SHL PUSH1 0x20 SHR JUMP JUMPDEST PUSH3 0x186 PUSH1 0x0 DUP1 MLOAD PUSH1 0x20 PUSH3 0x2704 DUP4 CODECOPY DUP2 MLOAD SWAP2 MSTORE DUP6 DUP4 DUP2 MLOAD DUP2 LT PUSH3 0x149 JUMPI PUSH3 0x149 PUSH3 0x48F JUMP JUMPDEST PUSH3 0x191 DUP2 PUSH3 0x4A5 JUMP JUMPDEST SWAP1 POP PUSH3 0x116 JUMP JUMPDEST POP PUSH1 0x0 JUMPDEST DUP3 MLOAD DUP2 LT ISZERO PUSH3 0x1E3 JUMPI PUSH3 0x1D0 PUSH1 0x0 DUP1 MLOAD PUSH1 0x20 PUSH3 0x26E4 DUP4 CODECOPY DUP2 MLOAD SWAP2 MSTORE DUP5 DUP4 DUP2 MLOAD DUP2 LT PUSH3 0x149 JUMPI PUSH3 0x149 PUSH3 0x48F JUMP JUMPDEST PUSH3 0x1DB DUP2 PUSH3 0x4A5 JUMP JUMPDEST SWAP1 POP PUSH3 0x19D JUMP JUMPDEST POP PUSH1 0x2 DUP5 SWAP1 SSTORE PUSH1 0x40 DUP1 MLOAD PUSH1 0x0 DUP2 MSTORE PUSH1 0x20 DUP2 ADD DUP7 SWAP1 MSTORE PUSH32 0x11C24F4EAD16507C69AC467FBD5E4EED5FB5C699626D2CC6D66421DF253886D5 SWAP2 ADD PUSH1 0x40 MLOAD DUP1 SWAP2 SUB SWAP1 LOG1 POP POP POP POP PUSH3 0x4CD JUMP JUMPDEST PUSH1 0x0 DUP3 DUP2 MSTORE PUSH1 0x20 DUP2 SWAP1 MSTORE PUSH1 0x40 DUP1 DUP3 KECCAK256 PUSH1 0x1 ADD DUP1 SLOAD SWAP1 DUP5 SWAP1 SSTORE SWAP1 MLOAD SWAP1 SWAP2 DUP4 SWAP2 DUP4 SWAP2 DUP7 SWAP2 PUSH32 0xBD79B86FFE0AB8E8776151514217CD7CACD52C909F66475C3AF44E129F0B00FF SWAP2 SWAP1 LOG4 POP POP POP JUMP JUMPDEST PUSH3 0x284 DUP3 DUP3 PUSH3 0x288 JUMP JUMPDEST POP POP JUMP JUMPDEST PUSH1 0x0 DUP3 DUP2 MSTORE PUSH1 0x20 DUP2 DUP2 MSTORE PUSH1 0x40 DUP1 DUP4 KECCAK256 PUSH1 0x1 PUSH1 0x1 PUSH1 0xA0 SHL SUB DUP6 AND DUP5 MSTORE SWAP1 SWAP2 MSTORE SWAP1 KECCAK256 SLOAD PUSH1 0xFF AND PUSH3 0x284 JUMPI PUSH1 0x0 DUP3 DUP2 MSTORE PUSH1 0x20 DUP2 DUP2 MSTORE PUSH1 0x40 DUP1 DUP4 KECCAK256 PUSH1 0x1 PUSH1 0x1 PUSH1 0xA0 SHL SUB DUP6 AND DUP5 MSTORE SWAP1 SWAP2 MSTORE SWAP1 KECCAK256 DUP1 SLOAD PUSH1 0xFF NOT AND PUSH1 0x1 OR SWAP1 SSTORE PUSH3 0x2E4 CALLER SWAP1 JUMP JUMPDEST PUSH1 0x1 PUSH1 0x1 PUSH1 0xA0 SHL SUB AND DUP2 PUSH1 0x1 PUSH1 0x1 PUSH1 0xA0 SHL SUB AND DUP4 PUSH32 0x2F8788117E7EFF1D82E926EC794901D17C78024A50270940304540A733656F0D PUSH1 0x40 MLOAD PUSH1 0x40 MLOAD DUP1 SWAP2 SUB SWAP1 LOG4 POP POP JUMP JUMPDEST PUSH4 0x4E487B71 PUSH1 0xE0 SHL PUSH1 0x0 MSTORE PUSH1 0x41 PUSH1 0x4 MSTORE PUSH1 0x24 PUSH1 0x0 REVERT JUMPDEST DUP1 MLOAD PUSH1 0x1 PUSH1 0x1 PUSH1 0xA0 SHL SUB DUP2 AND DUP2 EQ PUSH3 0x356 JUMPI PUSH1 0x0 DUP1 REVERT JUMPDEST SWAP2 SWAP1 POP JUMP JUMPDEST PUSH1 0x0 DUP3 PUSH1 0x1F DUP4 ADD SLT PUSH3 0x36D JUMPI PUSH1 0x0 DUP1 REVERT JUMPDEST DUP2 MLOAD PUSH1 0x20 PUSH1 0x1 PUSH1 0x1 PUSH1 0x40 SHL SUB DUP1 DUP4 GT ISZERO PUSH3 0x38C JUMPI PUSH3 0x38C PUSH3 0x328 JUMP JUMPDEST DUP3 PUSH1 0x5 SHL PUSH1 0x40 MLOAD PUSH1 0x1F NOT PUSH1 0x3F DUP4 ADD AND DUP2 ADD DUP2 DUP2 LT DUP5 DUP3 GT OR ISZERO PUSH3 0x3B4 JUMPI PUSH3 0x3B4 PUSH3 0x328 JUMP JUMPDEST PUSH1 0x40 MSTORE SWAP4 DUP5 MSTORE DUP6 DUP2 ADD DUP4 ADD SWAP4 DUP4 DUP2 ADD SWAP3 POP DUP8 DUP6 GT ISZERO PUSH3 0x3D3 JUMPI PUSH1 0x0 DUP1 REVERT JUMPDEST DUP4 DUP8 ADD SWAP2 POP JUMPDEST DUP5 DUP3 LT ISZERO PUSH3 0x3FD JUMPI PUSH3 0x3ED DUP3 PUSH3 0x33E JUMP JUMPDEST DUP4 MSTORE SWAP2 DUP4 ADD SWAP2 SWAP1 DUP4 ADD SWAP1 PUSH3 0x3D9 JUMP JUMPDEST SWAP8 SWAP7 POP POP POP POP POP POP POP JUMP JUMPDEST PUSH1 0x0 DUP1 PUSH1 0x0 DUP1 PUSH1 0x80 DUP6 DUP8 SUB SLT ISZERO PUSH3 0x41F JUMPI PUSH1 0x0 DUP1 REVERT JUMPDEST DUP5 MLOAD PUSH1 0x20 DUP7 ADD MLOAD SWAP1 SWAP5 POP PUSH1 0x1 PUSH1 0x1 PUSH1 0x40 SHL SUB DUP1 DUP3 GT ISZERO PUSH3 0x43F JUMPI PUSH1 0x0 DUP1 REVERT JUMPDEST PUSH3 0x44D DUP9 DUP4 DUP10 ADD PUSH3 0x35B JUMP JUMPDEST SWAP5 POP PUSH1 0x40 DUP8 ADD MLOAD SWAP2 POP DUP1 DUP3 GT ISZERO PUSH3 0x464 JUMPI PUSH1 0x0 DUP1 REVERT JUMPDEST POP PUSH3 0x473 DUP8 DUP3 DUP9 ADD PUSH3 0x35B JUMP JUMPDEST SWAP3 POP POP PUSH3 0x484 PUSH1 0x60 DUP7 ADD PUSH3 0x33E JUMP JUMPDEST SWAP1 POP SWAP3 SWAP6 SWAP2 SWAP5 POP SWAP3 POP JUMP JUMPDEST PUSH4 0x4E487B71 PUSH1 0xE0 SHL PUSH1 0x0 MSTORE PUSH1 0x32 PUSH1 0x4 MSTORE PUSH1 0x24 PUSH1 0x0 REVERT JUMPDEST PUSH1 0x0 PUSH1 0x1 DUP3 ADD PUSH3 0x4C6 JUMPI PUSH4 0x4E487B71 PUSH1 0xE0 SHL PUSH1 0x0 MSTORE PUSH1 0x11 PUSH1 0x4 MSTORE PUSH1 0x24 PUSH1 0x0 REVERT JUMPDEST POP PUSH1 0x1 ADD SWAP1 JUMP JUMPDEST PUSH2 0x21C7 DUP1 PUSH3 0x4DD PUSH1 0x0 CODECOPY PUSH1 0x0 RETURN INVALID PUSH1 0x80 PUSH1 0x40 MSTORE PUSH1 0x4 CALLDATASIZE LT PUSH2 0x1BB JUMPI PUSH1 0x0 CALLDATALOAD PUSH1 0xE0 SHR DUP1 PUSH4 0x8065657F GT PUSH2 0xEC JUMPI DUP1 PUSH4 0xBC197C81 GT PUSH2 0x8A JUMPI DUP1 PUSH4 0xD547741F GT PUSH2 0x64 JUMPI DUP1 PUSH4 0xD547741F EQ PUSH2 0x5F0 JUMPI DUP1 PUSH4 0xE38335E5 EQ PUSH2 0x610 JUMPI DUP1 PUSH4 0xF23A6E61 EQ PUSH2 0x623 JUMPI DUP1 PUSH4 0xF27A0C92 EQ PUSH2 0x668 JUMPI PUSH1 0x0 DUP1 REVERT JUMPDEST DUP1 PUSH4 0xBC197C81 EQ PUSH2 0x55E JUMPI DUP1 PUSH4 0xC4D252F5 EQ PUSH2 0x5A3 JUMPI DUP1 PUSH4 0xD45C4435 EQ PUSH2 0x5C3 JUMPI PUSH1 0x0 DUP1 REVERT JUMPDEST DUP1 PUSH4 0x91D14854 GT PUSH2 0xC6 JUMPI DUP1 PUSH4 0x91D14854 EQ PUSH2 0x4B1 JUMPI DUP1 PUSH4 0xA217FDDF EQ PUSH2 0x4F5 JUMPI DUP1 PUSH4 0xB08E51C0 EQ PUSH2 0x50A JUMPI DUP1 PUSH4 0xB1C5F427 EQ PUSH2 0x53E JUMPI PUSH1 0x0 DUP1 REVERT JUMPDEST DUP1 PUSH4 0x8065657F EQ PUSH2 0x43D JUMPI DUP1 PUSH4 0x8F2A0BB0 EQ PUSH2 0x45D JUMPI DUP1 PUSH4 0x8F61F4F5 EQ PUSH2 0x47D JUMPI PUSH1 0x0 DUP1 REVERT JUMPDEST DUP1 PUSH4 0x248A9CA3 GT PUSH2 0x159 JUMPI DUP1 PUSH4 0x31D50750 GT PUSH2 0x133 JUMPI DUP1 PUSH4 0x31D50750 EQ PUSH2 0x3BD JUMPI DUP1 PUSH4 0x36568ABE EQ PUSH2 0x3DD JUMPI DUP1 PUSH4 0x584B153E EQ PUSH2 0x3FD JUMPI DUP1 PUSH4 0x64D62353 EQ PUSH2 0x41D JUMPI PUSH1 0x0 DUP1 REVERT JUMPDEST DUP1 PUSH4 0x248A9CA3 EQ PUSH2 0x33C JUMPI DUP1 PUSH4 0x2AB0F529 EQ PUSH2 0x36C JUMPI DUP1 PUSH4 0x2F2FF15D EQ PUSH2 0x39D JUMPI PUSH1 0x0 DUP1 REVERT JUMPDEST DUP1 PUSH4 0xD3CF6FC GT PUSH2 0x195 JUMPI DUP1 PUSH4 0xD3CF6FC EQ PUSH2 0x260 JUMPI DUP1 PUSH4 0x134008D3 EQ PUSH2 0x294 JUMPI DUP1 PUSH4 0x13BC9F20 EQ PUSH2 0x2A7 JUMPI DUP1 PUSH4 0x150B7A02 EQ PUSH2 0x2C7 JUMPI PUSH1 0x0 DUP1 REVERT JUMPDEST DUP1 PUSH4 0x1D5062A EQ PUSH2 0x1C7 JUMPI DUP1 PUSH4 0x1FFC9A7 EQ PUSH2 0x1E9 JUMPI DUP1 PUSH4 0x7BD0265 EQ PUSH2 0x21E JUMPI PUSH1 0x0 DUP1 REVERT JUMPDEST CALLDATASIZE PUSH2 0x1C2 JUMPI STOP JUMPDEST PUSH1 0x0 DUP1 REVERT JUMPDEST CALLVALUE DUP1 ISZERO PUSH2 0x1D3 JUMPI PUSH1 0x0 DUP1 REVERT JUMPDEST POP PUSH2 0x1E7 PUSH2 0x1E2 CALLDATASIZE PUSH1 0x4 PUSH2 0x1822 JUMP JUMPDEST PUSH2 0x67D JUMP JUMPDEST STOP JUMPDEST CALLVALUE DUP1 ISZERO PUSH2 0x1F5 JUMPI PUSH1 0x0 DUP1 REVERT JUMPDEST POP PUSH2 0x209 PUSH2 0x204 CALLDATASIZE PUSH1 0x4 PUSH2 0x1897 JUMP JUMPDEST PUSH2 0x712 JUMP JUMPDEST PUSH1 0x40 MLOAD SWAP1 ISZERO ISZERO DUP2 MSTORE PUSH1 0x20 ADD JUMPDEST PUSH1 0x40 MLOAD DUP1 SWAP2 SUB SWAP1 RETURN JUMPDEST CALLVALUE DUP1 ISZERO PUSH2 0x22A JUMPI PUSH1 0x0 DUP1 REVERT JUMPDEST POP PUSH2 0x252 PUSH32 0xD8AA0F3194971A2A116679F7C2090F6939C8D4E01A2A8D7E41D55E5351469E63 DUP2 JUMP JUMPDEST PUSH1 0x40 MLOAD SWAP1 DUP2 MSTORE PUSH1 0x20 ADD PUSH2 0x215 JUMP JUMPDEST CALLVALUE DUP1 ISZERO PUSH2 0x26C JUMPI PUSH1 0x0 DUP1 REVERT JUMPDEST POP PUSH2 0x252 PUSH32 0x5F58E3A2316349923CE3780F8D587DB2D72378AED66A8261C916544FA6846CA5 DUP2 JUMP JUMPDEST PUSH2 0x1E7 PUSH2 0x2A2 CALLDATASIZE PUSH1 0x4 PUSH2 0x18D9 JUMP JUMPDEST PUSH2 0x76E JUMP JUMPDEST CALLVALUE DUP1 ISZERO PUSH2 0x2B3 JUMPI PUSH1 0x0 DUP1 REVERT JUMPDEST POP PUSH2 0x209 PUSH2 0x2C2 CALLDATASIZE PUSH1 0x4 PUSH2 0x1945 JUMP JUMPDEST PUSH2 0x866 JUMP JUMPDEST CALLVALUE DUP1 ISZERO PUSH2 0x2D3 JUMPI PUSH1 0x0 DUP1 REVERT JUMPDEST POP PUSH2 0x30B PUSH2 0x2E2 CALLDATASIZE PUSH1 0x4 PUSH2 0x1A15 JUMP JUMPDEST PUSH32 0x150B7A0200000000000000000000000000000000000000000000000000000000 SWAP5 SWAP4 POP POP POP POP JUMP JUMPDEST PUSH1 0x40 MLOAD PUSH32 0xFFFFFFFF00000000000000000000000000000000000000000000000000000000 SWAP1 SWAP2 AND DUP2 MSTORE PUSH1 0x20 ADD PUSH2 0x215 JUMP JUMPDEST CALLVALUE DUP1 ISZERO PUSH2 0x348 JUMPI PUSH1 0x0 DUP1 REVERT JUMPDEST POP PUSH2 0x252 PUSH2 0x357 CALLDATASIZE PUSH1 0x4 PUSH2 0x1945 JUMP JUMPDEST PUSH1 0x0 SWAP1 DUP2 MSTORE PUSH1 0x20 DUP2 SWAP1 MSTORE PUSH1 0x40 SWAP1 KECCAK256 PUSH1 0x1 ADD SLOAD SWAP1 JUMP JUMPDEST CALLVALUE DUP1 ISZERO PUSH2 0x378 JUMPI PUSH1 0x0 DUP1 REVERT JUMPDEST POP PUSH2 0x209 PUSH2 0x387 CALLDATASIZE PUSH1 0x4 PUSH2 0x1945 JUMP JUMPDEST PUSH1 0x0 SWAP1 DUP2 MSTORE PUSH1 0x1 PUSH1 0x20 DUP2 SWAP1 MSTORE PUSH1 0x40 SWAP1 SWAP2 KECCAK256 SLOAD EQ SWAP1 JUMP JUMPDEST CALLVALUE DUP1 ISZERO PUSH2 0x3A9 JUMPI PUSH1 0x0 DUP1 REVERT JUMPDEST POP PUSH2 0x1E7 PUSH2 0x3B8 CALLDATASIZE PUSH1 0x4 PUSH2 0x1A7D JUMP JUMPDEST PUSH2 0x88C JUMP JUMPDEST CALLVALUE DUP1 ISZERO PUSH2 0x3C9 JUMPI PUSH1 0x0 DUP1 REVERT JUMPDEST POP PUSH2 0x209 PUSH2 0x3D8 CALLDATASIZE PUSH1 0x4 PUSH2 0x1945 JUMP JUMPDEST PUSH2 0x8B6 JUMP JUMPDEST CALLVALUE DUP1 ISZERO PUSH2 0x3E9 JUMPI PUSH1 0x0 DUP1 REVERT JUMPDEST POP PUSH2 0x1E7 PUSH2 0x3F8 CALLDATASIZE PUSH1 0x4 PUSH2 0x1A7D JUMP JUMPDEST PUSH2 0x8CF JUMP JUMPDEST CALLVALUE DUP1 ISZERO PUSH2 0x409 JUMPI PUSH1 0x0 DUP1 REVERT JUMPDEST POP PUSH2 0x209 PUSH2 0x418 CALLDATASIZE PUSH1 0x4 PUSH2 0x1945 JUMP JUMPDEST PUSH2 0x960 JUMP JUMPDEST CALLVALUE DUP1 ISZERO PUSH2 0x429 JUMPI PUSH1 0x0 DUP1 REVERT JUMPDEST POP PUSH2 0x1E7 PUSH2 0x438 CALLDATASIZE PUSH1 0x4 PUSH2 0x1945 JUMP JUMPDEST PUSH2 0x976 JUMP JUMPDEST CALLVALUE DUP1 ISZERO PUSH2 0x449 JUMPI PUSH1 0x0 DUP1 REVERT JUMPDEST POP PUSH2 0x252 PUSH2 0x458 CALLDATASIZE PUSH1 0x4 PUSH2 0x18D9 JUMP JUMPDEST PUSH2 0xA2C JUMP JUMPDEST CALLVALUE DUP1 ISZERO PUSH2 0x469 JUMPI PUSH1 0x0 DUP1 REVERT JUMPDEST POP PUSH2 0x1E7 PUSH2 0x478 CALLDATASIZE PUSH1 0x4 PUSH2 0x1AEE JUMP JUMPDEST PUSH2 0xA6B JUMP JUMPDEST CALLVALUE DUP1 ISZERO PUSH2 0x489 JUMPI PUSH1 0x0 DUP1 REVERT JUMPDEST POP PUSH2 0x252 PUSH32 0xB09AA5AEB3702CFD50B6B62BC4532604938F21248A27A1D5CA736082B6819CC1 DUP2 JUMP JUMPDEST CALLVALUE DUP1 ISZERO PUSH2 0x4BD JUMPI PUSH1 0x0 DUP1 REVERT JUMPDEST POP PUSH2 0x209 PUSH2 0x4CC CALLDATASIZE PUSH1 0x4 PUSH2 0x1A7D JUMP JUMPDEST PUSH1 0x0 SWAP2 DUP3 MSTORE PUSH1 0x20 DUP3 DUP2 MSTORE PUSH1 0x40 DUP1 DUP5 KECCAK256 PUSH1 0x1 PUSH1 0x1 PUSH1 0xA0 SHL SUB SWAP4 SWAP1 SWAP4 AND DUP5 MSTORE SWAP2 SWAP1 MSTORE SWAP1 KECCAK256 SLOAD PUSH1 0xFF AND SWAP1 JUMP JUMPDEST CALLVALUE DUP1 ISZERO PUSH2 0x501 JUMPI PUSH1 0x0 DUP1 REVERT JUMPDEST POP PUSH2 0x252 PUSH1 0x0 DUP2 JUMP JUMPDEST CALLVALUE DUP1 ISZERO PUSH2 0x516 JUMPI PUSH1 0x0 DUP1 REVERT JUMPDEST POP PUSH2 0x252 PUSH32 0xFD643C72710C63C0180259ABA6B2D05451E3591A24E58B62239378085726F783 DUP2 JUMP JUMPDEST CALLVALUE DUP1 ISZERO PUSH2 0x54A JUMPI PUSH1 0x0 DUP1 REVERT JUMPDEST POP PUSH2 0x252 PUSH2 0x559 CALLDATASIZE PUSH1 0x4 PUSH2 0x1BA0 JUMP JUMPDEST PUSH2 0xC35 JUMP JUMPDEST CALLVALUE DUP1 ISZERO PUSH2 0x56A JUMPI PUSH1 0x0 DUP1 REVERT JUMPDEST POP PUSH2 0x30B PUSH2 0x579 CALLDATASIZE PUSH1 0x4 PUSH2 0x1CC9 JUMP JUMPDEST PUSH32 0xBC197C8100000000000000000000000000000000000000000000000000000000 SWAP6 SWAP5 POP POP POP POP POP JUMP JUMPDEST CALLVALUE DUP1 ISZERO PUSH2 0x5AF JUMPI PUSH1 0x0 DUP1 REVERT JUMPDEST POP PUSH2 0x1E7 PUSH2 0x5BE CALLDATASIZE PUSH1 0x4 PUSH2 0x1945 JUMP JUMPDEST PUSH2 0xC7A JUMP JUMPDEST CALLVALUE DUP1 ISZERO PUSH2 0x5CF JUMPI PUSH1 0x0 DUP1 REVERT JUMPDEST POP PUSH2 0x252 PUSH2 0x5DE CALLDATASIZE PUSH1 0x4 PUSH2 0x1945 JUMP JUMPDEST PUSH1 0x0 SWAP1 DUP2 MSTORE PUSH1 0x1 PUSH1 0x20 MSTORE PUSH1 0x40 SWAP1 KECCAK256 SLOAD SWAP1 JUMP JUMPDEST CALLVALUE DUP1 ISZERO PUSH2 0x5FC JUMPI PUSH1 0x0 DUP1 REVERT JUMPDEST POP PUSH2 0x1E7 PUSH2 0x60B CALLDATASIZE PUSH1 0x4 PUSH2 0x1A7D JUMP JUMPDEST PUSH2 0xD5B JUMP JUMPDEST PUSH2 0x1E7 PUSH2 0x61E CALLDATASIZE PUSH1 0x4 PUSH2 0x1BA0 JUMP JUMPDEST PUSH2 0xD80 JUMP JUMPDEST CALLVALUE DUP1 ISZERO PUSH2 0x62F JUMPI PUSH1 0x0 DUP1 REVERT JUMPDEST POP PUSH2 0x30B PUSH2 0x63E CALLDATASIZE PUSH1 0x4 PUSH2 0x1D73 JUMP JUMPDEST PUSH32 0xF23A6E6100000000000000000000000000000000000000000000000000000000 SWAP6 SWAP5 POP POP POP POP POP JUMP JUMPDEST CALLVALUE DUP1 ISZERO PUSH2 0x674 JUMPI PUSH1 0x0 DUP1 REVERT JUMPDEST POP PUSH1 0x2 SLOAD PUSH2 0x252 JUMP JUMPDEST PUSH32 0xB09AA5AEB3702CFD50B6B62BC4532604938F21248A27A1D5CA736082B6819CC1 PUSH2 0x6A7 DUP2 PUSH2 0xFC5 JUMP JUMPDEST PUSH1 0x0 PUSH2 0x6B7 DUP10 DUP10 DUP10 DUP10 DUP10 DUP10 PUSH2 0xA2C JUMP JUMPDEST SWAP1 POP PUSH2 0x6C3 DUP2 DUP5 PUSH2 0xFD2 JUMP JUMPDEST PUSH1 0x0 DUP2 PUSH32 0x4CF4410CC57040E44862EF0F45F3DD5A5E02DB8EB8ADD648D4B0E236F1D07DCA DUP12 DUP12 DUP12 DUP12 DUP12 DUP11 PUSH1 0x40 MLOAD PUSH2 0x6FF SWAP7 SWAP6 SWAP5 SWAP4 SWAP3 SWAP2 SWAP1 PUSH2 0x1E03 JUMP JUMPDEST PUSH1 0x40 MLOAD DUP1 SWAP2 SUB SWAP1 LOG3 POP POP POP POP POP POP POP POP POP JUMP JUMPDEST PUSH1 0x0 PUSH32 0xFFFFFFFF00000000000000000000000000000000000000000000000000000000 DUP3 AND PUSH32 0x4E2312E000000000000000000000000000000000000000000000000000000000 EQ DUP1 PUSH2 0x768 JUMPI POP PUSH2 0x768 DUP3 PUSH2 0x10E6 JUMP JUMPDEST SWAP3 SWAP2 POP POP JUMP JUMPDEST PUSH1 0x0 DUP1 MSTORE PUSH32 0xDAE2AA361DFD1CA020A396615627D436107C35EFF9FE7738A3512819782D7069 PUSH1 0x20 MSTORE PUSH32 0x5BA6852781629BCDCD4BDAA6DE76D786F1C64B16ACDAC474E55BEBC0EA157951 SLOAD PUSH32 0xD8AA0F3194971A2A116679F7C2090F6939C8D4E01A2A8D7E41D55E5351469E63 SWAP1 PUSH1 0xFF AND PUSH2 0x7EB JUMPI PUSH2 0x7EB DUP2 CALLER PUSH2 0x117D JUMP JUMPDEST PUSH1 0x0 PUSH2 0x7FB DUP9 DUP9 DUP9 DUP9 DUP9 DUP9 PUSH2 0xA2C JUMP JUMPDEST SWAP1 POP PUSH2 0x807 DUP2 DUP6 PUSH2 0x11F0 JUMP JUMPDEST PUSH2 0x813 DUP9 DUP9 DUP9 DUP9 PUSH2 0x12F9 JUMP JUMPDEST PUSH1 0x0 DUP2 PUSH32 0xC2617EFA69BAB66782FA219543714338489C4E9E178271560A91B82C3F612B58 DUP11 DUP11 DUP11 DUP11 PUSH1 0x40 MLOAD PUSH2 0x84B SWAP5 SWAP4 SWAP3 SWAP2 SWAP1 PUSH2 0x1E41 JUMP JUMPDEST PUSH1 0x40 MLOAD DUP1 SWAP2 SUB SWAP1 LOG3 PUSH2 0x85C DUP2 PUSH2 0x13D6 JUMP JUMPDEST POP POP POP POP POP POP POP POP JUMP JUMPDEST PUSH1 0x0 DUP2 DUP2 MSTORE PUSH1 0x1 PUSH1 0x20 MSTORE PUSH1 0x40 DUP2 KECCAK256 SLOAD PUSH1 0x1 DUP2 GT DUP1 ISZERO PUSH2 0x885 JUMPI POP TIMESTAMP DUP2 GT ISZERO JUMPDEST SWAP4 SWAP3 POP POP POP JUMP JUMPDEST PUSH1 0x0 DUP3 DUP2 MSTORE PUSH1 0x20 DUP2 SWAP1 MSTORE PUSH1 0x40 SWAP1 KECCAK256 PUSH1 0x1 ADD SLOAD PUSH2 0x8A7 DUP2 PUSH2 0xFC5 JUMP JUMPDEST PUSH2 0x8B1 DUP4 DUP4 PUSH2 0x1465 JUMP JUMPDEST POP POP POP JUMP JUMPDEST PUSH1 0x0 DUP2 DUP2 MSTORE PUSH1 0x1 PUSH1 0x20 MSTORE PUSH1 0x40 DUP2 KECCAK256 SLOAD DUP2 SWAP1 JUMPDEST GT SWAP3 SWAP2 POP POP JUMP JUMPDEST PUSH1 0x1 PUSH1 0x1 PUSH1 0xA0 SHL SUB DUP2 AND CALLER EQ PUSH2 0x952 JUMPI PUSH1 0x40 MLOAD PUSH3 0x461BCD PUSH1 0xE5 SHL DUP2 MSTORE PUSH1 0x20 PUSH1 0x4 DUP3 ADD MSTORE PUSH1 0x2F PUSH1 0x24 DUP3 ADD MSTORE PUSH32 0x416363657373436F6E74726F6C3A2063616E206F6E6C792072656E6F756E6365 PUSH1 0x44 DUP3 ADD MSTORE PUSH32 0x20726F6C657320666F722073656C660000000000000000000000000000000000 PUSH1 0x64 DUP3 ADD MSTORE PUSH1 0x84 ADD JUMPDEST PUSH1 0x40 MLOAD DUP1 SWAP2 SUB SWAP1 REVERT JUMPDEST PUSH2 0x95C DUP3 DUP3 PUSH2 0x1503 JUMP JUMPDEST POP POP JUMP JUMPDEST PUSH1 0x0 DUP2 DUP2 MSTORE PUSH1 0x1 PUSH1 0x20 DUP2 SWAP1 MSTORE PUSH1 0x40 DUP3 KECCAK256 SLOAD PUSH2 0x8C8 JUMP JUMPDEST CALLER ADDRESS EQ PUSH2 0x9EB JUMPI PUSH1 0x40 MLOAD PUSH3 0x461BCD PUSH1 0xE5 SHL DUP2 MSTORE PUSH1 0x20 PUSH1 0x4 DUP3 ADD MSTORE PUSH1 0x2B PUSH1 0x24 DUP3 ADD MSTORE PUSH32 0x54696D656C6F636B436F6E74726F6C6C65723A2063616C6C6572206D75737420 PUSH1 0x44 DUP3 ADD MSTORE PUSH32 0x62652074696D656C6F636B000000000000000000000000000000000000000000 PUSH1 0x64 DUP3 ADD MSTORE PUSH1 0x84 ADD PUSH2 0x949 JUMP JUMPDEST PUSH1 0x2 SLOAD PUSH1 0x40 DUP1 MLOAD SWAP2 DUP3 MSTORE PUSH1 0x20 DUP3 ADD DUP4 SWAP1 MSTORE PUSH32 0x11C24F4EAD16507C69AC467FBD5E4EED5FB5C699626D2CC6D66421DF253886D5 SWAP2 ADD PUSH1 0x40 MLOAD DUP1 SWAP2 SUB SWAP1 LOG1 PUSH1 0x2 SSTORE JUMP JUMPDEST PUSH1 0x0 DUP7 DUP7 DUP7 DUP7 DUP7 DUP7 PUSH1 0x40 MLOAD PUSH1 0x20 ADD PUSH2 0xA49 SWAP7 SWAP6 SWAP5 SWAP4 SWAP3 SWAP2 SWAP1 PUSH2 0x1E03 JUMP JUMPDEST PUSH1 0x40 MLOAD PUSH1 0x20 DUP2 DUP4 SUB SUB DUP2 MSTORE SWAP1 PUSH1 0x40 MSTORE DUP1 MLOAD SWAP1 PUSH1 0x20 ADD KECCAK256 SWAP1 POP SWAP7 SWAP6 POP POP POP POP POP POP JUMP JUMPDEST PUSH32 0xB09AA5AEB3702CFD50B6B62BC4532604938F21248A27A1D5CA736082B6819CC1 PUSH2 0xA95 DUP2 PUSH2 0xFC5 JUMP JUMPDEST DUP9 DUP8 EQ PUSH2 0xAF0 JUMPI PUSH1 0x40 MLOAD PUSH3 0x461BCD PUSH1 0xE5 SHL DUP2 MSTORE PUSH1 0x20 PUSH1 0x4 DUP3 ADD MSTORE PUSH1 0x23 PUSH1 0x24 DUP3 ADD MSTORE PUSH32 0x54696D656C6F636B436F6E74726F6C6C65723A206C656E677468206D69736D61 PUSH1 0x44 DUP3 ADD MSTORE PUSH3 0xE8C6D PUSH1 0xEB SHL PUSH1 0x64 DUP3 ADD MSTORE PUSH1 0x84 ADD PUSH2 0x949 JUMP JUMPDEST DUP9 DUP6 EQ PUSH2 0xB4B JUMPI PUSH1 0x40 MLOAD PUSH3 0x461BCD PUSH1 0xE5 SHL DUP2 MSTORE PUSH1 0x20 PUSH1 0x4 DUP3 ADD MSTORE PUSH1 0x23 PUSH1 0x24 DUP3 ADD MSTORE PUSH32 0x54696D656C6F636B436F6E74726F6C6C65723A206C656E677468206D69736D61 PUSH1 0x44 DUP3 ADD MSTORE PUSH3 0xE8C6D PUSH1 0xEB SHL PUSH1 0x64 DUP3 ADD MSTORE PUSH1 0x84 ADD PUSH2 0x949 JUMP JUMPDEST PUSH1 0x0 PUSH2 0xB5D DUP12 DUP12 DUP12 DUP12 DUP12 DUP12 DUP12 DUP12 PUSH2 0xC35 JUMP JUMPDEST SWAP1 POP PUSH2 0xB69 DUP2 DUP5 PUSH2 0xFD2 JUMP JUMPDEST PUSH1 0x0 JUMPDEST DUP11 DUP2 LT ISZERO PUSH2 0xC27 JUMPI DUP1 DUP3 PUSH32 0x4CF4410CC57040E44862EF0F45F3DD5A5E02DB8EB8ADD648D4B0E236F1D07DCA DUP15 DUP15 DUP6 DUP2 DUP2 LT PUSH2 0xBA9 JUMPI PUSH2 0xBA9 PUSH2 0x1E74 JUMP JUMPDEST SWAP1 POP PUSH1 0x20 MUL ADD PUSH1 0x20 DUP2 ADD SWAP1 PUSH2 0xBBE SWAP2 SWAP1 PUSH2 0x1E8A JUMP JUMPDEST DUP14 DUP14 DUP7 DUP2 DUP2 LT PUSH2 0xBD0 JUMPI PUSH2 0xBD0 PUSH2 0x1E74 JUMP JUMPDEST SWAP1 POP PUSH1 0x20 MUL ADD CALLDATALOAD DUP13 DUP13 DUP8 DUP2 DUP2 LT PUSH2 0xBE9 JUMPI PUSH2 0xBE9 PUSH2 0x1E74 JUMP JUMPDEST SWAP1 POP PUSH1 0x20 MUL DUP2 ADD SWAP1 PUSH2 0xBFB SWAP2 SWAP1 PUSH2 0x1EA5 JUMP JUMPDEST DUP13 DUP12 PUSH1 0x40 MLOAD PUSH2 0xC0F SWAP7 SWAP6 SWAP5 SWAP4 SWAP3 SWAP2 SWAP1 PUSH2 0x1E03 JUMP JUMPDEST PUSH1 0x40 MLOAD DUP1 SWAP2 SUB SWAP1 LOG3 PUSH2 0xC20 DUP2 PUSH2 0x1F02 JUMP JUMPDEST SWAP1 POP PUSH2 0xB6C JUMP JUMPDEST POP POP POP POP POP POP POP POP POP POP POP POP JUMP JUMPDEST PUSH1 0x0 DUP9 DUP9 DUP9 DUP9 DUP9 DUP9 DUP9 DUP9 PUSH1 0x40 MLOAD PUSH1 0x20 ADD PUSH2 0xC56 SWAP9 SWAP8 SWAP7 SWAP6 SWAP5 SWAP4 SWAP3 SWAP2 SWAP1 PUSH2 0x1FAE JUMP JUMPDEST PUSH1 0x40 MLOAD PUSH1 0x20 DUP2 DUP4 SUB SUB DUP2 MSTORE SWAP1 PUSH1 0x40 MSTORE DUP1 MLOAD SWAP1 PUSH1 0x20 ADD KECCAK256 SWAP1 POP SWAP9 SWAP8 POP POP POP POP POP POP POP POP JUMP JUMPDEST PUSH32 0xFD643C72710C63C0180259ABA6B2D05451E3591A24E58B62239378085726F783 PUSH2 0xCA4 DUP2 PUSH2 0xFC5 JUMP JUMPDEST PUSH2 0xCAD DUP3 PUSH2 0x960 JUMP JUMPDEST PUSH2 0xD1F JUMPI PUSH1 0x40 MLOAD PUSH3 0x461BCD PUSH1 0xE5 SHL DUP2 MSTORE PUSH1 0x20 PUSH1 0x4 DUP3 ADD MSTORE PUSH1 0x31 PUSH1 0x24 DUP3 ADD MSTORE PUSH32 0x54696D656C6F636B436F6E74726F6C6C65723A206F7065726174696F6E206361 PUSH1 0x44 DUP3 ADD MSTORE PUSH32 0x6E6E6F742062652063616E63656C6C6564000000000000000000000000000000 PUSH1 0x64 DUP3 ADD MSTORE PUSH1 0x84 ADD PUSH2 0x949 JUMP JUMPDEST PUSH1 0x0 DUP3 DUP2 MSTORE PUSH1 0x1 PUSH1 0x20 MSTORE PUSH1 0x40 DUP1 DUP3 KECCAK256 DUP3 SWAP1 SSTORE MLOAD DUP4 SWAP2 PUSH32 0xBAA1EB22F2A492BA1A5FEA61B8DF4D27C6C8B5F3971E63BB58FA14FF72EEDB70 SWAP2 LOG2 POP POP JUMP JUMPDEST PUSH1 0x0 DUP3 DUP2 MSTORE PUSH1 0x20 DUP2 SWAP1 MSTORE PUSH1 0x40 SWAP1 KECCAK256 PUSH1 0x1 ADD SLOAD PUSH2 0xD76 DUP2 PUSH2 0xFC5 JUMP JUMPDEST PUSH2 0x8B1 DUP4 DUP4 PUSH2 0x1503 JUMP JUMPDEST PUSH1 0x0 DUP1 MSTORE PUSH32 0xDAE2AA361DFD1CA020A396615627D436107C35EFF9FE7738A3512819782D7069 PUSH1 0x20 MSTORE PUSH32 0x5BA6852781629BCDCD4BDAA6DE76D786F1C64B16ACDAC474E55BEBC0EA157951 SLOAD PUSH32 0xD8AA0F3194971A2A116679F7C2090F6939C8D4E01A2A8D7E41D55E5351469E63 SWAP1 PUSH1 0xFF AND PUSH2 0xDFD JUMPI PUSH2 0xDFD DUP2 CALLER PUSH2 0x117D JUMP JUMPDEST DUP8 DUP7 EQ PUSH2 0xE58 JUMPI PUSH1 0x40 MLOAD PUSH3 0x461BCD PUSH1 0xE5 SHL DUP2 MSTORE PUSH1 0x20 PUSH1 0x4 DUP3 ADD MSTORE PUSH1 0x23 PUSH1 0x24 DUP3 ADD MSTORE PUSH32 0x54696D656C6F636B436F6E74726F6C6C65723A206C656E677468206D69736D61 PUSH1 0x44 DUP3 ADD MSTORE PUSH3 0xE8C6D PUSH1 0xEB SHL PUSH1 0x64 DUP3 ADD MSTORE PUSH1 0x84 ADD PUSH2 0x949 JUMP JUMPDEST DUP8 DUP5 EQ PUSH2 0xEB3 JUMPI PUSH1 0x40 MLOAD PUSH3 0x461BCD PUSH1 0xE5 SHL DUP2 MSTORE PUSH1 0x20 PUSH1 0x4 DUP3 ADD MSTORE PUSH1 0x23 PUSH1 0x24 DUP3 ADD MSTORE PUSH32 0x54696D656C6F636B436F6E74726F6C6C65723A206C656E677468206D69736D61 PUSH1 0x44 DUP3 ADD MSTORE PUSH3 0xE8C6D PUSH1 0xEB SHL PUSH1 0x64 DUP3 ADD MSTORE PUSH1 0x84 ADD PUSH2 0x949 JUMP JUMPDEST PUSH1 0x0 PUSH2 0xEC5 DUP11 DUP11 DUP11 DUP11 DUP11 DUP11 DUP11 DUP11 PUSH2 0xC35 JUMP JUMPDEST SWAP1 POP PUSH2 0xED1 DUP2 DUP6 PUSH2 0x11F0 JUMP JUMPDEST PUSH1 0x0 JUMPDEST DUP10 DUP2 LT ISZERO PUSH2 0xFAF JUMPI PUSH1 0x0 DUP12 DUP12 DUP4 DUP2 DUP2 LT PUSH2 0xEF0 JUMPI PUSH2 0xEF0 PUSH2 0x1E74 JUMP JUMPDEST SWAP1 POP PUSH1 0x20 MUL ADD PUSH1 0x20 DUP2 ADD SWAP1 PUSH2 0xF05 SWAP2 SWAP1 PUSH2 0x1E8A JUMP JUMPDEST SWAP1 POP PUSH1 0x0 DUP11 DUP11 DUP5 DUP2 DUP2 LT PUSH2 0xF1B JUMPI PUSH2 0xF1B PUSH2 0x1E74 JUMP JUMPDEST SWAP1 POP PUSH1 0x20 MUL ADD CALLDATALOAD SWAP1 POP CALLDATASIZE PUSH1 0x0 DUP11 DUP11 DUP7 DUP2 DUP2 LT PUSH2 0xF39 JUMPI PUSH2 0xF39 PUSH2 0x1E74 JUMP JUMPDEST SWAP1 POP PUSH1 0x20 MUL DUP2 ADD SWAP1 PUSH2 0xF4B SWAP2 SWAP1 PUSH2 0x1EA5 JUMP JUMPDEST SWAP2 POP SWAP2 POP PUSH2 0xF5B DUP5 DUP5 DUP5 DUP5 PUSH2 0x12F9 JUMP JUMPDEST DUP5 DUP7 PUSH32 0xC2617EFA69BAB66782FA219543714338489C4E9E178271560A91B82C3F612B58 DUP7 DUP7 DUP7 DUP7 PUSH1 0x40 MLOAD PUSH2 0xF92 SWAP5 SWAP4 SWAP3 SWAP2 SWAP1 PUSH2 0x1E41 JUMP JUMPDEST PUSH1 0x40 MLOAD DUP1 SWAP2 SUB SWAP1 LOG3 POP POP POP POP DUP1 PUSH2 0xFA8 SWAP1 PUSH2 0x1F02 JUMP JUMPDEST SWAP1 POP PUSH2 0xED4 JUMP JUMPDEST POP PUSH2 0xFB9 DUP2 PUSH2 0x13D6 JUMP JUMPDEST POP POP POP POP POP POP POP POP POP POP JUMP JUMPDEST PUSH2 0xFCF DUP2 CALLER PUSH2 0x117D JUMP JUMPDEST POP JUMP JUMPDEST PUSH2 0xFDB DUP3 PUSH2 0x8B6 JUMP JUMPDEST ISZERO PUSH2 0x104E JUMPI PUSH1 0x40 MLOAD PUSH3 0x461BCD PUSH1 0xE5 SHL DUP2 MSTORE PUSH1 0x20 PUSH1 0x4 DUP3 ADD MSTORE PUSH1 0x2F PUSH1 0x24 DUP3 ADD MSTORE PUSH32 0x54696D656C6F636B436F6E74726F6C6C65723A206F7065726174696F6E20616C PUSH1 0x44 DUP3 ADD MSTORE PUSH32 0x7265616479207363686564756C65640000000000000000000000000000000000 PUSH1 0x64 DUP3 ADD MSTORE PUSH1 0x84 ADD PUSH2 0x949 JUMP JUMPDEST PUSH1 0x2 SLOAD DUP2 LT ISZERO PUSH2 0x10C6 JUMPI PUSH1 0x40 MLOAD PUSH3 0x461BCD PUSH1 0xE5 SHL DUP2 MSTORE PUSH1 0x20 PUSH1 0x4 DUP3 ADD MSTORE PUSH1 0x26 PUSH1 0x24 DUP3 ADD MSTORE PUSH32 0x54696D656C6F636B436F6E74726F6C6C65723A20696E73756666696369656E74 PUSH1 0x44 DUP3 ADD MSTORE PUSH32 0x2064656C61790000000000000000000000000000000000000000000000000000 PUSH1 0x64 DUP3 ADD MSTORE PUSH1 0x84 ADD PUSH2 0x949 JUMP JUMPDEST PUSH2 0x10D0 DUP2 TIMESTAMP PUSH2 0x2068 JUMP JUMPDEST PUSH1 0x0 SWAP3 DUP4 MSTORE PUSH1 0x1 PUSH1 0x20 MSTORE PUSH1 0x40 SWAP1 SWAP3 KECCAK256 SWAP2 SWAP1 SWAP2 SSTORE POP JUMP JUMPDEST PUSH1 0x0 PUSH32 0xFFFFFFFF00000000000000000000000000000000000000000000000000000000 DUP3 AND PUSH32 0x7965DB0B00000000000000000000000000000000000000000000000000000000 EQ DUP1 PUSH2 0x768 JUMPI POP PUSH32 0x1FFC9A700000000000000000000000000000000000000000000000000000000 PUSH32 0xFFFFFFFF00000000000000000000000000000000000000000000000000000000 DUP4 AND EQ PUSH2 0x768 JUMP JUMPDEST PUSH1 0x0 DUP3 DUP2 MSTORE PUSH1 0x20 DUP2 DUP2 MSTORE PUSH1 0x40 DUP1 DUP4 KECCAK256 PUSH1 0x1 PUSH1 0x1 PUSH1 0xA0 SHL SUB DUP6 AND DUP5 MSTORE SWAP1 SWAP2 MSTORE SWAP1 KECCAK256 SLOAD PUSH1 0xFF AND PUSH2 0x95C JUMPI PUSH2 0x11AE DUP2 PUSH2 0x1582 JUMP JUMPDEST PUSH2 0x11B9 DUP4 PUSH1 0x20 PUSH2 0x1594 JUMP JUMPDEST PUSH1 0x40 MLOAD PUSH1 0x20 ADD PUSH2 0x11CA SWAP3 SWAP2 SWAP1 PUSH2 0x209F JUMP JUMPDEST PUSH1 0x40 DUP1 MLOAD PUSH1 0x1F NOT DUP2 DUP5 SUB ADD DUP2 MSTORE SWAP1 DUP3 SWAP1 MSTORE PUSH3 0x461BCD PUSH1 0xE5 SHL DUP3 MSTORE PUSH2 0x949 SWAP2 PUSH1 0x4 ADD PUSH2 0x2120 JUMP JUMPDEST PUSH2 0x11F9 DUP3 PUSH2 0x866 JUMP JUMPDEST PUSH2 0x126B JUMPI PUSH1 0x40 MLOAD PUSH3 0x461BCD PUSH1 0xE5 SHL DUP2 MSTORE PUSH1 0x20 PUSH1 0x4 DUP3 ADD MSTORE PUSH1 0x2A PUSH1 0x24 DUP3 ADD MSTORE PUSH32 0x54696D656C6F636B436F6E74726F6C6C65723A206F7065726174696F6E206973 PUSH1 0x44 DUP3 ADD MSTORE PUSH32 0x206E6F7420726561647900000000000000000000000000000000000000000000 PUSH1 0x64 DUP3 ADD MSTORE PUSH1 0x84 ADD PUSH2 0x949 JUMP JUMPDEST DUP1 ISZERO DUP1 PUSH2 0x1287 JUMPI POP PUSH1 0x0 DUP2 DUP2 MSTORE PUSH1 0x1 PUSH1 0x20 DUP2 SWAP1 MSTORE PUSH1 0x40 SWAP1 SWAP2 KECCAK256 SLOAD EQ JUMPDEST PUSH2 0x95C JUMPI PUSH1 0x40 MLOAD PUSH3 0x461BCD PUSH1 0xE5 SHL DUP2 MSTORE PUSH1 0x20 PUSH1 0x4 DUP3 ADD MSTORE PUSH1 0x26 PUSH1 0x24 DUP3 ADD MSTORE PUSH32 0x54696D656C6F636B436F6E74726F6C6C65723A206D697373696E672064657065 PUSH1 0x44 DUP3 ADD MSTORE PUSH32 0x6E64656E63790000000000000000000000000000000000000000000000000000 PUSH1 0x64 DUP3 ADD MSTORE PUSH1 0x84 ADD PUSH2 0x949 JUMP JUMPDEST PUSH1 0x0 DUP5 PUSH1 0x1 PUSH1 0x1 PUSH1 0xA0 SHL SUB AND DUP5 DUP5 DUP5 PUSH1 0x40 MLOAD PUSH2 0x1316 SWAP3 SWAP2 SWAP1 PUSH2 0x2153 JUMP JUMPDEST PUSH1 0x0 PUSH1 0x40 MLOAD DUP1 DUP4 SUB DUP2 DUP6 DUP8 GAS CALL SWAP3 POP POP POP RETURNDATASIZE DUP1 PUSH1 0x0 DUP2 EQ PUSH2 0x1353 JUMPI PUSH1 0x40 MLOAD SWAP2 POP PUSH1 0x1F NOT PUSH1 0x3F RETURNDATASIZE ADD AND DUP3 ADD PUSH1 0x40 MSTORE RETURNDATASIZE DUP3 MSTORE RETURNDATASIZE PUSH1 0x0 PUSH1 0x20 DUP5 ADD RETURNDATACOPY PUSH2 0x1358 JUMP JUMPDEST PUSH1 0x60 SWAP2 POP JUMPDEST POP POP SWAP1 POP DUP1 PUSH2 0x13CF JUMPI PUSH1 0x40 MLOAD PUSH3 0x461BCD PUSH1 0xE5 SHL DUP2 MSTORE PUSH1 0x20 PUSH1 0x4 DUP3 ADD MSTORE PUSH1 0x33 PUSH1 0x24 DUP3 ADD MSTORE PUSH32 0x54696D656C6F636B436F6E74726F6C6C65723A20756E6465726C79696E672074 PUSH1 0x44 DUP3 ADD MSTORE PUSH32 0x72616E73616374696F6E20726576657274656400000000000000000000000000 PUSH1 0x64 DUP3 ADD MSTORE PUSH1 0x84 ADD PUSH2 0x949 JUMP JUMPDEST POP POP POP POP POP JUMP JUMPDEST PUSH2 0x13DF DUP2 PUSH2 0x866 JUMP JUMPDEST PUSH2 0x1451 JUMPI PUSH1 0x40 MLOAD PUSH3 0x461BCD PUSH1 0xE5 SHL DUP2 MSTORE PUSH1 0x20 PUSH1 0x4 DUP3 ADD MSTORE PUSH1 0x2A PUSH1 0x24 DUP3 ADD MSTORE PUSH32 0x54696D656C6F636B436F6E74726F6C6C65723A206F7065726174696F6E206973 PUSH1 0x44 DUP3 ADD MSTORE PUSH32 0x206E6F7420726561647900000000000000000000000000000000000000000000 PUSH1 0x64 DUP3 ADD MSTORE PUSH1 0x84 ADD PUSH2 0x949 JUMP JUMPDEST PUSH1 0x0 SWAP1 DUP2 MSTORE PUSH1 0x1 PUSH1 0x20 DUP2 SWAP1 MSTORE PUSH1 0x40 SWAP1 SWAP2 KECCAK256 SSTORE JUMP JUMPDEST PUSH1 0x0 DUP3 DUP2 MSTORE PUSH1 0x20 DUP2 DUP2 MSTORE PUSH1 0x40 DUP1 DUP4 KECCAK256 PUSH1 0x1 PUSH1 0x1 PUSH1 0xA0 SHL SUB DUP6 AND DUP5 MSTORE SWAP1 SWAP2 MSTORE SWAP1 KECCAK256 SLOAD PUSH1 0xFF AND PUSH2 0x95C JUMPI PUSH1 0x0 DUP3 DUP2 MSTORE PUSH1 0x20 DUP2 DUP2 MSTORE PUSH1 0x40 DUP1 DUP4 KECCAK256 PUSH1 0x1 PUSH1 0x1 PUSH1 0xA0 SHL SUB DUP6 AND DUP5 MSTORE SWAP1 SWAP2 MSTORE SWAP1 KECCAK256 DUP1 SLOAD PUSH1 0xFF NOT AND PUSH1 0x1 OR SWAP1 SSTORE PUSH2 0x14BF CALLER SWAP1 JUMP JUMPDEST PUSH1 0x1 PUSH1 0x1 PUSH1 0xA0 SHL SUB AND DUP2 PUSH1 0x1 PUSH1 0x1 PUSH1 0xA0 SHL SUB AND DUP4 PUSH32 0x2F8788117E7EFF1D82E926EC794901D17C78024A50270940304540A733656F0D PUSH1 0x40 MLOAD PUSH1 0x40 MLOAD DUP1 SWAP2 SUB SWAP1 LOG4 POP POP JUMP JUMPDEST PUSH1 0x0 DUP3 DUP2 MSTORE PUSH1 0x20 DUP2 DUP2 MSTORE PUSH1 0x40 DUP1 DUP4 KECCAK256 PUSH1 0x1 PUSH1 0x1 PUSH1 0xA0 SHL SUB DUP6 AND DUP5 MSTORE SWAP1 SWAP2 MSTORE SWAP1 KECCAK256 SLOAD PUSH1 0xFF AND ISZERO PUSH2 0x95C JUMPI PUSH1 0x0 DUP3 DUP2 MSTORE PUSH1 0x20 DUP2 DUP2 MSTORE PUSH1 0x40 DUP1 DUP4 KECCAK256 PUSH1 0x1 PUSH1 0x1 PUSH1 0xA0 SHL SUB DUP6 AND DUP1 DUP6 MSTORE SWAP3 MSTORE DUP1 DUP4 KECCAK256 DUP1 SLOAD PUSH1 0xFF NOT AND SWAP1 SSTORE MLOAD CALLER SWAP3 DUP6 SWAP2 PUSH32 0xF6391F5C32D9C69D2A47EA670B442974B53935D1EDC7FD64EB21E047A839171B SWAP2 SWAP1 LOG4 POP POP JUMP JUMPDEST PUSH1 0x60 PUSH2 0x768 PUSH1 0x1 PUSH1 0x1 PUSH1 0xA0 SHL SUB DUP4 AND PUSH1 0x14 JUMPDEST PUSH1 0x60 PUSH1 0x0 PUSH2 0x15A3 DUP4 PUSH1 0x2 PUSH2 0x2163 JUMP JUMPDEST PUSH2 0x15AE SWAP1 PUSH1 0x2 PUSH2 0x2068 JUMP JUMPDEST PUSH8 0xFFFFFFFFFFFFFFFF DUP2 GT ISZERO PUSH2 0x15C6 JUMPI PUSH2 0x15C6 PUSH2 0x195E JUMP JUMPDEST PUSH1 0x40 MLOAD SWAP1 DUP1 DUP3 MSTORE DUP1 PUSH1 0x1F ADD PUSH1 0x1F NOT AND PUSH1 0x20 ADD DUP3 ADD PUSH1 0x40 MSTORE DUP1 ISZERO PUSH2 0x15F0 JUMPI PUSH1 0x20 DUP3 ADD DUP2 DUP1 CALLDATASIZE DUP4 CALLDATACOPY ADD SWAP1 POP JUMPDEST POP SWAP1 POP PUSH32 0x3000000000000000000000000000000000000000000000000000000000000000 DUP2 PUSH1 0x0 DUP2 MLOAD DUP2 LT PUSH2 0x1627 JUMPI PUSH2 0x1627 PUSH2 0x1E74 JUMP JUMPDEST PUSH1 0x20 ADD ADD SWAP1 PUSH31 0xFFFFFFFFFFFFFFFFFFFFFFFFFFFFFFFFFFFFFFFFFFFFFFFFFFFFFFFFFFFFFF NOT AND SWAP1 DUP2 PUSH1 0x0 BYTE SWAP1 MSTORE8 POP PUSH32 0x7800000000000000000000000000000000000000000000000000000000000000 DUP2 PUSH1 0x1 DUP2 MLOAD DUP2 LT PUSH2 0x168A JUMPI PUSH2 0x168A PUSH2 0x1E74 JUMP JUMPDEST PUSH1 0x20 ADD ADD SWAP1 PUSH31 0xFFFFFFFFFFFFFFFFFFFFFFFFFFFFFFFFFFFFFFFFFFFFFFFFFFFFFFFFFFFFFF NOT AND SWAP1 DUP2 PUSH1 0x0 BYTE SWAP1 MSTORE8 POP PUSH1 0x0 PUSH2 0x16C6 DUP5 PUSH1 0x2 PUSH2 0x2163 JUMP JUMPDEST PUSH2 0x16D1 SWAP1 PUSH1 0x1 PUSH2 0x2068 JUMP JUMPDEST SWAP1 POP JUMPDEST PUSH1 0x1 DUP2 GT ISZERO PUSH2 0x176E JUMPI PUSH32 0x3031323334353637383961626364656600000000000000000000000000000000 DUP6 PUSH1 0xF AND PUSH1 0x10 DUP2 LT PUSH2 0x1712 JUMPI PUSH2 0x1712 PUSH2 0x1E74 JUMP JUMPDEST BYTE PUSH1 0xF8 SHL DUP3 DUP3 DUP2 MLOAD DUP2 LT PUSH2 0x1728 JUMPI PUSH2 0x1728 PUSH2 0x1E74 JUMP JUMPDEST PUSH1 0x20 ADD ADD SWAP1 PUSH31 0xFFFFFFFFFFFFFFFFFFFFFFFFFFFFFFFFFFFFFFFFFFFFFFFFFFFFFFFFFFFFFF NOT AND SWAP1 DUP2 PUSH1 0x0 BYTE SWAP1 MSTORE8 POP PUSH1 0x4 SWAP5 SWAP1 SWAP5 SHR SWAP4 PUSH2 0x1767 DUP2 PUSH2 0x217A JUMP JUMPDEST SWAP1 POP PUSH2 0x16D4 JUMP JUMPDEST POP DUP4 ISZERO PUSH2 0x885 JUMPI PUSH1 0x40 MLOAD PUSH3 0x461BCD PUSH1 0xE5 SHL DUP2 MSTORE PUSH1 0x20 PUSH1 0x4 DUP3 ADD DUP2 SWAP1 MSTORE PUSH1 0x24 DUP3 ADD MSTORE PUSH32 0x537472696E67733A20686578206C656E67746820696E73756666696369656E74 PUSH1 0x44 DUP3 ADD MSTORE PUSH1 0x64 ADD PUSH2 0x949 JUMP JUMPDEST DUP1 CALLDATALOAD PUSH1 0x1 PUSH1 0x1 PUSH1 0xA0 SHL SUB DUP2 AND DUP2 EQ PUSH2 0x17D4 JUMPI PUSH1 0x0 DUP1 REVERT JUMPDEST SWAP2 SWAP1 POP JUMP JUMPDEST PUSH1 0x0 DUP1 DUP4 PUSH1 0x1F DUP5 ADD SLT PUSH2 0x17EB JUMPI PUSH1 0x0 DUP1 REVERT JUMPDEST POP DUP2 CALLDATALOAD PUSH8 0xFFFFFFFFFFFFFFFF DUP2 GT ISZERO PUSH2 0x1803 JUMPI PUSH1 0x0 DUP1 REVERT JUMPDEST PUSH1 0x20 DUP4 ADD SWAP2 POP DUP4 PUSH1 0x20 DUP3 DUP6 ADD ADD GT ISZERO PUSH2 0x181B JUMPI PUSH1 0x0 DUP1 REVERT JUMPDEST SWAP3 POP SWAP3 SWAP1 POP JUMP JUMPDEST PUSH1 0x0 DUP1 PUSH1 0x0 DUP1 PUSH1 0x0 DUP1 PUSH1 0x0 PUSH1 0xC0 DUP9 DUP11 SUB SLT ISZERO PUSH2 0x183D JUMPI PUSH1 0x0 DUP1 REVERT JUMPDEST PUSH2 0x1846 DUP9 PUSH2 0x17BD JUMP JUMPDEST SWAP7 POP PUSH1 0x20 DUP9 ADD CALLDATALOAD SWAP6 POP PUSH1 0x40 DUP9 ADD CALLDATALOAD PUSH8 0xFFFFFFFFFFFFFFFF DUP2 GT ISZERO PUSH2 0x1869 JUMPI PUSH1 0x0 DUP1 REVERT JUMPDEST PUSH2 0x1875 DUP11 DUP3 DUP12 ADD PUSH2 0x17D9 JUMP JUMPDEST SWAP9 SWAP12 SWAP8 SWAP11 POP SWAP9 PUSH1 0x60 DUP2 ADD CALLDATALOAD SWAP8 PUSH1 0x80 DUP3 ADD CALLDATALOAD SWAP8 POP PUSH1 0xA0 SWAP1 SWAP2 ADD CALLDATALOAD SWAP6 POP SWAP4 POP POP POP POP JUMP JUMPDEST PUSH1 0x0 PUSH1 0x20 DUP3 DUP5 SUB SLT ISZERO PUSH2 0x18A9 JUMPI PUSH1 0x0 DUP1 REVERT JUMPDEST DUP2 CALLDATALOAD PUSH32 0xFFFFFFFF00000000000000000000000000000000000000000000000000000000 DUP2 AND DUP2 EQ PUSH2 0x885 JUMPI PUSH1 0x0 DUP1 REVERT JUMPDEST PUSH1 0x0 DUP1 PUSH1 0x0 DUP1 PUSH1 0x0 DUP1 PUSH1 0xA0 DUP8 DUP10 SUB SLT ISZERO PUSH2 0x18F2 JUMPI PUSH1 0x0 DUP1 REVERT JUMPDEST PUSH2 0x18FB DUP8 PUSH2 0x17BD JUMP JUMPDEST SWAP6 POP PUSH1 0x20 DUP8 ADD CALLDATALOAD SWAP5 POP PUSH1 0x40 DUP8 ADD CALLDATALOAD PUSH8 0xFFFFFFFFFFFFFFFF DUP2 GT ISZERO PUSH2 0x191E JUMPI PUSH1 0x0 DUP1 REVERT JUMPDEST PUSH2 0x192A DUP10 DUP3 DUP11 ADD PUSH2 0x17D9 JUMP JUMPDEST SWAP8 SWAP11 SWAP7 SWAP10 POP SWAP8 PUSH1 0x60 DUP2 ADD CALLDATALOAD SWAP7 PUSH1 0x80 SWAP1 SWAP2 ADD CALLDATALOAD SWAP6 POP SWAP4 POP POP POP POP JUMP JUMPDEST PUSH1 0x0 PUSH1 0x20 DUP3 DUP5 SUB SLT ISZERO PUSH2 0x1957 JUMPI PUSH1 0x0 DUP1 REVERT JUMPDEST POP CALLDATALOAD SWAP2 SWAP1 POP JUMP JUMPDEST PUSH4 0x4E487B71 PUSH1 0xE0 SHL PUSH1 0x0 MSTORE PUSH1 0x41 PUSH1 0x4 MSTORE PUSH1 0x24 PUSH1 0x0 REVERT JUMPDEST PUSH1 0x40 MLOAD PUSH1 0x1F DUP3 ADD PUSH1 0x1F NOT AND DUP2 ADD PUSH8 0xFFFFFFFFFFFFFFFF DUP2 GT DUP3 DUP3 LT OR ISZERO PUSH2 0x199D JUMPI PUSH2 0x199D PUSH2 0x195E JUMP JUMPDEST PUSH1 0x40 MSTORE SWAP2 SWAP1 POP JUMP JUMPDEST PUSH1 0x0 DUP3 PUSH1 0x1F DUP4 ADD SLT PUSH2 0x19B6 JUMPI PUSH1 0x0 DUP1 REVERT JUMPDEST DUP2 CALLDATALOAD PUSH8 0xFFFFFFFFFFFFFFFF DUP2 GT ISZERO PUSH2 0x19D0 JUMPI PUSH2 0x19D0 PUSH2 0x195E JUMP JUMPDEST PUSH2 0x19E3 PUSH1 0x20 PUSH1 0x1F NOT PUSH1 0x1F DUP5 ADD AND ADD PUSH2 0x1974 JUMP JUMPDEST DUP2 DUP2 MSTORE DUP5 PUSH1 0x20 DUP4 DUP7 ADD ADD GT ISZERO PUSH2 0x19F8 JUMPI PUSH1 0x0 DUP1 REVERT JUMPDEST DUP2 PUSH1 0x20 DUP6 ADD PUSH1 0x20 DUP4 ADD CALLDATACOPY PUSH1 0x0 SWAP2 DUP2 ADD PUSH1 0x20 ADD SWAP2 SWAP1 SWAP2 MSTORE SWAP4 SWAP3 POP POP POP JUMP JUMPDEST PUSH1 0x0 DUP1 PUSH1 0x0 DUP1 PUSH1 0x80 DUP6 DUP8 SUB SLT ISZERO PUSH2 0x1A2B JUMPI PUSH1 0x0 DUP1 REVERT JUMPDEST PUSH2 0x1A34 DUP6 PUSH2 0x17BD JUMP JUMPDEST SWAP4 POP PUSH2 0x1A42 PUSH1 0x20 DUP7 ADD PUSH2 0x17BD JUMP JUMPDEST SWAP3 POP PUSH1 0x40 DUP6 ADD CALLDATALOAD SWAP2 POP PUSH1 0x60 DUP6 ADD CALLDATALOAD PUSH8 0xFFFFFFFFFFFFFFFF DUP2 GT ISZERO PUSH2 0x1A65 JUMPI PUSH1 0x0 DUP1 REVERT JUMPDEST PUSH2 0x1A71 DUP8 DUP3 DUP9 ADD PUSH2 0x19A5 JUMP JUMPDEST SWAP2 POP POP SWAP3 SWAP6 SWAP2 SWAP5 POP SWAP3 POP JUMP JUMPDEST PUSH1 0x0 DUP1 PUSH1 0x40 DUP4 DUP6 SUB SLT ISZERO PUSH2 0x1A90 JUMPI PUSH1 0x0 DUP1 REVERT JUMPDEST DUP3 CALLDATALOAD SWAP2 POP PUSH2 0x1AA0 PUSH1 0x20 DUP5 ADD PUSH2 0x17BD JUMP JUMPDEST SWAP1 POP SWAP3 POP SWAP3 SWAP1 POP JUMP JUMPDEST PUSH1 0x0 DUP1 DUP4 PUSH1 0x1F DUP5 ADD SLT PUSH2 0x1ABB JUMPI PUSH1 0x0 DUP1 REVERT JUMPDEST POP DUP2 CALLDATALOAD PUSH8 0xFFFFFFFFFFFFFFFF DUP2 GT ISZERO PUSH2 0x1AD3 JUMPI PUSH1 0x0 DUP1 REVERT JUMPDEST PUSH1 0x20 DUP4 ADD SWAP2 POP DUP4 PUSH1 0x20 DUP3 PUSH1 0x5 SHL DUP6 ADD ADD GT ISZERO PUSH2 0x181B JUMPI PUSH1 0x0 DUP1 REVERT JUMPDEST PUSH1 0x0 DUP1 PUSH1 0x0 DUP1 PUSH1 0x0 DUP1 PUSH1 0x0 DUP1 PUSH1 0x0 PUSH1 0xC0 DUP11 DUP13 SUB SLT ISZERO PUSH2 0x1B0C JUMPI PUSH1 0x0 DUP1 REVERT JUMPDEST DUP10 CALLDATALOAD PUSH8 0xFFFFFFFFFFFFFFFF DUP1 DUP3 GT ISZERO PUSH2 0x1B24 JUMPI PUSH1 0x0 DUP1 REVERT JUMPDEST PUSH2 0x1B30 DUP14 DUP4 DUP15 ADD PUSH2 0x1AA9 JUMP JUMPDEST SWAP1 SWAP12 POP SWAP10 POP PUSH1 0x20 DUP13 ADD CALLDATALOAD SWAP2 POP DUP1 DUP3 GT ISZERO PUSH2 0x1B49 JUMPI PUSH1 0x0 DUP1 REVERT JUMPDEST PUSH2 0x1B55 DUP14 DUP4 DUP15 ADD PUSH2 0x1AA9 JUMP JUMPDEST SWAP1 SWAP10 POP SWAP8 POP PUSH1 0x40 DUP13 ADD CALLDATALOAD SWAP2 POP DUP1 DUP3 GT ISZERO PUSH2 0x1B6E JUMPI PUSH1 0x0 DUP1 REVERT JUMPDEST POP PUSH2 0x1B7B DUP13 DUP3 DUP14 ADD PUSH2 0x1AA9 JUMP JUMPDEST SWAP11 SWAP14 SWAP10 SWAP13 POP SWAP8 SWAP11 SWAP7 SWAP10 SWAP8 SWAP9 PUSH1 0x60 DUP9 ADD CALLDATALOAD SWAP8 PUSH1 0x80 DUP2 ADD CALLDATALOAD SWAP8 POP PUSH1 0xA0 ADD CALLDATALOAD SWAP6 POP SWAP4 POP POP POP POP JUMP JUMPDEST PUSH1 0x0 DUP1 PUSH1 0x0 DUP1 PUSH1 0x0 DUP1 PUSH1 0x0 DUP1 PUSH1 0xA0 DUP10 DUP12 SUB SLT ISZERO PUSH2 0x1BBC JUMPI PUSH1 0x0 DUP1 REVERT JUMPDEST DUP9 CALLDATALOAD PUSH8 0xFFFFFFFFFFFFFFFF DUP1 DUP3 GT ISZERO PUSH2 0x1BD4 JUMPI PUSH1 0x0 DUP1 REVERT JUMPDEST PUSH2 0x1BE0 DUP13 DUP4 DUP14 ADD PUSH2 0x1AA9 JUMP JUMPDEST SWAP1 SWAP11 POP SWAP9 POP PUSH1 0x20 DUP12 ADD CALLDATALOAD SWAP2 POP DUP1 DUP3 GT ISZERO PUSH2 0x1BF9 JUMPI PUSH1 0x0 DUP1 REVERT JUMPDEST PUSH2 0x1C05 DUP13 DUP4 DUP14 ADD PUSH2 0x1AA9 JUMP JUMPDEST SWAP1 SWAP9 POP SWAP7 POP PUSH1 0x40 DUP12 ADD CALLDATALOAD SWAP2 POP DUP1 DUP3 GT ISZERO PUSH2 0x1C1E JUMPI PUSH1 0x0 DUP1 REVERT JUMPDEST POP PUSH2 0x1C2B DUP12 DUP3 DUP13 ADD PUSH2 0x1AA9 JUMP JUMPDEST SWAP10 SWAP13 SWAP9 SWAP12 POP SWAP7 SWAP10 SWAP6 SWAP9 SWAP7 SWAP8 PUSH1 0x60 DUP8 ADD CALLDATALOAD SWAP7 PUSH1 0x80 ADD CALLDATALOAD SWAP6 POP SWAP4 POP POP POP POP JUMP JUMPDEST PUSH1 0x0 DUP3 PUSH1 0x1F DUP4 ADD SLT PUSH2 0x1C5A JUMPI PUSH1 0x0 DUP1 REVERT JUMPDEST DUP2 CALLDATALOAD PUSH1 0x20 PUSH8 0xFFFFFFFFFFFFFFFF DUP3 GT ISZERO PUSH2 0x1C76 JUMPI PUSH2 0x1C76 PUSH2 0x195E JUMP JUMPDEST DUP2 PUSH1 0x5 SHL PUSH2 0x1C85 DUP3 DUP3 ADD PUSH2 0x1974 JUMP JUMPDEST SWAP3 DUP4 MSTORE DUP5 DUP2 ADD DUP3 ADD SWAP3 DUP3 DUP2 ADD SWAP1 DUP8 DUP6 GT ISZERO PUSH2 0x1C9F JUMPI PUSH1 0x0 DUP1 REVERT JUMPDEST DUP4 DUP8 ADD SWAP3 POP JUMPDEST DUP5 DUP4 LT ISZERO PUSH2 0x1CBE JUMPI DUP3 CALLDATALOAD DUP3 MSTORE SWAP2 DUP4 ADD SWAP2 SWAP1 DUP4 ADD SWAP1 PUSH2 0x1CA5 JUMP JUMPDEST SWAP8 SWAP7 POP POP POP POP POP POP POP JUMP JUMPDEST PUSH1 0x0 DUP1 PUSH1 0x0 DUP1 PUSH1 0x0 PUSH1 0xA0 DUP7 DUP9 SUB SLT ISZERO PUSH2 0x1CE1 JUMPI PUSH1 0x0 DUP1 REVERT JUMPDEST PUSH2 0x1CEA DUP7 PUSH2 0x17BD JUMP JUMPDEST SWAP5 POP PUSH2 0x1CF8 PUSH1 0x20 DUP8 ADD PUSH2 0x17BD JUMP JUMPDEST SWAP4 POP PUSH1 0x40 DUP7 ADD CALLDATALOAD PUSH8 0xFFFFFFFFFFFFFFFF DUP1 DUP3 GT ISZERO PUSH2 0x1D15 JUMPI PUSH1 0x0 DUP1 REVERT JUMPDEST PUSH2 0x1D21 DUP10 DUP4 DUP11 ADD PUSH2 0x1C49 JUMP JUMPDEST SWAP5 POP PUSH1 0x60 DUP9 ADD CALLDATALOAD SWAP2 POP DUP1 DUP3 GT ISZERO PUSH2 0x1D37 JUMPI PUSH1 0x0 DUP1 REVERT JUMPDEST PUSH2 0x1D43 DUP10 DUP4 DUP11 ADD PUSH2 0x1C49 JUMP JUMPDEST SWAP4 POP PUSH1 0x80 DUP9 ADD CALLDATALOAD SWAP2 POP DUP1 DUP3 GT ISZERO PUSH2 0x1D59 JUMPI PUSH1 0x0 DUP1 REVERT JUMPDEST POP PUSH2 0x1D66 DUP9 DUP3 DUP10 ADD PUSH2 0x19A5 JUMP JUMPDEST SWAP2 POP POP SWAP3 SWAP6 POP SWAP3 SWAP6 SWAP1 SWAP4 POP JUMP JUMPDEST PUSH1 0x0 DUP1 PUSH1 0x0 DUP1 PUSH1 0x0 PUSH1 0xA0 DUP7 DUP9 SUB SLT ISZERO PUSH2 0x1D8B JUMPI PUSH1 0x0 DUP1 REVERT JUMPDEST PUSH2 0x1D94 DUP7 PUSH2 0x17BD JUMP JUMPDEST SWAP5 POP PUSH2 0x1DA2 PUSH1 0x20 DUP8 ADD PUSH2 0x17BD JUMP JUMPDEST SWAP4 POP PUSH1 0x40 DUP7 ADD CALLDATALOAD SWAP3 POP PUSH1 0x60 DUP7 ADD CALLDATALOAD SWAP2 POP PUSH1 0x80 DUP7 ADD CALLDATALOAD PUSH8 0xFFFFFFFFFFFFFFFF DUP2 GT ISZERO PUSH2 0x1DCC JUMPI PUSH1 0x0 DUP1 REVERT JUMPDEST PUSH2 0x1D66 DUP9 DUP3 DUP10 ADD PUSH2 0x19A5 JUMP JUMPDEST DUP2 DUP4 MSTORE DUP2 DUP2 PUSH1 0x20 DUP6 ADD CALLDATACOPY POP PUSH1 0x0 PUSH1 0x20 DUP3 DUP5 ADD ADD MSTORE PUSH1 0x0 PUSH1 0x20 PUSH1 0x1F NOT PUSH1 0x1F DUP5 ADD AND DUP5 ADD ADD SWAP1 POP SWAP3 SWAP2 POP POP JUMP JUMPDEST PUSH1 0x1 PUSH1 0x1 PUSH1 0xA0 SHL SUB DUP8 AND DUP2 MSTORE DUP6 PUSH1 0x20 DUP3 ADD MSTORE PUSH1 0xA0 PUSH1 0x40 DUP3 ADD MSTORE PUSH1 0x0 PUSH2 0x1E2C PUSH1 0xA0 DUP4 ADD DUP7 DUP9 PUSH2 0x1DD8 JUMP JUMPDEST PUSH1 0x60 DUP4 ADD SWAP5 SWAP1 SWAP5 MSTORE POP PUSH1 0x80 ADD MSTORE SWAP5 SWAP4 POP POP POP POP JUMP JUMPDEST PUSH1 0x1 PUSH1 0x1 PUSH1 0xA0 SHL SUB DUP6 AND DUP2 MSTORE DUP4 PUSH1 0x20 DUP3 ADD MSTORE PUSH1 0x60 PUSH1 0x40 DUP3 ADD MSTORE PUSH1 0x0 PUSH2 0x1E6A PUSH1 0x60 DUP4 ADD DUP5 DUP7 PUSH2 0x1DD8 JUMP JUMPDEST SWAP7 SWAP6 POP POP POP POP POP POP JUMP JUMPDEST PUSH4 0x4E487B71 PUSH1 0xE0 SHL PUSH1 0x0 MSTORE PUSH1 0x32 PUSH1 0x4 MSTORE PUSH1 0x24 PUSH1 0x0 REVERT JUMPDEST PUSH1 0x0 PUSH1 0x20 DUP3 DUP5 SUB SLT ISZERO PUSH2 0x1E9C JUMPI PUSH1 0x0 DUP1 REVERT JUMPDEST PUSH2 0x885 DUP3 PUSH2 0x17BD JUMP JUMPDEST PUSH1 0x0 DUP1 DUP4 CALLDATALOAD PUSH1 0x1E NOT DUP5 CALLDATASIZE SUB ADD DUP2 SLT PUSH2 0x1EBC JUMPI PUSH1 0x0 DUP1 REVERT JUMPDEST DUP4 ADD DUP1 CALLDATALOAD SWAP2 POP PUSH8 0xFFFFFFFFFFFFFFFF DUP3 GT ISZERO PUSH2 0x1ED7 JUMPI PUSH1 0x0 DUP1 REVERT JUMPDEST PUSH1 0x20 ADD SWAP2 POP CALLDATASIZE DUP2 SWAP1 SUB DUP3 SGT ISZERO PUSH2 0x181B JUMPI PUSH1 0x0 DUP1 REVERT JUMPDEST PUSH4 0x4E487B71 PUSH1 0xE0 SHL PUSH1 0x0 MSTORE PUSH1 0x11 PUSH1 0x4 MSTORE PUSH1 0x24 PUSH1 0x0 REVERT JUMPDEST PUSH1 0x0 PUSH1 0x0 NOT DUP3 SUB PUSH2 0x1F15 JUMPI PUSH2 0x1F15 PUSH2 0x1EEC JUMP JUMPDEST POP PUSH1 0x1 ADD SWAP1 JUMP JUMPDEST DUP2 DUP4 MSTORE PUSH1 0x0 PUSH1 0x20 DUP1 DUP6 ADD DUP1 DUP2 SWAP7 POP DUP6 PUSH1 0x5 SHL DUP2 ADD SWAP2 POP DUP5 PUSH1 0x0 JUMPDEST DUP8 DUP2 LT ISZERO PUSH2 0x1FA1 JUMPI DUP3 DUP5 SUB DUP10 MSTORE DUP2 CALLDATALOAD PUSH1 0x1E NOT DUP9 CALLDATASIZE SUB ADD DUP2 SLT PUSH2 0x1F57 JUMPI PUSH1 0x0 DUP1 REVERT JUMPDEST DUP8 ADD DUP6 DUP2 ADD SWAP1 CALLDATALOAD PUSH8 0xFFFFFFFFFFFFFFFF DUP2 GT ISZERO PUSH2 0x1F73 JUMPI PUSH1 0x0 DUP1 REVERT JUMPDEST DUP1 CALLDATASIZE SUB DUP3 SGT ISZERO PUSH2 0x1F82 JUMPI PUSH1 0x0 DUP1 REVERT JUMPDEST PUSH2 0x1F8D DUP7 DUP3 DUP5 PUSH2 0x1DD8 JUMP JUMPDEST SWAP11 DUP8 ADD SWAP11 SWAP6 POP POP POP SWAP1 DUP5 ADD SWAP1 PUSH1 0x1 ADD PUSH2 0x1F36 JUMP JUMPDEST POP SWAP2 SWAP8 SWAP7 POP POP POP POP POP POP POP JUMP JUMPDEST PUSH1 0xA0 DUP1 DUP3 MSTORE DUP2 ADD DUP9 SWAP1 MSTORE PUSH1 0x0 DUP10 PUSH1 0xC0 DUP4 ADD DUP3 JUMPDEST DUP12 DUP2 LT ISZERO PUSH2 0x1FEF JUMPI PUSH1 0x1 PUSH1 0x1 PUSH1 0xA0 SHL SUB PUSH2 0x1FDA DUP5 PUSH2 0x17BD JUMP JUMPDEST AND DUP3 MSTORE PUSH1 0x20 SWAP3 DUP4 ADD SWAP3 SWAP1 SWAP2 ADD SWAP1 PUSH1 0x1 ADD PUSH2 0x1FC1 JUMP JUMPDEST POP DUP4 DUP2 SUB PUSH1 0x20 DUP6 ADD MSTORE DUP9 DUP2 MSTORE PUSH32 0x7FFFFFFFFFFFFFFFFFFFFFFFFFFFFFFFFFFFFFFFFFFFFFFFFFFFFFFFFFFFFFF DUP10 GT ISZERO PUSH2 0x2028 JUMPI PUSH1 0x0 DUP1 REVERT JUMPDEST DUP9 PUSH1 0x5 SHL SWAP2 POP DUP2 DUP11 PUSH1 0x20 DUP4 ADD CALLDATACOPY ADD DUP3 DUP2 SUB PUSH1 0x20 SWAP1 DUP2 ADD PUSH1 0x40 DUP6 ADD MSTORE PUSH2 0x2050 SWAP1 DUP3 ADD DUP8 DUP10 PUSH2 0x1F1C JUMP JUMPDEST PUSH1 0x60 DUP5 ADD SWAP6 SWAP1 SWAP6 MSTORE POP POP PUSH1 0x80 ADD MSTORE SWAP7 SWAP6 POP POP POP POP POP POP JUMP JUMPDEST DUP1 DUP3 ADD DUP1 DUP3 GT ISZERO PUSH2 0x768 JUMPI PUSH2 0x768 PUSH2 0x1EEC JUMP JUMPDEST PUSH1 0x0 JUMPDEST DUP4 DUP2 LT ISZERO PUSH2 0x2096 JUMPI DUP2 DUP2 ADD MLOAD DUP4 DUP3 ADD MSTORE PUSH1 0x20 ADD PUSH2 0x207E JUMP JUMPDEST POP POP PUSH1 0x0 SWAP2 ADD MSTORE JUMP JUMPDEST PUSH32 0x416363657373436F6E74726F6C3A206163636F756E7420000000000000000000 DUP2 MSTORE PUSH1 0x0 DUP4 MLOAD PUSH2 0x20D7 DUP2 PUSH1 0x17 DUP6 ADD PUSH1 0x20 DUP9 ADD PUSH2 0x207B JUMP JUMPDEST PUSH32 0x206973206D697373696E6720726F6C6520000000000000000000000000000000 PUSH1 0x17 SWAP2 DUP5 ADD SWAP2 DUP3 ADD MSTORE DUP4 MLOAD PUSH2 0x2114 DUP2 PUSH1 0x28 DUP5 ADD PUSH1 0x20 DUP9 ADD PUSH2 0x207B JUMP JUMPDEST ADD PUSH1 0x28 ADD SWAP5 SWAP4 POP POP POP POP JUMP JUMPDEST PUSH1 0x20 DUP2 MSTORE PUSH1 0x0 DUP3 MLOAD DUP1 PUSH1 0x20 DUP5 ADD MSTORE PUSH2 0x213F DUP2 PUSH1 0x40 DUP6 ADD PUSH1 0x20 DUP8 ADD PUSH2 0x207B JUMP JUMPDEST PUSH1 0x1F ADD PUSH1 0x1F NOT AND SWAP2 SWAP1 SWAP2 ADD PUSH1 0x40 ADD SWAP3 SWAP2 POP POP JUMP JUMPDEST DUP2 DUP4 DUP3 CALLDATACOPY PUSH1 0x0 SWAP2 ADD SWAP1 DUP2 MSTORE SWAP2 SWAP1 POP JUMP JUMPDEST DUP1 DUP3 MUL DUP2 ISZERO DUP3 DUP3 DIV DUP5 EQ OR PUSH2 0x768 JUMPI PUSH2 0x768 PUSH2 0x1EEC JUMP JUMPDEST PUSH1 0x0 DUP2 PUSH2 0x2189 JUMPI PUSH2 0x2189 PUSH2 0x1EEC JUMP JUMPDEST POP PUSH1 0x0 NOT ADD SWAP1 JUMP INVALID LOG2 PUSH5 0x6970667358 0x22 SLT KECCAK256 CALLCODE GAS 0xEC PUSH28 0x9FB847C851D584519024AAF037F476DA1A068319D1219C78DD4961EE PUSH5 0x736F6C6343 STOP ADDMOD SGT STOP CALLER 0x5F PC 0xE3 LOG2 BALANCE PUSH4 0x49923CE3 PUSH25 0xF8D587DB2D72378AED66A8261C916544FA6846CA5B09AA5AE 0xB3 PUSH17 0x2CFD50B6B62BC4532604938F21248A27A1 0xD5 0xCA PUSH20 0x6082B6819CC1D8AA0F3194971A2A116679F7C209 0xF PUSH10 0x39C8D4E01A2A8D7E41D5 0x5E MSTORE8 MLOAD CHAINID SWAP15 PUSH4 0xFD643C72 PUSH18 0xC63C0180259ABA6B2D05451E3591A24E58B PUSH3 0x239378 ADDMOD JUMPI 0x26 0xF7 DUP4 LOG2 PUSH5 0x6970667358 0x22 SLT KECCAK256 CALL 0xC0 0xB8 RETURNDATASIZE CREATE2 SSTORE SIGNEXTEND 0x5D 0xEB 0xB6 PUSH26 0x3C72D9F393C3A577F2F5CA779807AA2D59D75FA7F564736F6C63 NUMBER STOP ADDMOD SGT STOP CALLER "
		},
		"gasEstimates": {
			"creation": {
				"codeDepositCost": "4709400",
				"executionCost": "5525",
				"totalCost": "4714925"
			},
			"external": {
				"createTimeLock(uint256,address[],address[],address)": "infinite",
				"createToken(string,string,uint256,address)": "infinite"
			}
		},
		"methodIdentifiers": {
			"createTimeLock(uint256,address[],address[],address)": "5484d7b7",
			"createToken(string,string,uint256,address)": "34f359f9"
		}
	},
	"abi": [
		{
			"anonymous": false,
			"inputs": [
				{
					"indexed": false,
					"internalType": "string",
					"name": "name",
					"type": "string"
				},
				{
					"indexed": false,
					"internalType": "string",
					"name": "symbol",
					"type": "string"
				},
				{
					"indexed": true,
					"internalType": "address",
					"name": "contractAddress",
					"type": "address"
				}
			],
			"name": "NewERC20TokenCreated",
			"type": "event"
		},
		{
			"anonymous": false,
			"inputs": [
				{
					"indexed": false,
					"internalType": "address",
					"name": "admin",
					"type": "address"
				},
				{
					"indexed": true,
					"internalType": "address",
					"name": "timelockControllerAddress",
					"type": "address"
				}
			],
			"name": "NewTimelockControllerCreated",
			"type": "event"
		},
		{
			"inputs": [
				{
					"internalType": "uint256",
					"name": "votingPeriod",
					"type": "uint256"
				},
				{
					"internalType": "address[]",
					"name": "proposers",
					"type": "address[]"
				},
				{
					"internalType": "address[]",
					"name": "executors",
					"type": "address[]"
				},
				{
					"internalType": "address",
					"name": "admin",
					"type": "address"
				}
			],
			"name": "createTimeLock",
			"outputs": [
				{
					"internalType": "address",
					"name": "",
					"type": "address"
				}
			],
			"stateMutability": "nonpayable",
			"type": "function"
		},
		{
			"inputs": [
				{
					"internalType": "string",
					"name": "name",
					"type": "string"
				},
				{
					"internalType": "string",
					"name": "symbol",
					"type": "string"
				},
				{
					"internalType": "uint256",
					"name": "initialSupply",
					"type": "uint256"
				},
				{
					"internalType": "address",
					"name": "owner",
					"type": "address"
				}
			],
			"name": "createToken",
			"outputs": [
				{
					"internalType": "address",
					"name": "",
					"type": "address"
				}
			],
			"stateMutability": "nonpayable",
			"type": "function"
		}
	]
}