{
  "contractName": "SimpliGovernor",
  "abi": [
    {
      "inputs": [
        {
          "internalType": "string",
          "name": "daoName",
          "type": "string"
        },
        {
          "internalType": "contract IVotes",
          "name": "_token",
          "type": "address"
        },
        {
          "internalType": "contract TimelockController",
          "name": "_timelock",
          "type": "address"
        }
      ],
      "stateMutability": "nonpayable",
      "type": "constructor"
    },
    {
      "inputs": [],
      "name": "Empty",
      "type": "error"
    },
    {
      "anonymous": false,
      "inputs": [
        {
          "indexed": true,
          "internalType": "address",
          "name": "previousOwner",
          "type": "address"
        },
        {
          "indexed": true,
          "internalType": "address",
          "name": "newOwner",
          "type": "address"
        }
      ],
      "name": "OwnershipTransferred",
      "type": "event"
    },
    {
      "anonymous": false,
      "inputs": [
        {
          "indexed": false,
          "internalType": "uint256",
          "name": "proposalId",
          "type": "uint256"
        }
      ],
      "name": "ProposalCanceled",
      "type": "event"
    },
    {
      "anonymous": false,
      "inputs": [
        {
          "indexed": false,
          "internalType": "uint256",
          "name": "proposalId",
          "type": "uint256"
        },
        {
          "indexed": false,
          "internalType": "address",
          "name": "proposer",
          "type": "address"
        },
        {
          "indexed": false,
          "internalType": "address[]",
          "name": "targets",
          "type": "address[]"
        },
        {
          "indexed": false,
          "internalType": "uint256[]",
          "name": "values",
          "type": "uint256[]"
        },
        {
          "indexed": false,
          "internalType": "string[]",
          "name": "signatures",
          "type": "string[]"
        },
        {
          "indexed": false,
          "internalType": "bytes[]",
          "name": "calldatas",
          "type": "bytes[]"
        },
        {
          "indexed": false,
          "internalType": "uint256",
          "name": "startBlock",
          "type": "uint256"
        },
        {
          "indexed": false,
          "internalType": "uint256",
          "name": "endBlock",
          "type": "uint256"
        },
        {
          "indexed": false,
          "internalType": "string",
          "name": "description",
          "type": "string"
        }
      ],
      "name": "ProposalCreated",
      "type": "event"
    },
    {
      "anonymous": false,
      "inputs": [
        {
          "indexed": false,
          "internalType": "uint256",
          "name": "proposalId",
          "type": "uint256"
        }
      ],
      "name": "ProposalExecuted",
      "type": "event"
    },
    {
      "anonymous": false,
      "inputs": [
        {
          "indexed": false,
          "internalType": "uint256",
          "name": "proposalId",
          "type": "uint256"
        },
        {
          "indexed": false,
          "internalType": "uint256",
          "name": "eta",
          "type": "uint256"
        }
      ],
      "name": "ProposalQueued",
      "type": "event"
    },
    {
      "anonymous": false,
      "inputs": [
        {
          "indexed": false,
          "internalType": "uint256",
          "name": "oldQuorumNumerator",
          "type": "uint256"
        },
        {
          "indexed": false,
          "internalType": "uint256",
          "name": "newQuorumNumerator",
          "type": "uint256"
        }
      ],
      "name": "QuorumNumeratorUpdated",
      "type": "event"
    },
    {
      "anonymous": false,
      "inputs": [
        {
          "indexed": false,
          "internalType": "address",
          "name": "oldTimelock",
          "type": "address"
        },
        {
          "indexed": false,
          "internalType": "address",
          "name": "newTimelock",
          "type": "address"
        }
      ],
      "name": "TimelockChange",
      "type": "event"
    },
    {
      "anonymous": false,
      "inputs": [
        {
          "indexed": true,
          "internalType": "address",
          "name": "voter",
          "type": "address"
        },
        {
          "indexed": false,
          "internalType": "uint256",
          "name": "proposalId",
          "type": "uint256"
        },
        {
          "indexed": false,
          "internalType": "uint8",
          "name": "support",
          "type": "uint8"
        },
        {
          "indexed": false,
          "internalType": "uint256",
          "name": "weight",
          "type": "uint256"
        },
        {
          "indexed": false,
          "internalType": "string",
          "name": "reason",
          "type": "string"
        }
      ],
      "name": "VoteCast",
      "type": "event"
    },
    {
      "anonymous": false,
      "inputs": [
        {
          "indexed": true,
          "internalType": "address",
          "name": "voter",
          "type": "address"
        },
        {
          "indexed": false,
          "internalType": "uint256",
          "name": "proposalId",
          "type": "uint256"
        },
        {
          "indexed": false,
          "internalType": "uint8",
          "name": "support",
          "type": "uint8"
        },
        {
          "indexed": false,
          "internalType": "uint256",
          "name": "weight",
          "type": "uint256"
        },
        {
          "indexed": false,
          "internalType": "string",
          "name": "reason",
          "type": "string"
        },
        {
          "indexed": false,
          "internalType": "bytes",
          "name": "params",
          "type": "bytes"
        }
      ],
      "name": "VoteCastWithParams",
      "type": "event"
    },
    {
      "inputs": [],
      "name": "BALLOT_TYPEHASH",
      "outputs": [
        {
          "internalType": "bytes32",
          "name": "",
          "type": "bytes32"
        }
      ],
      "stateMutability": "view",
      "type": "function"
    },
    {
      "inputs": [],
      "name": "COUNTING_MODE",
      "outputs": [
        {
          "internalType": "string",
          "name": "",
          "type": "string"
        }
      ],
      "stateMutability": "pure",
      "type": "function"
    },
    {
      "inputs": [],
      "name": "EXTENDED_BALLOT_TYPEHASH",
      "outputs": [
        {
          "internalType": "bytes32",
          "name": "",
          "type": "bytes32"
        }
      ],
      "stateMutability": "view",
      "type": "function"
    },
    {
      "inputs": [
        {
          "internalType": "uint256",
          "name": "proposalId",
          "type": "uint256"
        },
        {
          "internalType": "uint8",
          "name": "support",
          "type": "uint8"
        }
      ],
      "name": "castVote",
      "outputs": [
        {
          "internalType": "uint256",
          "name": "",
          "type": "uint256"
        }
      ],
      "stateMutability": "nonpayable",
      "type": "function"
    },
    {
      "inputs": [
        {
          "internalType": "uint256",
          "name": "proposalId",
          "type": "uint256"
        },
        {
          "internalType": "uint8",
          "name": "support",
          "type": "uint8"
        },
        {
          "internalType": "uint8",
          "name": "v",
          "type": "uint8"
        },
        {
          "internalType": "bytes32",
          "name": "r",
          "type": "bytes32"
        },
        {
          "internalType": "bytes32",
          "name": "s",
          "type": "bytes32"
        }
      ],
      "name": "castVoteBySig",
      "outputs": [
        {
          "internalType": "uint256",
          "name": "",
          "type": "uint256"
        }
      ],
      "stateMutability": "nonpayable",
      "type": "function"
    },
    {
      "inputs": [
        {
          "internalType": "uint256",
          "name": "proposalId",
          "type": "uint256"
        },
        {
          "internalType": "uint8",
          "name": "support",
          "type": "uint8"
        },
        {
          "internalType": "string",
          "name": "reason",
          "type": "string"
        }
      ],
      "name": "castVoteWithReason",
      "outputs": [
        {
          "internalType": "uint256",
          "name": "",
          "type": "uint256"
        }
      ],
      "stateMutability": "nonpayable",
      "type": "function"
    },
    {
      "inputs": [
        {
          "internalType": "uint256",
          "name": "proposalId",
          "type": "uint256"
        },
        {
          "internalType": "uint8",
          "name": "support",
          "type": "uint8"
        },
        {
          "internalType": "string",
          "name": "reason",
          "type": "string"
        },
        {
          "internalType": "bytes",
          "name": "params",
          "type": "bytes"
        }
      ],
      "name": "castVoteWithReasonAndParams",
      "outputs": [
        {
          "internalType": "uint256",
          "name": "",
          "type": "uint256"
        }
      ],
      "stateMutability": "nonpayable",
      "type": "function"
    },
    {
      "inputs": [
        {
          "internalType": "uint256",
          "name": "proposalId",
          "type": "uint256"
        },
        {
          "internalType": "uint8",
          "name": "support",
          "type": "uint8"
        },
        {
          "internalType": "string",
          "name": "reason",
          "type": "string"
        },
        {
          "internalType": "bytes",
          "name": "params",
          "type": "bytes"
        },
        {
          "internalType": "uint8",
          "name": "v",
          "type": "uint8"
        },
        {
          "internalType": "bytes32",
          "name": "r",
          "type": "bytes32"
        },
        {
          "internalType": "bytes32",
          "name": "s",
          "type": "bytes32"
        }
      ],
      "name": "castVoteWithReasonAndParamsBySig",
      "outputs": [
        {
          "internalType": "uint256",
          "name": "",
          "type": "uint256"
        }
      ],
      "stateMutability": "nonpayable",
      "type": "function"
    },
    {
      "inputs": [
        {
          "internalType": "address[]",
          "name": "targets",
          "type": "address[]"
        },
        {
          "internalType": "uint256[]",
          "name": "values",
          "type": "uint256[]"
        },
        {
          "internalType": "bytes[]",
          "name": "calldatas",
          "type": "bytes[]"
        },
        {
          "internalType": "bytes32",
          "name": "descriptionHash",
          "type": "bytes32"
        }
      ],
      "name": "execute",
      "outputs": [
        {
          "internalType": "uint256",
          "name": "",
          "type": "uint256"
        }
      ],
      "stateMutability": "payable",
      "type": "function"
    },
    {
      "inputs": [
        {
          "internalType": "address",
          "name": "account",
          "type": "address"
        },
        {
          "internalType": "uint256",
          "name": "blockNumber",
          "type": "uint256"
        }
      ],
      "name": "getVotes",
      "outputs": [
        {
          "internalType": "uint256",
          "name": "",
          "type": "uint256"
        }
      ],
      "stateMutability": "view",
      "type": "function"
    },
    {
      "inputs": [
        {
          "internalType": "address",
          "name": "account",
          "type": "address"
        },
        {
          "internalType": "uint256",
          "name": "blockNumber",
          "type": "uint256"
        },
        {
          "internalType": "bytes",
          "name": "params",
          "type": "bytes"
        }
      ],
      "name": "getVotesWithParams",
      "outputs": [
        {
          "internalType": "uint256",
          "name": "",
          "type": "uint256"
        }
      ],
      "stateMutability": "view",
      "type": "function"
    },
    {
      "inputs": [
        {
          "internalType": "uint256",
          "name": "proposalId",
          "type": "uint256"
        },
        {
          "internalType": "address",
          "name": "account",
          "type": "address"
        }
      ],
      "name": "hasVoted",
      "outputs": [
        {
          "internalType": "bool",
          "name": "",
          "type": "bool"
        }
      ],
      "stateMutability": "view",
      "type": "function"
    },
    {
      "inputs": [
        {
          "internalType": "address[]",
          "name": "targets",
          "type": "address[]"
        },
        {
          "internalType": "uint256[]",
          "name": "values",
          "type": "uint256[]"
        },
        {
          "internalType": "bytes[]",
          "name": "calldatas",
          "type": "bytes[]"
        },
        {
          "internalType": "bytes32",
          "name": "descriptionHash",
          "type": "bytes32"
        }
      ],
      "name": "hashProposal",
      "outputs": [
        {
          "internalType": "uint256",
          "name": "",
          "type": "uint256"
        }
      ],
      "stateMutability": "pure",
      "type": "function"
    },
    {
      "inputs": [],
      "name": "name",
      "outputs": [
        {
          "internalType": "string",
          "name": "",
          "type": "string"
        }
      ],
      "stateMutability": "view",
      "type": "function"
    },
    {
      "inputs": [
        {
          "internalType": "address",
          "name": "",
          "type": "address"
        },
        {
          "internalType": "address",
          "name": "",
          "type": "address"
        },
        {
          "internalType": "uint256[]",
          "name": "",
          "type": "uint256[]"
        },
        {
          "internalType": "uint256[]",
          "name": "",
          "type": "uint256[]"
        },
        {
          "internalType": "bytes",
          "name": "",
          "type": "bytes"
        }
      ],
      "name": "onERC1155BatchReceived",
      "outputs": [
        {
          "internalType": "bytes4",
          "name": "",
          "type": "bytes4"
        }
      ],
      "stateMutability": "nonpayable",
      "type": "function"
    },
    {
      "inputs": [
        {
          "internalType": "address",
          "name": "",
          "type": "address"
        },
        {
          "internalType": "address",
          "name": "",
          "type": "address"
        },
        {
          "internalType": "uint256",
          "name": "",
          "type": "uint256"
        },
        {
          "internalType": "uint256",
          "name": "",
          "type": "uint256"
        },
        {
          "internalType": "bytes",
          "name": "",
          "type": "bytes"
        }
      ],
      "name": "onERC1155Received",
      "outputs": [
        {
          "internalType": "bytes4",
          "name": "",
          "type": "bytes4"
        }
      ],
      "stateMutability": "nonpayable",
      "type": "function"
    },
    {
      "inputs": [
        {
          "internalType": "address",
          "name": "",
          "type": "address"
        },
        {
          "internalType": "address",
          "name": "",
          "type": "address"
        },
        {
          "internalType": "uint256",
          "name": "",
          "type": "uint256"
        },
        {
          "internalType": "bytes",
          "name": "",
          "type": "bytes"
        }
      ],
      "name": "onERC721Received",
      "outputs": [
        {
          "internalType": "bytes4",
          "name": "",
          "type": "bytes4"
        }
      ],
      "stateMutability": "nonpayable",
      "type": "function"
    },
    {
      "inputs": [],
      "name": "owner",
      "outputs": [
        {
          "internalType": "address",
          "name": "",
          "type": "address"
        }
      ],
      "stateMutability": "view",
      "type": "function"
    },
    {
      "inputs": [
        {
          "internalType": "uint256",
          "name": "proposalId",
          "type": "uint256"
        }
      ],
      "name": "proposalDeadline",
      "outputs": [
        {
          "internalType": "uint256",
          "name": "",
          "type": "uint256"
        }
      ],
      "stateMutability": "view",
      "type": "function"
    },
    {
      "inputs": [
        {
          "internalType": "uint256",
          "name": "proposalId",
          "type": "uint256"
        }
      ],
      "name": "proposalEta",
      "outputs": [
        {
          "internalType": "uint256",
          "name": "",
          "type": "uint256"
        }
      ],
      "stateMutability": "view",
      "type": "function"
    },
    {
      "inputs": [
        {
          "internalType": "uint256",
          "name": "proposalId",
          "type": "uint256"
        }
      ],
      "name": "proposalSnapshot",
      "outputs": [
        {
          "internalType": "uint256",
          "name": "",
          "type": "uint256"
        }
      ],
      "stateMutability": "view",
      "type": "function"
    },
    {
      "inputs": [
        {
          "internalType": "uint256",
          "name": "proposalId",
          "type": "uint256"
        }
      ],
      "name": "proposalVotes",
      "outputs": [
        {
          "internalType": "uint256",
          "name": "againstVotes",
          "type": "uint256"
        },
        {
          "internalType": "uint256",
          "name": "forVotes",
          "type": "uint256"
        },
        {
          "internalType": "uint256",
          "name": "abstainVotes",
          "type": "uint256"
        }
      ],
      "stateMutability": "view",
      "type": "function"
    },
    {
      "inputs": [
        {
          "internalType": "address[]",
          "name": "targets",
          "type": "address[]"
        },
        {
          "internalType": "uint256[]",
          "name": "values",
          "type": "uint256[]"
        },
        {
          "internalType": "bytes[]",
          "name": "calldatas",
          "type": "bytes[]"
        },
        {
          "internalType": "bytes32",
          "name": "descriptionHash",
          "type": "bytes32"
        }
      ],
      "name": "queue",
      "outputs": [
        {
          "internalType": "uint256",
          "name": "",
          "type": "uint256"
        }
      ],
      "stateMutability": "nonpayable",
      "type": "function"
    },
    {
      "inputs": [],
      "name": "quorumDenominator",
      "outputs": [
        {
          "internalType": "uint256",
          "name": "",
          "type": "uint256"
        }
      ],
      "stateMutability": "view",
      "type": "function"
    },
    {
      "inputs": [
        {
          "internalType": "uint256",
          "name": "blockNumber",
          "type": "uint256"
        }
      ],
      "name": "quorumNumerator",
      "outputs": [
        {
          "internalType": "uint256",
          "name": "",
          "type": "uint256"
        }
      ],
      "stateMutability": "view",
      "type": "function"
    },
    {
      "inputs": [],
      "name": "quorumNumerator",
      "outputs": [
        {
          "internalType": "uint256",
          "name": "",
          "type": "uint256"
        }
      ],
      "stateMutability": "view",
      "type": "function"
    },
    {
      "inputs": [
        {
          "internalType": "address",
          "name": "target",
          "type": "address"
        },
        {
          "internalType": "uint256",
          "name": "value",
          "type": "uint256"
        },
        {
          "internalType": "bytes",
          "name": "data",
          "type": "bytes"
        }
      ],
      "name": "relay",
      "outputs": [],
      "stateMutability": "payable",
      "type": "function"
    },
    {
      "inputs": [],
      "name": "renounceOwnership",
      "outputs": [],
      "stateMutability": "nonpayable",
      "type": "function"
    },
    {
      "inputs": [],
      "name": "timelock",
      "outputs": [
        {
          "internalType": "address",
          "name": "",
          "type": "address"
        }
      ],
      "stateMutability": "view",
      "type": "function"
    },
    {
      "inputs": [],
      "name": "token",
      "outputs": [
        {
          "internalType": "contract IVotes",
          "name": "",
          "type": "address"
        }
      ],
      "stateMutability": "view",
      "type": "function"
    },
    {
      "inputs": [
        {
          "internalType": "address",
          "name": "newOwner",
          "type": "address"
        }
      ],
      "name": "transferOwnership",
      "outputs": [],
      "stateMutability": "nonpayable",
      "type": "function"
    },
    {
      "inputs": [
        {
          "internalType": "uint256",
          "name": "newQuorumNumerator",
          "type": "uint256"
        }
      ],
      "name": "updateQuorumNumerator",
      "outputs": [],
      "stateMutability": "nonpayable",
      "type": "function"
    },
    {
      "inputs": [
        {
          "internalType": "contract TimelockController",
          "name": "newTimelock",
          "type": "address"
        }
      ],
      "name": "updateTimelock",
      "outputs": [],
      "stateMutability": "nonpayable",
      "type": "function"
    },
    {
      "inputs": [],
      "name": "version",
      "outputs": [
        {
          "internalType": "string",
          "name": "",
          "type": "string"
        }
      ],
      "stateMutability": "view",
      "type": "function"
    },
    {
      "stateMutability": "payable",
      "type": "receive"
    },
    {
      "inputs": [],
      "name": "votingDelay",
      "outputs": [
        {
          "internalType": "uint256",
          "name": "",
          "type": "uint256"
        }
      ],
      "stateMutability": "pure",
      "type": "function"
    },
    {
      "inputs": [],
      "name": "proposalThreshold",
      "outputs": [
        {
          "internalType": "uint256",
          "name": "",
          "type": "uint256"
        }
      ],
      "stateMutability": "view",
      "type": "function"
    },
    {
      "inputs": [
        {
          "internalType": "uint256",
          "name": "value",
          "type": "uint256"
        }
      ],
      "name": "setProposalThreshold",
      "outputs": [],
      "stateMutability": "nonpayable",
      "type": "function"
    },
    {
      "inputs": [],
      "name": "votingPeriod",
      "outputs": [
        {
          "internalType": "uint256",
          "name": "",
          "type": "uint256"
        }
      ],
      "stateMutability": "view",
      "type": "function"
    },
    {
      "inputs": [
        {
          "internalType": "uint256",
          "name": "value",
          "type": "uint256"
        }
      ],
      "name": "setVotingPeriod",
      "outputs": [],
      "stateMutability": "nonpayable",
      "type": "function"
    },
    {
      "inputs": [
        {
          "internalType": "uint256",
          "name": "blockNumber",
          "type": "uint256"
        }
      ],
      "name": "quorum",
      "outputs": [
        {
          "internalType": "uint256",
          "name": "",
          "type": "uint256"
        }
      ],
      "stateMutability": "view",
      "type": "function"
    },
    {
      "inputs": [
        {
          "internalType": "uint256",
          "name": "proposalId",
          "type": "uint256"
        }
      ],
      "name": "state",
      "outputs": [
        {
          "internalType": "enum IGovernor.ProposalState",
          "name": "",
          "type": "uint8"
        }
      ],
      "stateMutability": "view",
      "type": "function"
    },
    {
      "inputs": [
        {
          "internalType": "address[]",
          "name": "targets",
          "type": "address[]"
        },
        {
          "internalType": "uint256[]",
          "name": "values",
          "type": "uint256[]"
        },
        {
          "internalType": "bytes[]",
          "name": "calldatas",
          "type": "bytes[]"
        },
        {
          "internalType": "string",
          "name": "description",
          "type": "string"
        }
      ],
      "name": "propose",
      "outputs": [
        {
          "internalType": "uint256",
          "name": "",
          "type": "uint256"
        }
      ],
      "stateMutability": "nonpayable",
      "type": "function"
    },
    {
      "inputs": [
        {
          "internalType": "bytes4",
          "name": "interfaceId",
          "type": "bytes4"
        }
      ],
      "name": "supportsInterface",
      "outputs": [
        {
          "internalType": "bool",
          "name": "",
          "type": "bool"
        }
      ],
      "stateMutability": "view",
      "type": "function"
    }
  ],
  "bytecode": "0x610160604052670de0b6b3a7640000600a556004600b553480156200002357600080fd5b5060405162007e0b38038062007e0b833981810160405281019062000049919062000d99565b80600a8385806200005f620001a760201b60201c565b60008280519060200120905060008280519060200120905060007f8b73c3c69bb8fe3d512ecc4cf759cc79239f7b179b0ffacaa9a75d522b39400f90508260e081815250508161010081815250504660a08181525050620000c8818484620001e460201b60201c565b608081815250503073ffffffffffffffffffffffffffffffffffffffff1660c08173ffffffffffffffffffffffffffffffffffffffff1681525050806101208181525050505050505080600090816200012291906200105f565b50508073ffffffffffffffffffffffffffffffffffffffff166101408173ffffffffffffffffffffffffffffffffffffffff1681525050506200016b816200022060201b60201c565b506200017d81620003f560201b60201c565b506200019e620001926200049660201b60201c565b6200049e60201b60201c565b50505062001515565b60606040518060400160405280600181526020017f3100000000000000000000000000000000000000000000000000000000000000815250905090565b600083838346306040516020016200020195949392919062001183565b6040516020818303038152906040528051906020012090509392505050565b620002306200056460201b60201c565b81111562000275576040517f08c379a00000000000000000000000000000000000000000000000000000000081526004016200026c906200128d565b60405180910390fd5b6000620002876200056d60201b60201c565b905060008114158015620002a357506000600660000180549050145b156200039e5760066000016040518060400160405280600063ffffffff168152602001620002d784620005be60201b60201c565b7bffffffffffffffffffffffffffffffffffffffffffffffffffffffff168152509080600181540180825580915050600190039060005260206000200160009091909190915060008201518160000160006101000a81548163ffffffff021916908363ffffffff16021790555060208201518160000160046101000a8154817bffffffffffffffffffffffffffffffffffffffffffffffffffffffff02191690837bffffffffffffffffffffffffffffffffffffffffffffffffffffffff16021790555050505b620003b48260066200062c60201b90919060201c565b50507f0553476bf02ef2726e8ce5ced78d63e26e602e4a2257b1f559418e24b46339978183604051620003e9929190620012af565b60405180910390a15050565b7f08f74ea46ef7894f65eabfb5e6e695de773a000b47c529ab559178069b226401600760009054906101000a900473ffffffffffffffffffffffffffffffffffffffff16826040516200044a929190620012dc565b60405180910390a180600760006101000a81548173ffffffffffffffffffffffffffffffffffffffff021916908373ffffffffffffffffffffffffffffffffffffffff16021790555050565b600033905090565b6000600960009054906101000a900473ffffffffffffffffffffffffffffffffffffffff16905081600960006101000a81548173ffffffffffffffffffffffffffffffffffffffff021916908373ffffffffffffffffffffffffffffffffffffffff1602179055508173ffffffffffffffffffffffffffffffffffffffff168173ffffffffffffffffffffffffffffffffffffffff167f8be0079c531659141344cd1fd0a4f28419497f9722a3daafe3b4186f6b6457e060405160405180910390a35050565b60006064905090565b60008060066000018054905014620005b557620005916006620006b260201b60201c565b7bffffffffffffffffffffffffffffffffffffffffffffffffffffffff16620005b9565b6005545b905090565b60007bffffffffffffffffffffffffffffffffffffffffffffffffffffffff801682111562000624576040517f08c379a00000000000000000000000000000000000000000000000000000000081526004016200061b906200137f565b60405180910390fd5b819050919050565b600080620006658460000162000648436200072860201b60201c565b6200065986620005be60201b60201c565b6200077e60201b60201c565b817bffffffffffffffffffffffffffffffffffffffffffffffffffffffff169150807bffffffffffffffffffffffffffffffffffffffffffffffffffffffff169050915091509250929050565b60008082600001805490509050600081146200071d57620006eb83600001600183620006df9190620013d0565b62000b1f60201b60201c565b60000160049054906101000a90047bffffffffffffffffffffffffffffffffffffffffffffffffffffffff1662000720565b60005b915050919050565b600063ffffffff801682111562000776576040517f08c379a00000000000000000000000000000000000000000000000000000000081526004016200076d9062001481565b60405180910390fd5b819050919050565b600080600085805490509050600081111562000a2f576000620007b687600184620007aa9190620013d0565b62000b1f60201b60201c565b6040518060400160405290816000820160009054906101000a900463ffffffff1663ffffffff1663ffffffff1681526020016000820160049054906101000a90047bffffffffffffffffffffffffffffffffffffffffffffffffffffffff167bffffffffffffffffffffffffffffffffffffffffffffffffffffffff167bffffffffffffffffffffffffffffffffffffffffffffffffffffffff168152505090508563ffffffff16816000015163ffffffff161115620008ad576040517f08c379a0000000000000000000000000000000000000000000000000000000008152600401620008a490620014f3565b60405180910390fd5b8563ffffffff16816000015163ffffffff16036200093d5784620008e688600185620008da9190620013d0565b62000b1f60201b60201c565b60000160046101000a8154817bffffffffffffffffffffffffffffffffffffffffffffffffffffffff02191690837bffffffffffffffffffffffffffffffffffffffffffffffffffffffff16021790555062000a1d565b8660405180604001604052808863ffffffff168152602001877bffffffffffffffffffffffffffffffffffffffffffffffffffffffff168152509080600181540180825580915050600190039060005260206000200160009091909190915060008201518160000160006101000a81548163ffffffff021916908363ffffffff16021790555060208201518160000160046101000a8154817bffffffffffffffffffffffffffffffffffffffffffffffffffffffff02191690837bffffffffffffffffffffffffffffffffffffffffffffffffffffffff16021790555050505b80602001518593509350505062000b17565b8560405180604001604052808763ffffffff168152602001867bffffffffffffffffffffffffffffffffffffffffffffffffffffffff168152509080600181540180825580915050600190039060005260206000200160009091909190915060008201518160000160006101000a81548163ffffffff021916908363ffffffff16021790555060208201518160000160046101000a8154817bffffffffffffffffffffffffffffffffffffffffffffffffffffffff02191690837bffffffffffffffffffffffffffffffffffffffffffffffffffffffff160217905550505060008492509250505b935093915050565b60008260005281602060002001905092915050565b6000604051905090565b600080fd5b600080fd5b600080fd5b600080fd5b6000601f19601f8301169050919050565b7f4e487b7100000000000000000000000000000000000000000000000000000000600052604160045260246000fd5b62000b9d8262000b52565b810181811067ffffffffffffffff8211171562000bbf5762000bbe62000b63565b5b80604052505050565b600062000bd462000b34565b905062000be2828262000b92565b919050565b600067ffffffffffffffff82111562000c055762000c0462000b63565b5b62000c108262000b52565b9050602081019050919050565b60005b8381101562000c3d57808201518184015260208101905062000c20565b60008484015250505050565b600062000c6062000c5a8462000be7565b62000bc8565b90508281526020810184848401111562000c7f5762000c7e62000b4d565b5b62000c8c84828562000c1d565b509392505050565b600082601f83011262000cac5762000cab62000b48565b5b815162000cbe84826020860162000c49565b91505092915050565b600073ffffffffffffffffffffffffffffffffffffffff82169050919050565b600062000cf48262000cc7565b9050919050565b600062000d088262000ce7565b9050919050565b62000d1a8162000cfb565b811462000d2657600080fd5b50565b60008151905062000d3a8162000d0f565b92915050565b600062000d4d8262000cc7565b9050919050565b600062000d618262000d40565b9050919050565b62000d738162000d54565b811462000d7f57600080fd5b50565b60008151905062000d938162000d68565b92915050565b60008060006060848603121562000db55762000db462000b3e565b5b600084015167ffffffffffffffff81111562000dd65762000dd562000b43565b5b62000de48682870162000c94565b935050602062000df78682870162000d29565b925050604062000e0a8682870162000d82565b9150509250925092565b600081519050919050565b7f4e487b7100000000000000000000000000000000000000000000000000000000600052602260045260246000fd5b6000600282049050600182168062000e6757607f821691505b60208210810362000e7d5762000e7c62000e1f565b5b50919050565b60008190508160005260206000209050919050565b60006020601f8301049050919050565b600082821b905092915050565b60006008830262000ee77fffffffffffffffffffffffffffffffffffffffffffffffffffffffffffffffff8262000ea8565b62000ef3868362000ea8565b95508019841693508086168417925050509392505050565b6000819050919050565b6000819050919050565b600062000f4062000f3a62000f348462000f0b565b62000f15565b62000f0b565b9050919050565b6000819050919050565b62000f5c8362000f1f565b62000f7462000f6b8262000f47565b84845462000eb5565b825550505050565b600090565b62000f8b62000f7c565b62000f9881848462000f51565b505050565b5b8181101562000fc05762000fb460008262000f81565b60018101905062000f9e565b5050565b601f8211156200100f5762000fd98162000e83565b62000fe48462000e98565b8101602085101562000ff4578190505b6200100c620010038562000e98565b83018262000f9d565b50505b505050565b600082821c905092915050565b6000620010346000198460080262001014565b1980831691505092915050565b60006200104f838362001021565b9150826002028217905092915050565b6200106a8262000e14565b67ffffffffffffffff81111562001086576200108562000b63565b5b62001092825462000e4e565b6200109f82828562000fc4565b600060209050601f831160018114620010d75760008415620010c2578287015190505b620010ce858262001041565b8655506200113e565b601f198416620010e78662000e83565b60005b828110156200111157848901518255600182019150602085019450602081019050620010ea565b868310156200113157848901516200112d601f89168262001021565b8355505b6001600288020188555050505b505050505050565b6000819050919050565b6200115b8162001146565b82525050565b6200116c8162000f0b565b82525050565b6200117d8162000ce7565b82525050565b600060a0820190506200119a600083018862001150565b620011a9602083018762001150565b620011b8604083018662001150565b620011c7606083018562001161565b620011d6608083018462001172565b9695505050505050565b600082825260208201905092915050565b7f476f7665726e6f72566f74657351756f72756d4672616374696f6e3a2071756f60008201527f72756d4e756d657261746f72206f7665722071756f72756d44656e6f6d696e6160208201527f746f720000000000000000000000000000000000000000000000000000000000604082015250565b600062001275604383620011e0565b91506200128282620011f1565b606082019050919050565b60006020820190508181036000830152620012a88162001266565b9050919050565b6000604082019050620012c6600083018562001161565b620012d5602083018462001161565b9392505050565b6000604082019050620012f3600083018562001172565b62001302602083018462001172565b9392505050565b7f53616665436173743a2076616c756520646f65736e27742066697420696e203260008201527f3234206269747300000000000000000000000000000000000000000000000000602082015250565b600062001367602783620011e0565b9150620013748262001309565b604082019050919050565b600060208201905081810360008301526200139a8162001358565b9050919050565b7f4e487b7100000000000000000000000000000000000000000000000000000000600052601160045260246000fd5b6000620013dd8262000f0b565b9150620013ea8362000f0b565b9250828203905081811115620014055762001404620013a1565b5b92915050565b7f53616665436173743a2076616c756520646f65736e27742066697420696e203360008201527f3220626974730000000000000000000000000000000000000000000000000000602082015250565b600062001469602683620011e0565b915062001476826200140b565b604082019050919050565b600060208201905081810360008301526200149c816200145a565b9050919050565b7f436865636b706f696e743a20696e76616c6964206b6579000000000000000000600082015250565b6000620014db601783620011e0565b9150620014e882620014a3565b602082019050919050565b600060208201905081810360008301526200150e81620014cc565b9050919050565b60805160a05160c05160e05161010051610120516101405161688d6200157e60003960008181611cad01528181612aaa0152612ca401526000612f6a01526000612fac01526000612f8b01526000612ec001526000612f1601526000612f3f015261688d6000f3fe6080604052600436106102605760003560e01c80637d5e81e211610144578063c59057e4116100b6578063eb9019d41161007a578063eb9019d414610a16578063ece40cc114610a53578063f23a6e6114610a7c578063f2fde38b14610ab9578063f8ce560a14610ae2578063fc0c546a14610b1f576102a6565b8063c59057e41461092f578063d33219b41461096c578063dd4e2ba514610997578063deaaa7cc146109c2578063ea0217cf146109ed576102a6565b8063a890c91011610108578063a890c91014610808578063ab58fb8e14610831578063b58131b01461086e578063bc197c8114610899578063c01f9e37146108d6578063c28bc2fa14610913576102a6565b80637d5e81e21461070d5780638da5cb5b1461074a57806397c3d334146107755780639a802a6d146107a0578063a7713a70146107dd576102a6565b80633932abb1116101dd57806354fd4d50116101a157806354fd4d50146105d757806356781388146106025780635f398a141461063f57806360c4247f1461067c578063715018a6146106b95780637b3c71d3146106d0576102a6565b80633932abb1146104b65780633bccf4fd146104e15780633e4f49e61461051e578063438596321461055b578063544ffc9c14610598576102a6565b8063150b7a0211610224578063150b7a02146103a4578063160cbed7146103e15780632656227d1461041e5780632d63f6931461044e5780632fe3e2611461048b576102a6565b806301ffc9a7146102ab57806302a251a3146102e8578063034201811461031357806306f3f9e61461035057806306fdde0314610379576102a6565b366102a6573073ffffffffffffffffffffffffffffffffffffffff16610284610b4a565b73ffffffffffffffffffffffffffffffffffffffff16146102a457600080fd5b005b600080fd5b3480156102b757600080fd5b506102d260048036038101906102cd9190613f0b565b610b59565b6040516102df9190613f53565b60405180910390f35b3480156102f457600080fd5b506102fd610b6b565b60405161030a9190613f87565b60405180910390f35b34801561031f57600080fd5b5061033a600480360381019061033591906141e3565b610b75565b6040516103479190613f87565b60405180910390f35b34801561035c57600080fd5b50610377600480360381019061037291906142c1565b610c5a565b005b34801561038557600080fd5b5061038e610d51565b60405161039b919061436d565b60405180910390f35b3480156103b057600080fd5b506103cb60048036038101906103c691906143ed565b610de3565b6040516103d8919061447f565b60405180910390f35b3480156103ed57600080fd5b5061040860048036038101906104039190614701565b610df7565b6040516104159190613f87565b60405180910390f35b61043860048036038101906104339190614701565b6110b1565b6040516104459190613f87565b60405180910390f35b34801561045a57600080fd5b50610475600480360381019061047091906142c1565b6111fe565b6040516104829190613f87565b60405180910390f35b34801561049757600080fd5b506104a061126c565b6040516104ad91906147cb565b60405180910390f35b3480156104c257600080fd5b506104cb611290565b6040516104d89190613f87565b60405180910390f35b3480156104ed57600080fd5b50610508600480360381019061050391906147e6565b611299565b6040516105159190613f87565b60405180910390f35b34801561052a57600080fd5b50610545600480360381019061054091906142c1565b611323565b60405161055291906148d8565b60405180910390f35b34801561056757600080fd5b50610582600480360381019061057d91906148f3565b611335565b60405161058f9190613f53565b60405180910390f35b3480156105a457600080fd5b506105bf60048036038101906105ba91906142c1565b6113a0565b6040516105ce93929190614933565b60405180910390f35b3480156105e357600080fd5b506105ec6113d8565b6040516105f9919061436d565b60405180910390f35b34801561060e57600080fd5b506106296004803603810190610624919061496a565b611415565b6040516106369190613f87565b60405180910390f35b34801561064b57600080fd5b50610666600480360381019061066191906149aa565b611446565b6040516106739190613f87565b60405180910390f35b34801561068857600080fd5b506106a3600480360381019061069e91906142c1565b6114b0565b6040516106b09190613f87565b60405180910390f35b3480156106c557600080fd5b506106ce6115fc565b005b3480156106dc57600080fd5b506106f760048036038101906106f29190614a4e565b611610565b6040516107049190613f87565b60405180910390f35b34801561071957600080fd5b50610734600480360381019061072f9190614b63565b611678565b6040516107419190613f87565b60405180910390f35b34801561075657600080fd5b5061075f611690565b60405161076c9190614c49565b60405180910390f35b34801561078157600080fd5b5061078a6116ba565b6040516107979190613f87565b60405180910390f35b3480156107ac57600080fd5b506107c760048036038101906107c29190614c64565b6116c3565b6040516107d49190613f87565b60405180910390f35b3480156107e957600080fd5b506107f26116d9565b6040516107ff9190613f87565b60405180910390f35b34801561081457600080fd5b5061082f600480360381019061082a9190614d23565b611720565b005b34801561083d57600080fd5b50610858600480360381019061085391906142c1565b611817565b6040516108659190613f87565b60405180910390f35b34801561087a57600080fd5b506108836118e4565b6040516108909190613f87565b60405180910390f35b3480156108a557600080fd5b506108c060048036038101906108bb9190614d50565b6118ee565b6040516108cd919061447f565b60405180910390f35b3480156108e257600080fd5b506108fd60048036038101906108f891906142c1565b611903565b60405161090a9190613f87565b60405180910390f35b61092d60048036038101906109289190614e75565b611971565b005b34801561093b57600080fd5b5061095660048036038101906109519190614701565b611afa565b6040516109639190613f87565b60405180910390f35b34801561097857600080fd5b50610981611b36565b60405161098e9190614c49565b60405180910390f35b3480156109a357600080fd5b506109ac611b60565b6040516109b9919061436d565b60405180910390f35b3480156109ce57600080fd5b506109d7611b9d565b6040516109e491906147cb565b60405180910390f35b3480156109f957600080fd5b50610a146004803603810190610a0f91906142c1565b611bc1565b005b348015610a2257600080fd5b50610a3d6004803603810190610a389190614ee9565b611bd3565b604051610a4a9190613f87565b60405180910390f35b348015610a5f57600080fd5b50610a7a6004803603810190610a7591906142c1565b611bef565b005b348015610a8857600080fd5b50610aa36004803603810190610a9e9190614f29565b611c01565b604051610ab0919061447f565b60405180910390f35b348015610ac557600080fd5b50610ae06004803603810190610adb9190614fc0565b611c16565b005b348015610aee57600080fd5b50610b096004803603810190610b0491906142c1565b611c99565b604051610b169190613f87565b60405180910390f35b348015610b2b57600080fd5b50610b34611cab565b604051610b41919061504c565b60405180910390f35b6000610b54611ccf565b905090565b6000610b6482611cf9565b9050919050565b6000600b54905090565b600080610bf8610bf07fb3b3f3b703cd84ce352197dcff232b1b5d3cfb2025ce47cf04742d0651f1af888c8c8c8c604051610bb1929190615097565b60405180910390208b80519060200120604051602001610bd59594939291906150bf565b60405160208183030381529060405280519060200120611d73565b868686611d8d565b9050610c4b8a828b8b8b8080601f016020809104026020016040519081016040528093929190818152602001838380828437600081840152601f19601f820116905080830192505050505050508a611db8565b91505098975050505050505050565b610c62610b4a565b73ffffffffffffffffffffffffffffffffffffffff16610c80611f74565b73ffffffffffffffffffffffffffffffffffffffff1614610cd6576040517f08c379a0000000000000000000000000000000000000000000000000000000008152600401610ccd9061515e565b60405180910390fd5b3073ffffffffffffffffffffffffffffffffffffffff16610cf5610b4a565b73ffffffffffffffffffffffffffffffffffffffff1614610d45576000610d1a611f7c565b604051610d28929190615097565b604051809103902090505b80610d3e6002611f89565b03610d3357505b610d4e81612065565b50565b606060008054610d60906151ad565b80601f0160208091040260200160405190810160405280929190818152602001828054610d8c906151ad565b8015610dd95780601f10610dae57610100808354040283529160200191610dd9565b820191906000526020600020905b815481529060010190602001808311610dbc57829003601f168201915b5050505050905090565b600063150b7a0260e01b9050949350505050565b600080610e0686868686611afa565b905060046007811115610e1c57610e1b614861565b5b610e2582611323565b6007811115610e3757610e36614861565b5b14610e77576040517f08c379a0000000000000000000000000000000000000000000000000000000008152600401610e6e90615250565b60405180910390fd5b6000600760009054906101000a900473ffffffffffffffffffffffffffffffffffffffff1673ffffffffffffffffffffffffffffffffffffffff1663f27a0c926040518163ffffffff1660e01b8152600401602060405180830381865afa158015610ee6573d6000803e3d6000fd5b505050506040513d601f19601f82011682018060405250810190610f0a9190615285565b9050600760009054906101000a900473ffffffffffffffffffffffffffffffffffffffff1673ffffffffffffffffffffffffffffffffffffffff1663b1c5f4278888886000896040518663ffffffff1660e01b8152600401610f7095949392919061558d565b602060405180830381865afa158015610f8d573d6000803e3d6000fd5b505050506040513d601f19601f82011682018060405250810190610fb1919061560a565b6008600084815260200190815260200160002081905550600760009054906101000a900473ffffffffffffffffffffffffffffffffffffffff1673ffffffffffffffffffffffffffffffffffffffff16638f2a0bb0888888600089876040518763ffffffff1660e01b815260040161102e96959493929190615637565b600060405180830381600087803b15801561104857600080fd5b505af115801561105c573d6000803e3d6000fd5b505050507f9a2e42fd6722813d69113e7d0079d3d940171428df7373df9c7f7617cfda289282824261108e91906156dc565b60405161109c929190615710565b60405180910390a18192505050949350505050565b6000806110c086868686611afa565b905060006110cd82611323565b9050600460078111156110e3576110e2614861565b5b8160078111156110f6576110f5614861565b5b148061112657506005600781111561111157611110614861565b5b81600781111561112457611123614861565b5b145b611165576040517f08c379a000000000000000000000000000000000000000000000000000000000815260040161115c90615250565b60405180910390fd5b600180600084815260200190815260200160002060020160006101000a81548160ff0219169083151502179055507f712ae1383f79ac853f8d882153778e0260ef8f03b504e2866e0593e04d2b291f826040516111c29190613f87565b60405180910390a16111d78288888888612219565b6111e482888888886122fc565b6111f18288888888612310565b8192505050949350505050565b600061125b600160008481526020019081526020016000206000016040518060200160405290816000820160009054906101000a900467ffffffffffffffff1667ffffffffffffffff1667ffffffffffffffff168152505061236b565b67ffffffffffffffff169050919050565b7fb3b3f3b703cd84ce352197dcff232b1b5d3cfb2025ce47cf04742d0651f1af8881565b60006001905090565b6000806112fa6112f27f150214d74d59b7d1e90c73fc22ef3d991dd0a76b046543d4d80ab92d2a50328f89896040516020016112d793929190615739565b60405160208183030381529060405280519060200120611d73565b868686611d8d565b905061131787828860405180602001604052806000815250612379565b91505095945050505050565b600061132e82612399565b9050919050565b60006004600084815260200190815260200160002060030160008373ffffffffffffffffffffffffffffffffffffffff1673ffffffffffffffffffffffffffffffffffffffff16815260200190815260200160002060009054906101000a900460ff16905092915050565b600080600080600460008681526020019081526020016000209050806000015481600101548260020154935093509350509193909250565b60606040518060400160405280600181526020017f3100000000000000000000000000000000000000000000000000000000000000815250905090565b600080611420611f74565b905061143d84828560405180602001604052806000815250612379565b91505092915050565b600080611451611f74565b90506114a487828888888080601f016020809104026020016040519081016040528093929190818152602001838380828437600081840152601f19601f8201169050808301925050505050505087611db8565b91505095945050505050565b6000806006600001805490509050600081036114d1576005549150506115f7565b600060066000016001836114e59190615770565b815481106114f6576114f56157a4565b5b906000526020600020016040518060400160405290816000820160009054906101000a900463ffffffff1663ffffffff1663ffffffff1681526020016000820160049054906101000a90047bffffffffffffffffffffffffffffffffffffffffffffffffffffffff167bffffffffffffffffffffffffffffffffffffffffffffffffffffffff167bffffffffffffffffffffffffffffffffffffffffffffffffffffffff1681525050905083816000015163ffffffff16116115de5780602001517bffffffffffffffffffffffffffffffffffffffffffffffffffffffff16925050506115f7565b6115f284600661256c90919063ffffffff16565b925050505b919050565b61160461265b565b61160e60006126d9565b565b60008061161b611f74565b905061166d86828787878080601f016020809104026020016040519081016040528093929190818152602001838380828437600081840152601f19601f82011690508083019250505050505050612379565b915050949350505050565b60006116868585858561279f565b9050949350505050565b6000600960009054906101000a900473ffffffffffffffffffffffffffffffffffffffff16905090565b60006064905090565b60006116d0848484612aa6565b90509392505050565b60008060066000018054905014611717576116f46006612b4d565b7bffffffffffffffffffffffffffffffffffffffffffffffffffffffff1661171b565b6005545b905090565b611728610b4a565b73ffffffffffffffffffffffffffffffffffffffff16611746611f74565b73ffffffffffffffffffffffffffffffffffffffff161461179c576040517f08c379a00000000000000000000000000000000000000000000000000000000081526004016117939061515e565b60405180910390fd5b3073ffffffffffffffffffffffffffffffffffffffff166117bb610b4a565b73ffffffffffffffffffffffffffffffffffffffff161461180b5760006117e0611f7c565b6040516117ee929190615097565b604051809103902090505b806118046002611f89565b036117f957505b61181481612bb7565b50565b600080600760009054906101000a900473ffffffffffffffffffffffffffffffffffffffff1673ffffffffffffffffffffffffffffffffffffffff1663d45c443560086000868152602001908152602001600020546040518263ffffffff1660e01b815260040161188891906147cb565b602060405180830381865afa1580156118a5573d6000803e3d6000fd5b505050506040513d601f19601f820116820180604052508101906118c99190615285565b9050600181146118d957806118dc565b60005b915050919050565b6000600a54905090565b600063bc197c8160e01b905095945050505050565b6000611960600160008481526020019081526020016000206001016040518060200160405290816000820160009054906101000a900467ffffffffffffffff1667ffffffffffffffff1667ffffffffffffffff168152505061236b565b67ffffffffffffffff169050919050565b611979610b4a565b73ffffffffffffffffffffffffffffffffffffffff16611997611f74565b73ffffffffffffffffffffffffffffffffffffffff16146119ed576040517f08c379a00000000000000000000000000000000000000000000000000000000081526004016119e49061515e565b60405180910390fd5b3073ffffffffffffffffffffffffffffffffffffffff16611a0c610b4a565b73ffffffffffffffffffffffffffffffffffffffff1614611a5c576000611a31611f7c565b604051611a3f929190615097565b604051809103902090505b80611a556002611f89565b03611a4a57505b6000808573ffffffffffffffffffffffffffffffffffffffff16858585604051611a87929190615097565b60006040518083038185875af1925050503d8060008114611ac4576040519150601f19603f3d011682016040523d82523d6000602084013e611ac9565b606091505b5091509150611af1828260405180606001604052806028815260200161683060289139612c56565b50505050505050565b600084848484604051602001611b1394939291906157d3565b6040516020818303038152906040528051906020012060001c9050949350505050565b6000600760009054906101000a900473ffffffffffffffffffffffffffffffffffffffff16905090565b60606040518060400160405280602081526020017f737570706f72743d627261766f2671756f72756d3d666f722c6162737461696e815250905090565b7f150214d74d59b7d1e90c73fc22ef3d991dd0a76b046543d4d80ab92d2a50328f81565b611bc961265b565b80600b8190555050565b6000611be78383611be2612c78565b612aa6565b905092915050565b611bf761265b565b80600a8190555050565b600063f23a6e6160e01b905095945050505050565b611c1e61265b565b600073ffffffffffffffffffffffffffffffffffffffff168173ffffffffffffffffffffffffffffffffffffffff1603611c8d576040517f08c379a0000000000000000000000000000000000000000000000000000000008152600401611c849061589f565b60405180910390fd5b611c96816126d9565b50565b6000611ca482612c8f565b9050919050565b7f000000000000000000000000000000000000000000000000000000000000000081565b6000600760009054906101000a900473ffffffffffffffffffffffffffffffffffffffff16905090565b60007f6e665ced000000000000000000000000000000000000000000000000000000007bffffffffffffffffffffffffffffffffffffffffffffffffffffffff1916827bffffffffffffffffffffffffffffffffffffffffffffffffffffffff19161480611d6c5750611d6b82612d57565b5b9050919050565b6000611d86611d80612ebc565b83612fd6565b9050919050565b6000806000611d9e87878787613009565b91509150611dab816130eb565b8192505050949350505050565b60008060016000888152602001908152602001600020905060016007811115611de457611de3614861565b5b611ded88611323565b6007811115611dff57611dfe614861565b5b14611e3f576040517f08c379a0000000000000000000000000000000000000000000000000000000008152600401611e3690615931565b60405180910390fd5b6000611e9e87611e8e846000016040518060200160405290816000820160009054906101000a900467ffffffffffffffff1667ffffffffffffffff1667ffffffffffffffff168152505061236b565b67ffffffffffffffff1686612aa6565b9050611ead8888888488613251565b6000845103611f0f578673ffffffffffffffffffffffffffffffffffffffff167fb8e138887d0aa13bab447e82de9d5c1777041ecd21ca36ba824ff1e6c07ddda489888489604051611f029493929190615951565b60405180910390a2611f66565b8673ffffffffffffffffffffffffffffffffffffffff167fe2babfbac5889a709b63bb7f598b324e08bc5a4fb9ec647fb3cbc9ec07eb87128988848989604051611f5d9594939291906159e7565b60405180910390a25b809250505095945050505050565b600033905090565b3660008036915091509091565b6000611f9482613455565b15611fcb576040517f3db2a12a00000000000000000000000000000000000000000000000000000000815260040160405180910390fd5b60008260000160009054906101000a9004600f0b905082600101600082600f0b600f0b815260200190815260200160002054915082600101600082600f0b600f0b815260200190815260200160002060009055600181018360000160006101000a8154816fffffffffffffffffffffffffffffffff0219169083600f0b6fffffffffffffffffffffffffffffffff16021790555050919050565b61206d6116ba565b8111156120af576040517f08c379a00000000000000000000000000000000000000000000000000000000081526004016120a690615ae0565b60405180910390fd5b60006120b96116d9565b9050600081141580156120d457506000600660000180549050145b156121c65760066000016040518060400160405280600063ffffffff1681526020016120ff8461348a565b7bffffffffffffffffffffffffffffffffffffffffffffffffffffffff168152509080600181540180825580915050600190039060005260206000200160009091909190915060008201518160000160006101000a81548163ffffffff021916908363ffffffff16021790555060208201518160000160046101000a8154817bffffffffffffffffffffffffffffffffffffffffffffffffffffffff02191690837bffffffffffffffffffffffffffffffffffffffffffffffffffffffff16021790555050505b6121da8260066134f590919063ffffffff16565b50507f0553476bf02ef2726e8ce5ced78d63e26e602e4a2257b1f559418e24b4633997818360405161220d929190615710565b60405180910390a15050565b3073ffffffffffffffffffffffffffffffffffffffff16612238610b4a565b73ffffffffffffffffffffffffffffffffffffffff16146122f55760005b84518110156122f3573073ffffffffffffffffffffffffffffffffffffffff16858281518110612289576122886157a4565b5b602002602001015173ffffffffffffffffffffffffffffffffffffffff16036122e2576122e18382815181106122c2576122c16157a4565b5b602002602001015180519060200120600261356390919063ffffffff16565b5b806122ec90615b00565b9050612256565b505b5050505050565b61230985858585856135df565b5050505050565b3073ffffffffffffffffffffffffffffffffffffffff1661232f610b4a565b73ffffffffffffffffffffffffffffffffffffffff1614612364576123546002613455565b61236357612362600261367d565b5b5b5050505050565b600081600001519050919050565b600061238f8585858561238a612c78565b611db8565b9050949350505050565b6000806123a5836136fe565b9050600460078111156123bb576123ba614861565b5b8160078111156123ce576123cd614861565b5b146123dc5780915050612567565b6000600860008581526020019081526020016000205490506000801b8103612408578192505050612567565b600760009054906101000a900473ffffffffffffffffffffffffffffffffffffffff1673ffffffffffffffffffffffffffffffffffffffff16632ab0f529826040518263ffffffff1660e01b815260040161246391906147cb565b602060405180830381865afa158015612480573d6000803e3d6000fd5b505050506040513d601f19601f820116820180604052508101906124a49190615b74565b156124b457600792505050612567565b600760009054906101000a900473ffffffffffffffffffffffffffffffffffffffff1673ffffffffffffffffffffffffffffffffffffffff1663584b153e826040518263ffffffff1660e01b815260040161250f91906147cb565b602060405180830381865afa15801561252c573d6000803e3d6000fd5b505050506040513d601f19601f820116820180604052508101906125509190615b74565b1561256057600592505050612567565b6002925050505b919050565b60004382106125b0576040517f08c379a00000000000000000000000000000000000000000000000000000000081526004016125a790615bed565b60405180910390fd5b60006125bb83613812565b905060008460000180549050905060006125db8660000184600085613865565b90506000811461262f576125fe866000016001836125f99190615770565b6138d8565b60000160049054906101000a90047bffffffffffffffffffffffffffffffffffffffffffffffffffffffff16612632565b60005b7bffffffffffffffffffffffffffffffffffffffffffffffffffffffff16935050505092915050565b612663611f74565b73ffffffffffffffffffffffffffffffffffffffff16612681611690565b73ffffffffffffffffffffffffffffffffffffffff16146126d7576040517f08c379a00000000000000000000000000000000000000000000000000000000081526004016126ce90615c59565b60405180910390fd5b565b6000600960009054906101000a900473ffffffffffffffffffffffffffffffffffffffff16905081600960006101000a81548173ffffffffffffffffffffffffffffffffffffffff021916908373ffffffffffffffffffffffffffffffffffffffff1602179055508173ffffffffffffffffffffffffffffffffffffffff168173ffffffffffffffffffffffffffffffffffffffff167f8be0079c531659141344cd1fd0a4f28419497f9722a3daafe3b4186f6b6457e060405160405180910390a35050565b60006127a96118e4565b6127c66127b4611f74565b6001436127c19190615770565b611bd3565b1015612807576040517f08c379a00000000000000000000000000000000000000000000000000000000081526004016127fe90615ceb565b60405180910390fd5b600061281c8686868680519060200120611afa565b90508451865114612862576040517f08c379a000000000000000000000000000000000000000000000000000000000815260040161285990615d7d565b60405180910390fd5b83518651146128a6576040517f08c379a000000000000000000000000000000000000000000000000000000000815260040161289d90615d7d565b60405180910390fd5b60008651116128ea576040517f08c379a00000000000000000000000000000000000000000000000000000000081526004016128e190615de9565b60405180910390fd5b600060016000838152602001908152602001600020905061294a816000016040518060200160405290816000820160009054906101000a900467ffffffffffffffff1667ffffffffffffffff1667ffffffffffffffff16815250506138ed565b612989576040517f08c379a000000000000000000000000000000000000000000000000000000000815260040161298090615e7b565b60405180910390fd5b600061299b612996611290565b613907565b6129a443613907565b6129ae9190615eaf565b905060006129c26129bd610b6b565b613907565b826129cd9190615eaf565b90506129e5828460000161395e90919063ffffffff16565b6129fb818460010161395e90919063ffffffff16565b7f7d84a6263ae0d98d3329bd7b46bb4e8d6f98cd35a7adb45c274c8b7fd5ebd5e084612a25611f74565b8b8b8d5167ffffffffffffffff811115612a4257612a41614082565b5b604051908082528060200260200182016040528015612a7557816020015b6060815260200190600190039081612a605790505b508c88888e604051612a8f99989796959493929190616028565b60405180910390a183945050505050949350505050565b60007f000000000000000000000000000000000000000000000000000000000000000073ffffffffffffffffffffffffffffffffffffffff16633a46b1a885856040518363ffffffff1660e01b8152600401612b039291906160d8565b602060405180830381865afa158015612b20573d6000803e3d6000fd5b505050506040513d601f19601f82011682018060405250810190612b449190615285565b90509392505050565b6000808260000180549050905060008114612bac57612b7b83600001600183612b769190615770565b6138d8565b60000160049054906101000a90047bffffffffffffffffffffffffffffffffffffffffffffffffffffffff16612baf565b60005b915050919050565b7f08f74ea46ef7894f65eabfb5e6e695de773a000b47c529ab559178069b226401600760009054906101000a900473ffffffffffffffffffffffffffffffffffffffff1682604051612c0a929190616101565b60405180910390a180600760006101000a81548173ffffffffffffffffffffffffffffffffffffffff021916908373ffffffffffffffffffffffffffffffffffffffff16021790555050565b60608315612c6657829050612c71565b612c70838361398d565b5b9392505050565b606060405180602001604052806000815250905090565b6000612c996116ba565b612ca2836114b0565b7f000000000000000000000000000000000000000000000000000000000000000073ffffffffffffffffffffffffffffffffffffffff16638e539e8c856040518263ffffffff1660e01b8152600401612cfb9190613f87565b602060405180830381865afa158015612d18573d6000803e3d6000fd5b505050506040513d601f19601f82011682018060405250810190612d3c9190615285565b612d46919061612a565b612d50919061619b565b9050919050565b6000639a802a6d60e01b630342018160e01b635f398a1460e01b7f79dd796f000000000000000000000000000000000000000000000000000000001818187bffffffffffffffffffffffffffffffffffffffffffffffffffffffff1916827bffffffffffffffffffffffffffffffffffffffffffffffffffffffff19161480612e3d57507f79dd796f000000000000000000000000000000000000000000000000000000007bffffffffffffffffffffffffffffffffffffffffffffffffffffffff1916827bffffffffffffffffffffffffffffffffffffffffffffffffffffffff1916145b80612ea557507f4e2312e0000000000000000000000000000000000000000000000000000000007bffffffffffffffffffffffffffffffffffffffffffffffffffffffff1916827bffffffffffffffffffffffffffffffffffffffffffffffffffffffff1916145b80612eb55750612eb4826139dd565b5b9050919050565b60007f000000000000000000000000000000000000000000000000000000000000000073ffffffffffffffffffffffffffffffffffffffff163073ffffffffffffffffffffffffffffffffffffffff16148015612f3857507f000000000000000000000000000000000000000000000000000000000000000046145b15612f65577f00000000000000000000000000000000000000000000000000000000000000009050612fd3565b612fd07f00000000000000000000000000000000000000000000000000000000000000007f00000000000000000000000000000000000000000000000000000000000000007f0000000000000000000000000000000000000000000000000000000000000000613a47565b90505b90565b60008282604051602001612feb929190616244565b60405160208183030381529060405280519060200120905092915050565b6000807f7fffffffffffffffffffffffffffffff5d576e7357a4501ddfe92f46681b20a08360001c11156130445760006003915091506130e2565b600060018787878760405160008152602001604052604051613069949392919061627b565b6020604051602081039080840390855afa15801561308b573d6000803e3d6000fd5b505050602060405103519050600073ffffffffffffffffffffffffffffffffffffffff168173ffffffffffffffffffffffffffffffffffffffff16036130d9576000600192509250506130e2565b80600092509250505b94509492505050565b600060048111156130ff576130fe614861565b5b81600481111561311257613111614861565b5b031561324e576001600481111561312c5761312b614861565b5b81600481111561313f5761313e614861565b5b0361317f576040517f08c379a00000000000000000000000000000000000000000000000000000000081526004016131769061630c565b60405180910390fd5b6002600481111561319357613192614861565b5b8160048111156131a6576131a5614861565b5b036131e6576040517f08c379a00000000000000000000000000000000000000000000000000000000081526004016131dd90616378565b60405180910390fd5b600360048111156131fa576131f9614861565b5b81600481111561320d5761320c614861565b5b0361324d576040517f08c379a00000000000000000000000000000000000000000000000000000000081526004016132449061640a565b60405180910390fd5b5b50565b60006004600087815260200190815260200160002090508060030160008673ffffffffffffffffffffffffffffffffffffffff1673ffffffffffffffffffffffffffffffffffffffff16815260200190815260200160002060009054906101000a900460ff16156132f7576040517f08c379a00000000000000000000000000000000000000000000000000000000081526004016132ee9061649c565b60405180910390fd5b60018160030160008773ffffffffffffffffffffffffffffffffffffffff1673ffffffffffffffffffffffffffffffffffffffff16815260200190815260200160002060006101000a81548160ff0219169083151502179055506000600281111561336557613364614861565b5b60ff168460ff1603613391578281600001600082825461338591906156dc565b9250508190555061344d565b600160028111156133a5576133a4614861565b5b60ff168460ff16036133d157828160010160008282546133c591906156dc565b9250508190555061344c565b6002808111156133e4576133e3614861565b5b60ff168460ff1603613410578281600201600082825461340491906156dc565b9250508190555061344b565b6040517f08c379a00000000000000000000000000000000000000000000000000000000081526004016134429061652e565b60405180910390fd5b5b5b505050505050565b60008160000160009054906101000a9004600f0b600f0b8260000160109054906101000a9004600f0b600f0b13159050919050565b60007bffffffffffffffffffffffffffffffffffffffffffffffffffffffff80168211156134ed576040517f08c379a00000000000000000000000000000000000000000000000000000000081526004016134e4906165c0565b60405180910390fd5b819050919050565b6000806135168460000161350843613812565b6135118661348a565b613a81565b817bffffffffffffffffffffffffffffffffffffffffffffffffffffffff169150807bffffffffffffffffffffffffffffffffffffffffffffffffffffffff169050915091509250929050565b60008260000160109054906101000a9004600f0b90508183600101600083600f0b600f0b815260200190815260200160002081905550600181018360000160106101000a8154816fffffffffffffffffffffffffffffffff0219169083600f0b6fffffffffffffffffffffffffffffffff160217905550505050565b600760009054906101000a900473ffffffffffffffffffffffffffffffffffffffff1673ffffffffffffffffffffffffffffffffffffffff1663e38335e5348686866000876040518763ffffffff1660e01b815260040161364495949392919061558d565b6000604051808303818588803b15801561365d57600080fd5b505af1158015613671573d6000803e3d6000fd5b50505050505050505050565b60008160000160006101000a8154816fffffffffffffffffffffffffffffffff0219169083600f0b6fffffffffffffffffffffffffffffffff16021790555060008160000160106101000a8154816fffffffffffffffffffffffffffffffff0219169083600f0b6fffffffffffffffffffffffffffffffff16021790555050565b6000806001600084815260200190815260200160002090508060020160009054906101000a900460ff161561373757600791505061380d565b8060020160019054906101000a900460ff161561375857600291505061380d565b6000613763846111fe565b9050600081036137a8576040517f08c379a000000000000000000000000000000000000000000000000000000000815260040161379f9061662c565b60405180910390fd5b4381106137ba5760009250505061380d565b60006137c585611903565b90504381106137da576001935050505061380d565b6137e385613e07565b80156137f457506137f385613e4e565b5b15613805576004935050505061380d565b600393505050505b919050565b600063ffffffff801682111561385d576040517f08c379a0000000000000000000000000000000000000000000000000000000008152600401613854906166be565b60405180910390fd5b819050919050565b60005b818310156138cd57600061387c8484613e79565b90508463ffffffff1661388f87836138d8565b60000160009054906101000a900463ffffffff1663ffffffff1611156138b7578092506138c7565b6001816138c491906156dc565b93505b50613868565b819050949350505050565b60008260005281602060002001905092915050565b600080826000015167ffffffffffffffff16149050919050565b600067ffffffffffffffff8016821115613956576040517f08c379a000000000000000000000000000000000000000000000000000000000815260040161394d90616750565b60405180910390fd5b819050919050565b808260000160006101000a81548167ffffffffffffffff021916908367ffffffffffffffff1602179055505050565b6000825111156139a05781518083602001fd5b806040517f08c379a00000000000000000000000000000000000000000000000000000000081526004016139d4919061436d565b60405180910390fd5b60007f01ffc9a7000000000000000000000000000000000000000000000000000000007bffffffffffffffffffffffffffffffffffffffffffffffffffffffff1916827bffffffffffffffffffffffffffffffffffffffffffffffffffffffff1916149050919050565b60008383834630604051602001613a62959493929190616770565b6040516020818303038152906040528051906020012090509392505050565b6000806000858054905090506000811115613d17576000613aae87600184613aa99190615770565b6138d8565b6040518060400160405290816000820160009054906101000a900463ffffffff1663ffffffff1663ffffffff1681526020016000820160049054906101000a90047bffffffffffffffffffffffffffffffffffffffffffffffffffffffff167bffffffffffffffffffffffffffffffffffffffffffffffffffffffff167bffffffffffffffffffffffffffffffffffffffffffffffffffffffff168152505090508563ffffffff16816000015163ffffffff161115613ba2576040517f08c379a0000000000000000000000000000000000000000000000000000000008152600401613b999061680f565b60405180910390fd5b8563ffffffff16816000015163ffffffff1603613c265784613bd088600185613bcb9190615770565b6138d8565b60000160046101000a8154817bffffffffffffffffffffffffffffffffffffffffffffffffffffffff02191690837bffffffffffffffffffffffffffffffffffffffffffffffffffffffff160217905550613d06565b8660405180604001604052808863ffffffff168152602001877bffffffffffffffffffffffffffffffffffffffffffffffffffffffff168152509080600181540180825580915050600190039060005260206000200160009091909190915060008201518160000160006101000a81548163ffffffff021916908363ffffffff16021790555060208201518160000160046101000a8154817bffffffffffffffffffffffffffffffffffffffffffffffffffffffff02191690837bffffffffffffffffffffffffffffffffffffffffffffffffffffffff16021790555050505b806020015185935093505050613dff565b8560405180604001604052808763ffffffff168152602001867bffffffffffffffffffffffffffffffffffffffffffffffffffffffff168152509080600181540180825580915050600190039060005260206000200160009091909190915060008201518160000160006101000a81548163ffffffff021916908363ffffffff16021790555060208201518160000160046101000a8154817bffffffffffffffffffffffffffffffffffffffffffffffffffffffff02191690837bffffffffffffffffffffffffffffffffffffffffffffffffffffffff160217905550505060008492509250505b935093915050565b60008060046000848152602001908152602001600020905080600201548160010154613e3391906156dc565b613e44613e3f856111fe565b611c99565b1115915050919050565b6000806004600084815260200190815260200160002090508060000154816001015411915050919050565b60006002828418613e8a919061619b565b828416613e9791906156dc565b905092915050565b6000604051905090565b600080fd5b600080fd5b60007fffffffff0000000000000000000000000000000000000000000000000000000082169050919050565b613ee881613eb3565b8114613ef357600080fd5b50565b600081359050613f0581613edf565b92915050565b600060208284031215613f2157613f20613ea9565b5b6000613f2f84828501613ef6565b91505092915050565b60008115159050919050565b613f4d81613f38565b82525050565b6000602082019050613f686000830184613f44565b92915050565b6000819050919050565b613f8181613f6e565b82525050565b6000602082019050613f9c6000830184613f78565b92915050565b613fab81613f6e565b8114613fb657600080fd5b50565b600081359050613fc881613fa2565b92915050565b600060ff82169050919050565b613fe481613fce565b8114613fef57600080fd5b50565b60008135905061400181613fdb565b92915050565b600080fd5b600080fd5b600080fd5b60008083601f84011261402c5761402b614007565b5b8235905067ffffffffffffffff8111156140495761404861400c565b5b60208301915083600182028301111561406557614064614011565b5b9250929050565b600080fd5b6000601f19601f8301169050919050565b7f4e487b7100000000000000000000000000000000000000000000000000000000600052604160045260246000fd5b6140ba82614071565b810181811067ffffffffffffffff821117156140d9576140d8614082565b5b80604052505050565b60006140ec613e9f565b90506140f882826140b1565b919050565b600067ffffffffffffffff82111561411857614117614082565b5b61412182614071565b9050602081019050919050565b82818337600083830152505050565b600061415061414b846140fd565b6140e2565b90508281526020810184848401111561416c5761416b61406c565b5b61417784828561412e565b509392505050565b600082601f83011261419457614193614007565b5b81356141a484826020860161413d565b91505092915050565b6000819050919050565b6141c0816141ad565b81146141cb57600080fd5b50565b6000813590506141dd816141b7565b92915050565b60008060008060008060008060e0898b03121561420357614202613ea9565b5b60006142118b828c01613fb9565b98505060206142228b828c01613ff2565b975050604089013567ffffffffffffffff81111561424357614242613eae565b5b61424f8b828c01614016565b9650965050606089013567ffffffffffffffff81111561427257614271613eae565b5b61427e8b828c0161417f565b945050608061428f8b828c01613ff2565b93505060a06142a08b828c016141ce565b92505060c06142b18b828c016141ce565b9150509295985092959890939650565b6000602082840312156142d7576142d6613ea9565b5b60006142e584828501613fb9565b91505092915050565b600081519050919050565b600082825260208201905092915050565b60005b8381101561432857808201518184015260208101905061430d565b60008484015250505050565b600061433f826142ee565b61434981856142f9565b935061435981856020860161430a565b61436281614071565b840191505092915050565b600060208201905081810360008301526143878184614334565b905092915050565b600073ffffffffffffffffffffffffffffffffffffffff82169050919050565b60006143ba8261438f565b9050919050565b6143ca816143af565b81146143d557600080fd5b50565b6000813590506143e7816143c1565b92915050565b6000806000806080858703121561440757614406613ea9565b5b6000614415878288016143d8565b9450506020614426878288016143d8565b935050604061443787828801613fb9565b925050606085013567ffffffffffffffff81111561445857614457613eae565b5b6144648782880161417f565b91505092959194509250565b61447981613eb3565b82525050565b60006020820190506144946000830184614470565b92915050565b600067ffffffffffffffff8211156144b5576144b4614082565b5b602082029050602081019050919050565b60006144d96144d48461449a565b6140e2565b905080838252602082019050602084028301858111156144fc576144fb614011565b5b835b81811015614525578061451188826143d8565b8452602084019350506020810190506144fe565b5050509392505050565b600082601f83011261454457614543614007565b5b81356145548482602086016144c6565b91505092915050565b600067ffffffffffffffff82111561457857614577614082565b5b602082029050602081019050919050565b600061459c6145978461455d565b6140e2565b905080838252602082019050602084028301858111156145bf576145be614011565b5b835b818110156145e857806145d48882613fb9565b8452602084019350506020810190506145c1565b5050509392505050565b600082601f83011261460757614606614007565b5b8135614617848260208601614589565b91505092915050565b600067ffffffffffffffff82111561463b5761463a614082565b5b602082029050602081019050919050565b600061465f61465a84614620565b6140e2565b9050808382526020820190506020840283018581111561468257614681614011565b5b835b818110156146c957803567ffffffffffffffff8111156146a7576146a6614007565b5b8086016146b4898261417f565b85526020850194505050602081019050614684565b5050509392505050565b600082601f8301126146e8576146e7614007565b5b81356146f884826020860161464c565b91505092915050565b6000806000806080858703121561471b5761471a613ea9565b5b600085013567ffffffffffffffff81111561473957614738613eae565b5b6147458782880161452f565b945050602085013567ffffffffffffffff81111561476657614765613eae565b5b614772878288016145f2565b935050604085013567ffffffffffffffff81111561479357614792613eae565b5b61479f878288016146d3565b92505060606147b0878288016141ce565b91505092959194509250565b6147c5816141ad565b82525050565b60006020820190506147e060008301846147bc565b92915050565b600080600080600060a0868803121561480257614801613ea9565b5b600061481088828901613fb9565b955050602061482188828901613ff2565b945050604061483288828901613ff2565b9350506060614843888289016141ce565b9250506080614854888289016141ce565b9150509295509295909350565b7f4e487b7100000000000000000000000000000000000000000000000000000000600052602160045260246000fd5b600881106148a1576148a0614861565b5b50565b60008190506148b282614890565b919050565b60006148c2826148a4565b9050919050565b6148d2816148b7565b82525050565b60006020820190506148ed60008301846148c9565b92915050565b6000806040838503121561490a57614909613ea9565b5b600061491885828601613fb9565b9250506020614929858286016143d8565b9150509250929050565b60006060820190506149486000830186613f78565b6149556020830185613f78565b6149626040830184613f78565b949350505050565b6000806040838503121561498157614980613ea9565b5b600061498f85828601613fb9565b92505060206149a085828601613ff2565b9150509250929050565b6000806000806000608086880312156149c6576149c5613ea9565b5b60006149d488828901613fb9565b95505060206149e588828901613ff2565b945050604086013567ffffffffffffffff811115614a0657614a05613eae565b5b614a1288828901614016565b9350935050606086013567ffffffffffffffff811115614a3557614a34613eae565b5b614a418882890161417f565b9150509295509295909350565b60008060008060608587031215614a6857614a67613ea9565b5b6000614a7687828801613fb9565b9450506020614a8787828801613ff2565b935050604085013567ffffffffffffffff811115614aa857614aa7613eae565b5b614ab487828801614016565b925092505092959194509250565b600067ffffffffffffffff821115614add57614adc614082565b5b614ae682614071565b9050602081019050919050565b6000614b06614b0184614ac2565b6140e2565b905082815260208101848484011115614b2257614b2161406c565b5b614b2d84828561412e565b509392505050565b600082601f830112614b4a57614b49614007565b5b8135614b5a848260208601614af3565b91505092915050565b60008060008060808587031215614b7d57614b7c613ea9565b5b600085013567ffffffffffffffff811115614b9b57614b9a613eae565b5b614ba78782880161452f565b945050602085013567ffffffffffffffff811115614bc857614bc7613eae565b5b614bd4878288016145f2565b935050604085013567ffffffffffffffff811115614bf557614bf4613eae565b5b614c01878288016146d3565b925050606085013567ffffffffffffffff811115614c2257614c21613eae565b5b614c2e87828801614b35565b91505092959194509250565b614c43816143af565b82525050565b6000602082019050614c5e6000830184614c3a565b92915050565b600080600060608486031215614c7d57614c7c613ea9565b5b6000614c8b868287016143d8565b9350506020614c9c86828701613fb9565b925050604084013567ffffffffffffffff811115614cbd57614cbc613eae565b5b614cc98682870161417f565b9150509250925092565b6000614cde8261438f565b9050919050565b6000614cf082614cd3565b9050919050565b614d0081614ce5565b8114614d0b57600080fd5b50565b600081359050614d1d81614cf7565b92915050565b600060208284031215614d3957614d38613ea9565b5b6000614d4784828501614d0e565b91505092915050565b600080600080600060a08688031215614d6c57614d6b613ea9565b5b6000614d7a888289016143d8565b9550506020614d8b888289016143d8565b945050604086013567ffffffffffffffff811115614dac57614dab613eae565b5b614db8888289016145f2565b935050606086013567ffffffffffffffff811115614dd957614dd8613eae565b5b614de5888289016145f2565b925050608086013567ffffffffffffffff811115614e0657614e05613eae565b5b614e128882890161417f565b9150509295509295909350565b60008083601f840112614e3557614e34614007565b5b8235905067ffffffffffffffff811115614e5257614e5161400c565b5b602083019150836001820283011115614e6e57614e6d614011565b5b9250929050565b60008060008060608587031215614e8f57614e8e613ea9565b5b6000614e9d878288016143d8565b9450506020614eae87828801613fb9565b935050604085013567ffffffffffffffff811115614ecf57614ece613eae565b5b614edb87828801614e1f565b925092505092959194509250565b60008060408385031215614f0057614eff613ea9565b5b6000614f0e858286016143d8565b9250506020614f1f85828601613fb9565b9150509250929050565b600080600080600060a08688031215614f4557614f44613ea9565b5b6000614f53888289016143d8565b9550506020614f64888289016143d8565b9450506040614f7588828901613fb9565b9350506060614f8688828901613fb9565b925050608086013567ffffffffffffffff811115614fa757614fa6613eae565b5b614fb38882890161417f565b9150509295509295909350565b600060208284031215614fd657614fd5613ea9565b5b6000614fe4848285016143d8565b91505092915050565b6000819050919050565b600061501261500d6150088461438f565b614fed565b61438f565b9050919050565b600061502482614ff7565b9050919050565b600061503682615019565b9050919050565b6150468161502b565b82525050565b6000602082019050615061600083018461503d565b92915050565b600081905092915050565b600061507e8385615067565b935061508b83858461412e565b82840190509392505050565b60006150a4828486615072565b91508190509392505050565b6150b981613fce565b82525050565b600060a0820190506150d460008301886147bc565b6150e16020830187613f78565b6150ee60408301866150b0565b6150fb60608301856147bc565b61510860808301846147bc565b9695505050505050565b7f476f7665726e6f723a206f6e6c79476f7665726e616e63650000000000000000600082015250565b60006151486018836142f9565b915061515382615112565b602082019050919050565b600060208201905081810360008301526151778161513b565b9050919050565b7f4e487b7100000000000000000000000000000000000000000000000000000000600052602260045260246000fd5b600060028204905060018216806151c557607f821691505b6020821081036151d8576151d761517e565b5b50919050565b7f476f7665726e6f723a2070726f706f73616c206e6f742073756363657373667560008201527f6c00000000000000000000000000000000000000000000000000000000000000602082015250565b600061523a6021836142f9565b9150615245826151de565b604082019050919050565b600060208201905081810360008301526152698161522d565b9050919050565b60008151905061527f81613fa2565b92915050565b60006020828403121561529b5761529a613ea9565b5b60006152a984828501615270565b91505092915050565b600081519050919050565b600082825260208201905092915050565b6000819050602082019050919050565b6152e7816143af565b82525050565b60006152f983836152de565b60208301905092915050565b6000602082019050919050565b600061531d826152b2565b61532781856152bd565b9350615332836152ce565b8060005b8381101561536357815161534a88826152ed565b975061535583615305565b925050600181019050615336565b5085935050505092915050565b600081519050919050565b600082825260208201905092915050565b6000819050602082019050919050565b6153a581613f6e565b82525050565b60006153b7838361539c565b60208301905092915050565b6000602082019050919050565b60006153db82615370565b6153e5818561537b565b93506153f08361538c565b8060005b8381101561542157815161540888826153ab565b9750615413836153c3565b9250506001810190506153f4565b5085935050505092915050565b600081519050919050565b600082825260208201905092915050565b6000819050602082019050919050565b600081519050919050565b600082825260208201905092915050565b60006154818261545a565b61548b8185615465565b935061549b81856020860161430a565b6154a481614071565b840191505092915050565b60006154bb8383615476565b905092915050565b6000602082019050919050565b60006154db8261542e565b6154e58185615439565b9350836020820285016154f78561544a565b8060005b85811015615533578484038952815161551485826154af565b945061551f836154c3565b925060208a019950506001810190506154fb565b50829750879550505050505092915050565b6000819050919050565b60008160001b9050919050565b600061557761557261556d84615545565b61554f565b6141ad565b9050919050565b6155878161555c565b82525050565b600060a08201905081810360008301526155a78188615312565b905081810360208301526155bb81876153d0565b905081810360408301526155cf81866154d0565b90506155de606083018561557e565b6155eb60808301846147bc565b9695505050505050565b600081519050615604816141b7565b92915050565b6000602082840312156156205761561f613ea9565b5b600061562e848285016155f5565b91505092915050565b600060c08201905081810360008301526156518189615312565b9050818103602083015261566581886153d0565b9050818103604083015261567981876154d0565b9050615688606083018661557e565b61569560808301856147bc565b6156a260a0830184613f78565b979650505050505050565b7f4e487b7100000000000000000000000000000000000000000000000000000000600052601160045260246000fd5b60006156e782613f6e565b91506156f283613f6e565b925082820190508082111561570a576157096156ad565b5b92915050565b60006040820190506157256000830185613f78565b6157326020830184613f78565b9392505050565b600060608201905061574e60008301866147bc565b61575b6020830185613f78565b61576860408301846150b0565b949350505050565b600061577b82613f6e565b915061578683613f6e565b925082820390508181111561579e5761579d6156ad565b5b92915050565b7f4e487b7100000000000000000000000000000000000000000000000000000000600052603260045260246000fd5b600060808201905081810360008301526157ed8187615312565b9050818103602083015261580181866153d0565b9050818103604083015261581581856154d0565b905061582460608301846147bc565b95945050505050565b7f4f776e61626c653a206e6577206f776e657220697320746865207a65726f206160008201527f6464726573730000000000000000000000000000000000000000000000000000602082015250565b60006158896026836142f9565b91506158948261582d565b604082019050919050565b600060208201905081810360008301526158b88161587c565b9050919050565b7f476f7665726e6f723a20766f7465206e6f742063757272656e746c792061637460008201527f6976650000000000000000000000000000000000000000000000000000000000602082015250565b600061591b6023836142f9565b9150615926826158bf565b604082019050919050565b6000602082019050818103600083015261594a8161590e565b9050919050565b60006080820190506159666000830187613f78565b61597360208301866150b0565b6159806040830185613f78565b81810360608301526159928184614334565b905095945050505050565b600082825260208201905092915050565b60006159b98261545a565b6159c3818561599d565b93506159d381856020860161430a565b6159dc81614071565b840191505092915050565b600060a0820190506159fc6000830188613f78565b615a0960208301876150b0565b615a166040830186613f78565b8181036060830152615a288185614334565b90508181036080830152615a3c81846159ae565b90509695505050505050565b7f476f7665726e6f72566f74657351756f72756d4672616374696f6e3a2071756f60008201527f72756d4e756d657261746f72206f7665722071756f72756d44656e6f6d696e6160208201527f746f720000000000000000000000000000000000000000000000000000000000604082015250565b6000615aca6043836142f9565b9150615ad582615a48565b606082019050919050565b60006020820190508181036000830152615af981615abd565b9050919050565b6000615b0b82613f6e565b91507fffffffffffffffffffffffffffffffffffffffffffffffffffffffffffffffff8203615b3d57615b3c6156ad565b5b600182019050919050565b615b5181613f38565b8114615b5c57600080fd5b50565b600081519050615b6e81615b48565b92915050565b600060208284031215615b8a57615b89613ea9565b5b6000615b9884828501615b5f565b91505092915050565b7f436865636b706f696e74733a20626c6f636b206e6f7420796574206d696e6564600082015250565b6000615bd76020836142f9565b9150615be282615ba1565b602082019050919050565b60006020820190508181036000830152615c0681615bca565b9050919050565b7f4f776e61626c653a2063616c6c6572206973206e6f7420746865206f776e6572600082015250565b6000615c436020836142f9565b9150615c4e82615c0d565b602082019050919050565b60006020820190508181036000830152615c7281615c36565b9050919050565b7f476f7665726e6f723a2070726f706f73657220766f7465732062656c6f77207060008201527f726f706f73616c207468726573686f6c64000000000000000000000000000000602082015250565b6000615cd56031836142f9565b9150615ce082615c79565b604082019050919050565b60006020820190508181036000830152615d0481615cc8565b9050919050565b7f476f7665726e6f723a20696e76616c69642070726f706f73616c206c656e677460008201527f6800000000000000000000000000000000000000000000000000000000000000602082015250565b6000615d676021836142f9565b9150615d7282615d0b565b604082019050919050565b60006020820190508181036000830152615d9681615d5a565b9050919050565b7f476f7665726e6f723a20656d7074792070726f706f73616c0000000000000000600082015250565b6000615dd36018836142f9565b9150615dde82615d9d565b602082019050919050565b60006020820190508181036000830152615e0281615dc6565b9050919050565b7f476f7665726e6f723a2070726f706f73616c20616c726561647920657869737460008201527f7300000000000000000000000000000000000000000000000000000000000000602082015250565b6000615e656021836142f9565b9150615e7082615e09565b604082019050919050565b60006020820190508181036000830152615e9481615e58565b9050919050565b600067ffffffffffffffff82169050919050565b6000615eba82615e9b565b9150615ec583615e9b565b9250828201905067ffffffffffffffff811115615ee557615ee46156ad565b5b92915050565b600081519050919050565b600082825260208201905092915050565b6000819050602082019050919050565b600082825260208201905092915050565b6000615f33826142ee565b615f3d8185615f17565b9350615f4d81856020860161430a565b615f5681614071565b840191505092915050565b6000615f6d8383615f28565b905092915050565b6000602082019050919050565b6000615f8d82615eeb565b615f978185615ef6565b935083602082028501615fa985615f07565b8060005b85811015615fe55784840389528151615fc68582615f61565b9450615fd183615f75565b925060208a01995050600181019050615fad565b50829750879550505050505092915050565b600061601261600d61600884615e9b565b614fed565b613f6e565b9050919050565b61602281615ff7565b82525050565b60006101208201905061603e600083018c613f78565b61604b602083018b614c3a565b818103604083015261605d818a615312565b9050818103606083015261607181896153d0565b905081810360808301526160858188615f82565b905081810360a083015261609981876154d0565b90506160a860c0830186616019565b6160b560e0830185616019565b8181036101008301526160c88184614334565b90509a9950505050505050505050565b60006040820190506160ed6000830185614c3a565b6160fa6020830184613f78565b9392505050565b60006040820190506161166000830185614c3a565b6161236020830184614c3a565b9392505050565b600061613582613f6e565b915061614083613f6e565b925082820261614e81613f6e565b91508282048414831517616165576161646156ad565b5b5092915050565b7f4e487b7100000000000000000000000000000000000000000000000000000000600052601260045260246000fd5b60006161a682613f6e565b91506161b183613f6e565b9250826161c1576161c061616c565b5b828204905092915050565b600081905092915050565b7f1901000000000000000000000000000000000000000000000000000000000000600082015250565b600061620d6002836161cc565b9150616218826161d7565b600282019050919050565b6000819050919050565b61623e616239826141ad565b616223565b82525050565b600061624f82616200565b915061625b828561622d565b60208201915061626b828461622d565b6020820191508190509392505050565b600060808201905061629060008301876147bc565b61629d60208301866150b0565b6162aa60408301856147bc565b6162b760608301846147bc565b95945050505050565b7f45434453413a20696e76616c6964207369676e61747572650000000000000000600082015250565b60006162f66018836142f9565b9150616301826162c0565b602082019050919050565b60006020820190508181036000830152616325816162e9565b9050919050565b7f45434453413a20696e76616c6964207369676e6174757265206c656e67746800600082015250565b6000616362601f836142f9565b915061636d8261632c565b602082019050919050565b6000602082019050818103600083015261639181616355565b9050919050565b7f45434453413a20696e76616c6964207369676e6174757265202773272076616c60008201527f7565000000000000000000000000000000000000000000000000000000000000602082015250565b60006163f46022836142f9565b91506163ff82616398565b604082019050919050565b60006020820190508181036000830152616423816163e7565b9050919050565b7f476f7665726e6f72566f74696e6753696d706c653a20766f746520616c72656160008201527f6479206361737400000000000000000000000000000000000000000000000000602082015250565b60006164866027836142f9565b91506164918261642a565b604082019050919050565b600060208201905081810360008301526164b581616479565b9050919050565b7f476f7665726e6f72566f74696e6753696d706c653a20696e76616c696420766160008201527f6c756520666f7220656e756d20566f7465547970650000000000000000000000602082015250565b60006165186035836142f9565b9150616523826164bc565b604082019050919050565b600060208201905081810360008301526165478161650b565b9050919050565b7f53616665436173743a2076616c756520646f65736e27742066697420696e203260008201527f3234206269747300000000000000000000000000000000000000000000000000602082015250565b60006165aa6027836142f9565b91506165b58261654e565b604082019050919050565b600060208201905081810360008301526165d98161659d565b9050919050565b7f476f7665726e6f723a20756e6b6e6f776e2070726f706f73616c206964000000600082015250565b6000616616601d836142f9565b9150616621826165e0565b602082019050919050565b6000602082019050818103600083015261664581616609565b9050919050565b7f53616665436173743a2076616c756520646f65736e27742066697420696e203360008201527f3220626974730000000000000000000000000000000000000000000000000000602082015250565b60006166a86026836142f9565b91506166b38261664c565b604082019050919050565b600060208201905081810360008301526166d78161669b565b9050919050565b7f53616665436173743a2076616c756520646f65736e27742066697420696e203660008201527f3420626974730000000000000000000000000000000000000000000000000000602082015250565b600061673a6026836142f9565b9150616745826166de565b604082019050919050565b600060208201905081810360008301526167698161672d565b9050919050565b600060a08201905061678560008301886147bc565b61679260208301876147bc565b61679f60408301866147bc565b6167ac6060830185613f78565b6167b96080830184614c3a565b9695505050505050565b7f436865636b706f696e743a20696e76616c6964206b6579000000000000000000600082015250565b60006167f96017836142f9565b9150616804826167c3565b602082019050919050565b60006020820190508181036000830152616828816167ec565b905091905056fe476f7665726e6f723a2072656c617920726576657274656420776974686f7574206d657373616765a2646970667358221220c900fcc223cad172c3f1f1f69e6d8f2722eb214b476ff650eab52a46e8891f1164736f6c63430008130033",
  "immutableReferences": {
    "3633": [
      {
        "length": 32,
        "start": 7341
      },
      {
        "length": 32,
        "start": 10922
      },
      {
        "length": 32,
        "start": 11428
      }
    ],
    "8693": [
      {
        "length": 32,
        "start": 12095
      }
    ],
    "8695": [
      {
        "length": 32,
        "start": 12054
      }
    ],
    "8697": [
      {
        "length": 32,
        "start": 11968
      }
    ],
    "8699": [
      {
        "length": 32,
        "start": 12171
      }
    ],
    "8701": [
      {
        "length": 32,
        "start": 12204
      }
    ],
    "8703": [
      {
        "length": 32,
        "start": 12138
      }
    ]
  },
  "source": "// SPDX-License-Identifier: MIT\npragma solidity ^0.8.4;\n\n// import \"../node_modules/@openzeppelin/contracts/access/Ownable.sol\";\n// import \"../node_modules/@openzeppelin/contracts/governance/Governor.sol\";\n// import \"../node_modules/@openzeppelin/contracts/governance/extensions/GovernorCountingSimple.sol\";\n// import \"../node_modules/@openzeppelin/contracts/governance/extensions/GovernorVotes.sol\";\n// import \"../node_modules/@openzeppelin/contracts/governance/extensions/GovernorVotesQuorumFraction.sol\";\n// import \"../node_modules/@openzeppelin/contracts/governance/extensions/GovernorTimelockControl.sol\";\n// import \"../node_modules/@openzeppelin/contracts/governance/utils/Votes.sol\";\n\nimport \"@openzeppelin/contracts/access/Ownable.sol\";\nimport \"@openzeppelin/contracts/governance/Governor.sol\";\nimport \"@openzeppelin/contracts/governance/extensions/GovernorCountingSimple.sol\";\nimport \"@openzeppelin/contracts/governance/extensions/GovernorVotes.sol\";\nimport \"@openzeppelin/contracts/governance/extensions/GovernorVotesQuorumFraction.sol\";\nimport \"@openzeppelin/contracts/governance/extensions/GovernorTimelockControl.sol\";\nimport \"@openzeppelin/contracts/governance/utils/Votes.sol\";\n\ncontract SimpliGovernor is\n    Governor,\n    GovernorCountingSimple,\n    GovernorVotes,\n    GovernorVotesQuorumFraction,\n    GovernorTimelockControl,\n    Ownable\n{\n    constructor(string memory daoName, IVotes _token, TimelockController _timelock)\n        Governor(daoName)\n        GovernorVotes(_token)\n        GovernorVotesQuorumFraction(10)\n        GovernorTimelockControl(_timelock)\n    {}\n\n    uint256 private DEFAULT_proposalThreshold = 1e18;\n    uint256 private DEFAULT_votingPeriod = 4;\n\n    function votingDelay() public pure override returns (uint256) {\n        return 1; // 1 block\n    }\n\n    // function proposalThreshold() public pure override returns (uint256) {\n    //     return 100e18;\n    // }\n\n    // TODO 100 eth is not required for our project\n    // user token balalnce should be equal or greater than proposalThreshold\n    // to propose\n    function proposalThreshold() public view override returns (uint256) {\n        return DEFAULT_proposalThreshold;\n    }\n\n    function setProposalThreshold(uint256 value) public onlyOwner {\n        DEFAULT_proposalThreshold = value;\n    }\n\n    function votingPeriod() public view override returns (uint256) {\n        // return 300; // 5min approx 45818 //1Week\n        return DEFAULT_votingPeriod;\n    }\n\n    function setVotingPeriod(uint256 value) public onlyOwner {\n        DEFAULT_votingPeriod = value;\n    }\n\n    // function updateQuorumNumerator(uint256 newQuorumNumerator) external override(GovernorVotesQuorumFraction) onlyGovernance {\n    //     // _updateQuorumNumerator(newQuorumNumerator);\n    //     super.updateQuorumNumerator(newQuorumNumerator);\n    // }\n    // The following functions are overrides required by Solidity.\n\n    function quorum(uint256 blockNumber)\n        public\n        view\n        override(IGovernor, GovernorVotesQuorumFraction)\n        returns (uint256)\n    {\n        return super.quorum(blockNumber);\n    }\n\n    function state(uint256 proposalId)\n        public\n        view\n        override(Governor, GovernorTimelockControl)\n        returns (ProposalState)\n    {\n        return super.state(proposalId);\n    }\n\n    function propose(\n        address[] memory targets,\n        uint256[] memory values,\n        bytes[] memory calldatas,\n        string memory description\n    ) public override(Governor, IGovernor) returns (uint256) {\n        return super.propose(targets, values, calldatas, description);\n    }\n\n    function _execute(\n        uint256 proposalId,\n        address[] memory targets,\n        uint256[] memory values,\n        bytes[] memory calldatas,\n        bytes32 descriptionHash\n    ) internal override(Governor, GovernorTimelockControl) {\n        super._execute(proposalId, targets, values, calldatas, descriptionHash);\n    }\n\n    function _cancel(\n        address[] memory targets,\n        uint256[] memory values,\n        bytes[] memory calldatas,\n        bytes32 descriptionHash\n    ) internal override(Governor, GovernorTimelockControl) returns (uint256) {\n        return super._cancel(targets, values, calldatas, descriptionHash);\n    }\n\n    function _executor()\n        internal\n        view\n        override(Governor, GovernorTimelockControl)\n        returns (address)\n    {\n        return super._executor();\n    }\n\n    function supportsInterface(bytes4 interfaceId)\n        public\n        view\n        override(Governor, GovernorTimelockControl)\n        returns (bool)\n    {\n        return super.supportsInterface(interfaceId);\n    }\n}\n",
  "sourcePath": "/Users/abhinil/Desktop/simpliDAO/smart-contracts/contracts/SimpliGovernor.sol",
  "compiler": {
    "name": "solc",
    "version": "0.8.19+commit.7dd6d404.Emscripten.clang"
  },
  "schemaVersion": "3.4.13",
  "updatedAt": "2023-03-16T18:49:12.778Z",
  "devdoc": {
    "errors": {
      "Empty()": [
        {
          "details": "An operation (e.g. {front}) couldn't be completed due to the queue being empty."
        }
      ]
    },
    "events": {
      "ProposalCanceled(uint256)": {
        "details": "Emitted when a proposal is canceled."
      },
      "ProposalCreated(uint256,address,address[],uint256[],string[],bytes[],uint256,uint256,string)": {
        "details": "Emitted when a proposal is created."
      },
      "ProposalExecuted(uint256)": {
        "details": "Emitted when a proposal is executed."
      },
      "TimelockChange(address,address)": {
        "details": "Emitted when the timelock controller used for proposal execution is modified."
      },
      "VoteCast(address,uint256,uint8,uint256,string)": {
        "details": "Emitted when a vote is cast without params. Note: `support` values should be seen as buckets. Their interpretation depends on the voting module used."
      },
      "VoteCastWithParams(address,uint256,uint8,uint256,string,bytes)": {
        "details": "Emitted when a vote is cast with params. Note: `support` values should be seen as buckets. Their interpretation depends on the voting module used. `params` are additional encoded parameters. Their intepepretation also depends on the voting module used."
      }
    },
    "kind": "dev",
    "methods": {
      "COUNTING_MODE()": {
        "details": "See {IGovernor-COUNTING_MODE}."
      },
      "castVote(uint256,uint8)": {
        "details": "See {IGovernor-castVote}."
      },
      "castVoteBySig(uint256,uint8,uint8,bytes32,bytes32)": {
        "details": "See {IGovernor-castVoteBySig}."
      },
      "castVoteWithReason(uint256,uint8,string)": {
        "details": "See {IGovernor-castVoteWithReason}."
      },
      "castVoteWithReasonAndParams(uint256,uint8,string,bytes)": {
        "details": "See {IGovernor-castVoteWithReasonAndParams}."
      },
      "castVoteWithReasonAndParamsBySig(uint256,uint8,string,bytes,uint8,bytes32,bytes32)": {
        "details": "See {IGovernor-castVoteWithReasonAndParamsBySig}."
      },
      "execute(address[],uint256[],bytes[],bytes32)": {
        "details": "See {IGovernor-execute}."
      },
      "getVotes(address,uint256)": {
        "details": "See {IGovernor-getVotes}."
      },
      "getVotesWithParams(address,uint256,bytes)": {
        "details": "See {IGovernor-getVotesWithParams}."
      },
      "hasVoted(uint256,address)": {
        "details": "See {IGovernor-hasVoted}."
      },
      "hashProposal(address[],uint256[],bytes[],bytes32)": {
        "details": "See {IGovernor-hashProposal}. The proposal id is produced by hashing the ABI encoded `targets` array, the `values` array, the `calldatas` array and the descriptionHash (bytes32 which itself is the keccak256 hash of the description string). This proposal id can be produced from the proposal data which is part of the {ProposalCreated} event. It can even be computed in advance, before the proposal is submitted. Note that the chainId and the governor address are not part of the proposal id computation. Consequently, the same proposal (with same operation and same description) will have the same id if submitted on multiple governors across multiple networks. This also means that in order to execute the same operation twice (on the same governor) the proposer will have to change the description in order to avoid proposal id conflicts."
      },
      "name()": {
        "details": "See {IGovernor-name}."
      },
      "onERC1155BatchReceived(address,address,uint256[],uint256[],bytes)": {
        "details": "See {IERC1155Receiver-onERC1155BatchReceived}."
      },
      "onERC1155Received(address,address,uint256,uint256,bytes)": {
        "details": "See {IERC1155Receiver-onERC1155Received}."
      },
      "onERC721Received(address,address,uint256,bytes)": {
        "details": "See {IERC721Receiver-onERC721Received}."
      },
      "owner()": {
        "details": "Returns the address of the current owner."
      },
      "proposalDeadline(uint256)": {
        "details": "See {IGovernor-proposalDeadline}."
      },
      "proposalEta(uint256)": {
        "details": "Public accessor to check the eta of a queued proposal"
      },
      "proposalSnapshot(uint256)": {
        "details": "See {IGovernor-proposalSnapshot}."
      },
      "proposalThreshold()": {
        "details": "Part of the Governor Bravo's interface: _\"The number of votes required in order for a voter to become a proposer\"_."
      },
      "proposalVotes(uint256)": {
        "details": "Accessor to the internal vote counts."
      },
      "queue(address[],uint256[],bytes[],bytes32)": {
        "details": "Function to queue a proposal to the timelock."
      },
      "quorumDenominator()": {
        "details": "Returns the quorum denominator. Defaults to 100, but may be overridden."
      },
      "quorumNumerator()": {
        "details": "Returns the current quorum numerator. See {quorumDenominator}."
      },
      "quorumNumerator(uint256)": {
        "details": "Returns the quorum numerator at a specific block number. See {quorumDenominator}."
      },
      "relay(address,uint256,bytes)": {
        "details": "Relays a transaction or function call to an arbitrary target. In cases where the governance executor is some contract other than the governor itself, like when using a timelock, this function can be invoked in a governance proposal to recover tokens or Ether that was sent to the governor contract by mistake. Note that if the executor is simply the governor itself, use of `relay` is redundant."
      },
      "renounceOwnership()": {
        "details": "Leaves the contract without owner. It will not be possible to call `onlyOwner` functions anymore. Can only be called by the current owner. NOTE: Renouncing ownership will leave the contract without an owner, thereby removing any functionality that is only available to the owner."
      },
      "timelock()": {
        "details": "Public accessor to check the address of the timelock"
      },
      "transferOwnership(address)": {
        "details": "Transfers ownership of the contract to a new account (`newOwner`). Can only be called by the current owner."
      },
      "updateQuorumNumerator(uint256)": {
        "details": "Changes the quorum numerator. Emits a {QuorumNumeratorUpdated} event. Requirements: - Must be called through a governance proposal. - New numerator must be smaller or equal to the denominator."
      },
      "updateTimelock(address)": {
        "details": "Public endpoint to update the underlying timelock instance. Restricted to the timelock itself, so updates must be proposed, scheduled, and executed through governance proposals. CAUTION: It is not recommended to change the timelock while there are other queued governance proposals."
      },
      "version()": {
        "details": "See {IGovernor-version}."
      },
      "votingDelay()": {
        "details": "Delay, in number of block, between the proposal is created and the vote starts. This can be increassed to leave time for users to buy voting power, or delegate it, before the voting of a proposal starts."
      },
      "votingPeriod()": {
        "details": "Delay, in number of blocks, between the vote start and vote ends. NOTE: The {votingDelay} can delay the start of the vote. This must be considered when setting the voting duration compared to the voting delay."
      }
    },
    "version": 1
  },
  "userdoc": {
    "kind": "user",
    "methods": {
      "votingDelay()": {
        "notice": "module:user-config"
      },
      "votingPeriod()": {
        "notice": "module:user-config"
      }
    },
    "version": 1
  }
}