{
  "contractName": "SimpliFactory2",
  "abi": [
    {
      "anonymous": false,
      "inputs": [
        {
          "indexed": true,
          "internalType": "address",
          "name": "governorAddress",
          "type": "address"
        }
      ],
      "name": "GovernorCreated",
      "type": "event"
    },
    {
      "inputs": [
        {
          "internalType": "contract ERC20Token",
          "name": "tokenAddr",
          "type": "address"
        },
        {
          "internalType": "contract TimelockController",
          "name": "timelockAddr",
          "type": "address"
        }
      ],
      "name": "createGovernor",
      "outputs": [
        {
          "internalType": "address",
          "name": "",
          "type": "address"
        }
      ],
      "stateMutability": "nonpayable",
      "type": "function"
    }
  ],
  "bytecode": "0x608060405234801561001057600080fd5b50618083806100206000396000f3fe60806040523480156200001157600080fd5b50600436106200002e5760003560e01c806384c1eac61462000033575b600080fd5b6200005160048036038101906200004b9190620001db565b62000069565b60405162000060919062000233565b60405180910390f35b60008083836040516200007c90620000f6565b62000089929190620002f4565b604051809103906000f080158015620000a6573d6000803e3d6000fd5b5090508073ffffffffffffffffffffffffffffffffffffffff167f454d57d93f6d8347ecbaa0b704b8f0e0d8ffe975de0d6b5ee8b10828a43d3fe860405160405180910390a28091505092915050565b617d2c806200032283390190565b600080fd5b600073ffffffffffffffffffffffffffffffffffffffff82169050919050565b6000620001368262000109565b9050919050565b60006200014a8262000129565b9050919050565b6200015c816200013d565b81146200016857600080fd5b50565b6000813590506200017c8162000151565b92915050565b60006200018f8262000109565b9050919050565b6000620001a38262000182565b9050919050565b620001b58162000196565b8114620001c157600080fd5b50565b600081359050620001d581620001aa565b92915050565b60008060408385031215620001f557620001f462000104565b5b600062000205858286016200016b565b92505060206200021885828601620001c4565b9150509250929050565b6200022d8162000129565b82525050565b60006020820190506200024a600083018462000222565b92915050565b6000819050919050565b60006200027b620002756200026f8462000109565b62000250565b62000109565b9050919050565b60006200028f826200025a565b9050919050565b6000620002a38262000282565b9050919050565b620002b58162000296565b82525050565b6000620002c8826200025a565b9050919050565b6000620002dc82620002bb565b9050919050565b620002ee81620002cf565b82525050565b60006040820190506200030b6000830185620002aa565b6200031a6020830184620002e3565b939250505056fe610160604052670de0b6b3a7640000600a556004600b553480156200002357600080fd5b5060405162007d2c38038062007d2c833981810160405281019062000049919062000c3f565b80600a836040518060400160405280600a81526020017f4d79476f7665726e6f72000000000000000000000000000000000000000000008152508062000094620001db60201b60201c565b60008280519060200120905060008280519060200120905060007f8b73c3c69bb8fe3d512ecc4cf759cc79239f7b179b0ffacaa9a75d522b39400f90508260e081815250508161010081815250504660a08181525050620000fd8184846200021860201b60201c565b608081815250503073ffffffffffffffffffffffffffffffffffffffff1660c08173ffffffffffffffffffffffffffffffffffffffff16815250508061012081815250505050505050806000908162000157919062000f00565b50508073ffffffffffffffffffffffffffffffffffffffff166101408173ffffffffffffffffffffffffffffffffffffffff168152505050620001a0816200025460201b60201c565b50620001b2816200042960201b60201c565b50620001d3620001c7620004ca60201b60201c565b620004d260201b60201c565b5050620013b6565b60606040518060400160405280600181526020017f3100000000000000000000000000000000000000000000000000000000000000815250905090565b600083838346306040516020016200023595949392919062001024565b6040516020818303038152906040528051906020012090509392505050565b620002646200059860201b60201c565b811115620002a9576040517f08c379a0000000000000000000000000000000000000000000000000000000008152600401620002a0906200112e565b60405180910390fd5b6000620002bb620005a160201b60201c565b905060008114158015620002d757506000600660000180549050145b15620003d25760066000016040518060400160405280600063ffffffff1681526020016200030b84620005f260201b60201c565b7bffffffffffffffffffffffffffffffffffffffffffffffffffffffff168152509080600181540180825580915050600190039060005260206000200160009091909190915060008201518160000160006101000a81548163ffffffff021916908363ffffffff16021790555060208201518160000160046101000a8154817bffffffffffffffffffffffffffffffffffffffffffffffffffffffff02191690837bffffffffffffffffffffffffffffffffffffffffffffffffffffffff16021790555050505b620003e88260066200066060201b90919060201c565b50507f0553476bf02ef2726e8ce5ced78d63e26e602e4a2257b1f559418e24b463399781836040516200041d92919062001150565b60405180910390a15050565b7f08f74ea46ef7894f65eabfb5e6e695de773a000b47c529ab559178069b226401600760009054906101000a900473ffffffffffffffffffffffffffffffffffffffff16826040516200047e9291906200117d565b60405180910390a180600760006101000a81548173ffffffffffffffffffffffffffffffffffffffff021916908373ffffffffffffffffffffffffffffffffffffffff16021790555050565b600033905090565b6000600960009054906101000a900473ffffffffffffffffffffffffffffffffffffffff16905081600960006101000a81548173ffffffffffffffffffffffffffffffffffffffff021916908373ffffffffffffffffffffffffffffffffffffffff1602179055508173ffffffffffffffffffffffffffffffffffffffff168173ffffffffffffffffffffffffffffffffffffffff167f8be0079c531659141344cd1fd0a4f28419497f9722a3daafe3b4186f6b6457e060405160405180910390a35050565b60006064905090565b60008060066000018054905014620005e957620005c56006620006e660201b60201c565b7bffffffffffffffffffffffffffffffffffffffffffffffffffffffff16620005ed565b6005545b905090565b60007bffffffffffffffffffffffffffffffffffffffffffffffffffffffff801682111562000658576040517f08c379a00000000000000000000000000000000000000000000000000000000081526004016200064f9062001220565b60405180910390fd5b819050919050565b60008062000699846000016200067c436200075c60201b60201c565b6200068d86620005f260201b60201c565b620007b260201b60201c565b817bffffffffffffffffffffffffffffffffffffffffffffffffffffffff169150807bffffffffffffffffffffffffffffffffffffffffffffffffffffffff169050915091509250929050565b600080826000018054905090506000811462000751576200071f8360000160018362000713919062001271565b62000b5360201b60201c565b60000160049054906101000a90047bffffffffffffffffffffffffffffffffffffffffffffffffffffffff1662000754565b60005b915050919050565b600063ffffffff8016821115620007aa576040517f08c379a0000000000000000000000000000000000000000000000000000000008152600401620007a19062001322565b60405180910390fd5b819050919050565b600080600085805490509050600081111562000a63576000620007ea87600184620007de919062001271565b62000b5360201b60201c565b6040518060400160405290816000820160009054906101000a900463ffffffff1663ffffffff1663ffffffff1681526020016000820160049054906101000a90047bffffffffffffffffffffffffffffffffffffffffffffffffffffffff167bffffffffffffffffffffffffffffffffffffffffffffffffffffffff167bffffffffffffffffffffffffffffffffffffffffffffffffffffffff168152505090508563ffffffff16816000015163ffffffff161115620008e1576040517f08c379a0000000000000000000000000000000000000000000000000000000008152600401620008d89062001394565b60405180910390fd5b8563ffffffff16816000015163ffffffff16036200097157846200091a886001856200090e919062001271565b62000b5360201b60201c565b60000160046101000a8154817bffffffffffffffffffffffffffffffffffffffffffffffffffffffff02191690837bffffffffffffffffffffffffffffffffffffffffffffffffffffffff16021790555062000a51565b8660405180604001604052808863ffffffff168152602001877bffffffffffffffffffffffffffffffffffffffffffffffffffffffff168152509080600181540180825580915050600190039060005260206000200160009091909190915060008201518160000160006101000a81548163ffffffff021916908363ffffffff16021790555060208201518160000160046101000a8154817bffffffffffffffffffffffffffffffffffffffffffffffffffffffff02191690837bffffffffffffffffffffffffffffffffffffffffffffffffffffffff16021790555050505b80602001518593509350505062000b4b565b8560405180604001604052808763ffffffff168152602001867bffffffffffffffffffffffffffffffffffffffffffffffffffffffff168152509080600181540180825580915050600190039060005260206000200160009091909190915060008201518160000160006101000a81548163ffffffff021916908363ffffffff16021790555060208201518160000160046101000a8154817bffffffffffffffffffffffffffffffffffffffffffffffffffffffff02191690837bffffffffffffffffffffffffffffffffffffffffffffffffffffffff160217905550505060008492509250505b935093915050565b60008260005281602060002001905092915050565b600080fd5b600073ffffffffffffffffffffffffffffffffffffffff82169050919050565b600062000b9a8262000b6d565b9050919050565b600062000bae8262000b8d565b9050919050565b62000bc08162000ba1565b811462000bcc57600080fd5b50565b60008151905062000be08162000bb5565b92915050565b600062000bf38262000b6d565b9050919050565b600062000c078262000be6565b9050919050565b62000c198162000bfa565b811462000c2557600080fd5b50565b60008151905062000c398162000c0e565b92915050565b6000806040838503121562000c595762000c5862000b68565b5b600062000c698582860162000bcf565b925050602062000c7c8582860162000c28565b9150509250929050565b600081519050919050565b7f4e487b7100000000000000000000000000000000000000000000000000000000600052604160045260246000fd5b7f4e487b7100000000000000000000000000000000000000000000000000000000600052602260045260246000fd5b6000600282049050600182168062000d0857607f821691505b60208210810362000d1e5762000d1d62000cc0565b5b50919050565b60008190508160005260206000209050919050565b60006020601f8301049050919050565b600082821b905092915050565b60006008830262000d887fffffffffffffffffffffffffffffffffffffffffffffffffffffffffffffffff8262000d49565b62000d94868362000d49565b95508019841693508086168417925050509392505050565b6000819050919050565b6000819050919050565b600062000de162000ddb62000dd58462000dac565b62000db6565b62000dac565b9050919050565b6000819050919050565b62000dfd8362000dc0565b62000e1562000e0c8262000de8565b84845462000d56565b825550505050565b600090565b62000e2c62000e1d565b62000e3981848462000df2565b505050565b5b8181101562000e615762000e5560008262000e22565b60018101905062000e3f565b5050565b601f82111562000eb05762000e7a8162000d24565b62000e858462000d39565b8101602085101562000e95578190505b62000ead62000ea48562000d39565b83018262000e3e565b50505b505050565b600082821c905092915050565b600062000ed56000198460080262000eb5565b1980831691505092915050565b600062000ef0838362000ec2565b9150826002028217905092915050565b62000f0b8262000c86565b67ffffffffffffffff81111562000f275762000f2662000c91565b5b62000f33825462000cef565b62000f4082828562000e65565b600060209050601f83116001811462000f78576000841562000f63578287015190505b62000f6f858262000ee2565b86555062000fdf565b601f19841662000f888662000d24565b60005b8281101562000fb25784890151825560018201915060208501945060208101905062000f8b565b8683101562000fd2578489015162000fce601f89168262000ec2565b8355505b6001600288020188555050505b505050505050565b6000819050919050565b62000ffc8162000fe7565b82525050565b6200100d8162000dac565b82525050565b6200101e8162000b8d565b82525050565b600060a0820190506200103b600083018862000ff1565b6200104a602083018762000ff1565b62001059604083018662000ff1565b62001068606083018562001002565b62001077608083018462001013565b9695505050505050565b600082825260208201905092915050565b7f476f7665726e6f72566f74657351756f72756d4672616374696f6e3a2071756f60008201527f72756d4e756d657261746f72206f7665722071756f72756d44656e6f6d696e6160208201527f746f720000000000000000000000000000000000000000000000000000000000604082015250565b60006200111660438362001081565b9150620011238262001092565b606082019050919050565b60006020820190508181036000830152620011498162001107565b9050919050565b600060408201905062001167600083018562001002565b62001176602083018462001002565b9392505050565b600060408201905062001194600083018562001013565b620011a3602083018462001013565b9392505050565b7f53616665436173743a2076616c756520646f65736e27742066697420696e203260008201527f3234206269747300000000000000000000000000000000000000000000000000602082015250565b60006200120860278362001081565b91506200121582620011aa565b604082019050919050565b600060208201905081810360008301526200123b81620011f9565b9050919050565b7f4e487b7100000000000000000000000000000000000000000000000000000000600052601160045260246000fd5b60006200127e8262000dac565b91506200128b8362000dac565b9250828203905081811115620012a657620012a562001242565b5b92915050565b7f53616665436173743a2076616c756520646f65736e27742066697420696e203360008201527f3220626974730000000000000000000000000000000000000000000000000000602082015250565b60006200130a60268362001081565b91506200131782620012ac565b604082019050919050565b600060208201905081810360008301526200133d81620012fb565b9050919050565b7f436865636b706f696e743a20696e76616c6964206b6579000000000000000000600082015250565b60006200137c60178362001081565b9150620013898262001344565b602082019050919050565b60006020820190508181036000830152620013af816200136d565b9050919050565b60805160a05160c05160e05161010051610120516101405161690d6200141f60003960008181611d2d01528181612b2a0152612d2401526000612fea0152600061302c0152600061300b01526000612f4001526000612f9601526000612fbf015261690d6000f3fe6080604052600436106102e05760003560e01c80637d5e81e211610184578063c59057e4116100d6578063eb9019d41161008a578063f2fde38b11610064578063f2fde38b14610b39578063f8ce560a14610b62578063fc0c546a14610b9f57610326565b8063eb9019d414610a96578063ece40cc114610ad3578063f23a6e6114610afc57610326565b8063dd4e2ba5116100bb578063dd4e2ba514610a17578063deaaa7cc14610a42578063ea0217cf14610a6d57610326565b8063c59057e4146109af578063d33219b4146109ec57610326565b8063a890c91011610138578063bc197c8111610112578063bc197c8114610919578063c01f9e3714610956578063c28bc2fa1461099357610326565b8063a890c91014610888578063ab58fb8e146108b1578063b58131b0146108ee57610326565b806397c3d3341161016957806397c3d334146107f55780639a802a6d14610820578063a7713a701461085d57610326565b80637d5e81e21461078d5780638da5cb5b146107ca57610326565b80633932abb11161023d57806354fd4d50116101f157806360c4247f116101cb57806360c4247f146106fc578063715018a6146107395780637b3c71d31461075057610326565b806354fd4d501461065757806356781388146106825780635f398a14146106bf57610326565b80633e4f49e6116102225780633e4f49e61461059e57806343859632146105db578063544ffc9c1461061857610326565b80633932abb1146105365780633bccf4fd1461056157610326565b8063150b7a02116102945780632656227d116102795780632656227d1461049e5780632d63f693146104ce5780632fe3e2611461050b57610326565b8063150b7a0214610424578063160cbed71461046157610326565b806303420181116102c5578063034201811461039357806306f3f9e6146103d057806306fdde03146103f957610326565b806301ffc9a71461032b57806302a251a31461036857610326565b36610326573073ffffffffffffffffffffffffffffffffffffffff16610304610bca565b73ffffffffffffffffffffffffffffffffffffffff161461032457600080fd5b005b600080fd5b34801561033757600080fd5b50610352600480360381019061034d9190613f8b565b610bd9565b60405161035f9190613fd3565b60405180910390f35b34801561037457600080fd5b5061037d610beb565b60405161038a9190614007565b60405180910390f35b34801561039f57600080fd5b506103ba60048036038101906103b59190614263565b610bf5565b6040516103c79190614007565b60405180910390f35b3480156103dc57600080fd5b506103f760048036038101906103f29190614341565b610cda565b005b34801561040557600080fd5b5061040e610dd1565b60405161041b91906143ed565b60405180910390f35b34801561043057600080fd5b5061044b6004803603810190610446919061446d565b610e63565b60405161045891906144ff565b60405180910390f35b34801561046d57600080fd5b5061048860048036038101906104839190614781565b610e77565b6040516104959190614007565b60405180910390f35b6104b860048036038101906104b39190614781565b611131565b6040516104c59190614007565b60405180910390f35b3480156104da57600080fd5b506104f560048036038101906104f09190614341565b61127e565b6040516105029190614007565b60405180910390f35b34801561051757600080fd5b506105206112ec565b60405161052d919061484b565b60405180910390f35b34801561054257600080fd5b5061054b611310565b6040516105589190614007565b60405180910390f35b34801561056d57600080fd5b5061058860048036038101906105839190614866565b611319565b6040516105959190614007565b60405180910390f35b3480156105aa57600080fd5b506105c560048036038101906105c09190614341565b6113a3565b6040516105d29190614958565b60405180910390f35b3480156105e757600080fd5b5061060260048036038101906105fd9190614973565b6113b5565b60405161060f9190613fd3565b60405180910390f35b34801561062457600080fd5b5061063f600480360381019061063a9190614341565b611420565b60405161064e939291906149b3565b60405180910390f35b34801561066357600080fd5b5061066c611458565b60405161067991906143ed565b60405180910390f35b34801561068e57600080fd5b506106a960048036038101906106a491906149ea565b611495565b6040516106b69190614007565b60405180910390f35b3480156106cb57600080fd5b506106e660048036038101906106e19190614a2a565b6114c6565b6040516106f39190614007565b60405180910390f35b34801561070857600080fd5b50610723600480360381019061071e9190614341565b611530565b6040516107309190614007565b60405180910390f35b34801561074557600080fd5b5061074e61167c565b005b34801561075c57600080fd5b5061077760048036038101906107729190614ace565b611690565b6040516107849190614007565b60405180910390f35b34801561079957600080fd5b506107b460048036038101906107af9190614be3565b6116f8565b6040516107c19190614007565b60405180910390f35b3480156107d657600080fd5b506107df611710565b6040516107ec9190614cc9565b60405180910390f35b34801561080157600080fd5b5061080a61173a565b6040516108179190614007565b60405180910390f35b34801561082c57600080fd5b5061084760048036038101906108429190614ce4565b611743565b6040516108549190614007565b60405180910390f35b34801561086957600080fd5b50610872611759565b60405161087f9190614007565b60405180910390f35b34801561089457600080fd5b506108af60048036038101906108aa9190614da3565b6117a0565b005b3480156108bd57600080fd5b506108d860048036038101906108d39190614341565b611897565b6040516108e59190614007565b60405180910390f35b3480156108fa57600080fd5b50610903611964565b6040516109109190614007565b60405180910390f35b34801561092557600080fd5b50610940600480360381019061093b9190614dd0565b61196e565b60405161094d91906144ff565b60405180910390f35b34801561096257600080fd5b5061097d60048036038101906109789190614341565b611983565b60405161098a9190614007565b60405180910390f35b6109ad60048036038101906109a89190614ef5565b6119f1565b005b3480156109bb57600080fd5b506109d660048036038101906109d19190614781565b611b7a565b6040516109e39190614007565b60405180910390f35b3480156109f857600080fd5b50610a01611bb6565b604051610a0e9190614cc9565b60405180910390f35b348015610a2357600080fd5b50610a2c611be0565b604051610a3991906143ed565b60405180910390f35b348015610a4e57600080fd5b50610a57611c1d565b604051610a64919061484b565b60405180910390f35b348015610a7957600080fd5b50610a946004803603810190610a8f9190614341565b611c41565b005b348015610aa257600080fd5b50610abd6004803603810190610ab89190614f69565b611c53565b604051610aca9190614007565b60405180910390f35b348015610adf57600080fd5b50610afa6004803603810190610af59190614341565b611c6f565b005b348015610b0857600080fd5b50610b236004803603810190610b1e9190614fa9565b611c81565b604051610b3091906144ff565b60405180910390f35b348015610b4557600080fd5b50610b606004803603810190610b5b9190615040565b611c96565b005b348015610b6e57600080fd5b50610b896004803603810190610b849190614341565b611d19565b604051610b969190614007565b60405180910390f35b348015610bab57600080fd5b50610bb4611d2b565b604051610bc191906150cc565b60405180910390f35b6000610bd4611d4f565b905090565b6000610be482611d79565b9050919050565b6000600b54905090565b600080610c78610c707fb3b3f3b703cd84ce352197dcff232b1b5d3cfb2025ce47cf04742d0651f1af888c8c8c8c604051610c31929190615117565b60405180910390208b80519060200120604051602001610c5595949392919061513f565b60405160208183030381529060405280519060200120611df3565b868686611e0d565b9050610ccb8a828b8b8b8080601f016020809104026020016040519081016040528093929190818152602001838380828437600081840152601f19601f820116905080830192505050505050508a611e38565b91505098975050505050505050565b610ce2610bca565b73ffffffffffffffffffffffffffffffffffffffff16610d00611ff4565b73ffffffffffffffffffffffffffffffffffffffff1614610d56576040517f08c379a0000000000000000000000000000000000000000000000000000000008152600401610d4d906151de565b60405180910390fd5b3073ffffffffffffffffffffffffffffffffffffffff16610d75610bca565b73ffffffffffffffffffffffffffffffffffffffff1614610dc5576000610d9a611ffc565b604051610da8929190615117565b604051809103902090505b80610dbe6002612009565b03610db357505b610dce816120e5565b50565b606060008054610de09061522d565b80601f0160208091040260200160405190810160405280929190818152602001828054610e0c9061522d565b8015610e595780601f10610e2e57610100808354040283529160200191610e59565b820191906000526020600020905b815481529060010190602001808311610e3c57829003601f168201915b5050505050905090565b600063150b7a0260e01b9050949350505050565b600080610e8686868686611b7a565b905060046007811115610e9c57610e9b6148e1565b5b610ea5826113a3565b6007811115610eb757610eb66148e1565b5b14610ef7576040517f08c379a0000000000000000000000000000000000000000000000000000000008152600401610eee906152d0565b60405180910390fd5b6000600760009054906101000a900473ffffffffffffffffffffffffffffffffffffffff1673ffffffffffffffffffffffffffffffffffffffff1663f27a0c926040518163ffffffff1660e01b8152600401602060405180830381865afa158015610f66573d6000803e3d6000fd5b505050506040513d601f19601f82011682018060405250810190610f8a9190615305565b9050600760009054906101000a900473ffffffffffffffffffffffffffffffffffffffff1673ffffffffffffffffffffffffffffffffffffffff1663b1c5f4278888886000896040518663ffffffff1660e01b8152600401610ff095949392919061560d565b602060405180830381865afa15801561100d573d6000803e3d6000fd5b505050506040513d601f19601f82011682018060405250810190611031919061568a565b6008600084815260200190815260200160002081905550600760009054906101000a900473ffffffffffffffffffffffffffffffffffffffff1673ffffffffffffffffffffffffffffffffffffffff16638f2a0bb0888888600089876040518763ffffffff1660e01b81526004016110ae969594939291906156b7565b600060405180830381600087803b1580156110c857600080fd5b505af11580156110dc573d6000803e3d6000fd5b505050507f9a2e42fd6722813d69113e7d0079d3d940171428df7373df9c7f7617cfda289282824261110e919061575c565b60405161111c929190615790565b60405180910390a18192505050949350505050565b60008061114086868686611b7a565b9050600061114d826113a3565b905060046007811115611163576111626148e1565b5b816007811115611176576111756148e1565b5b14806111a6575060056007811115611191576111906148e1565b5b8160078111156111a4576111a36148e1565b5b145b6111e5576040517f08c379a00000000000000000000000000000000000000000000000000000000081526004016111dc906152d0565b60405180910390fd5b600180600084815260200190815260200160002060020160006101000a81548160ff0219169083151502179055507f712ae1383f79ac853f8d882153778e0260ef8f03b504e2866e0593e04d2b291f826040516112429190614007565b60405180910390a16112578288888888612299565b611264828888888861237c565b6112718288888888612390565b8192505050949350505050565b60006112db600160008481526020019081526020016000206000016040518060200160405290816000820160009054906101000a900467ffffffffffffffff1667ffffffffffffffff1667ffffffffffffffff16815250506123eb565b67ffffffffffffffff169050919050565b7fb3b3f3b703cd84ce352197dcff232b1b5d3cfb2025ce47cf04742d0651f1af8881565b60006001905090565b60008061137a6113727f150214d74d59b7d1e90c73fc22ef3d991dd0a76b046543d4d80ab92d2a50328f8989604051602001611357939291906157b9565b60405160208183030381529060405280519060200120611df3565b868686611e0d565b9050611397878288604051806020016040528060008152506123f9565b91505095945050505050565b60006113ae82612419565b9050919050565b60006004600084815260200190815260200160002060030160008373ffffffffffffffffffffffffffffffffffffffff1673ffffffffffffffffffffffffffffffffffffffff16815260200190815260200160002060009054906101000a900460ff16905092915050565b600080600080600460008681526020019081526020016000209050806000015481600101548260020154935093509350509193909250565b60606040518060400160405280600181526020017f3100000000000000000000000000000000000000000000000000000000000000815250905090565b6000806114a0611ff4565b90506114bd848285604051806020016040528060008152506123f9565b91505092915050565b6000806114d1611ff4565b905061152487828888888080601f016020809104026020016040519081016040528093929190818152602001838380828437600081840152601f19601f8201169050808301925050505050505087611e38565b91505095945050505050565b60008060066000018054905090506000810361155157600554915050611677565b6000600660000160018361156591906157f0565b8154811061157657611575615824565b5b906000526020600020016040518060400160405290816000820160009054906101000a900463ffffffff1663ffffffff1663ffffffff1681526020016000820160049054906101000a90047bffffffffffffffffffffffffffffffffffffffffffffffffffffffff167bffffffffffffffffffffffffffffffffffffffffffffffffffffffff167bffffffffffffffffffffffffffffffffffffffffffffffffffffffff1681525050905083816000015163ffffffff161161165e5780602001517bffffffffffffffffffffffffffffffffffffffffffffffffffffffff1692505050611677565b6116728460066125ec90919063ffffffff16565b925050505b919050565b6116846126db565b61168e6000612759565b565b60008061169b611ff4565b90506116ed86828787878080601f016020809104026020016040519081016040528093929190818152602001838380828437600081840152601f19601f820116905080830192505050505050506123f9565b915050949350505050565b60006117068585858561281f565b9050949350505050565b6000600960009054906101000a900473ffffffffffffffffffffffffffffffffffffffff16905090565b60006064905090565b6000611750848484612b26565b90509392505050565b60008060066000018054905014611797576117746006612bcd565b7bffffffffffffffffffffffffffffffffffffffffffffffffffffffff1661179b565b6005545b905090565b6117a8610bca565b73ffffffffffffffffffffffffffffffffffffffff166117c6611ff4565b73ffffffffffffffffffffffffffffffffffffffff161461181c576040517f08c379a0000000000000000000000000000000000000000000000000000000008152600401611813906151de565b60405180910390fd5b3073ffffffffffffffffffffffffffffffffffffffff1661183b610bca565b73ffffffffffffffffffffffffffffffffffffffff161461188b576000611860611ffc565b60405161186e929190615117565b604051809103902090505b806118846002612009565b0361187957505b61189481612c37565b50565b600080600760009054906101000a900473ffffffffffffffffffffffffffffffffffffffff1673ffffffffffffffffffffffffffffffffffffffff1663d45c443560086000868152602001908152602001600020546040518263ffffffff1660e01b8152600401611908919061484b565b602060405180830381865afa158015611925573d6000803e3d6000fd5b505050506040513d601f19601f820116820180604052508101906119499190615305565b905060018114611959578061195c565b60005b915050919050565b6000600a54905090565b600063bc197c8160e01b905095945050505050565b60006119e0600160008481526020019081526020016000206001016040518060200160405290816000820160009054906101000a900467ffffffffffffffff1667ffffffffffffffff1667ffffffffffffffff16815250506123eb565b67ffffffffffffffff169050919050565b6119f9610bca565b73ffffffffffffffffffffffffffffffffffffffff16611a17611ff4565b73ffffffffffffffffffffffffffffffffffffffff1614611a6d576040517f08c379a0000000000000000000000000000000000000000000000000000000008152600401611a64906151de565b60405180910390fd5b3073ffffffffffffffffffffffffffffffffffffffff16611a8c610bca565b73ffffffffffffffffffffffffffffffffffffffff1614611adc576000611ab1611ffc565b604051611abf929190615117565b604051809103902090505b80611ad56002612009565b03611aca57505b6000808573ffffffffffffffffffffffffffffffffffffffff16858585604051611b07929190615117565b60006040518083038185875af1925050503d8060008114611b44576040519150601f19603f3d011682016040523d82523d6000602084013e611b49565b606091505b5091509150611b7182826040518060600160405280602881526020016168b060289139612cd6565b50505050505050565b600084848484604051602001611b939493929190615853565b6040516020818303038152906040528051906020012060001c9050949350505050565b6000600760009054906101000a900473ffffffffffffffffffffffffffffffffffffffff16905090565b60606040518060400160405280602081526020017f737570706f72743d627261766f2671756f72756d3d666f722c6162737461696e815250905090565b7f150214d74d59b7d1e90c73fc22ef3d991dd0a76b046543d4d80ab92d2a50328f81565b611c496126db565b80600b8190555050565b6000611c678383611c62612cf8565b612b26565b905092915050565b611c776126db565b80600a8190555050565b600063f23a6e6160e01b905095945050505050565b611c9e6126db565b600073ffffffffffffffffffffffffffffffffffffffff168173ffffffffffffffffffffffffffffffffffffffff1603611d0d576040517f08c379a0000000000000000000000000000000000000000000000000000000008152600401611d049061591f565b60405180910390fd5b611d1681612759565b50565b6000611d2482612d0f565b9050919050565b7f000000000000000000000000000000000000000000000000000000000000000081565b6000600760009054906101000a900473ffffffffffffffffffffffffffffffffffffffff16905090565b60007f6e665ced000000000000000000000000000000000000000000000000000000007bffffffffffffffffffffffffffffffffffffffffffffffffffffffff1916827bffffffffffffffffffffffffffffffffffffffffffffffffffffffff19161480611dec5750611deb82612dd7565b5b9050919050565b6000611e06611e00612f3c565b83613056565b9050919050565b6000806000611e1e87878787613089565b91509150611e2b8161316b565b8192505050949350505050565b60008060016000888152602001908152602001600020905060016007811115611e6457611e636148e1565b5b611e6d886113a3565b6007811115611e7f57611e7e6148e1565b5b14611ebf576040517f08c379a0000000000000000000000000000000000000000000000000000000008152600401611eb6906159b1565b60405180910390fd5b6000611f1e87611f0e846000016040518060200160405290816000820160009054906101000a900467ffffffffffffffff1667ffffffffffffffff1667ffffffffffffffff16815250506123eb565b67ffffffffffffffff1686612b26565b9050611f2d88888884886132d1565b6000845103611f8f578673ffffffffffffffffffffffffffffffffffffffff167fb8e138887d0aa13bab447e82de9d5c1777041ecd21ca36ba824ff1e6c07ddda489888489604051611f8294939291906159d1565b60405180910390a2611fe6565b8673ffffffffffffffffffffffffffffffffffffffff167fe2babfbac5889a709b63bb7f598b324e08bc5a4fb9ec647fb3cbc9ec07eb87128988848989604051611fdd959493929190615a67565b60405180910390a25b809250505095945050505050565b600033905090565b3660008036915091509091565b6000612014826134d5565b1561204b576040517f3db2a12a00000000000000000000000000000000000000000000000000000000815260040160405180910390fd5b60008260000160009054906101000a9004600f0b905082600101600082600f0b600f0b815260200190815260200160002054915082600101600082600f0b600f0b815260200190815260200160002060009055600181018360000160006101000a8154816fffffffffffffffffffffffffffffffff0219169083600f0b6fffffffffffffffffffffffffffffffff16021790555050919050565b6120ed61173a565b81111561212f576040517f08c379a000000000000000000000000000000000000000000000000000000000815260040161212690615b60565b60405180910390fd5b6000612139611759565b90506000811415801561215457506000600660000180549050145b156122465760066000016040518060400160405280600063ffffffff16815260200161217f8461350a565b7bffffffffffffffffffffffffffffffffffffffffffffffffffffffff168152509080600181540180825580915050600190039060005260206000200160009091909190915060008201518160000160006101000a81548163ffffffff021916908363ffffffff16021790555060208201518160000160046101000a8154817bffffffffffffffffffffffffffffffffffffffffffffffffffffffff02191690837bffffffffffffffffffffffffffffffffffffffffffffffffffffffff16021790555050505b61225a82600661357590919063ffffffff16565b50507f0553476bf02ef2726e8ce5ced78d63e26e602e4a2257b1f559418e24b4633997818360405161228d929190615790565b60405180910390a15050565b3073ffffffffffffffffffffffffffffffffffffffff166122b8610bca565b73ffffffffffffffffffffffffffffffffffffffff16146123755760005b8451811015612373573073ffffffffffffffffffffffffffffffffffffffff1685828151811061230957612308615824565b5b602002602001015173ffffffffffffffffffffffffffffffffffffffff16036123625761236183828151811061234257612341615824565b5b60200260200101518051906020012060026135e390919063ffffffff16565b5b8061236c90615b80565b90506122d6565b505b5050505050565b612389858585858561365f565b5050505050565b3073ffffffffffffffffffffffffffffffffffffffff166123af610bca565b73ffffffffffffffffffffffffffffffffffffffff16146123e4576123d460026134d5565b6123e3576123e260026136fd565b5b5b5050505050565b600081600001519050919050565b600061240f8585858561240a612cf8565b611e38565b9050949350505050565b6000806124258361377e565b90506004600781111561243b5761243a6148e1565b5b81600781111561244e5761244d6148e1565b5b1461245c57809150506125e7565b6000600860008581526020019081526020016000205490506000801b81036124885781925050506125e7565b600760009054906101000a900473ffffffffffffffffffffffffffffffffffffffff1673ffffffffffffffffffffffffffffffffffffffff16632ab0f529826040518263ffffffff1660e01b81526004016124e3919061484b565b602060405180830381865afa158015612500573d6000803e3d6000fd5b505050506040513d601f19601f820116820180604052508101906125249190615bf4565b15612534576007925050506125e7565b600760009054906101000a900473ffffffffffffffffffffffffffffffffffffffff1673ffffffffffffffffffffffffffffffffffffffff1663584b153e826040518263ffffffff1660e01b815260040161258f919061484b565b602060405180830381865afa1580156125ac573d6000803e3d6000fd5b505050506040513d601f19601f820116820180604052508101906125d09190615bf4565b156125e0576005925050506125e7565b6002925050505b919050565b6000438210612630576040517f08c379a000000000000000000000000000000000000000000000000000000000815260040161262790615c6d565b60405180910390fd5b600061263b83613892565b9050600084600001805490509050600061265b86600001846000856138e5565b9050600081146126af5761267e8660000160018361267991906157f0565b613958565b60000160049054906101000a90047bffffffffffffffffffffffffffffffffffffffffffffffffffffffff166126b2565b60005b7bffffffffffffffffffffffffffffffffffffffffffffffffffffffff16935050505092915050565b6126e3611ff4565b73ffffffffffffffffffffffffffffffffffffffff16612701611710565b73ffffffffffffffffffffffffffffffffffffffff1614612757576040517f08c379a000000000000000000000000000000000000000000000000000000000815260040161274e90615cd9565b60405180910390fd5b565b6000600960009054906101000a900473ffffffffffffffffffffffffffffffffffffffff16905081600960006101000a81548173ffffffffffffffffffffffffffffffffffffffff021916908373ffffffffffffffffffffffffffffffffffffffff1602179055508173ffffffffffffffffffffffffffffffffffffffff168173ffffffffffffffffffffffffffffffffffffffff167f8be0079c531659141344cd1fd0a4f28419497f9722a3daafe3b4186f6b6457e060405160405180910390a35050565b6000612829611964565b612846612834611ff4565b60014361284191906157f0565b611c53565b1015612887576040517f08c379a000000000000000000000000000000000000000000000000000000000815260040161287e90615d6b565b60405180910390fd5b600061289c8686868680519060200120611b7a565b905084518651146128e2576040517f08c379a00000000000000000000000000000000000000000000000000000000081526004016128d990615dfd565b60405180910390fd5b8351865114612926576040517f08c379a000000000000000000000000000000000000000000000000000000000815260040161291d90615dfd565b60405180910390fd5b600086511161296a576040517f08c379a000000000000000000000000000000000000000000000000000000000815260040161296190615e69565b60405180910390fd5b60006001600083815260200190815260200160002090506129ca816000016040518060200160405290816000820160009054906101000a900467ffffffffffffffff1667ffffffffffffffff1667ffffffffffffffff168152505061396d565b612a09576040517f08c379a0000000000000000000000000000000000000000000000000000000008152600401612a0090615efb565b60405180910390fd5b6000612a1b612a16611310565b613987565b612a2443613987565b612a2e9190615f2f565b90506000612a42612a3d610beb565b613987565b82612a4d9190615f2f565b9050612a6582846000016139de90919063ffffffff16565b612a7b81846001016139de90919063ffffffff16565b7f7d84a6263ae0d98d3329bd7b46bb4e8d6f98cd35a7adb45c274c8b7fd5ebd5e084612aa5611ff4565b8b8b8d5167ffffffffffffffff811115612ac257612ac1614102565b5b604051908082528060200260200182016040528015612af557816020015b6060815260200190600190039081612ae05790505b508c88888e604051612b0f999897969594939291906160a8565b60405180910390a183945050505050949350505050565b60007f000000000000000000000000000000000000000000000000000000000000000073ffffffffffffffffffffffffffffffffffffffff16633a46b1a885856040518363ffffffff1660e01b8152600401612b83929190616158565b602060405180830381865afa158015612ba0573d6000803e3d6000fd5b505050506040513d601f19601f82011682018060405250810190612bc49190615305565b90509392505050565b6000808260000180549050905060008114612c2c57612bfb83600001600183612bf691906157f0565b613958565b60000160049054906101000a90047bffffffffffffffffffffffffffffffffffffffffffffffffffffffff16612c2f565b60005b915050919050565b7f08f74ea46ef7894f65eabfb5e6e695de773a000b47c529ab559178069b226401600760009054906101000a900473ffffffffffffffffffffffffffffffffffffffff1682604051612c8a929190616181565b60405180910390a180600760006101000a81548173ffffffffffffffffffffffffffffffffffffffff021916908373ffffffffffffffffffffffffffffffffffffffff16021790555050565b60608315612ce657829050612cf1565b612cf08383613a0d565b5b9392505050565b606060405180602001604052806000815250905090565b6000612d1961173a565b612d2283611530565b7f000000000000000000000000000000000000000000000000000000000000000073ffffffffffffffffffffffffffffffffffffffff16638e539e8c856040518263ffffffff1660e01b8152600401612d7b9190614007565b602060405180830381865afa158015612d98573d6000803e3d6000fd5b505050506040513d601f19601f82011682018060405250810190612dbc9190615305565b612dc691906161aa565b612dd0919061621b565b9050919050565b6000639a802a6d60e01b630342018160e01b635f398a1460e01b7f79dd796f000000000000000000000000000000000000000000000000000000001818187bffffffffffffffffffffffffffffffffffffffffffffffffffffffff1916827bffffffffffffffffffffffffffffffffffffffffffffffffffffffff19161480612ebd57507f79dd796f000000000000000000000000000000000000000000000000000000007bffffffffffffffffffffffffffffffffffffffffffffffffffffffff1916827bffffffffffffffffffffffffffffffffffffffffffffffffffffffff1916145b80612f2557507f4e2312e0000000000000000000000000000000000000000000000000000000007bffffffffffffffffffffffffffffffffffffffffffffffffffffffff1916827bffffffffffffffffffffffffffffffffffffffffffffffffffffffff1916145b80612f355750612f3482613a5d565b5b9050919050565b60007f000000000000000000000000000000000000000000000000000000000000000073ffffffffffffffffffffffffffffffffffffffff163073ffffffffffffffffffffffffffffffffffffffff16148015612fb857507f000000000000000000000000000000000000000000000000000000000000000046145b15612fe5577f00000000000000000000000000000000000000000000000000000000000000009050613053565b6130507f00000000000000000000000000000000000000000000000000000000000000007f00000000000000000000000000000000000000000000000000000000000000007f0000000000000000000000000000000000000000000000000000000000000000613ac7565b90505b90565b6000828260405160200161306b9291906162c4565b60405160208183030381529060405280519060200120905092915050565b6000807f7fffffffffffffffffffffffffffffff5d576e7357a4501ddfe92f46681b20a08360001c11156130c4576000600391509150613162565b6000600187878787604051600081526020016040526040516130e994939291906162fb565b6020604051602081039080840390855afa15801561310b573d6000803e3d6000fd5b505050602060405103519050600073ffffffffffffffffffffffffffffffffffffffff168173ffffffffffffffffffffffffffffffffffffffff160361315957600060019250925050613162565b80600092509250505b94509492505050565b6000600481111561317f5761317e6148e1565b5b816004811115613192576131916148e1565b5b03156132ce57600160048111156131ac576131ab6148e1565b5b8160048111156131bf576131be6148e1565b5b036131ff576040517f08c379a00000000000000000000000000000000000000000000000000000000081526004016131f69061638c565b60405180910390fd5b60026004811115613213576132126148e1565b5b816004811115613226576132256148e1565b5b03613266576040517f08c379a000000000000000000000000000000000000000000000000000000000815260040161325d906163f8565b60405180910390fd5b6003600481111561327a576132796148e1565b5b81600481111561328d5761328c6148e1565b5b036132cd576040517f08c379a00000000000000000000000000000000000000000000000000000000081526004016132c49061648a565b60405180910390fd5b5b50565b60006004600087815260200190815260200160002090508060030160008673ffffffffffffffffffffffffffffffffffffffff1673ffffffffffffffffffffffffffffffffffffffff16815260200190815260200160002060009054906101000a900460ff1615613377576040517f08c379a000000000000000000000000000000000000000000000000000000000815260040161336e9061651c565b60405180910390fd5b60018160030160008773ffffffffffffffffffffffffffffffffffffffff1673ffffffffffffffffffffffffffffffffffffffff16815260200190815260200160002060006101000a81548160ff021916908315150217905550600060028111156133e5576133e46148e1565b5b60ff168460ff16036134115782816000016000828254613405919061575c565b925050819055506134cd565b60016002811115613425576134246148e1565b5b60ff168460ff16036134515782816001016000828254613445919061575c565b925050819055506134cc565b600280811115613464576134636148e1565b5b60ff168460ff16036134905782816002016000828254613484919061575c565b925050819055506134cb565b6040517f08c379a00000000000000000000000000000000000000000000000000000000081526004016134c2906165ae565b60405180910390fd5b5b5b505050505050565b60008160000160009054906101000a9004600f0b600f0b8260000160109054906101000a9004600f0b600f0b13159050919050565b60007bffffffffffffffffffffffffffffffffffffffffffffffffffffffff801682111561356d576040517f08c379a000000000000000000000000000000000000000000000000000000000815260040161356490616640565b60405180910390fd5b819050919050565b6000806135968460000161358843613892565b6135918661350a565b613b01565b817bffffffffffffffffffffffffffffffffffffffffffffffffffffffff169150807bffffffffffffffffffffffffffffffffffffffffffffffffffffffff169050915091509250929050565b60008260000160109054906101000a9004600f0b90508183600101600083600f0b600f0b815260200190815260200160002081905550600181018360000160106101000a8154816fffffffffffffffffffffffffffffffff0219169083600f0b6fffffffffffffffffffffffffffffffff160217905550505050565b600760009054906101000a900473ffffffffffffffffffffffffffffffffffffffff1673ffffffffffffffffffffffffffffffffffffffff1663e38335e5348686866000876040518763ffffffff1660e01b81526004016136c495949392919061560d565b6000604051808303818588803b1580156136dd57600080fd5b505af11580156136f1573d6000803e3d6000fd5b50505050505050505050565b60008160000160006101000a8154816fffffffffffffffffffffffffffffffff0219169083600f0b6fffffffffffffffffffffffffffffffff16021790555060008160000160106101000a8154816fffffffffffffffffffffffffffffffff0219169083600f0b6fffffffffffffffffffffffffffffffff16021790555050565b6000806001600084815260200190815260200160002090508060020160009054906101000a900460ff16156137b757600791505061388d565b8060020160019054906101000a900460ff16156137d857600291505061388d565b60006137e38461127e565b905060008103613828576040517f08c379a000000000000000000000000000000000000000000000000000000000815260040161381f906166ac565b60405180910390fd5b43811061383a5760009250505061388d565b600061384585611983565b905043811061385a576001935050505061388d565b61386385613e87565b8015613874575061387385613ece565b5b15613885576004935050505061388d565b600393505050505b919050565b600063ffffffff80168211156138dd576040517f08c379a00000000000000000000000000000000000000000000000000000000081526004016138d49061673e565b60405180910390fd5b819050919050565b60005b8183101561394d5760006138fc8484613ef9565b90508463ffffffff1661390f8783613958565b60000160009054906101000a900463ffffffff1663ffffffff16111561393757809250613947565b600181613944919061575c565b93505b506138e8565b819050949350505050565b60008260005281602060002001905092915050565b600080826000015167ffffffffffffffff16149050919050565b600067ffffffffffffffff80168211156139d6576040517f08c379a00000000000000000000000000000000000000000000000000000000081526004016139cd906167d0565b60405180910390fd5b819050919050565b808260000160006101000a81548167ffffffffffffffff021916908367ffffffffffffffff1602179055505050565b600082511115613a205781518083602001fd5b806040517f08c379a0000000000000000000000000000000000000000000000000000000008152600401613a5491906143ed565b60405180910390fd5b60007f01ffc9a7000000000000000000000000000000000000000000000000000000007bffffffffffffffffffffffffffffffffffffffffffffffffffffffff1916827bffffffffffffffffffffffffffffffffffffffffffffffffffffffff1916149050919050565b60008383834630604051602001613ae29594939291906167f0565b6040516020818303038152906040528051906020012090509392505050565b6000806000858054905090506000811115613d97576000613b2e87600184613b2991906157f0565b613958565b6040518060400160405290816000820160009054906101000a900463ffffffff1663ffffffff1663ffffffff1681526020016000820160049054906101000a90047bffffffffffffffffffffffffffffffffffffffffffffffffffffffff167bffffffffffffffffffffffffffffffffffffffffffffffffffffffff167bffffffffffffffffffffffffffffffffffffffffffffffffffffffff168152505090508563ffffffff16816000015163ffffffff161115613c22576040517f08c379a0000000000000000000000000000000000000000000000000000000008152600401613c199061688f565b60405180910390fd5b8563ffffffff16816000015163ffffffff1603613ca65784613c5088600185613c4b91906157f0565b613958565b60000160046101000a8154817bffffffffffffffffffffffffffffffffffffffffffffffffffffffff02191690837bffffffffffffffffffffffffffffffffffffffffffffffffffffffff160217905550613d86565b8660405180604001604052808863ffffffff168152602001877bffffffffffffffffffffffffffffffffffffffffffffffffffffffff168152509080600181540180825580915050600190039060005260206000200160009091909190915060008201518160000160006101000a81548163ffffffff021916908363ffffffff16021790555060208201518160000160046101000a8154817bffffffffffffffffffffffffffffffffffffffffffffffffffffffff02191690837bffffffffffffffffffffffffffffffffffffffffffffffffffffffff16021790555050505b806020015185935093505050613e7f565b8560405180604001604052808763ffffffff168152602001867bffffffffffffffffffffffffffffffffffffffffffffffffffffffff168152509080600181540180825580915050600190039060005260206000200160009091909190915060008201518160000160006101000a81548163ffffffff021916908363ffffffff16021790555060208201518160000160046101000a8154817bffffffffffffffffffffffffffffffffffffffffffffffffffffffff02191690837bffffffffffffffffffffffffffffffffffffffffffffffffffffffff160217905550505060008492509250505b935093915050565b60008060046000848152602001908152602001600020905080600201548160010154613eb3919061575c565b613ec4613ebf8561127e565b611d19565b1115915050919050565b6000806004600084815260200190815260200160002090508060000154816001015411915050919050565b60006002828418613f0a919061621b565b828416613f17919061575c565b905092915050565b6000604051905090565b600080fd5b600080fd5b60007fffffffff0000000000000000000000000000000000000000000000000000000082169050919050565b613f6881613f33565b8114613f7357600080fd5b50565b600081359050613f8581613f5f565b92915050565b600060208284031215613fa157613fa0613f29565b5b6000613faf84828501613f76565b91505092915050565b60008115159050919050565b613fcd81613fb8565b82525050565b6000602082019050613fe86000830184613fc4565b92915050565b6000819050919050565b61400181613fee565b82525050565b600060208201905061401c6000830184613ff8565b92915050565b61402b81613fee565b811461403657600080fd5b50565b60008135905061404881614022565b92915050565b600060ff82169050919050565b6140648161404e565b811461406f57600080fd5b50565b6000813590506140818161405b565b92915050565b600080fd5b600080fd5b600080fd5b60008083601f8401126140ac576140ab614087565b5b8235905067ffffffffffffffff8111156140c9576140c861408c565b5b6020830191508360018202830111156140e5576140e4614091565b5b9250929050565b600080fd5b6000601f19601f8301169050919050565b7f4e487b7100000000000000000000000000000000000000000000000000000000600052604160045260246000fd5b61413a826140f1565b810181811067ffffffffffffffff8211171561415957614158614102565b5b80604052505050565b600061416c613f1f565b90506141788282614131565b919050565b600067ffffffffffffffff82111561419857614197614102565b5b6141a1826140f1565b9050602081019050919050565b82818337600083830152505050565b60006141d06141cb8461417d565b614162565b9050828152602081018484840111156141ec576141eb6140ec565b5b6141f78482856141ae565b509392505050565b600082601f83011261421457614213614087565b5b81356142248482602086016141bd565b91505092915050565b6000819050919050565b6142408161422d565b811461424b57600080fd5b50565b60008135905061425d81614237565b92915050565b60008060008060008060008060e0898b03121561428357614282613f29565b5b60006142918b828c01614039565b98505060206142a28b828c01614072565b975050604089013567ffffffffffffffff8111156142c3576142c2613f2e565b5b6142cf8b828c01614096565b9650965050606089013567ffffffffffffffff8111156142f2576142f1613f2e565b5b6142fe8b828c016141ff565b945050608061430f8b828c01614072565b93505060a06143208b828c0161424e565b92505060c06143318b828c0161424e565b9150509295985092959890939650565b60006020828403121561435757614356613f29565b5b600061436584828501614039565b91505092915050565b600081519050919050565b600082825260208201905092915050565b60005b838110156143a857808201518184015260208101905061438d565b60008484015250505050565b60006143bf8261436e565b6143c98185614379565b93506143d981856020860161438a565b6143e2816140f1565b840191505092915050565b6000602082019050818103600083015261440781846143b4565b905092915050565b600073ffffffffffffffffffffffffffffffffffffffff82169050919050565b600061443a8261440f565b9050919050565b61444a8161442f565b811461445557600080fd5b50565b60008135905061446781614441565b92915050565b6000806000806080858703121561448757614486613f29565b5b600061449587828801614458565b94505060206144a687828801614458565b93505060406144b787828801614039565b925050606085013567ffffffffffffffff8111156144d8576144d7613f2e565b5b6144e4878288016141ff565b91505092959194509250565b6144f981613f33565b82525050565b600060208201905061451460008301846144f0565b92915050565b600067ffffffffffffffff82111561453557614534614102565b5b602082029050602081019050919050565b60006145596145548461451a565b614162565b9050808382526020820190506020840283018581111561457c5761457b614091565b5b835b818110156145a557806145918882614458565b84526020840193505060208101905061457e565b5050509392505050565b600082601f8301126145c4576145c3614087565b5b81356145d4848260208601614546565b91505092915050565b600067ffffffffffffffff8211156145f8576145f7614102565b5b602082029050602081019050919050565b600061461c614617846145dd565b614162565b9050808382526020820190506020840283018581111561463f5761463e614091565b5b835b8181101561466857806146548882614039565b845260208401935050602081019050614641565b5050509392505050565b600082601f83011261468757614686614087565b5b8135614697848260208601614609565b91505092915050565b600067ffffffffffffffff8211156146bb576146ba614102565b5b602082029050602081019050919050565b60006146df6146da846146a0565b614162565b9050808382526020820190506020840283018581111561470257614701614091565b5b835b8181101561474957803567ffffffffffffffff81111561472757614726614087565b5b80860161473489826141ff565b85526020850194505050602081019050614704565b5050509392505050565b600082601f83011261476857614767614087565b5b81356147788482602086016146cc565b91505092915050565b6000806000806080858703121561479b5761479a613f29565b5b600085013567ffffffffffffffff8111156147b9576147b8613f2e565b5b6147c5878288016145af565b945050602085013567ffffffffffffffff8111156147e6576147e5613f2e565b5b6147f287828801614672565b935050604085013567ffffffffffffffff81111561481357614812613f2e565b5b61481f87828801614753565b92505060606148308782880161424e565b91505092959194509250565b6148458161422d565b82525050565b6000602082019050614860600083018461483c565b92915050565b600080600080600060a0868803121561488257614881613f29565b5b600061489088828901614039565b95505060206148a188828901614072565b94505060406148b288828901614072565b93505060606148c38882890161424e565b92505060806148d48882890161424e565b9150509295509295909350565b7f4e487b7100000000000000000000000000000000000000000000000000000000600052602160045260246000fd5b60088110614921576149206148e1565b5b50565b600081905061493282614910565b919050565b600061494282614924565b9050919050565b61495281614937565b82525050565b600060208201905061496d6000830184614949565b92915050565b6000806040838503121561498a57614989613f29565b5b600061499885828601614039565b92505060206149a985828601614458565b9150509250929050565b60006060820190506149c86000830186613ff8565b6149d56020830185613ff8565b6149e26040830184613ff8565b949350505050565b60008060408385031215614a0157614a00613f29565b5b6000614a0f85828601614039565b9250506020614a2085828601614072565b9150509250929050565b600080600080600060808688031215614a4657614a45613f29565b5b6000614a5488828901614039565b9550506020614a6588828901614072565b945050604086013567ffffffffffffffff811115614a8657614a85613f2e565b5b614a9288828901614096565b9350935050606086013567ffffffffffffffff811115614ab557614ab4613f2e565b5b614ac1888289016141ff565b9150509295509295909350565b60008060008060608587031215614ae857614ae7613f29565b5b6000614af687828801614039565b9450506020614b0787828801614072565b935050604085013567ffffffffffffffff811115614b2857614b27613f2e565b5b614b3487828801614096565b925092505092959194509250565b600067ffffffffffffffff821115614b5d57614b5c614102565b5b614b66826140f1565b9050602081019050919050565b6000614b86614b8184614b42565b614162565b905082815260208101848484011115614ba257614ba16140ec565b5b614bad8482856141ae565b509392505050565b600082601f830112614bca57614bc9614087565b5b8135614bda848260208601614b73565b91505092915050565b60008060008060808587031215614bfd57614bfc613f29565b5b600085013567ffffffffffffffff811115614c1b57614c1a613f2e565b5b614c27878288016145af565b945050602085013567ffffffffffffffff811115614c4857614c47613f2e565b5b614c5487828801614672565b935050604085013567ffffffffffffffff811115614c7557614c74613f2e565b5b614c8187828801614753565b925050606085013567ffffffffffffffff811115614ca257614ca1613f2e565b5b614cae87828801614bb5565b91505092959194509250565b614cc38161442f565b82525050565b6000602082019050614cde6000830184614cba565b92915050565b600080600060608486031215614cfd57614cfc613f29565b5b6000614d0b86828701614458565b9350506020614d1c86828701614039565b925050604084013567ffffffffffffffff811115614d3d57614d3c613f2e565b5b614d49868287016141ff565b9150509250925092565b6000614d5e8261440f565b9050919050565b6000614d7082614d53565b9050919050565b614d8081614d65565b8114614d8b57600080fd5b50565b600081359050614d9d81614d77565b92915050565b600060208284031215614db957614db8613f29565b5b6000614dc784828501614d8e565b91505092915050565b600080600080600060a08688031215614dec57614deb613f29565b5b6000614dfa88828901614458565b9550506020614e0b88828901614458565b945050604086013567ffffffffffffffff811115614e2c57614e2b613f2e565b5b614e3888828901614672565b935050606086013567ffffffffffffffff811115614e5957614e58613f2e565b5b614e6588828901614672565b925050608086013567ffffffffffffffff811115614e8657614e85613f2e565b5b614e92888289016141ff565b9150509295509295909350565b60008083601f840112614eb557614eb4614087565b5b8235905067ffffffffffffffff811115614ed257614ed161408c565b5b602083019150836001820283011115614eee57614eed614091565b5b9250929050565b60008060008060608587031215614f0f57614f0e613f29565b5b6000614f1d87828801614458565b9450506020614f2e87828801614039565b935050604085013567ffffffffffffffff811115614f4f57614f4e613f2e565b5b614f5b87828801614e9f565b925092505092959194509250565b60008060408385031215614f8057614f7f613f29565b5b6000614f8e85828601614458565b9250506020614f9f85828601614039565b9150509250929050565b600080600080600060a08688031215614fc557614fc4613f29565b5b6000614fd388828901614458565b9550506020614fe488828901614458565b9450506040614ff588828901614039565b935050606061500688828901614039565b925050608086013567ffffffffffffffff81111561502757615026613f2e565b5b615033888289016141ff565b9150509295509295909350565b60006020828403121561505657615055613f29565b5b600061506484828501614458565b91505092915050565b6000819050919050565b600061509261508d6150888461440f565b61506d565b61440f565b9050919050565b60006150a482615077565b9050919050565b60006150b682615099565b9050919050565b6150c6816150ab565b82525050565b60006020820190506150e160008301846150bd565b92915050565b600081905092915050565b60006150fe83856150e7565b935061510b8385846141ae565b82840190509392505050565b60006151248284866150f2565b91508190509392505050565b6151398161404e565b82525050565b600060a082019050615154600083018861483c565b6151616020830187613ff8565b61516e6040830186615130565b61517b606083018561483c565b615188608083018461483c565b9695505050505050565b7f476f7665726e6f723a206f6e6c79476f7665726e616e63650000000000000000600082015250565b60006151c8601883614379565b91506151d382615192565b602082019050919050565b600060208201905081810360008301526151f7816151bb565b9050919050565b7f4e487b7100000000000000000000000000000000000000000000000000000000600052602260045260246000fd5b6000600282049050600182168061524557607f821691505b602082108103615258576152576151fe565b5b50919050565b7f476f7665726e6f723a2070726f706f73616c206e6f742073756363657373667560008201527f6c00000000000000000000000000000000000000000000000000000000000000602082015250565b60006152ba602183614379565b91506152c58261525e565b604082019050919050565b600060208201905081810360008301526152e9816152ad565b9050919050565b6000815190506152ff81614022565b92915050565b60006020828403121561531b5761531a613f29565b5b6000615329848285016152f0565b91505092915050565b600081519050919050565b600082825260208201905092915050565b6000819050602082019050919050565b6153678161442f565b82525050565b6000615379838361535e565b60208301905092915050565b6000602082019050919050565b600061539d82615332565b6153a7818561533d565b93506153b28361534e565b8060005b838110156153e35781516153ca888261536d565b97506153d583615385565b9250506001810190506153b6565b5085935050505092915050565b600081519050919050565b600082825260208201905092915050565b6000819050602082019050919050565b61542581613fee565b82525050565b6000615437838361541c565b60208301905092915050565b6000602082019050919050565b600061545b826153f0565b61546581856153fb565b93506154708361540c565b8060005b838110156154a1578151615488888261542b565b975061549383615443565b925050600181019050615474565b5085935050505092915050565b600081519050919050565b600082825260208201905092915050565b6000819050602082019050919050565b600081519050919050565b600082825260208201905092915050565b6000615501826154da565b61550b81856154e5565b935061551b81856020860161438a565b615524816140f1565b840191505092915050565b600061553b83836154f6565b905092915050565b6000602082019050919050565b600061555b826154ae565b61556581856154b9565b935083602082028501615577856154ca565b8060005b858110156155b35784840389528151615594858261552f565b945061559f83615543565b925060208a0199505060018101905061557b565b50829750879550505050505092915050565b6000819050919050565b60008160001b9050919050565b60006155f76155f26155ed846155c5565b6155cf565b61422d565b9050919050565b615607816155dc565b82525050565b600060a08201905081810360008301526156278188615392565b9050818103602083015261563b8187615450565b9050818103604083015261564f8186615550565b905061565e60608301856155fe565b61566b608083018461483c565b9695505050505050565b60008151905061568481614237565b92915050565b6000602082840312156156a05761569f613f29565b5b60006156ae84828501615675565b91505092915050565b600060c08201905081810360008301526156d18189615392565b905081810360208301526156e58188615450565b905081810360408301526156f98187615550565b905061570860608301866155fe565b615715608083018561483c565b61572260a0830184613ff8565b979650505050505050565b7f4e487b7100000000000000000000000000000000000000000000000000000000600052601160045260246000fd5b600061576782613fee565b915061577283613fee565b925082820190508082111561578a5761578961572d565b5b92915050565b60006040820190506157a56000830185613ff8565b6157b26020830184613ff8565b9392505050565b60006060820190506157ce600083018661483c565b6157db6020830185613ff8565b6157e86040830184615130565b949350505050565b60006157fb82613fee565b915061580683613fee565b925082820390508181111561581e5761581d61572d565b5b92915050565b7f4e487b7100000000000000000000000000000000000000000000000000000000600052603260045260246000fd5b6000608082019050818103600083015261586d8187615392565b905081810360208301526158818186615450565b905081810360408301526158958185615550565b90506158a4606083018461483c565b95945050505050565b7f4f776e61626c653a206e6577206f776e657220697320746865207a65726f206160008201527f6464726573730000000000000000000000000000000000000000000000000000602082015250565b6000615909602683614379565b9150615914826158ad565b604082019050919050565b60006020820190508181036000830152615938816158fc565b9050919050565b7f476f7665726e6f723a20766f7465206e6f742063757272656e746c792061637460008201527f6976650000000000000000000000000000000000000000000000000000000000602082015250565b600061599b602383614379565b91506159a68261593f565b604082019050919050565b600060208201905081810360008301526159ca8161598e565b9050919050565b60006080820190506159e66000830187613ff8565b6159f36020830186615130565b615a006040830185613ff8565b8181036060830152615a1281846143b4565b905095945050505050565b600082825260208201905092915050565b6000615a39826154da565b615a438185615a1d565b9350615a5381856020860161438a565b615a5c816140f1565b840191505092915050565b600060a082019050615a7c6000830188613ff8565b615a896020830187615130565b615a966040830186613ff8565b8181036060830152615aa881856143b4565b90508181036080830152615abc8184615a2e565b90509695505050505050565b7f476f7665726e6f72566f74657351756f72756d4672616374696f6e3a2071756f60008201527f72756d4e756d657261746f72206f7665722071756f72756d44656e6f6d696e6160208201527f746f720000000000000000000000000000000000000000000000000000000000604082015250565b6000615b4a604383614379565b9150615b5582615ac8565b606082019050919050565b60006020820190508181036000830152615b7981615b3d565b9050919050565b6000615b8b82613fee565b91507fffffffffffffffffffffffffffffffffffffffffffffffffffffffffffffffff8203615bbd57615bbc61572d565b5b600182019050919050565b615bd181613fb8565b8114615bdc57600080fd5b50565b600081519050615bee81615bc8565b92915050565b600060208284031215615c0a57615c09613f29565b5b6000615c1884828501615bdf565b91505092915050565b7f436865636b706f696e74733a20626c6f636b206e6f7420796574206d696e6564600082015250565b6000615c57602083614379565b9150615c6282615c21565b602082019050919050565b60006020820190508181036000830152615c8681615c4a565b9050919050565b7f4f776e61626c653a2063616c6c6572206973206e6f7420746865206f776e6572600082015250565b6000615cc3602083614379565b9150615cce82615c8d565b602082019050919050565b60006020820190508181036000830152615cf281615cb6565b9050919050565b7f476f7665726e6f723a2070726f706f73657220766f7465732062656c6f77207060008201527f726f706f73616c207468726573686f6c64000000000000000000000000000000602082015250565b6000615d55603183614379565b9150615d6082615cf9565b604082019050919050565b60006020820190508181036000830152615d8481615d48565b9050919050565b7f476f7665726e6f723a20696e76616c69642070726f706f73616c206c656e677460008201527f6800000000000000000000000000000000000000000000000000000000000000602082015250565b6000615de7602183614379565b9150615df282615d8b565b604082019050919050565b60006020820190508181036000830152615e1681615dda565b9050919050565b7f476f7665726e6f723a20656d7074792070726f706f73616c0000000000000000600082015250565b6000615e53601883614379565b9150615e5e82615e1d565b602082019050919050565b60006020820190508181036000830152615e8281615e46565b9050919050565b7f476f7665726e6f723a2070726f706f73616c20616c726561647920657869737460008201527f7300000000000000000000000000000000000000000000000000000000000000602082015250565b6000615ee5602183614379565b9150615ef082615e89565b604082019050919050565b60006020820190508181036000830152615f1481615ed8565b9050919050565b600067ffffffffffffffff82169050919050565b6000615f3a82615f1b565b9150615f4583615f1b565b9250828201905067ffffffffffffffff811115615f6557615f6461572d565b5b92915050565b600081519050919050565b600082825260208201905092915050565b6000819050602082019050919050565b600082825260208201905092915050565b6000615fb38261436e565b615fbd8185615f97565b9350615fcd81856020860161438a565b615fd6816140f1565b840191505092915050565b6000615fed8383615fa8565b905092915050565b6000602082019050919050565b600061600d82615f6b565b6160178185615f76565b93508360208202850161602985615f87565b8060005b8581101561606557848403895281516160468582615fe1565b945061605183615ff5565b925060208a0199505060018101905061602d565b50829750879550505050505092915050565b600061609261608d61608884615f1b565b61506d565b613fee565b9050919050565b6160a281616077565b82525050565b6000610120820190506160be600083018c613ff8565b6160cb602083018b614cba565b81810360408301526160dd818a615392565b905081810360608301526160f18189615450565b905081810360808301526161058188616002565b905081810360a08301526161198187615550565b905061612860c0830186616099565b61613560e0830185616099565b81810361010083015261614881846143b4565b90509a9950505050505050505050565b600060408201905061616d6000830185614cba565b61617a6020830184613ff8565b9392505050565b60006040820190506161966000830185614cba565b6161a36020830184614cba565b9392505050565b60006161b582613fee565b91506161c083613fee565b92508282026161ce81613fee565b915082820484148315176161e5576161e461572d565b5b5092915050565b7f4e487b7100000000000000000000000000000000000000000000000000000000600052601260045260246000fd5b600061622682613fee565b915061623183613fee565b925082616241576162406161ec565b5b828204905092915050565b600081905092915050565b7f1901000000000000000000000000000000000000000000000000000000000000600082015250565b600061628d60028361624c565b915061629882616257565b600282019050919050565b6000819050919050565b6162be6162b98261422d565b6162a3565b82525050565b60006162cf82616280565b91506162db82856162ad565b6020820191506162eb82846162ad565b6020820191508190509392505050565b6000608082019050616310600083018761483c565b61631d6020830186615130565b61632a604083018561483c565b616337606083018461483c565b95945050505050565b7f45434453413a20696e76616c6964207369676e61747572650000000000000000600082015250565b6000616376601883614379565b915061638182616340565b602082019050919050565b600060208201905081810360008301526163a581616369565b9050919050565b7f45434453413a20696e76616c6964207369676e6174757265206c656e67746800600082015250565b60006163e2601f83614379565b91506163ed826163ac565b602082019050919050565b60006020820190508181036000830152616411816163d5565b9050919050565b7f45434453413a20696e76616c6964207369676e6174757265202773272076616c60008201527f7565000000000000000000000000000000000000000000000000000000000000602082015250565b6000616474602283614379565b915061647f82616418565b604082019050919050565b600060208201905081810360008301526164a381616467565b9050919050565b7f476f7665726e6f72566f74696e6753696d706c653a20766f746520616c72656160008201527f6479206361737400000000000000000000000000000000000000000000000000602082015250565b6000616506602783614379565b9150616511826164aa565b604082019050919050565b60006020820190508181036000830152616535816164f9565b9050919050565b7f476f7665726e6f72566f74696e6753696d706c653a20696e76616c696420766160008201527f6c756520666f7220656e756d20566f7465547970650000000000000000000000602082015250565b6000616598603583614379565b91506165a38261653c565b604082019050919050565b600060208201905081810360008301526165c78161658b565b9050919050565b7f53616665436173743a2076616c756520646f65736e27742066697420696e203260008201527f3234206269747300000000000000000000000000000000000000000000000000602082015250565b600061662a602783614379565b9150616635826165ce565b604082019050919050565b600060208201905081810360008301526166598161661d565b9050919050565b7f476f7665726e6f723a20756e6b6e6f776e2070726f706f73616c206964000000600082015250565b6000616696601d83614379565b91506166a182616660565b602082019050919050565b600060208201905081810360008301526166c581616689565b9050919050565b7f53616665436173743a2076616c756520646f65736e27742066697420696e203360008201527f3220626974730000000000000000000000000000000000000000000000000000602082015250565b6000616728602683614379565b9150616733826166cc565b604082019050919050565b600060208201905081810360008301526167578161671b565b9050919050565b7f53616665436173743a2076616c756520646f65736e27742066697420696e203660008201527f3420626974730000000000000000000000000000000000000000000000000000602082015250565b60006167ba602683614379565b91506167c58261675e565b604082019050919050565b600060208201905081810360008301526167e9816167ad565b9050919050565b600060a082019050616805600083018861483c565b616812602083018761483c565b61681f604083018661483c565b61682c6060830185613ff8565b6168396080830184614cba565b9695505050505050565b7f436865636b706f696e743a20696e76616c6964206b6579000000000000000000600082015250565b6000616879601783614379565b915061688482616843565b602082019050919050565b600060208201905081810360008301526168a88161686c565b905091905056fe476f7665726e6f723a2072656c617920726576657274656420776974686f7574206d657373616765a2646970667358221220326e5dde22793383f60e0210f53a07021ecedc402954a41d8f8ae9e54f4d6bbf64736f6c63430008130033a2646970667358221220c0a467b9f45af1957dfae41d25a9bac0830617a66b3128a08ac60e8582f6f62e64736f6c63430008130033",
  "immutableReferences": {},
  "source": "// SPDX-License-Identifier: MIT\npragma solidity ^0.8.0;\n\nimport \"./ERC20Token.sol\";\nimport \"./SimpliGovernor.sol\";\nimport \"../node_modules/@openzeppelin/contracts/governance/TimelockController.sol\";\n\ncontract SimpliFactory2 {\n    event GovernorCreated(address indexed governorAddress);\n\n    function createGovernor(\n        ERC20Token tokenAddr,\n        TimelockController timelockAddr\n    ) external returns (address) {\n        SimpliGovernor governor = new SimpliGovernor(tokenAddr, timelockAddr);\n        emit GovernorCreated(address(governor));\n        return address(governor);\n    }\n}\n",
  "sourcePath": "/Users/abhinil/Desktop/simpliDAO/smart-contracts/contracts/SimpliFactory2.sol",
  "compiler": {
    "name": "solc",
    "version": "0.8.19+commit.7dd6d404.Emscripten.clang"
  },
  "schemaVersion": "3.4.13",
  "updatedAt": "2023-03-13T00:32:37.645Z",
  "devdoc": {
    "kind": "dev",
    "methods": {},
    "version": 1
  },
  "userdoc": {
    "kind": "user",
    "methods": {},
    "version": 1
  }
}